{
  "_format": "hh-sol-artifact-1",
  "contractName": "SmartWallet",
  "sourceName": "contracts/core/SmartWallet.sol",
  "abi": [
    {
      "inputs": [],
      "name": "InvalidInitialization",
      "type": "error"
    },
    {
      "inputs": [],
      "name": "NotInitializing",
      "type": "error"
    },
    {
      "inputs": [
        {
          "internalType": "address",
          "name": "owner",
          "type": "address"
        }
      ],
      "name": "OwnableInvalidOwner",
      "type": "error"
    },
    {
      "inputs": [
        {
          "internalType": "address",
          "name": "account",
          "type": "address"
        }
      ],
      "name": "OwnableUnauthorizedAccount",
      "type": "error"
    },
    {
      "inputs": [],
      "name": "ReentrancyGuardReentrantCall",
      "type": "error"
    },
    {
      "anonymous": false,
      "inputs": [
        {
          "indexed": false,
          "internalType": "uint64",
          "name": "version",
          "type": "uint64"
        }
      ],
      "name": "Initialized",
      "type": "event"
    },
    {
      "anonymous": false,
      "inputs": [
        {
          "indexed": true,
          "internalType": "address",
          "name": "previousOwner",
          "type": "address"
        },
        {
          "indexed": true,
          "internalType": "address",
          "name": "newOwner",
          "type": "address"
        }
      ],
      "name": "OwnershipTransferred",
      "type": "event"
    },
    {
      "inputs": [
        {
          "internalType": "bytes",
          "name": "encoded",
          "type": "bytes"
        }
      ],
      "name": "_parseTransferCommon",
      "outputs": [
        {
          "components": [
            {
              "internalType": "uint8",
              "name": "payloadID",
              "type": "uint8"
            },
            {
              "internalType": "uint256",
              "name": "amount",
              "type": "uint256"
            },
            {
              "internalType": "bytes32",
              "name": "tokenAddress",
              "type": "bytes32"
            },
            {
              "internalType": "uint16",
              "name": "tokenChain",
              "type": "uint16"
            },
            {
              "internalType": "bytes32",
              "name": "to",
              "type": "bytes32"
            },
            {
              "internalType": "uint16",
              "name": "toChain",
              "type": "uint16"
            },
            {
              "internalType": "uint256",
              "name": "fee",
              "type": "uint256"
            }
          ],
          "internalType": "struct BridgeStructs.Transfer",
          "name": "transfer",
          "type": "tuple"
        }
      ],
      "stateMutability": "pure",
      "type": "function"
    },
    {
      "inputs": [],
      "name": "acceptAdminRole",
      "outputs": [],
      "stateMutability": "nonpayable",
      "type": "function"
    },
    {
      "inputs": [],
      "name": "agent",
      "outputs": [
        {
          "internalType": "address",
          "name": "",
          "type": "address"
        }
      ],
      "stateMutability": "view",
      "type": "function"
    },
    {
      "inputs": [
        {
          "internalType": "address",
          "name": "new_agent",
          "type": "address"
        }
      ],
      "name": "changeAgent",
      "outputs": [],
      "stateMutability": "nonpayable",
      "type": "function"
    },
    {
      "inputs": [],
      "name": "factory",
      "outputs": [
        {
          "internalType": "contract ISmartWalletFactory",
          "name": "",
          "type": "address"
        }
      ],
      "stateMutability": "view",
      "type": "function"
    },
    {
      "inputs": [
        {
          "internalType": "address",
          "name": "owner_",
          "type": "address"
        },
        {
          "internalType": "address",
          "name": "agent_",
          "type": "address"
        },
        {
          "internalType": "address",
          "name": "factory_",
          "type": "address"
        },
        {
          "internalType": "bytes32",
          "name": "user_",
          "type": "bytes32"
        },
        {
          "internalType": "address",
          "name": "wormhole_",
          "type": "address"
        },
        {
          "internalType": "address",
          "name": "tokenBridge_",
          "type": "address"
        },
        {
          "internalType": "address",
          "name": "weth_",
          "type": "address"
        },
        {
          "internalType": "uint16",
          "name": "chainId_",
          "type": "uint16"
        }
      ],
      "name": "initialize",
      "outputs": [],
      "stateMutability": "nonpayable",
      "type": "function"
    },
    {
      "inputs": [
        {
          "internalType": "uint64",
          "name": "",
          "type": "uint64"
        }
      ],
      "name": "isReceive",
      "outputs": [
        {
          "internalType": "bool",
          "name": "",
          "type": "bool"
        }
      ],
      "stateMutability": "view",
      "type": "function"
    },
    {
      "inputs": [],
      "name": "owner",
      "outputs": [
        {
          "internalType": "address",
          "name": "",
          "type": "address"
        }
      ],
      "stateMutability": "view",
      "type": "function"
    },
    {
      "inputs": [
        {
          "internalType": "bytes",
          "name": "encoded",
          "type": "bytes"
        }
      ],
      "name": "parsePayloadID",
      "outputs": [
        {
          "internalType": "uint8",
          "name": "payloadID",
          "type": "uint8"
        }
      ],
      "stateMutability": "pure",
      "type": "function"
    },
    {
      "inputs": [
        {
          "internalType": "bytes",
          "name": "encoded",
          "type": "bytes"
        }
      ],
      "name": "parseTransfer",
      "outputs": [
        {
          "components": [
            {
              "internalType": "uint8",
              "name": "payloadID",
              "type": "uint8"
            },
            {
              "internalType": "uint256",
              "name": "amount",
              "type": "uint256"
            },
            {
              "internalType": "bytes32",
              "name": "tokenAddress",
              "type": "bytes32"
            },
            {
              "internalType": "uint16",
              "name": "tokenChain",
              "type": "uint16"
            },
            {
              "internalType": "bytes32",
              "name": "to",
              "type": "bytes32"
            },
            {
              "internalType": "uint16",
              "name": "toChain",
              "type": "uint16"
            },
            {
              "internalType": "uint256",
              "name": "fee",
              "type": "uint256"
            }
          ],
          "internalType": "struct BridgeStructs.Transfer",
          "name": "transfer",
          "type": "tuple"
        }
      ],
      "stateMutability": "pure",
      "type": "function"
    },
    {
      "inputs": [
        {
          "internalType": "bytes",
          "name": "encoded",
          "type": "bytes"
        }
      ],
      "name": "parseTransferWithPayload",
      "outputs": [
        {
          "components": [
            {
              "internalType": "uint8",
              "name": "payloadID",
              "type": "uint8"
            },
            {
              "internalType": "uint256",
              "name": "amount",
              "type": "uint256"
            },
            {
              "internalType": "bytes32",
              "name": "tokenAddress",
              "type": "bytes32"
            },
            {
              "internalType": "uint16",
              "name": "tokenChain",
              "type": "uint16"
            },
            {
              "internalType": "bytes32",
              "name": "to",
              "type": "bytes32"
            },
            {
              "internalType": "uint16",
              "name": "toChain",
              "type": "uint16"
            },
            {
              "internalType": "bytes32",
              "name": "fromAddress",
              "type": "bytes32"
            },
            {
              "internalType": "bytes",
              "name": "payload",
              "type": "bytes"
            }
          ],
          "internalType": "struct BridgeStructs.TransferWithPayload",
          "name": "transfer",
          "type": "tuple"
        }
      ],
      "stateMutability": "pure",
      "type": "function"
    },
    {
      "inputs": [],
      "name": "pendingAdmin",
      "outputs": [
        {
          "internalType": "address",
          "name": "",
          "type": "address"
        }
      ],
      "stateMutability": "view",
      "type": "function"
    },
    {
      "inputs": [
        {
          "internalType": "address",
          "name": "new_admin",
          "type": "address"
        }
      ],
      "name": "proposeNewAdmin",
      "outputs": [],
      "stateMutability": "nonpayable",
      "type": "function"
    },
    {
      "inputs": [
        {
          "internalType": "bytes",
          "name": "encodedVm",
          "type": "bytes"
        }
      ],
      "name": "receiveMessage",
      "outputs": [],
      "stateMutability": "nonpayable",
      "type": "function"
    },
    {
      "inputs": [],
      "name": "renounceOwnership",
      "outputs": [],
      "stateMutability": "nonpayable",
      "type": "function"
    },
    {
      "inputs": [
        {
          "internalType": "uint64",
          "name": "",
          "type": "uint64"
        }
      ],
      "name": "requestPosition",
      "outputs": [
        {
          "internalType": "uint256",
          "name": "",
          "type": "uint256"
        }
      ],
      "stateMutability": "view",
      "type": "function"
    },
    {
      "inputs": [],
      "name": "tokenBridge",
      "outputs": [
        {
          "internalType": "contract ITokenBridge",
          "name": "",
          "type": "address"
        }
      ],
      "stateMutability": "view",
      "type": "function"
    },
    {
      "inputs": [
        {
          "internalType": "address",
          "name": "newOwner",
          "type": "address"
        }
      ],
      "name": "transferOwnership",
      "outputs": [],
      "stateMutability": "nonpayable",
      "type": "function"
    },
    {
      "inputs": [
        {
          "internalType": "uint256",
          "name": "",
          "type": "uint256"
        }
      ],
      "name": "transferRequest",
      "outputs": [
        {
          "internalType": "address",
          "name": "recipient",
          "type": "address"
        },
        {
          "internalType": "address",
          "name": "token",
          "type": "address"
        },
        {
          "internalType": "uint256",
          "name": "amount",
          "type": "uint256"
        },
        {
          "internalType": "uint64",
          "name": "sequence",
          "type": "uint64"
        }
      ],
      "stateMutability": "view",
      "type": "function"
    },
    {
      "inputs": [
        {
          "internalType": "address",
          "name": "token",
          "type": "address"
        },
        {
          "internalType": "uint256",
          "name": "amount",
          "type": "uint256"
        },
        {
          "internalType": "uint256",
          "name": "arbiterFee",
          "type": "uint256"
        },
        {
          "internalType": "uint32",
          "name": "nonce",
          "type": "uint32"
        }
      ],
      "name": "transferTokenBackToSmartWallet",
      "outputs": [
        {
          "internalType": "uint64",
          "name": "",
          "type": "uint64"
        }
      ],
      "stateMutability": "nonpayable",
      "type": "function"
    },
    {
      "inputs": [],
      "name": "user",
      "outputs": [
        {
          "internalType": "bytes32",
          "name": "",
          "type": "bytes32"
        }
      ],
      "stateMutability": "view",
      "type": "function"
    },
    {
      "inputs": [],
      "name": "weth",
      "outputs": [
        {
          "internalType": "contract IWETH",
          "name": "",
          "type": "address"
        }
      ],
      "stateMutability": "view",
      "type": "function"
    },
    {
      "inputs": [],
      "name": "wormhole",
      "outputs": [
        {
          "internalType": "contract IWormhole",
          "name": "",
          "type": "address"
        }
      ],
      "stateMutability": "view",
      "type": "function"
    }
  ],
  "bytecode": "0x6080604052348015600f57600080fd5b506122b18061001f6000396000f3fe608060405234801561001057600080fd5b506004361061011d5760003560e01c80630f50900814610122578063267822471461014c5780632b5113751461016c5780633fc8cef3146101e05780634f8632ba146101f357806357f032e71461020a5780636264136e1461021f578063715018a6146102665780637544776b1461026e57806384acd1bb1461028e5780638c3d7301146102a15780638da5cb5b146102a957806392f70709146102b1578063a6376746146102d1578063b1a88408146102e4578063c45a015514610317578063c6328a461461032a578063cbd83a191461033d578063e89bc40114610350578063ea63738d14610363578063f2fde38b14610383578063f5ff5c7614610396578063f953cec7146103a9575b600080fd5b610135610130366004611b3e565b6103bc565b60405160ff90911681526020015b60405180910390f35b60025461015f906001600160a01b031681565b6040516101439190611bbd565b61017f61017a366004611b3e565b6103ce565b6040516101439190600060e08201905060ff8351168252602083015160208301526040830151604083015261ffff60608401511660608301526080830151608083015261ffff60a08401511660a083015260c083015160c083015292915050565b60065461015f906001600160a01b031681565b6101fc60005481565b604051908152602001610143565b61021d610218366004611bed565b6104fd565b005b61023261022d366004611c0f565b610527565b604080516001600160a01b039586168152949093166020850152918301526001600160401b03166060820152608001610143565b61021d610576565b6101fc61027c366004611c3d565b60086020526000908152604090205481565b60045461015f906001600160a01b031681565b61021d61058a565b61015f6105db565b6102c46102bf366004611c6c565b6105f6565b6040516101439190611cb4565b61021d6102df366004611bed565b6107ea565b6103076102f2366004611c3d565b60076020526000908152604090205460ff1681565b6040519015158152602001610143565b60035461015f906001600160a01b031681565b60055461015f906001600160a01b031681565b61021d61034b366004611cd8565b610814565b61017f61035e366004611b3e565b610a1f565b610376610371366004611b3e565b610aef565b6040516101439190611dbc565b61021d610391366004611bed565b610c49565b60015461015f906001600160a01b031681565b61021d6103b7366004611b3e565b610c87565b60006103c88282610d8a565b92915050565b6103d6611a4a565b60006103e28382610d8a565b60ff1682526103f2600182611e50565b9050816000015160ff166001146104245760405162461bcd60e51b815260040161041b90611e63565b60405180910390fd5b61042e8382610dea565b6020808401919091526104419082611e50565b905061044d8382610e4d565b604083015261045d602082611e50565b90506104698382610ea6565b61ffff16606083015261047d600282611e50565b90506104898382610e4d565b6080830152610499602082611e50565b90506104a58382610ea6565b61ffff1660a08301526104b9600282611e50565b90506104c58382610dea565b60c08301526104d5602082611e50565b9050808351146104f75760405162461bcd60e51b815260040161041b90611e63565b50919050565b610505610efe565b600180546001600160a01b0319166001600160a01b0392909216919091179055565b6009818154811061053757600080fd5b600091825260209091206004909102018054600182015460028301546003909301546001600160a01b039283169450911691906001600160401b031684565b61057e610efe565b6105886000610f30565b565b6002546001600160a01b031633146105b45760405162461bcd60e51b815260040161041b90611e8d565b6002546105c9906001600160a01b0316610f30565b600280546001600160a01b0319169055565b6000806105e6610f8c565b546001600160a01b031692915050565b60006106006105db565b6001600160a01b0316336001600160a01b0316148061062957506001546001600160a01b031633145b6106455760405162461bcd60e51b815260040161041b90611e8d565b6000600460009054906101000a90046001600160a01b03166001600160a01b0316631a90a2196040518163ffffffff1660e01b8152600401602060405180830381865afa15801561069a573d6000803e3d6000fd5b505050506040513d601f19601f820116820180604052508101906106be9190611eb6565b60055460405163095ea7b360e01b81529192506001600160a01b038089169263095ea7b3926106f39216908990600401611ecf565b6020604051808303816000875af1158015610712573d6000803e3d6000fd5b505050506040513d601f19601f820116820180604052508101906107369190611ef8565b5060055460065460005460405162f5287b60e41b81526001600160a01b038a81166004830152602482018a9052600160a01b90930461ffff16604482015260648101919091526084810187905263ffffffff861660a4820152911690630f5287b090839060c40160206040518083038185885af11580156107bb573d6000803e3d6000fd5b50505050506040513d601f19601f820116820180604052508101906107e09190611f1e565b9695505050505050565b6107f2610efe565b600280546001600160a01b0319166001600160a01b0392909216919091179055565b600061081e610fb0565b805490915060ff600160401b82041615906001600160401b03166000811580156108455750825b90506000826001600160401b031660011480156108615750303b155b90508115801561086f575080155b1561088d5760405163f92ee8a960e01b815260040160405180910390fd5b84546001600160401b031916600117855583156108b657845460ff60401b1916600160401b1785555b6001600160a01b038d166108fd5760405162461bcd60e51b815260206004820152600e60248201526d6f776e6572206973207a65726f2160901b604482015260640161041b565b6001600160a01b038c166109435760405162461bcd60e51b815260206004820152600d60248201526c6167656e74206973207a65726f60981b604482015260640161041b565b61094b610fd9565b6109548d610f30565b600180546001600160a01b03199081166001600160a01b038f81169190911790925560008c90556003805482168e84161790556004805482168c8416179055600580549091168a8316179055600680549189166001600160b01b031990921691909117600160a01b61ffff8916021790558315610a1057845460ff60401b191685556040517fc7f505b2f371ae2175ee4913f4499e1f2633a7b5936321eed1cdaeb6115181d290610a0790600190611cb4565b60405180910390a15b50505050505050505050505050565b610a27611a4a565b6000610a32836103bc565b90508060ff16600103610a4f57610a48836103ce565b91506104f7565b8060ff16600303610ab2576000610a6584610aef565b60038452602080820151908501526040808201519085015260608082015161ffff908116918601919091526080808301519086015260a091820151169084015250600060c08301526104f7565b60405162461bcd60e51b8152602060048201526012602482015271125b9d985b1a59081c185e5b1bd859081a5960721b604482015260640161041b565b604080516101008101825260008082526020820181905291810182905260608082018390526080820183905260a0820183905260c0820183905260e082015290610b398382610d8a565b60ff168252610b49600182611e50565b9050816000015160ff16600314610b725760405162461bcd60e51b815260040161041b90611e63565b610b7c8382610dea565b602080840191909152610b8f9082611e50565b9050610b9b8382610e4d565b6040830152610bab602082611e50565b9050610bb78382610ea6565b61ffff166060830152610bcb600282611e50565b9050610bd78382610e4d565b6080830152610be7602082611e50565b9050610bf38382610ea6565b61ffff1660a0830152610c07600282611e50565b9050610c138382610e4d565b60c0830152610c23602082611e50565b9050610c3e81828551610c369190611f3b565b859190610fe9565b60e083015250919050565b610c51610efe565b6001600160a01b038116610c7b576000604051631e4fbdf760e01b815260040161041b9190611bbd565b610c8481610f30565b50565b610c8f6105db565b6001600160a01b0316336001600160a01b03161480610cb857506001546001600160a01b031633145b610cd45760405162461bcd60e51b815260040161041b90611e8d565b6004805460405163607ec5ef60e11b8152600092839283926001600160a01b039091169163c0fd8bde91610d0a91889101611f4e565b600060405180830381865afa158015610d27573d6000803e3d6000fd5b505050506040513d6000823e601f3d908101601f19168201604052610d4f91908101906120a2565b925092509250818190610d755760405162461bcd60e51b815260040161041b9190611f4e565b50610d848360e00151856110de565b50505050565b600081835111610dd25760405162461bcd60e51b8152602060048201526013602482015272746f55696e74385f6f75744f66426f756e647360681b604482015260640161041b565b6000610ddf600184611e50565b909301519392505050565b600080610df8602084611e50565b90508084511015610e435760405162461bcd60e51b8152602060048201526015602482015274746f55696e743235365f6f75744f66426f756e647360581b604482015260640161041b565b9092015192915050565b600080610e5b602084611e50565b90508084511015610e435760405162461bcd60e51b8152602060048201526015602482015274746f427974657333325f6f75744f66426f756e647360581b604482015260640161041b565b600080610eb4600284611e50565b90508084511015610e435760405162461bcd60e51b8152602060048201526014602482015273746f55696e7431365f6f75744f66426f756e647360601b604482015260640161041b565b33610f076105db565b6001600160a01b031614610588573360405163118cdaa760e01b815260040161041b9190611bbd565b6000610f3a610f8c565b80546001600160a01b038481166001600160a01b031983168117845560405193945091169182907f8be0079c531659141344cd1fd0a4f28419497f9722a3daafe3b4186f6b6457e090600090a3505050565b7f9016d09d72d40fdae2fd8ceac6b6234c7706214fd39c1cd1e609a0528c19930090565b6000807ff0c57e16840df040f15088dc2f81fe391c3923bec73e23a9662efc9c229c6a006103c8565b610fe1611144565b610588611169565b60608182601f01101561102f5760405162461bcd60e51b815260206004820152600e60248201526d736c6963655f6f766572666c6f7760901b604482015260640161041b565b6110398284611e50565b8451101561107d5760405162461bcd60e51b8152602060048201526011602482015270736c6963655f6f75744f66426f756e647360781b604482015260640161041b565b6040518215801561109457602082016040526110d3565b601f841680156020028101905080830185810187838a01015b818310156110c55780518352602092830192016110ad565b5050601f01601f1916604052505b509182525092915050565b6000806110eb8482610d8a565b90506110f8600183611e50565b91508060ff166001148061110f57508060ff166003145b156111225761111d83611197565b610d84565b610d8461113f83600187516111379190611f3b565b879190610fe9565b6113a9565b61114c61166a565b61058857604051631afcd79f60e31b815260040160405180910390fd5b611171611144565b60017f9b779b17422d0df92223018b32b4d1fa46e071723d6817e2486d003becc55f0055565b6004805460405163607ec5ef60e11b81526000926001600160a01b039092169163c0fd8bde916111c991869101611f4e565b600060405180830381865afa1580156111e6573d6000803e3d6000fd5b505050506040513d6000823e601f3d908101601f1916820160405261120e91908101906120a2565b5050905060006112218260e00151610a1f565b905060006112328260800151611684565b90506001600160a01b038116301461125c5760405162461bcd60e51b815260040161041b9061220b565b60a08301516001600160401b031660009081526007602052604090819020805460ff19166001179055600554905163c687851960e01b81526001600160a01b039091169063c6878519906112b4908790600401611f4e565b600060405180830381600087803b1580156112ce57600080fd5b505af11580156112e2573d6000803e3d6000fd5b5050505060a08301516001600160401b031660009081526008602052604090205415610d845760a08301516001600160401b03166000908152600860205260409020546009805461139991908390811061133e5761133e61224f565b600091825260209182902060408051608081018252600490930290910180546001600160a01b039081168452600182015416938301939093526002830154908201526003909101546001600160401b031660608201526116d8565b6113a281611758565b5050505050565b80516040146113f15760405162461bcd60e51b815260206004820152601460248201527315dc9bdb99c81b595cdcd859d948199bdc9b585d60621b604482015260640161041b565b6000806113fe8382611938565b905061140b601483611e50565b915060006114198484611938565b9050611426601484611e50565b925060006114348585611999565b6001600160801b0316905061144a601085611e50565b9350600061145886866119f2565b9050611465600886611e50565b945060006114738787611938565b90506001600160a01b038116301461149d5760405162461bcd60e51b815260040161041b9061220b565b6001600160401b03821660009081526007602052604090205460ff16156115355760405163a9059cbb60e01b81526001600160a01b0385169063a9059cbb906114ec9088908790600401611ecf565b6020604051808303816000875af115801561150b573d6000803e3d6000fd5b505050506040513d601f19601f8201168201806040525081019061152f9190611ef8565b50611661565b604080516080810182526001600160a01b03808816825286811660208084019182528385018881526001600160401b0380891660608701818152600980546001810182556000828152995160049091027f6e1540171b6c0c960b71a7020d9f60077f6af931a8bbf590da0223dacf75c7af81018054928b166001600160a01b031993841617905597517f6e1540171b6c0c960b71a7020d9f60077f6af931a8bbf590da0223dacf75c7b08901805491909a1691161790975592517f6e1540171b6c0c960b71a7020d9f60077f6af931a8bbf590da0223dacf75c7b186015591517f6e1540171b6c0c960b71a7020d9f60077f6af931a8bbf590da0223dacf75c7b29094018054949091166001600160401b03199094169390931790925591549083526008909152919020555b50505050505050565b6000611674610fb0565b54600160401b900460ff16919050565b60006001600160a01b03198216156116d45760405162461bcd60e51b8152602060048201526013602482015272696e76616c69642045564d206164647265737360681b604482015260640161041b565b5090565b60208101518151604080840151905163a9059cbb60e01b81526001600160a01b039093169263a9059cbb92611711929091600401611ecf565b6020604051808303816000875af1158015611730573d6000803e3d6000fd5b505050506040513d601f19601f820116820180604052508101906117549190611ef8565b5050565b60095460018190036117c457600980548061177557611775612265565b60008281526020812060046000199093019283020180546001600160a01b031990811682556001820180549091169055600281019190915560030180546001600160401b031916905590555050565b600060096117d3600184611f3b565b815481106117e3576117e361224f565b600091825260209182902060408051608081018252600490930290910180546001600160a01b039081168452600182015416938301939093526002830154908201526003909101546001600160401b03166060820152600980549192508291859081106118525761185261224f565b60009182526020808320845160049093020180546001600160a01b039384166001600160a01b031991821617825585830151600183018054919095169116179092556040808501516002840155606094850151600390930180546001600160401b039485166001600160401b0319909116179055938501519091168252600890522083905560098054806118e8576118e8612265565b60008281526020812060046000199093019283020180546001600160a01b031990811682556001820180549091169055600281019190915560030180546001600160401b03191690559055505050565b6000611945601483611e50565b8351101561198d5760405162461bcd60e51b8152602060048201526015602482015274746f416464726573735f6f75744f66426f756e647360581b604482015260640161041b565b50016020015160601c90565b6000806119a7601084611e50565b90508084511015610e435760405162461bcd60e51b8152602060048201526015602482015274746f55696e743132385f6f75744f66426f756e647360581b604482015260640161041b565b600080611a00600884611e50565b90508084511015610e435760405162461bcd60e51b8152602060048201526014602482015273746f55696e7436345f6f75744f66426f756e647360601b604482015260640161041b565b6040805160e081018252600080825260208201819052918101829052606081018290526080810182905260a0810182905260c081019190915290565b634e487b7160e01b600052604160045260246000fd5b604051608081016001600160401b0381118282101715611abe57611abe611a86565b60405290565b60405161016081016001600160401b0381118282101715611abe57611abe611a86565b604051601f8201601f191681016001600160401b0381118282101715611b0f57611b0f611a86565b604052919050565b60006001600160401b03821115611b3057611b30611a86565b50601f01601f191660200190565b600060208284031215611b5057600080fd5b81356001600160401b03811115611b6657600080fd5b8201601f81018413611b7757600080fd5b8035611b8a611b8582611b17565b611ae7565b818152856020838501011115611b9f57600080fd5b81602084016020830137600091810160200191909152949350505050565b6001600160a01b0391909116815260200190565b80356001600160a01b0381168114611be857600080fd5b919050565b600060208284031215611bff57600080fd5b611c0882611bd1565b9392505050565b600060208284031215611c2157600080fd5b5035919050565b6001600160401b0381168114610c8457600080fd5b600060208284031215611c4f57600080fd5b8135611c0881611c28565b63ffffffff81168114610c8457600080fd5b60008060008060808587031215611c8257600080fd5b611c8b85611bd1565b935060208501359250604085013591506060850135611ca981611c5a565b939692955090935050565b6001600160401b0391909116815260200190565b61ffff81168114610c8457600080fd5b600080600080600080600080610100898b031215611cf557600080fd5b611cfe89611bd1565b9750611d0c60208a01611bd1565b9650611d1a60408a01611bd1565b955060608901359450611d2f60808a01611bd1565b9350611d3d60a08a01611bd1565b9250611d4b60c08a01611bd1565b915060e0890135611d5b81611cc8565b809150509295985092959890939650565b60005b83811015611d87578181015183820152602001611d6f565b50506000910152565b60008151808452611da8816020860160208601611d6c565b601f01601f19169290920160200192915050565b6020815260ff8251166020820152602082015160408201526040820151606082015261ffff6060830151166080820152608082015160a0820152600060a0830151611e0d60c084018261ffff169052565b5060c083015160e083015260e083015161010080840152611e32610120840182611d90565b949350505050565b634e487b7160e01b600052601160045260246000fd5b808201808211156103c8576103c8611e3a565b60208082526010908201526f34b73b30b634b2102a3930b739b332b960811b604082015260600190565b6020808252600f908201526e4e6f7420417574686f72697a65642160881b604082015260600190565b600060208284031215611ec857600080fd5b5051919050565b6001600160a01b03929092168252602082015260400190565b80518015158114611be857600080fd5b600060208284031215611f0a57600080fd5b611c0882611ee8565b8051611be881611c28565b600060208284031215611f3057600080fd5b8151611c0881611c28565b818103818111156103c8576103c8611e3a565b602081526000611c086020830184611d90565b805160ff81168114611be857600080fd5b8051611be881611c5a565b8051611be881611cc8565b600082601f830112611f9957600080fd5b8151602083016000611fad611b8584611b17565b9050828152858383011115611fc157600080fd5b611fcf836020830184611d6c565b95945050505050565b600082601f830112611fe957600080fd5b81516001600160401b0381111561200257612002611a86565b61201160208260051b01611ae7565b8082825260208201915060208360071b86010192508583111561203357600080fd5b602085015b83811015612098576080818803121561205057600080fd5b612058611a9c565b815181526020808301519082015261207260408301611f61565b604082015261208360608301611f61565b60608201528352602090920191608001612038565b5095945050505050565b6000806000606084860312156120b757600080fd5b83516001600160401b038111156120cd57600080fd5b840161016081870312156120e057600080fd5b6120e8611ac4565b6120f182611f61565b81526120ff60208301611f72565b602082015261211060408301611f72565b604082015261212160608301611f7d565b60608201526080828101519082015261213c60a08301611f13565b60a082015261214d60c08301611f61565b60c082015260e08201516001600160401b0381111561216b57600080fd5b61217788828501611f88565b60e08301525061218a6101008301611f72565b6101008201526101208201516001600160401b038111156121aa57600080fd5b6121b688828501611fd8565b61012083015250610140918201519181019190915292506121d960208501611ee8565b60408501519092506001600160401b038111156121f557600080fd5b61220186828701611f88565b9150509250925092565b60208082526024908201527f54686973206d657373616765206973206e6f7420666f7220746869732077616c6040820152636c65742160e01b606082015260800190565b634e487b7160e01b600052603260045260246000fd5b634e487b7160e01b600052603160045260246000fdfea2646970667358221220bcc97dd45cbdd6b0083c189ad25cc43978ab2e0cf318a6ed5f559d4e204f07aa64736f6c634300081c0033",
  "linkReferences": {},
  "deployedLinkReferences": {}
}