{
  "_format": "hh-sol-artifact-1",
  "contractName": "SmartWallet",
  "sourceName": "contracts/core/SmartWallet.sol",
  "abi": [
    {
      "inputs": [],
      "name": "InvalidInitialization",
      "type": "error"
    },
    {
      "inputs": [],
      "name": "NotInitializing",
      "type": "error"
    },
    {
      "inputs": [
        {
          "internalType": "address",
          "name": "owner",
          "type": "address"
        }
      ],
      "name": "OwnableInvalidOwner",
      "type": "error"
    },
    {
      "inputs": [
        {
          "internalType": "address",
          "name": "account",
          "type": "address"
        }
      ],
      "name": "OwnableUnauthorizedAccount",
      "type": "error"
    },
    {
      "inputs": [],
      "name": "ReentrancyGuardReentrantCall",
      "type": "error"
    },
    {
      "anonymous": false,
      "inputs": [
        {
          "indexed": false,
          "internalType": "uint64",
          "name": "version",
          "type": "uint64"
        }
      ],
      "name": "Initialized",
      "type": "event"
    },
    {
      "anonymous": false,
      "inputs": [
        {
          "indexed": true,
          "internalType": "address",
          "name": "previousOwner",
          "type": "address"
        },
        {
          "indexed": true,
          "internalType": "address",
          "name": "newOwner",
          "type": "address"
        }
      ],
      "name": "OwnershipTransferred",
      "type": "event"
    },
    {
      "inputs": [
        {
          "internalType": "bytes",
          "name": "encoded",
          "type": "bytes"
        }
      ],
      "name": "_parseTransferCommon",
      "outputs": [
        {
          "components": [
            {
              "internalType": "uint8",
              "name": "payloadID",
              "type": "uint8"
            },
            {
              "internalType": "uint256",
              "name": "amount",
              "type": "uint256"
            },
            {
              "internalType": "bytes32",
              "name": "tokenAddress",
              "type": "bytes32"
            },
            {
              "internalType": "uint16",
              "name": "tokenChain",
              "type": "uint16"
            },
            {
              "internalType": "bytes32",
              "name": "to",
              "type": "bytes32"
            },
            {
              "internalType": "uint16",
              "name": "toChain",
              "type": "uint16"
            },
            {
              "internalType": "uint256",
              "name": "fee",
              "type": "uint256"
            }
          ],
          "internalType": "struct BridgeStructs.Transfer",
          "name": "transfer",
          "type": "tuple"
        },
        {
          "internalType": "bytes",
          "name": "payload",
          "type": "bytes"
        }
      ],
      "stateMutability": "pure",
      "type": "function"
    },
    {
      "inputs": [],
      "name": "acceptAdminRole",
      "outputs": [],
      "stateMutability": "nonpayable",
      "type": "function"
    },
    {
      "inputs": [],
      "name": "agent",
      "outputs": [
        {
          "internalType": "address",
          "name": "",
          "type": "address"
        }
      ],
      "stateMutability": "view",
      "type": "function"
    },
    {
      "inputs": [
        {
          "internalType": "address",
          "name": "new_agent",
          "type": "address"
        }
      ],
      "name": "changeAgent",
      "outputs": [],
      "stateMutability": "nonpayable",
      "type": "function"
    },
    {
      "inputs": [],
      "name": "factory",
      "outputs": [
        {
          "internalType": "contract ISmartWalletFactory",
          "name": "",
          "type": "address"
        }
      ],
      "stateMutability": "view",
      "type": "function"
    },
    {
      "inputs": [
        {
          "internalType": "address",
          "name": "owner_",
          "type": "address"
        },
        {
          "internalType": "address",
          "name": "agent_",
          "type": "address"
        },
        {
          "internalType": "address",
          "name": "factory_",
          "type": "address"
        },
        {
          "internalType": "bytes32",
          "name": "user_",
          "type": "bytes32"
        },
        {
          "internalType": "address",
          "name": "wormhole_",
          "type": "address"
        },
        {
          "internalType": "address",
          "name": "tokenBridge_",
          "type": "address"
        },
        {
          "internalType": "address",
          "name": "weth_",
          "type": "address"
        },
        {
          "internalType": "uint16",
          "name": "chainId_",
          "type": "uint16"
        }
      ],
      "name": "initialize",
      "outputs": [],
      "stateMutability": "nonpayable",
      "type": "function"
    },
    {
      "inputs": [
        {
          "internalType": "uint64",
          "name": "",
          "type": "uint64"
        }
      ],
      "name": "isReceive",
      "outputs": [
        {
          "internalType": "bool",
          "name": "",
          "type": "bool"
        }
      ],
      "stateMutability": "view",
      "type": "function"
    },
    {
      "inputs": [],
      "name": "owner",
      "outputs": [
        {
          "internalType": "address",
          "name": "",
          "type": "address"
        }
      ],
      "stateMutability": "view",
      "type": "function"
    },
    {
      "inputs": [
        {
          "internalType": "bytes",
          "name": "encoded",
          "type": "bytes"
        }
      ],
      "name": "parsePayloadID",
      "outputs": [
        {
          "internalType": "uint8",
          "name": "payloadID",
          "type": "uint8"
        }
      ],
      "stateMutability": "pure",
      "type": "function"
    },
    {
      "inputs": [
        {
          "internalType": "bytes",
          "name": "encoded",
          "type": "bytes"
        }
      ],
      "name": "parseTransfer",
      "outputs": [
        {
          "components": [
            {
              "internalType": "uint8",
              "name": "payloadID",
              "type": "uint8"
            },
            {
              "internalType": "uint256",
              "name": "amount",
              "type": "uint256"
            },
            {
              "internalType": "bytes32",
              "name": "tokenAddress",
              "type": "bytes32"
            },
            {
              "internalType": "uint16",
              "name": "tokenChain",
              "type": "uint16"
            },
            {
              "internalType": "bytes32",
              "name": "to",
              "type": "bytes32"
            },
            {
              "internalType": "uint16",
              "name": "toChain",
              "type": "uint16"
            },
            {
              "internalType": "uint256",
              "name": "fee",
              "type": "uint256"
            }
          ],
          "internalType": "struct BridgeStructs.Transfer",
          "name": "transfer",
          "type": "tuple"
        }
      ],
      "stateMutability": "pure",
      "type": "function"
    },
    {
      "inputs": [
        {
          "internalType": "bytes",
          "name": "encoded",
          "type": "bytes"
        }
      ],
      "name": "parseTransferWithPayload",
      "outputs": [
        {
          "components": [
            {
              "internalType": "uint8",
              "name": "payloadID",
              "type": "uint8"
            },
            {
              "internalType": "uint256",
              "name": "amount",
              "type": "uint256"
            },
            {
              "internalType": "bytes32",
              "name": "tokenAddress",
              "type": "bytes32"
            },
            {
              "internalType": "uint16",
              "name": "tokenChain",
              "type": "uint16"
            },
            {
              "internalType": "bytes32",
              "name": "to",
              "type": "bytes32"
            },
            {
              "internalType": "uint16",
              "name": "toChain",
              "type": "uint16"
            },
            {
              "internalType": "bytes32",
              "name": "fromAddress",
              "type": "bytes32"
            },
            {
              "internalType": "bytes",
              "name": "payload",
              "type": "bytes"
            }
          ],
          "internalType": "struct BridgeStructs.TransferWithPayload",
          "name": "transfer",
          "type": "tuple"
        }
      ],
      "stateMutability": "pure",
      "type": "function"
    },
    {
      "inputs": [],
      "name": "pendingAdmin",
      "outputs": [
        {
          "internalType": "address",
          "name": "",
          "type": "address"
        }
      ],
      "stateMutability": "view",
      "type": "function"
    },
    {
      "inputs": [
        {
          "internalType": "address",
          "name": "new_admin",
          "type": "address"
        }
      ],
      "name": "proposeNewAdmin",
      "outputs": [],
      "stateMutability": "nonpayable",
      "type": "function"
    },
    {
      "inputs": [
        {
          "internalType": "bytes",
          "name": "encodedVm",
          "type": "bytes"
        }
      ],
      "name": "receiveMessage",
      "outputs": [],
      "stateMutability": "nonpayable",
      "type": "function"
    },
    {
      "inputs": [],
      "name": "renounceOwnership",
      "outputs": [],
      "stateMutability": "nonpayable",
      "type": "function"
    },
    {
      "inputs": [
        {
          "internalType": "uint64",
          "name": "",
          "type": "uint64"
        }
      ],
      "name": "requestPosition",
      "outputs": [
        {
          "internalType": "uint256",
          "name": "",
          "type": "uint256"
        }
      ],
      "stateMutability": "view",
      "type": "function"
    },
    {
      "inputs": [],
      "name": "tokenBridge",
      "outputs": [
        {
          "internalType": "contract ITokenBridge",
          "name": "",
          "type": "address"
        }
      ],
      "stateMutability": "view",
      "type": "function"
    },
    {
      "inputs": [
        {
          "internalType": "address",
          "name": "newOwner",
          "type": "address"
        }
      ],
      "name": "transferOwnership",
      "outputs": [],
      "stateMutability": "nonpayable",
      "type": "function"
    },
    {
      "inputs": [
        {
          "internalType": "uint256",
          "name": "",
          "type": "uint256"
        }
      ],
      "name": "transferRequest",
      "outputs": [
        {
          "internalType": "address",
          "name": "recipient",
          "type": "address"
        },
        {
          "internalType": "address",
          "name": "token",
          "type": "address"
        },
        {
          "internalType": "uint256",
          "name": "amount",
          "type": "uint256"
        },
        {
          "internalType": "uint64",
          "name": "sequence",
          "type": "uint64"
        }
      ],
      "stateMutability": "view",
      "type": "function"
    },
    {
      "inputs": [
        {
          "internalType": "address",
          "name": "token",
          "type": "address"
        },
        {
          "internalType": "uint256",
          "name": "amount",
          "type": "uint256"
        },
        {
          "internalType": "uint256",
          "name": "arbiterFee",
          "type": "uint256"
        },
        {
          "internalType": "uint32",
          "name": "nonce",
          "type": "uint32"
        }
      ],
      "name": "transferTokenBackToSmartWallet",
      "outputs": [
        {
          "internalType": "uint64",
          "name": "",
          "type": "uint64"
        }
      ],
      "stateMutability": "nonpayable",
      "type": "function"
    },
    {
      "inputs": [],
      "name": "user",
      "outputs": [
        {
          "internalType": "bytes32",
          "name": "",
          "type": "bytes32"
        }
      ],
      "stateMutability": "view",
      "type": "function"
    },
    {
      "inputs": [],
      "name": "weth",
      "outputs": [
        {
          "internalType": "contract IWETH",
          "name": "",
          "type": "address"
        }
      ],
      "stateMutability": "view",
      "type": "function"
    },
    {
      "inputs": [],
      "name": "wormhole",
      "outputs": [
        {
          "internalType": "contract IWormhole",
          "name": "",
          "type": "address"
        }
      ],
      "stateMutability": "view",
      "type": "function"
    }
  ],
  "bytecode": "0x6080604052348015600f57600080fd5b506123dd8061001f6000396000f3fe608060405234801561001057600080fd5b506004361061011d5760003560e01c80630f50900814610122578063267822471461014c5780632b5113751461016c5780633fc8cef31461018c5780634f8632ba1461019f57806357f032e7146101b65780636264136e146101cb578063715018a6146102125780637544776b1461021a57806384acd1bb1461023a5780638c3d73011461024d5780638da5cb5b1461025557806392f707091461025d578063a63767461461027d578063b1a8840814610290578063c45a0155146102c3578063c6328a46146102d6578063cbd83a19146102e9578063e89bc401146102fc578063ea63738d1461031d578063f2fde38b1461033d578063f5ff5c7614610350578063f953cec714610363575b600080fd5b610135610130366004611beb565b610376565b60405160ff90911681526020015b60405180910390f35b60025461015f906001600160a01b031681565b6040516101439190611c6a565b61017f61017a366004611beb565b610388565b6040516101439190611ccd565b60065461015f906001600160a01b031681565b6101a860005481565b604051908152602001610143565b6101c96101c4366004611cf7565b6104b7565b005b6101de6101d9366004611d19565b6104e1565b604080516001600160a01b039586168152949093166020850152918301526001600160401b03166060820152608001610143565b6101c9610530565b6101a8610228366004611d47565b60086020526000908152604090205481565b60045461015f906001600160a01b031681565b6101c9610544565b61015f610595565b61027061026b366004611d76565b6105b0565b6040516101439190611dbe565b6101c961028b366004611cf7565b6107a4565b6102b361029e366004611d47565b60076020526000908152604090205460ff1681565b6040519015158152602001610143565b60035461015f906001600160a01b031681565b60055461015f906001600160a01b031681565b6101c96102f7366004611de2565b6107ce565b61030f61030a366004611beb565b6109d9565b604051610143929190611ec6565b61033061032b366004611beb565b610aba565b6040516101439190611ef0565b6101c961034b366004611cf7565b610c14565b60015461015f906001600160a01b031681565b6101c9610371366004611beb565b610c52565b60006103828282610ca8565b92915050565b610390611af7565b600061039c8382610ca8565b60ff1682526103ac600182611f7c565b9050816000015160ff166001146103de5760405162461bcd60e51b81526004016103d590611f8f565b60405180910390fd5b6103e88382610d08565b6020808401919091526103fb9082611f7c565b90506104078382610d6b565b6040830152610417602082611f7c565b90506104238382610dc4565b61ffff166060830152610437600282611f7c565b90506104438382610d6b565b6080830152610453602082611f7c565b905061045f8382610dc4565b61ffff1660a0830152610473600282611f7c565b905061047f8382610d08565b60c083015261048f602082611f7c565b9050808351146104b15760405162461bcd60e51b81526004016103d590611f8f565b50919050565b6104bf610e1c565b600180546001600160a01b0319166001600160a01b0392909216919091179055565b600981815481106104f157600080fd5b600091825260209091206004909102018054600182015460028301546003909301546001600160a01b039283169450911691906001600160401b031684565b610538610e1c565b6105426000610e4e565b565b6002546001600160a01b0316331461056e5760405162461bcd60e51b81526004016103d590611fb9565b600254610583906001600160a01b0316610e4e565b600280546001600160a01b0319169055565b6000806105a0610eaa565b546001600160a01b031692915050565b60006105ba610595565b6001600160a01b0316336001600160a01b031614806105e357506001546001600160a01b031633145b6105ff5760405162461bcd60e51b81526004016103d590611fb9565b6000600460009054906101000a90046001600160a01b03166001600160a01b0316631a90a2196040518163ffffffff1660e01b8152600401602060405180830381865afa158015610654573d6000803e3d6000fd5b505050506040513d601f19601f820116820180604052508101906106789190611fe2565b60055460405163095ea7b360e01b81529192506001600160a01b038089169263095ea7b3926106ad9216908990600401611ffb565b6020604051808303816000875af11580156106cc573d6000803e3d6000fd5b505050506040513d601f19601f820116820180604052508101906106f09190612024565b5060055460065460005460405162f5287b60e41b81526001600160a01b038a81166004830152602482018a9052600160a01b90930461ffff16604482015260648101919091526084810187905263ffffffff861660a4820152911690630f5287b090839060c40160206040518083038185885af1158015610775573d6000803e3d6000fd5b50505050506040513d601f19601f8201168201806040525081019061079a919061204a565b9695505050505050565b6107ac610e1c565b600280546001600160a01b0319166001600160a01b0392909216919091179055565b60006107d8610ece565b805490915060ff600160401b82041615906001600160401b03166000811580156107ff5750825b90506000826001600160401b0316600114801561081b5750303b155b905081158015610829575080155b156108475760405163f92ee8a960e01b815260040160405180910390fd5b84546001600160401b0319166001178555831561087057845460ff60401b1916600160401b1785555b6001600160a01b038d166108b75760405162461bcd60e51b815260206004820152600e60248201526d6f776e6572206973207a65726f2160901b60448201526064016103d5565b6001600160a01b038c166108fd5760405162461bcd60e51b815260206004820152600d60248201526c6167656e74206973207a65726f60981b60448201526064016103d5565b610905610ef7565b61090e8d610e4e565b600180546001600160a01b03199081166001600160a01b038f81169190911790925560008c90556003805482168e84161790556004805482168c8416179055600580549091168a8316179055600680549189166001600160b01b031990921691909117600160a01b61ffff89160217905583156109ca57845460ff60401b191685556040517fc7f505b2f371ae2175ee4913f4499e1f2633a7b5936321eed1cdaeb6115181d2906109c190600190611dbe565b60405180910390a15b50505050505050505050505050565b6109e1611af7565b606060006109ee84610376565b90508060ff16600103610a0b57610a0484610388565b9250610ab4565b8060ff16600303610a77576000610a2185610aba565b60038552602080820151908601526040808201519086015260608082015161ffff908116918701919091526080808301519087015260a08083015190911690860152600060c086015260e001519250610ab49050565b60405162461bcd60e51b8152602060048201526012602482015271125b9d985b1a59081c185e5b1bd859081a5960721b60448201526064016103d5565b50915091565b604080516101008101825260008082526020820181905291810182905260608082018390526080820183905260a0820183905260c0820183905260e082015290610b048382610ca8565b60ff168252610b14600182611f7c565b9050816000015160ff16600314610b3d5760405162461bcd60e51b81526004016103d590611f8f565b610b478382610d08565b602080840191909152610b5a9082611f7c565b9050610b668382610d6b565b6040830152610b76602082611f7c565b9050610b828382610dc4565b61ffff166060830152610b96600282611f7c565b9050610ba28382610d6b565b6080830152610bb2602082611f7c565b9050610bbe8382610dc4565b61ffff1660a0830152610bd2600282611f7c565b9050610bde8382610d6b565b60c0830152610bee602082611f7c565b9050610c0981828551610c019190612067565b859190610f07565b60e083015250919050565b610c1c610e1c565b6001600160a01b038116610c46576000604051631e4fbdf760e01b81526004016103d59190611c6a565b610c4f81610e4e565b50565b610c5a610595565b6001600160a01b0316336001600160a01b03161480610c8357506001546001600160a01b031633145b610c9f5760405162461bcd60e51b81526004016103d590611fb9565b610c4f81610ffc565b600081835111610cf05760405162461bcd60e51b8152602060048201526013602482015272746f55696e74385f6f75744f66426f756e647360681b60448201526064016103d5565b6000610cfd600184611f7c565b909301519392505050565b600080610d16602084611f7c565b90508084511015610d615760405162461bcd60e51b8152602060048201526015602482015274746f55696e743235365f6f75744f66426f756e647360581b60448201526064016103d5565b9092015192915050565b600080610d79602084611f7c565b90508084511015610d615760405162461bcd60e51b8152602060048201526015602482015274746f427974657333325f6f75744f66426f756e647360581b60448201526064016103d5565b600080610dd2600284611f7c565b90508084511015610d615760405162461bcd60e51b8152602060048201526014602482015273746f55696e7431365f6f75744f66426f756e647360601b60448201526064016103d5565b33610e25610595565b6001600160a01b031614610542573360405163118cdaa760e01b81526004016103d59190611c6a565b6000610e58610eaa565b80546001600160a01b038481166001600160a01b031983168117845560405193945091169182907f8be0079c531659141344cd1fd0a4f28419497f9722a3daafe3b4186f6b6457e090600090a3505050565b7f9016d09d72d40fdae2fd8ceac6b6234c7706214fd39c1cd1e609a0528c19930090565b6000807ff0c57e16840df040f15088dc2f81fe391c3923bec73e23a9662efc9c229c6a00610382565b610eff611114565b610542611139565b60608182601f011015610f4d5760405162461bcd60e51b815260206004820152600e60248201526d736c6963655f6f766572666c6f7760901b60448201526064016103d5565b610f578284611f7c565b84511015610f9b5760405162461bcd60e51b8152602060048201526011602482015270736c6963655f6f75744f66426f756e647360781b60448201526064016103d5565b60405182158015610fb25760208201604052610ff1565b601f841680156020028101905080830185810187838a01015b81831015610fe3578051835260209283019201610fcb565b5050601f01601f1916604052505b509182525092915050565b6004805460405163607ec5ef60e11b8152600092839283926001600160a01b039091169163c0fd8bde916110329188910161207a565b600060405180830381865afa15801561104f573d6000803e3d6000fd5b505050506040513d6000823e601f3d908101601f1916820160405261107791908101906121ce565b60e0830151929550909350915081836110a35760405162461bcd60e51b81526004016103d5919061207a565b506000806110b18382610ca8565b90506110be600183611f7c565b91508060ff16600114806110d557508060ff166003145b156110e9576110e48782611167565b61110b565b61110b61110683600186516110fe9190612067565b869190610f07565b611457565b50505050505050565b61111c611717565b61054257604051631afcd79f60e31b815260040160405180910390fd5b611141611114565b60017f9b779b17422d0df92223018b32b4d1fa46e071723d6817e2486d003becc55f0055565b6004805460405163607ec5ef60e11b81526000926001600160a01b039092169163c0fd8bde916111999187910161207a565b600060405180830381865afa1580156111b6573d6000803e3d6000fd5b505050506040513d6000823e601f3d908101601f191682016040526111de91908101906121ce565b505090506000806111f28360e001516109d9565b9150915060006112058360800151611731565b90506001600160a01b038116301461122f5760405162461bcd60e51b81526004016103d590612337565b60055460405163c687851960e01b81526001600160a01b039091169063c68785199061125f90899060040161207a565b600060405180830381600087803b15801561127957600080fd5b505af115801561128d573d6000803e3d6000fd5b505050508460ff1660010361137d5760a0840180516001600160401b039081166000908152600760209081526040808320805460ff191660011790559351909216815260089091522054156113785760a08401516001600160401b03166000908152600860205260409020546009805461136d9190839081106113125761131261237b565b600091825260209182902060408051608081018252600490930290910180546001600160a01b039081168452600182015416938301939093526002830154908201526003909101546001600160401b03166060820152611785565b61137681611805565b505b61144f565b60008061138a84826119e5565b9050611397601483611f7c565b915060006113a585846119e5565b90506113b2601484611f7c565b92506113bf601484611f7c565b925060006113cd8685611a46565b6001600160801b03169050816001600160a01b031663a9059cbb84836040518363ffffffff1660e01b8152600401611406929190611ffb565b6020604051808303816000875af1158015611425573d6000803e3d6000fd5b505050506040513d601f19601f820116820180604052508101906114499190612024565b50505050505b505050505050565b805160401461149f5760405162461bcd60e51b815260206004820152601460248201527315dc9bdb99c81b595cdcd859d948199bdc9b585d60621b60448201526064016103d5565b6000806114ac83826119e5565b90506114b9601483611f7c565b915060006114c784846119e5565b90506114d4601484611f7c565b925060006114e28585611a46565b6001600160801b031690506114f8601085611f7c565b935060006115068686611a9f565b9050611513600886611f7c565b9450600061152187876119e5565b90506001600160a01b038116301461154b5760405162461bcd60e51b81526004016103d590612337565b6001600160401b03821660009081526007602052604090205460ff16156115e35760405163a9059cbb60e01b81526001600160a01b0385169063a9059cbb9061159a9088908790600401611ffb565b6020604051808303816000875af11580156115b9573d6000803e3d6000fd5b505050506040513d601f19601f820116820180604052508101906115dd9190612024565b5061110b565b604080516080810182526001600160a01b03808816825286811660208084019182528385018881526001600160401b0380891660608701818152600980546001810182556000828152995160049091027f6e1540171b6c0c960b71a7020d9f60077f6af931a8bbf590da0223dacf75c7af81018054928b166001600160a01b031993841617905597517f6e1540171b6c0c960b71a7020d9f60077f6af931a8bbf590da0223dacf75c7b08901805491909a1691161790975592517f6e1540171b6c0c960b71a7020d9f60077f6af931a8bbf590da0223dacf75c7b186015591517f6e1540171b6c0c960b71a7020d9f60077f6af931a8bbf590da0223dacf75c7b29094018054949091166001600160401b031990941693909317909255915490835260089091529190205550505050505050565b6000611721610ece565b54600160401b900460ff16919050565b60006001600160a01b03198216156117815760405162461bcd60e51b8152602060048201526013602482015272696e76616c69642045564d206164647265737360681b60448201526064016103d5565b5090565b60208101518151604080840151905163a9059cbb60e01b81526001600160a01b039093169263a9059cbb926117be929091600401611ffb565b6020604051808303816000875af11580156117dd573d6000803e3d6000fd5b505050506040513d601f19601f820116820180604052508101906118019190612024565b5050565b600954600181900361187157600980548061182257611822612391565b60008281526020812060046000199093019283020180546001600160a01b031990811682556001820180549091169055600281019190915560030180546001600160401b031916905590555050565b60006009611880600184612067565b815481106118905761189061237b565b600091825260209182902060408051608081018252600490930290910180546001600160a01b039081168452600182015416938301939093526002830154908201526003909101546001600160401b03166060820152600980549192508291859081106118ff576118ff61237b565b60009182526020808320845160049093020180546001600160a01b039384166001600160a01b031991821617825585830151600183018054919095169116179092556040808501516002840155606094850151600390930180546001600160401b039485166001600160401b03199091161790559385015190911682526008905220839055600980548061199557611995612391565b60008281526020812060046000199093019283020180546001600160a01b031990811682556001820180549091169055600281019190915560030180546001600160401b03191690559055505050565b60006119f2601483611f7c565b83511015611a3a5760405162461bcd60e51b8152602060048201526015602482015274746f416464726573735f6f75744f66426f756e647360581b60448201526064016103d5565b50016020015160601c90565b600080611a54601084611f7c565b90508084511015610d615760405162461bcd60e51b8152602060048201526015602482015274746f55696e743132385f6f75744f66426f756e647360581b60448201526064016103d5565b600080611aad600884611f7c565b90508084511015610d615760405162461bcd60e51b8152602060048201526014602482015273746f55696e7436345f6f75744f66426f756e647360601b60448201526064016103d5565b6040805160e081018252600080825260208201819052918101829052606081018290526080810182905260a0810182905260c081019190915290565b634e487b7160e01b600052604160045260246000fd5b604051608081016001600160401b0381118282101715611b6b57611b6b611b33565b60405290565b60405161016081016001600160401b0381118282101715611b6b57611b6b611b33565b604051601f8201601f191681016001600160401b0381118282101715611bbc57611bbc611b33565b604052919050565b60006001600160401b03821115611bdd57611bdd611b33565b50601f01601f191660200190565b600060208284031215611bfd57600080fd5b81356001600160401b03811115611c1357600080fd5b8201601f81018413611c2457600080fd5b8035611c37611c3282611bc4565b611b94565b818152856020838501011115611c4c57600080fd5b81602084016020830137600091810160200191909152949350505050565b6001600160a01b0391909116815260200190565b60ff8151168252602081015160208301526040810151604083015261ffff60608201511660608301526080810151608083015261ffff60a08201511660a083015260c081015160c08301525050565b60e081016103828284611c7e565b80356001600160a01b0381168114611cf257600080fd5b919050565b600060208284031215611d0957600080fd5b611d1282611cdb565b9392505050565b600060208284031215611d2b57600080fd5b5035919050565b6001600160401b0381168114610c4f57600080fd5b600060208284031215611d5957600080fd5b8135611d1281611d32565b63ffffffff81168114610c4f57600080fd5b60008060008060808587031215611d8c57600080fd5b611d9585611cdb565b935060208501359250604085013591506060850135611db381611d64565b939692955090935050565b6001600160401b0391909116815260200190565b61ffff81168114610c4f57600080fd5b600080600080600080600080610100898b031215611dff57600080fd5b611e0889611cdb565b9750611e1660208a01611cdb565b9650611e2460408a01611cdb565b955060608901359450611e3960808a01611cdb565b9350611e4760a08a01611cdb565b9250611e5560c08a01611cdb565b915060e0890135611e6581611dd2565b809150509295985092959890939650565b60005b83811015611e91578181015183820152602001611e79565b50506000910152565b60008151808452611eb2816020860160208601611e76565b601f01601f19169290920160200192915050565b611ed08184611c7e565b61010060e08201526000611ee8610100830184611e9a565b949350505050565b6020815260ff8251166020820152602082015160408201526040820151606082015261ffff6060830151166080820152608082015160a0820152600060a0830151611f4160c084018261ffff169052565b5060c083015160e083015260e083015161010080840152611ee8610120840182611e9a565b634e487b7160e01b600052601160045260246000fd5b8082018082111561038257610382611f66565b60208082526010908201526f34b73b30b634b2102a3930b739b332b960811b604082015260600190565b6020808252600f908201526e4e6f7420417574686f72697a65642160881b604082015260600190565b600060208284031215611ff457600080fd5b5051919050565b6001600160a01b03929092168252602082015260400190565b80518015158114611cf257600080fd5b60006020828403121561203657600080fd5b611d1282612014565b8051611cf281611d32565b60006020828403121561205c57600080fd5b8151611d1281611d32565b8181038181111561038257610382611f66565b602081526000611d126020830184611e9a565b805160ff81168114611cf257600080fd5b8051611cf281611d64565b8051611cf281611dd2565b600082601f8301126120c557600080fd5b81516020830160006120d9611c3284611bc4565b90508281528583830111156120ed57600080fd5b6120fb836020830184611e76565b95945050505050565b600082601f83011261211557600080fd5b81516001600160401b0381111561212e5761212e611b33565b61213d60208260051b01611b94565b8082825260208201915060208360071b86010192508583111561215f57600080fd5b602085015b838110156121c4576080818803121561217c57600080fd5b612184611b49565b815181526020808301519082015261219e6040830161208d565b60408201526121af6060830161208d565b60608201528352602090920191608001612164565b5095945050505050565b6000806000606084860312156121e357600080fd5b83516001600160401b038111156121f957600080fd5b8401610160818703121561220c57600080fd5b612214611b71565b61221d8261208d565b815261222b6020830161209e565b602082015261223c6040830161209e565b604082015261224d606083016120a9565b60608201526080828101519082015261226860a0830161203f565b60a082015261227960c0830161208d565b60c082015260e08201516001600160401b0381111561229757600080fd5b6122a3888285016120b4565b60e0830152506122b6610100830161209e565b6101008201526101208201516001600160401b038111156122d657600080fd5b6122e288828501612104565b610120830152506101409182015191810191909152925061230560208501612014565b60408501519092506001600160401b0381111561232157600080fd5b61232d868287016120b4565b9150509250925092565b60208082526024908201527f54686973206d657373616765206973206e6f7420666f7220746869732077616c6040820152636c65742160e01b606082015260800190565b634e487b7160e01b600052603260045260246000fd5b634e487b7160e01b600052603160045260246000fdfea2646970667358221220d6219a197318b355a0560cae1113494e4959b3e4e251734c2ada1df676ee87be64736f6c634300081c0033",
  "linkReferences": {},
  "deployedLinkReferences": {}
}