{
  "_format": "hh-sol-artifact-1",
  "contractName": "SmartWalletFactory",
  "sourceName": "contracts/core/SmartWalletFactory.sol",
  "abi": [
    {
      "inputs": [],
      "name": "InvalidInitialization",
      "type": "error"
    },
    {
      "inputs": [],
      "name": "NotInitializing",
      "type": "error"
    },
    {
      "inputs": [
        {
          "internalType": "address",
          "name": "owner",
          "type": "address"
        }
      ],
      "name": "OwnableInvalidOwner",
      "type": "error"
    },
    {
      "inputs": [
        {
          "internalType": "address",
          "name": "account",
          "type": "address"
        }
      ],
      "name": "OwnableUnauthorizedAccount",
      "type": "error"
    },
    {
      "anonymous": false,
      "inputs": [
        {
          "indexed": false,
          "internalType": "uint64",
          "name": "version",
          "type": "uint64"
        }
      ],
      "name": "Initialized",
      "type": "event"
    },
    {
      "anonymous": false,
      "inputs": [
        {
          "indexed": true,
          "internalType": "address",
          "name": "previousOwner",
          "type": "address"
        },
        {
          "indexed": true,
          "internalType": "address",
          "name": "newOwner",
          "type": "address"
        }
      ],
      "name": "OwnershipTransferred",
      "type": "event"
    },
    {
      "inputs": [],
      "name": "SmartWalletBeacon",
      "outputs": [
        {
          "internalType": "contract ISmartWalletBeacon",
          "name": "",
          "type": "address"
        }
      ],
      "stateMutability": "view",
      "type": "function"
    },
    {
      "inputs": [],
      "name": "agent",
      "outputs": [
        {
          "internalType": "address",
          "name": "",
          "type": "address"
        }
      ],
      "stateMutability": "view",
      "type": "function"
    },
    {
      "inputs": [],
      "name": "chainId",
      "outputs": [
        {
          "internalType": "uint16",
          "name": "",
          "type": "uint16"
        }
      ],
      "stateMutability": "view",
      "type": "function"
    },
    {
      "inputs": [
        {
          "internalType": "address",
          "name": "new_agent",
          "type": "address"
        }
      ],
      "name": "changeAgent",
      "outputs": [],
      "stateMutability": "nonpayable",
      "type": "function"
    },
    {
      "inputs": [
        {
          "internalType": "bytes32",
          "name": "user",
          "type": "bytes32"
        }
      ],
      "name": "createSmartWallet",
      "outputs": [
        {
          "internalType": "address",
          "name": "",
          "type": "address"
        }
      ],
      "stateMutability": "nonpayable",
      "type": "function"
    },
    {
      "inputs": [
        {
          "internalType": "address",
          "name": "new_owner",
          "type": "address"
        },
        {
          "internalType": "address",
          "name": "agent_",
          "type": "address"
        },
        {
          "internalType": "address",
          "name": "beacon",
          "type": "address"
        },
        {
          "internalType": "address",
          "name": "wormhole_",
          "type": "address"
        },
        {
          "internalType": "address",
          "name": "tokenBridge_",
          "type": "address"
        },
        {
          "internalType": "address",
          "name": "weth_",
          "type": "address"
        },
        {
          "internalType": "uint16",
          "name": "chainId_",
          "type": "uint16"
        }
      ],
      "name": "initialize",
      "outputs": [],
      "stateMutability": "nonpayable",
      "type": "function"
    },
    {
      "inputs": [],
      "name": "owner",
      "outputs": [
        {
          "internalType": "address",
          "name": "",
          "type": "address"
        }
      ],
      "stateMutability": "view",
      "type": "function"
    },
    {
      "inputs": [],
      "name": "renounceOwnership",
      "outputs": [],
      "stateMutability": "nonpayable",
      "type": "function"
    },
    {
      "inputs": [],
      "name": "router",
      "outputs": [
        {
          "internalType": "address",
          "name": "",
          "type": "address"
        }
      ],
      "stateMutability": "view",
      "type": "function"
    },
    {
      "inputs": [
        {
          "internalType": "address",
          "name": "new_router",
          "type": "address"
        }
      ],
      "name": "setRouter",
      "outputs": [],
      "stateMutability": "nonpayable",
      "type": "function"
    },
    {
      "inputs": [],
      "name": "tokenBridge",
      "outputs": [
        {
          "internalType": "address",
          "name": "",
          "type": "address"
        }
      ],
      "stateMutability": "view",
      "type": "function"
    },
    {
      "inputs": [
        {
          "internalType": "address",
          "name": "newOwner",
          "type": "address"
        }
      ],
      "name": "transferOwnership",
      "outputs": [],
      "stateMutability": "nonpayable",
      "type": "function"
    },
    {
      "inputs": [
        {
          "internalType": "bytes32",
          "name": "",
          "type": "bytes32"
        }
      ],
      "name": "walletsByUser",
      "outputs": [
        {
          "internalType": "address",
          "name": "",
          "type": "address"
        }
      ],
      "stateMutability": "view",
      "type": "function"
    },
    {
      "inputs": [],
      "name": "weth",
      "outputs": [
        {
          "internalType": "address",
          "name": "",
          "type": "address"
        }
      ],
      "stateMutability": "view",
      "type": "function"
    },
    {
      "inputs": [],
      "name": "wormhole",
      "outputs": [
        {
          "internalType": "address",
          "name": "",
          "type": "address"
        }
      ],
      "stateMutability": "view",
      "type": "function"
    }
  ],
  "bytecode": "0x6080604052348015600f57600080fd5b506110c28061001f6000396000f3fe608060405234801561001057600080fd5b50600436106100c55760003560e01c806332f2b309146100ca5780633fc8cef3146100f357806357f032e714610106578063715018a61461011b57806371c654ee1461012357806384acd1bb146101365780638da5cb5b146101495780639a8a059214610151578063c0d7865514610179578063c6328a461461018c578063d3e20d8c1461019f578063e7f79cec146101c8578063f2fde38b146101db578063f5ff5c76146101ee578063f887ea4014610201575b600080fd5b6100dd6100d8366004610938565b610214565b6040516100ea9190610951565b60405180910390f35b6008546100dd906001600160a01b031681565b61011961011436600461097c565b610389565b005b6101196103b3565b610119610131366004610997565b6103c7565b6006546100dd906001600160a01b031681565b6100dd6105e9565b60085461016690600160a01b900461ffff1681565b60405161ffff90911681526020016100ea565b61011961018736600461097c565b610604565b6007546100dd906001600160a01b031681565b6100dd6101ad366004610938565b6003602052600090815260409020546001600160a01b031681565b6000546100dd906001600160a01b031681565b6101196101e936600461097c565b61062e565b6005546100dd906001600160a01b031681565b6004546100dd906001600160a01b031681565b600061021e6105e9565b6001600160a01b0316336001600160a01b0316148061024757506005546001600160a01b031633145b8061025c57506005546001600160a01b031632145b8061027157506004546001600160a01b031633145b6102b45760405162461bcd60e51b815260206004820152600f60248201526e6e6f7420617574686f72697a65642160881b60448201526064015b60405180910390fd5b6000828152600360205260409020546001600160a01b03161561030f5760405162461bcd60e51b8152602060048201526013602482015272105b1c9958591e481a5b9a5d1a585b1a5e9959606a1b60448201526064016102ab565b60055460065460075460085460009361034c936001600160a01b03918216938893918316929081169190811690600160a01b900461ffff1661066c565b600084815260036020526040902080546001600160a01b0319166001600160a01b038316179055905061038060018261078b565b5090505b919050565b6103916107a9565b600580546001600160a01b0319166001600160a01b0392909216919091179055565b6103bb6107a9565b6103c560006107db565b565b60006103d1610837565b805490915060ff600160401b82041615906001600160401b03166000811580156103f85750825b90506000826001600160401b031660011480156104145750303b155b905081158015610422575080155b156104405760405163f92ee8a960e01b815260040160405180910390fd5b84546001600160401b0319166001178555831561046957845460ff60401b1916600160401b1785555b6001600160a01b038c166104b85760405162461bcd60e51b81526020600482015260166024820152754f776e65722069732061646472657373207a65726f2160501b60448201526064016102ab565b6001600160a01b038a166105085760405162461bcd60e51b8152602060048201526017602482015276426561636f6e2069732061646472657373207a65726f2160481b60448201526064016102ab565b600080546001600160a01b0319166001600160a01b038c1617905561052c8c610860565b6105358c6107db565b600580546001600160a01b03199081166001600160a01b038e8116919091179092556006805482168c8416179055600780549091168a8316179055600880549189166001600160b01b031990921691909117600160a01b61ffff89160217905583156105db57845460ff60401b19168555604051600181527fc7f505b2f371ae2175ee4913f4499e1f2633a7b5936321eed1cdaeb6115181d29060200160405180910390a15b505050505050505050505050565b6000806105f4610871565b546001600160a01b031692915050565b61060c6107a9565b600480546001600160a01b0319166001600160a01b0392909216919091179055565b6106366107a9565b6001600160a01b038116610660576000604051631e4fbdf760e01b81526004016102ab9190610951565b610669816107db565b50565b6000806363acc14d60e01b61067f6105e9565b6040516001600160a01b039182166024820152818b166044820152306064820152608481018a905281891660a482015281881660c482015290861660e482015261ffff85166101048201526101240160408051601f19818403018152918152602080830180516001600160e01b03166001600160e01b031990951694909417909352519092506000916107189132914391869101610a4c565b6040516020818303038152906040528051906020012090508060008054906101000a90046001600160a01b0316836040516107529061092b565b61075d929190610a89565b8190604051809103906000f590508015801561077d573d6000803e3d6000fd5b509998505050505050505050565b60006107a0836001600160a01b038416610895565b90505b92915050565b336107b26105e9565b6001600160a01b0316146103c5573360405163118cdaa760e01b81526004016102ab9190610951565b60006107e5610871565b80546001600160a01b038481166001600160a01b031983168117845560405193945091169182907f8be0079c531659141344cd1fd0a4f28419497f9722a3daafe3b4186f6b6457e090600090a3505050565b6000807ff0c57e16840df040f15088dc2f81fe391c3923bec73e23a9662efc9c229c6a006107a3565b6108686108e4565b61066981610909565b7f9016d09d72d40fdae2fd8ceac6b6234c7706214fd39c1cd1e609a0528c19930090565b60008181526001830160205260408120546108dc575081546001818101845560008481526020808220909301849055845484825282860190935260409020919091556107a3565b5060006107a3565b6108ec610911565b6103c557604051631afcd79f60e31b815260040160405180910390fd5b6106366108e4565b600061091b610837565b54600160401b900460ff16919050565b6105c180610acc83390190565b60006020828403121561094a57600080fd5b5035919050565b6001600160a01b0391909116815260200190565b80356001600160a01b038116811461038457600080fd5b60006020828403121561098e57600080fd5b6107a082610965565b600080600080600080600060e0888a0312156109b257600080fd5b6109bb88610965565b96506109c960208901610965565b95506109d760408901610965565b94506109e560608901610965565b93506109f360808901610965565b9250610a0160a08901610965565b915060c088013561ffff81168114610a1857600080fd5b8091505092959891949750929550565b60005b83811015610a43578181015183820152602001610a2b565b50506000910152565b606084901b6001600160601b0319168152601481018390528151600090610a7a816034850160208701610a28565b91909101603401949350505050565b60018060a01b03831681526040602082015260008251806040840152610ab6816060850160208701610a28565b601f01601f191691909101606001939250505056fe60a06040526040516105c13803806105c18339810160408190526100229161036f565b61002c828261003e565b506001600160a01b0316608052610480565b610047826100fe565b6040516001600160a01b038316907f1cf3b03a6cf19fa2baba4df148e9dcabedea7f8a5c07840e207e5c089be95d3e90600090a28051156100f2576100ed826001600160a01b0316635c60da1b6040518163ffffffff1660e01b8152600401602060405180830381865afa1580156100c3573d6000803e3d6000fd5b505050506040513d601f19601f820116820180604052508101906100e79190610435565b82610203565b505050565b6100fa61027a565b5050565b806001600160a01b03163b6000036101345780604051631933b43b60e21b815260040161012b9190610450565b60405180910390fd5b807fa3f0ad74e5423aebfd80d3ef4346578335a9a72aeaee59ff6cb3582b35133d5080546001600160a01b0319166001600160a01b0392831617905560408051635c60da1b60e01b81529051600092841691635c60da1b9160048083019260209291908290030181865afa1580156101b0573d6000803e3d6000fd5b505050506040513d601f19601f820116820180604052508101906101d49190610435565b9050806001600160a01b03163b6000036100fa5780604051634c9c8ce360e01b815260040161012b9190610450565b6060600080846001600160a01b0316846040516102209190610464565b600060405180830381855af49150503d806000811461025b576040519150601f19603f3d011682016040523d82523d6000602084013e610260565b606091505b50909250905061027185838361029b565b95945050505050565b34156102995760405163b398979f60e01b815260040160405180910390fd5b565b6060826102b0576102ab826102f1565b6102ea565b81511580156102c757506001600160a01b0384163b155b156102e75783604051639996b31560e01b815260040161012b9190610450565b50805b9392505050565b80511561030057805160208201fd5b60405163d6bda27560e01b815260040160405180910390fd5b80516001600160a01b038116811461033057600080fd5b919050565b634e487b7160e01b600052604160045260246000fd5b60005b8381101561036657818101518382015260200161034e565b50506000910152565b6000806040838503121561038257600080fd5b61038b83610319565b60208401519092506001600160401b038111156103a757600080fd5b8301601f810185136103b857600080fd5b80516001600160401b038111156103d1576103d1610335565b604051601f8201601f19908116603f011681016001600160401b03811182821017156103ff576103ff610335565b60405281815282820160200187101561041757600080fd5b61042882602083016020860161034b565b8093505050509250929050565b60006020828403121561044757600080fd5b6102ea82610319565b6001600160a01b0391909116815260200190565b6000825161047681846020870161034b565b9190910192915050565b60805161012761049a6000396000601e01526101276000f3fe6080604052600a600c565b005b60186014601a565b60a0565b565b60007f00000000000000000000000000000000000000000000000000000000000000006001600160a01b0316635c60da1b6040518163ffffffff1660e01b8152600401602060405180830381865afa1580156079573d6000803e3d6000fd5b505050506040513d601f19601f82011682018060405250810190609b919060c3565b905090565b3660008037600080366000845af43d6000803e80801560be573d6000f35b3d6000fd5b60006020828403121560d457600080fd5b81516001600160a01b038116811460ea57600080fd5b939250505056fea264697066735822122057dab7e7bd3cc8842bd17a2158f56aa5ca974259edfb3506e71b7f09204e096e64736f6c634300081c0033a264697066735822122030e0dc990ee28c1ec50304b7c5c5488653deced05b5861dec05ed8343a8f21d864736f6c634300081c0033",
  "linkReferences": {},
  "deployedLinkReferences": {}
}