{
  "_format": "hh-sol-artifact-1",
  "contractName": "SmartWalletFactory",
  "sourceName": "contracts/core/SmartWalletFactory.sol",
  "abi": [
    {
      "inputs": [],
      "name": "InvalidInitialization",
      "type": "error"
    },
    {
      "inputs": [],
      "name": "NotInitializing",
      "type": "error"
    },
    {
      "inputs": [
        {
          "internalType": "address",
          "name": "owner",
          "type": "address"
        }
      ],
      "name": "OwnableInvalidOwner",
      "type": "error"
    },
    {
      "inputs": [
        {
          "internalType": "address",
          "name": "account",
          "type": "address"
        }
      ],
      "name": "OwnableUnauthorizedAccount",
      "type": "error"
    },
    {
      "anonymous": false,
      "inputs": [
        {
          "indexed": false,
          "internalType": "uint64",
          "name": "version",
          "type": "uint64"
        }
      ],
      "name": "Initialized",
      "type": "event"
    },
    {
      "anonymous": false,
      "inputs": [
        {
          "indexed": true,
          "internalType": "address",
          "name": "previousOwner",
          "type": "address"
        },
        {
          "indexed": true,
          "internalType": "address",
          "name": "newOwner",
          "type": "address"
        }
      ],
      "name": "OwnershipTransferred",
      "type": "event"
    },
    {
      "inputs": [],
      "name": "SmartWalletBeacon",
      "outputs": [
        {
          "internalType": "contract ISmartWalletBeacon",
          "name": "",
          "type": "address"
        }
      ],
      "stateMutability": "view",
      "type": "function"
    },
    {
      "inputs": [],
      "name": "agent",
      "outputs": [
        {
          "internalType": "address",
          "name": "",
          "type": "address"
        }
      ],
      "stateMutability": "view",
      "type": "function"
    },
    {
      "inputs": [
        {
          "internalType": "address",
          "name": "agent",
          "type": "address"
        },
        {
          "internalType": "bytes32",
          "name": "user",
          "type": "bytes32"
        },
        {
          "internalType": "address",
          "name": "wormhole",
          "type": "address"
        },
        {
          "internalType": "address",
          "name": "tokenBridge",
          "type": "address"
        },
        {
          "internalType": "address",
          "name": "weth",
          "type": "address"
        },
        {
          "internalType": "uint16",
          "name": "chainId",
          "type": "uint16"
        }
      ],
      "name": "createSmartWallet",
      "outputs": [
        {
          "internalType": "address",
          "name": "",
          "type": "address"
        }
      ],
      "stateMutability": "nonpayable",
      "type": "function"
    },
    {
      "inputs": [
        {
          "internalType": "address",
          "name": "new_owner",
          "type": "address"
        },
        {
          "internalType": "address",
          "name": "router_",
          "type": "address"
        },
        {
          "internalType": "address",
          "name": "agent_",
          "type": "address"
        },
        {
          "internalType": "address",
          "name": "beacon",
          "type": "address"
        }
      ],
      "name": "initialize",
      "outputs": [],
      "stateMutability": "nonpayable",
      "type": "function"
    },
    {
      "inputs": [],
      "name": "owner",
      "outputs": [
        {
          "internalType": "address",
          "name": "",
          "type": "address"
        }
      ],
      "stateMutability": "view",
      "type": "function"
    },
    {
      "inputs": [],
      "name": "renounceOwnership",
      "outputs": [],
      "stateMutability": "nonpayable",
      "type": "function"
    },
    {
      "inputs": [],
      "name": "router",
      "outputs": [
        {
          "internalType": "address",
          "name": "",
          "type": "address"
        }
      ],
      "stateMutability": "view",
      "type": "function"
    },
    {
      "inputs": [
        {
          "internalType": "address",
          "name": "newOwner",
          "type": "address"
        }
      ],
      "name": "transferOwnership",
      "outputs": [],
      "stateMutability": "nonpayable",
      "type": "function"
    },
    {
      "inputs": [
        {
          "internalType": "bytes32",
          "name": "",
          "type": "bytes32"
        }
      ],
      "name": "walletsByUser",
      "outputs": [
        {
          "internalType": "address",
          "name": "",
          "type": "address"
        }
      ],
      "stateMutability": "view",
      "type": "function"
    }
  ],
  "bytecode": "0x6080604052348015600f57600080fd5b50610f738061001f6000396000f3fe608060405234801561001057600080fd5b50600436106100835760003560e01c8063260e45aa14610088578063715018a6146100b15780638da5cb5b146100bb578063d3e20d8c146100c3578063e7f79cec146100ec578063f2fde38b146100ff578063f5ff5c7614610112578063f887ea4014610125578063f8c8765e14610138575b600080fd5b61009b6100963660046107c5565b61014b565b6040516100a8919061083d565b60405180910390f35b6100b9610281565b005b61009b610295565b61009b6100d1366004610851565b6003602052600090815260409020546001600160a01b031681565b60005461009b906001600160a01b031681565b6100b961010d36600461086a565b6102b0565b60055461009b906001600160a01b031681565b60045461009b906001600160a01b031681565b6100b9610146366004610885565b6102ee565b6000610155610295565b6001600160a01b0316336001600160a01b0316148061017e57506005546001600160a01b031633145b8061019357506005546001600160a01b031632145b6101d65760405162461bcd60e51b815260206004820152600f60248201526e6e6f7420617574686f72697a65642160881b60448201526064015b60405180910390fd5b6000868152600360205260409020546001600160a01b0316156102315760405162461bcd60e51b8152602060048201526013602482015272105b1c9958591e481a5b9a5d1a585b1a5e9959606a1b60448201526064016101cd565b60006102418888888888886104dd565b600088815260036020526040902080546001600160a01b0319166001600160a01b03831617905590506102756001826105fc565b50979650505050505050565b61028961061a565b610293600061064c565b565b6000806102a06106a8565b546001600160a01b031692915050565b6102b861061a565b6001600160a01b0381166102e2576000604051631e4fbdf760e01b81526004016101cd919061083d565b6102eb8161064c565b50565b60006102f86106cc565b805490915060ff600160401b82041615906001600160401b031660008115801561031f5750825b90506000826001600160401b0316600114801561033b5750303b155b905081158015610349575080155b156103675760405163f92ee8a960e01b815260040160405180910390fd5b84546001600160401b0319166001178555831561039057845460ff60401b1916600160401b1785555b6001600160a01b0389166103df5760405162461bcd60e51b81526020600482015260166024820152754f776e65722069732061646472657373207a65726f2160501b60448201526064016101cd565b6001600160a01b03861661042f5760405162461bcd60e51b8152602060048201526017602482015276426561636f6e2069732061646472657373207a65726f2160481b60448201526064016101cd565b600080546001600160a01b0319166001600160a01b038816179055610453896106f5565b61045c8961064c565b600480546001600160a01b03808b166001600160a01b03199283161790925560058054928a169290911691909117905583156104d257845460ff60401b19168555604051600181527fc7f505b2f371ae2175ee4913f4499e1f2633a7b5936321eed1cdaeb6115181d29060200160405180910390a15b505050505050505050565b6000806363acc14d60e01b6104f0610295565b6040516001600160a01b039182166024820152818b166044820152306064820152608481018a905281891660a482015281881660c482015290861660e482015261ffff85166101048201526101240160408051601f19818403018152918152602080830180516001600160e01b03166001600160e01b0319909516949094179093525190925060009161058991329143918691016108fd565b6040516020818303038152906040528051906020012090508060008054906101000a90046001600160a01b0316836040516105c39061079c565b6105ce92919061093a565b8190604051809103906000f59050801580156105ee573d6000803e3d6000fd5b509998505050505050505050565b6000610611836001600160a01b038416610706565b90505b92915050565b33610623610295565b6001600160a01b031614610293573360405163118cdaa760e01b81526004016101cd919061083d565b60006106566106a8565b80546001600160a01b038481166001600160a01b031983168117845560405193945091169182907f8be0079c531659141344cd1fd0a4f28419497f9722a3daafe3b4186f6b6457e090600090a3505050565b7f9016d09d72d40fdae2fd8ceac6b6234c7706214fd39c1cd1e609a0528c19930090565b6000807ff0c57e16840df040f15088dc2f81fe391c3923bec73e23a9662efc9c229c6a00610614565b6106fd610755565b6102eb8161077a565b600081815260018301602052604081205461074d57508154600181810184556000848152602080822090930184905584548482528286019093526040902091909155610614565b506000610614565b61075d610782565b61029357604051631afcd79f60e31b815260040160405180910390fd5b6102b8610755565b600061078c6106cc565b54600160401b900460ff16919050565b6105c18061097d83390190565b80356001600160a01b03811681146107c057600080fd5b919050565b60008060008060008060c087890312156107de57600080fd5b6107e7876107a9565b9550602087013594506107fc604088016107a9565b935061080a606088016107a9565b9250610818608088016107a9565b915060a087013561ffff8116811461082f57600080fd5b809150509295509295509295565b6001600160a01b0391909116815260200190565b60006020828403121561086357600080fd5b5035919050565b60006020828403121561087c57600080fd5b610611826107a9565b6000806000806080858703121561089b57600080fd5b6108a4856107a9565b93506108b2602086016107a9565b92506108c0604086016107a9565b91506108ce606086016107a9565b905092959194509250565b60005b838110156108f45781810151838201526020016108dc565b50506000910152565b606084901b6001600160601b031916815260148101839052815160009061092b8160348501602087016108d9565b91909101603401949350505050565b60018060a01b038316815260406020820152600082518060408401526109678160608501602087016108d9565b601f01601f191691909101606001939250505056fe60a06040526040516105c13803806105c18339810160408190526100229161036f565b61002c828261003e565b506001600160a01b0316608052610480565b610047826100fe565b6040516001600160a01b038316907f1cf3b03a6cf19fa2baba4df148e9dcabedea7f8a5c07840e207e5c089be95d3e90600090a28051156100f2576100ed826001600160a01b0316635c60da1b6040518163ffffffff1660e01b8152600401602060405180830381865afa1580156100c3573d6000803e3d6000fd5b505050506040513d601f19601f820116820180604052508101906100e79190610435565b82610203565b505050565b6100fa61027a565b5050565b806001600160a01b03163b6000036101345780604051631933b43b60e21b815260040161012b9190610450565b60405180910390fd5b807fa3f0ad74e5423aebfd80d3ef4346578335a9a72aeaee59ff6cb3582b35133d5080546001600160a01b0319166001600160a01b0392831617905560408051635c60da1b60e01b81529051600092841691635c60da1b9160048083019260209291908290030181865afa1580156101b0573d6000803e3d6000fd5b505050506040513d601f19601f820116820180604052508101906101d49190610435565b9050806001600160a01b03163b6000036100fa5780604051634c9c8ce360e01b815260040161012b9190610450565b6060600080846001600160a01b0316846040516102209190610464565b600060405180830381855af49150503d806000811461025b576040519150601f19603f3d011682016040523d82523d6000602084013e610260565b606091505b50909250905061027185838361029b565b95945050505050565b34156102995760405163b398979f60e01b815260040160405180910390fd5b565b6060826102b0576102ab826102f1565b6102ea565b81511580156102c757506001600160a01b0384163b155b156102e75783604051639996b31560e01b815260040161012b9190610450565b50805b9392505050565b80511561030057805160208201fd5b60405163d6bda27560e01b815260040160405180910390fd5b80516001600160a01b038116811461033057600080fd5b919050565b634e487b7160e01b600052604160045260246000fd5b60005b8381101561036657818101518382015260200161034e565b50506000910152565b6000806040838503121561038257600080fd5b61038b83610319565b60208401519092506001600160401b038111156103a757600080fd5b8301601f810185136103b857600080fd5b80516001600160401b038111156103d1576103d1610335565b604051601f8201601f19908116603f011681016001600160401b03811182821017156103ff576103ff610335565b60405281815282820160200187101561041757600080fd5b61042882602083016020860161034b565b8093505050509250929050565b60006020828403121561044757600080fd5b6102ea82610319565b6001600160a01b0391909116815260200190565b6000825161047681846020870161034b565b9190910192915050565b60805161012761049a6000396000601e01526101276000f3fe6080604052600a600c565b005b60186014601a565b60a0565b565b60007f00000000000000000000000000000000000000000000000000000000000000006001600160a01b0316635c60da1b6040518163ffffffff1660e01b8152600401602060405180830381865afa1580156079573d6000803e3d6000fd5b505050506040513d601f19601f82011682018060405250810190609b919060c3565b905090565b3660008037600080366000845af43d6000803e80801560be573d6000f35b3d6000fd5b60006020828403121560d457600080fd5b81516001600160a01b038116811460ea57600080fd5b939250505056fea264697066735822122057dab7e7bd3cc8842bd17a2158f56aa5ca974259edfb3506e71b7f09204e096e64736f6c634300081c0033a2646970667358221220e73f38f82f0892ce618784274ee070a6d2d7fa45c7edafc48246a75b3398999964736f6c634300081c0033",
  "linkReferences": {},
  "deployedLinkReferences": {}
}