{
  "_format": "hh-sol-artifact-1",
  "contractName": "SmartWalletFactory",
  "sourceName": "contracts/core/SmartWalletFactory.sol",
  "abi": [
    {
      "inputs": [],
      "name": "InvalidInitialization",
      "type": "error"
    },
    {
      "inputs": [],
      "name": "NotInitializing",
      "type": "error"
    },
    {
      "inputs": [
        {
          "internalType": "address",
          "name": "owner",
          "type": "address"
        }
      ],
      "name": "OwnableInvalidOwner",
      "type": "error"
    },
    {
      "inputs": [
        {
          "internalType": "address",
          "name": "account",
          "type": "address"
        }
      ],
      "name": "OwnableUnauthorizedAccount",
      "type": "error"
    },
    {
      "anonymous": false,
      "inputs": [
        {
          "indexed": false,
          "internalType": "uint64",
          "name": "version",
          "type": "uint64"
        }
      ],
      "name": "Initialized",
      "type": "event"
    },
    {
      "anonymous": false,
      "inputs": [
        {
          "indexed": true,
          "internalType": "address",
          "name": "previousOwner",
          "type": "address"
        },
        {
          "indexed": true,
          "internalType": "address",
          "name": "newOwner",
          "type": "address"
        }
      ],
      "name": "OwnershipTransferred",
      "type": "event"
    },
    {
      "inputs": [],
      "name": "SmartWalletBeacon",
      "outputs": [
        {
          "internalType": "contract ISmartWalletBeacon",
          "name": "",
          "type": "address"
        }
      ],
      "stateMutability": "view",
      "type": "function"
    },
    {
      "inputs": [],
      "name": "agent",
      "outputs": [
        {
          "internalType": "address",
          "name": "",
          "type": "address"
        }
      ],
      "stateMutability": "view",
      "type": "function"
    },
    {
      "inputs": [
        {
          "internalType": "address",
          "name": "agent",
          "type": "address"
        },
        {
          "internalType": "bytes32",
          "name": "user",
          "type": "bytes32"
        },
        {
          "internalType": "address",
          "name": "wormhole",
          "type": "address"
        },
        {
          "internalType": "address",
          "name": "tokenBridge",
          "type": "address"
        },
        {
          "internalType": "address",
          "name": "weth",
          "type": "address"
        },
        {
          "internalType": "uint16",
          "name": "chainId",
          "type": "uint16"
        }
      ],
      "name": "createSmartWallet",
      "outputs": [
        {
          "internalType": "address",
          "name": "",
          "type": "address"
        }
      ],
      "stateMutability": "nonpayable",
      "type": "function"
    },
    {
      "inputs": [
        {
          "internalType": "address",
          "name": "new_owner",
          "type": "address"
        },
        {
          "internalType": "address",
          "name": "agent_",
          "type": "address"
        },
        {
          "internalType": "address",
          "name": "beacon",
          "type": "address"
        }
      ],
      "name": "initialize",
      "outputs": [],
      "stateMutability": "nonpayable",
      "type": "function"
    },
    {
      "inputs": [],
      "name": "owner",
      "outputs": [
        {
          "internalType": "address",
          "name": "",
          "type": "address"
        }
      ],
      "stateMutability": "view",
      "type": "function"
    },
    {
      "inputs": [],
      "name": "renounceOwnership",
      "outputs": [],
      "stateMutability": "nonpayable",
      "type": "function"
    },
    {
      "inputs": [],
      "name": "router",
      "outputs": [
        {
          "internalType": "address",
          "name": "",
          "type": "address"
        }
      ],
      "stateMutability": "view",
      "type": "function"
    },
    {
      "inputs": [
        {
          "internalType": "address",
          "name": "new_router",
          "type": "address"
        }
      ],
      "name": "setRouter",
      "outputs": [],
      "stateMutability": "nonpayable",
      "type": "function"
    },
    {
      "inputs": [
        {
          "internalType": "address",
          "name": "newOwner",
          "type": "address"
        }
      ],
      "name": "transferOwnership",
      "outputs": [],
      "stateMutability": "nonpayable",
      "type": "function"
    },
    {
      "inputs": [
        {
          "internalType": "bytes32",
          "name": "",
          "type": "bytes32"
        }
      ],
      "name": "walletsByUser",
      "outputs": [
        {
          "internalType": "address",
          "name": "",
          "type": "address"
        }
      ],
      "stateMutability": "view",
      "type": "function"
    }
  ],
  "bytecode": "0x6080604052348015600f57600080fd5b50610f948061001f6000396000f3fe608060405234801561001057600080fd5b506004361061008e5760003560e01c8063260e45aa14610093578063715018a6146100bc5780638da5cb5b146100c6578063c0c53b8b146100ce578063c0d78655146100e1578063d3e20d8c146100f4578063e7f79cec1461011d578063f2fde38b14610130578063f5ff5c7614610143578063f887ea4014610156575b600080fd5b6100a66100a13660046107f7565b610169565b6040516100b3919061086f565b60405180910390f35b6100c461029f565b005b6100a66102b3565b6100c46100dc366004610883565b6102ce565b6100c46100ef3660046108c6565b6104a7565b6100a66101023660046108e1565b6003602052600090815260409020546001600160a01b031681565b6000546100a6906001600160a01b031681565b6100c461013e3660046108c6565b6104d1565b6005546100a6906001600160a01b031681565b6004546100a6906001600160a01b031681565b60006101736102b3565b6001600160a01b0316336001600160a01b0316148061019c57506005546001600160a01b031633145b806101b157506005546001600160a01b031632145b6101f45760405162461bcd60e51b815260206004820152600f60248201526e6e6f7420617574686f72697a65642160881b60448201526064015b60405180910390fd5b6000868152600360205260409020546001600160a01b03161561024f5760405162461bcd60e51b8152602060048201526013602482015272105b1c9958591e481a5b9a5d1a585b1a5e9959606a1b60448201526064016101eb565b600061025f88888888888861050f565b600088815260036020526040902080546001600160a01b0319166001600160a01b038316179055905061029360018261062e565b50979650505050505050565b6102a761064c565b6102b1600061067e565b565b6000806102be6106da565b546001600160a01b031692915050565b60006102d86106fe565b805490915060ff600160401b82041615906001600160401b03166000811580156102ff5750825b90506000826001600160401b0316600114801561031b5750303b155b905081158015610329575080155b156103475760405163f92ee8a960e01b815260040160405180910390fd5b84546001600160401b0319166001178555831561037057845460ff60401b1916600160401b1785555b6001600160a01b0388166103bf5760405162461bcd60e51b81526020600482015260166024820152754f776e65722069732061646472657373207a65726f2160501b60448201526064016101eb565b6001600160a01b03861661040f5760405162461bcd60e51b8152602060048201526017602482015276426561636f6e2069732061646472657373207a65726f2160481b60448201526064016101eb565b600080546001600160a01b0319166001600160a01b03881617905561043388610727565b61043c8861067e565b600580546001600160a01b0319166001600160a01b038916179055831561049d57845460ff60401b19168555604051600181527fc7f505b2f371ae2175ee4913f4499e1f2633a7b5936321eed1cdaeb6115181d29060200160405180910390a15b5050505050505050565b6104af61064c565b600480546001600160a01b0319166001600160a01b0392909216919091179055565b6104d961064c565b6001600160a01b038116610503576000604051631e4fbdf760e01b81526004016101eb919061086f565b61050c8161067e565b50565b6000806363acc14d60e01b6105226102b3565b6040516001600160a01b039182166024820152818b166044820152306064820152608481018a905281891660a482015281881660c482015290861660e482015261ffff85166101048201526101240160408051601f19818403018152918152602080830180516001600160e01b03166001600160e01b031990951694909417909352519092506000916105bb913291439186910161091e565b6040516020818303038152906040528051906020012090508060008054906101000a90046001600160a01b0316836040516105f5906107ce565b61060092919061095b565b8190604051809103906000f5905080158015610620573d6000803e3d6000fd5b509998505050505050505050565b6000610643836001600160a01b038416610738565b90505b92915050565b336106556102b3565b6001600160a01b0316146102b1573360405163118cdaa760e01b81526004016101eb919061086f565b60006106886106da565b80546001600160a01b038481166001600160a01b031983168117845560405193945091169182907f8be0079c531659141344cd1fd0a4f28419497f9722a3daafe3b4186f6b6457e090600090a3505050565b7f9016d09d72d40fdae2fd8ceac6b6234c7706214fd39c1cd1e609a0528c19930090565b6000807ff0c57e16840df040f15088dc2f81fe391c3923bec73e23a9662efc9c229c6a00610646565b61072f610787565b61050c816107ac565b600081815260018301602052604081205461077f57508154600181810184556000848152602080822090930184905584548482528286019093526040902091909155610646565b506000610646565b61078f6107b4565b6102b157604051631afcd79f60e31b815260040160405180910390fd5b6104d9610787565b60006107be6106fe565b54600160401b900460ff16919050565b6105c18061099e83390190565b80356001600160a01b03811681146107f257600080fd5b919050565b60008060008060008060c0878903121561081057600080fd5b610819876107db565b95506020870135945061082e604088016107db565b935061083c606088016107db565b925061084a608088016107db565b915060a087013561ffff8116811461086157600080fd5b809150509295509295509295565b6001600160a01b0391909116815260200190565b60008060006060848603121561089857600080fd5b6108a1846107db565b92506108af602085016107db565b91506108bd604085016107db565b90509250925092565b6000602082840312156108d857600080fd5b610643826107db565b6000602082840312156108f357600080fd5b5035919050565b60005b838110156109155781810151838201526020016108fd565b50506000910152565b606084901b6001600160601b031916815260148101839052815160009061094c8160348501602087016108fa565b91909101603401949350505050565b60018060a01b038316815260406020820152600082518060408401526109888160608501602087016108fa565b601f01601f191691909101606001939250505056fe60a06040526040516105c13803806105c18339810160408190526100229161036f565b61002c828261003e565b506001600160a01b0316608052610480565b610047826100fe565b6040516001600160a01b038316907f1cf3b03a6cf19fa2baba4df148e9dcabedea7f8a5c07840e207e5c089be95d3e90600090a28051156100f2576100ed826001600160a01b0316635c60da1b6040518163ffffffff1660e01b8152600401602060405180830381865afa1580156100c3573d6000803e3d6000fd5b505050506040513d601f19601f820116820180604052508101906100e79190610435565b82610203565b505050565b6100fa61027a565b5050565b806001600160a01b03163b6000036101345780604051631933b43b60e21b815260040161012b9190610450565b60405180910390fd5b807fa3f0ad74e5423aebfd80d3ef4346578335a9a72aeaee59ff6cb3582b35133d5080546001600160a01b0319166001600160a01b0392831617905560408051635c60da1b60e01b81529051600092841691635c60da1b9160048083019260209291908290030181865afa1580156101b0573d6000803e3d6000fd5b505050506040513d601f19601f820116820180604052508101906101d49190610435565b9050806001600160a01b03163b6000036100fa5780604051634c9c8ce360e01b815260040161012b9190610450565b6060600080846001600160a01b0316846040516102209190610464565b600060405180830381855af49150503d806000811461025b576040519150601f19603f3d011682016040523d82523d6000602084013e610260565b606091505b50909250905061027185838361029b565b95945050505050565b34156102995760405163b398979f60e01b815260040160405180910390fd5b565b6060826102b0576102ab826102f1565b6102ea565b81511580156102c757506001600160a01b0384163b155b156102e75783604051639996b31560e01b815260040161012b9190610450565b50805b9392505050565b80511561030057805160208201fd5b60405163d6bda27560e01b815260040160405180910390fd5b80516001600160a01b038116811461033057600080fd5b919050565b634e487b7160e01b600052604160045260246000fd5b60005b8381101561036657818101518382015260200161034e565b50506000910152565b6000806040838503121561038257600080fd5b61038b83610319565b60208401519092506001600160401b038111156103a757600080fd5b8301601f810185136103b857600080fd5b80516001600160401b038111156103d1576103d1610335565b604051601f8201601f19908116603f011681016001600160401b03811182821017156103ff576103ff610335565b60405281815282820160200187101561041757600080fd5b61042882602083016020860161034b565b8093505050509250929050565b60006020828403121561044757600080fd5b6102ea82610319565b6001600160a01b0391909116815260200190565b6000825161047681846020870161034b565b9190910192915050565b60805161012761049a6000396000601e01526101276000f3fe6080604052600a600c565b005b60186014601a565b60a0565b565b60007f00000000000000000000000000000000000000000000000000000000000000006001600160a01b0316635c60da1b6040518163ffffffff1660e01b8152600401602060405180830381865afa1580156079573d6000803e3d6000fd5b505050506040513d601f19601f82011682018060405250810190609b919060c3565b905090565b3660008037600080366000845af43d6000803e80801560be573d6000f35b3d6000fd5b60006020828403121560d457600080fd5b81516001600160a01b038116811460ea57600080fd5b939250505056fea264697066735822122057dab7e7bd3cc8842bd17a2158f56aa5ca974259edfb3506e71b7f09204e096e64736f6c634300081c0033a2646970667358221220dd1ef9af4a4eecee456d446578ad96945c8f6344096245208cedd73d708561d364736f6c634300081c0033",
  "linkReferences": {},
  "deployedLinkReferences": {}
}