{
  "_format": "hh-sol-artifact-1",
  "contractName": "SmartWalletRouter",
  "sourceName": "contracts/SmartWalletRouter.sol",
  "abi": [
    {
      "inputs": [
        {
          "internalType": "address",
          "name": "target",
          "type": "address"
        }
      ],
      "name": "AddressEmptyCode",
      "type": "error"
    },
    {
      "inputs": [
        {
          "internalType": "address",
          "name": "implementation",
          "type": "address"
        }
      ],
      "name": "ERC1967InvalidImplementation",
      "type": "error"
    },
    {
      "inputs": [],
      "name": "ERC1967NonPayable",
      "type": "error"
    },
    {
      "inputs": [],
      "name": "EnforcedPause",
      "type": "error"
    },
    {
      "inputs": [],
      "name": "ExpectedPause",
      "type": "error"
    },
    {
      "inputs": [],
      "name": "FailedCall",
      "type": "error"
    },
    {
      "inputs": [],
      "name": "InvalidInitialization",
      "type": "error"
    },
    {
      "inputs": [],
      "name": "NotInitializing",
      "type": "error"
    },
    {
      "inputs": [
        {
          "internalType": "address",
          "name": "owner",
          "type": "address"
        }
      ],
      "name": "OwnableInvalidOwner",
      "type": "error"
    },
    {
      "inputs": [
        {
          "internalType": "address",
          "name": "account",
          "type": "address"
        }
      ],
      "name": "OwnableUnauthorizedAccount",
      "type": "error"
    },
    {
      "inputs": [],
      "name": "ReentrancyGuardReentrantCall",
      "type": "error"
    },
    {
      "inputs": [],
      "name": "UUPSUnauthorizedCallContext",
      "type": "error"
    },
    {
      "inputs": [
        {
          "internalType": "bytes32",
          "name": "slot",
          "type": "bytes32"
        }
      ],
      "name": "UUPSUnsupportedProxiableUUID",
      "type": "error"
    },
    {
      "anonymous": false,
      "inputs": [
        {
          "indexed": false,
          "internalType": "uint64",
          "name": "version",
          "type": "uint64"
        }
      ],
      "name": "Initialized",
      "type": "event"
    },
    {
      "anonymous": false,
      "inputs": [
        {
          "indexed": true,
          "internalType": "address",
          "name": "previousOwner",
          "type": "address"
        },
        {
          "indexed": true,
          "internalType": "address",
          "name": "newOwner",
          "type": "address"
        }
      ],
      "name": "OwnershipTransferred",
      "type": "event"
    },
    {
      "anonymous": false,
      "inputs": [
        {
          "indexed": false,
          "internalType": "address",
          "name": "account",
          "type": "address"
        }
      ],
      "name": "Paused",
      "type": "event"
    },
    {
      "anonymous": false,
      "inputs": [
        {
          "indexed": false,
          "internalType": "address",
          "name": "account",
          "type": "address"
        }
      ],
      "name": "Unpaused",
      "type": "event"
    },
    {
      "anonymous": false,
      "inputs": [
        {
          "indexed": true,
          "internalType": "address",
          "name": "implementation",
          "type": "address"
        }
      ],
      "name": "Upgraded",
      "type": "event"
    },
    {
      "inputs": [],
      "name": "UPGRADE_INTERFACE_VERSION",
      "outputs": [
        {
          "internalType": "string",
          "name": "",
          "type": "string"
        }
      ],
      "stateMutability": "view",
      "type": "function"
    },
    {
      "inputs": [],
      "name": "agent",
      "outputs": [
        {
          "internalType": "address",
          "name": "",
          "type": "address"
        }
      ],
      "stateMutability": "view",
      "type": "function"
    },
    {
      "inputs": [],
      "name": "chainId",
      "outputs": [
        {
          "internalType": "uint16",
          "name": "",
          "type": "uint16"
        }
      ],
      "stateMutability": "view",
      "type": "function"
    },
    {
      "inputs": [
        {
          "internalType": "address",
          "name": "new_agent",
          "type": "address"
        }
      ],
      "name": "changeAgent",
      "outputs": [],
      "stateMutability": "nonpayable",
      "type": "function"
    },
    {
      "inputs": [
        {
          "internalType": "address",
          "name": "new_factory",
          "type": "address"
        }
      ],
      "name": "changeFactory",
      "outputs": [],
      "stateMutability": "nonpayable",
      "type": "function"
    },
    {
      "inputs": [
        {
          "internalType": "bytes32",
          "name": "user",
          "type": "bytes32"
        }
      ],
      "name": "createSmartWallet",
      "outputs": [
        {
          "internalType": "address",
          "name": "",
          "type": "address"
        }
      ],
      "stateMutability": "nonpayable",
      "type": "function"
    },
    {
      "inputs": [],
      "name": "factory",
      "outputs": [
        {
          "internalType": "contract ISmartWalletFactory",
          "name": "",
          "type": "address"
        }
      ],
      "stateMutability": "view",
      "type": "function"
    },
    {
      "inputs": [
        {
          "internalType": "address",
          "name": "new_owner",
          "type": "address"
        },
        {
          "internalType": "address",
          "name": "factory_",
          "type": "address"
        },
        {
          "internalType": "address",
          "name": "agent_",
          "type": "address"
        },
        {
          "internalType": "address",
          "name": "wormhole_",
          "type": "address"
        },
        {
          "internalType": "address",
          "name": "tokenBridge_",
          "type": "address"
        },
        {
          "internalType": "address",
          "name": "weth_",
          "type": "address"
        },
        {
          "internalType": "uint16",
          "name": "chainId_",
          "type": "uint16"
        }
      ],
      "name": "initialize",
      "outputs": [],
      "stateMutability": "nonpayable",
      "type": "function"
    },
    {
      "inputs": [],
      "name": "owner",
      "outputs": [
        {
          "internalType": "address",
          "name": "",
          "type": "address"
        }
      ],
      "stateMutability": "view",
      "type": "function"
    },
    {
      "inputs": [],
      "name": "paused",
      "outputs": [
        {
          "internalType": "bool",
          "name": "",
          "type": "bool"
        }
      ],
      "stateMutability": "view",
      "type": "function"
    },
    {
      "inputs": [],
      "name": "proxiableUUID",
      "outputs": [
        {
          "internalType": "bytes32",
          "name": "",
          "type": "bytes32"
        }
      ],
      "stateMutability": "view",
      "type": "function"
    },
    {
      "inputs": [
        {
          "internalType": "bytes32",
          "name": "user",
          "type": "bytes32"
        },
        {
          "internalType": "bytes",
          "name": "encodeMessage",
          "type": "bytes"
        }
      ],
      "name": "receiveMessage",
      "outputs": [],
      "stateMutability": "nonpayable",
      "type": "function"
    },
    {
      "inputs": [],
      "name": "renounceOwnership",
      "outputs": [],
      "stateMutability": "nonpayable",
      "type": "function"
    },
    {
      "inputs": [],
      "name": "tokenBridge",
      "outputs": [
        {
          "internalType": "address",
          "name": "",
          "type": "address"
        }
      ],
      "stateMutability": "view",
      "type": "function"
    },
    {
      "inputs": [
        {
          "internalType": "address",
          "name": "newOwner",
          "type": "address"
        }
      ],
      "name": "transferOwnership",
      "outputs": [],
      "stateMutability": "nonpayable",
      "type": "function"
    },
    {
      "inputs": [
        {
          "internalType": "bytes32",
          "name": "user",
          "type": "bytes32"
        },
        {
          "internalType": "address",
          "name": "token",
          "type": "address"
        },
        {
          "internalType": "uint256",
          "name": "amount",
          "type": "uint256"
        },
        {
          "internalType": "uint256",
          "name": "arbiterFee",
          "type": "uint256"
        },
        {
          "internalType": "uint32",
          "name": "nonce",
          "type": "uint32"
        }
      ],
      "name": "transferTokenBackToSmartWallet",
      "outputs": [],
      "stateMutability": "nonpayable",
      "type": "function"
    },
    {
      "inputs": [
        {
          "internalType": "address",
          "name": "newImplementation",
          "type": "address"
        },
        {
          "internalType": "bytes",
          "name": "data",
          "type": "bytes"
        }
      ],
      "name": "upgradeToAndCall",
      "outputs": [],
      "stateMutability": "payable",
      "type": "function"
    },
    {
      "inputs": [
        {
          "internalType": "bytes32",
          "name": "",
          "type": "bytes32"
        }
      ],
      "name": "walletByUser",
      "outputs": [
        {
          "internalType": "address",
          "name": "",
          "type": "address"
        }
      ],
      "stateMutability": "view",
      "type": "function"
    },
    {
      "inputs": [],
      "name": "weth",
      "outputs": [
        {
          "internalType": "address",
          "name": "",
          "type": "address"
        }
      ],
      "stateMutability": "view",
      "type": "function"
    },
    {
      "inputs": [],
      "name": "wormhole",
      "outputs": [
        {
          "internalType": "address",
          "name": "",
          "type": "address"
        }
      ],
      "stateMutability": "view",
      "type": "function"
    },
    {
      "stateMutability": "payable",
      "type": "receive"
    }
  ],
  "bytecode": "0x60a060405230608052348015601357600080fd5b5060805161118961003d600039600081816109030152818161092c0152610a6901526111896000f3fe6080604052600436106100f35760003560e01c80630af08514146100ff57806311c6e7411461012157806332f2b3091461014157806338f7b9b4146101775780633fc8cef3146101ad5780634f1ef286146101cd57806352d1902d146101e057806357f032e7146102035780635c975abb14610223578063715018a61461026557806371c654ee1461027a57806384acd1bb1461029a5780638da5cb5b146102ba5780639a8a0592146102cf578063ad3cb1cc14610304578063c45a015514610342578063c6328a4614610362578063e151413914610382578063f2fde38b146103a2578063f5ff5c76146103c257600080fd5b366100fa57005b600080fd5b34801561010b57600080fd5b5061011f61011a366004610dc3565b6103e2565b005b34801561012d57600080fd5b5061011f61013c366004610e22565b6104af565b34801561014d57600080fd5b5061016161015c366004610e3f565b6104d9565b60405161016e9190610e58565b60405180910390f35b34801561018357600080fd5b50610161610192366004610e3f565b6002602052600090815260409020546001600160a01b031681565b3480156101b957600080fd5b50600554610161906001600160a01b031681565b61011f6101db366004610f0f565b610578565b3480156101ec57600080fd5b506101f5610597565b60405190815260200161016e565b34801561020f57600080fd5b5061011f61021e366004610e22565b6105b4565b34801561022f57600080fd5b507fcd5ed15c6e187e77e9aee88184c21f4f2182ab5827cb3b7e07fbedcd63f033005460ff16604051901515815260200161016e565b34801561027157600080fd5b5061011f6105de565b34801561028657600080fd5b5061011f610295366004610f5e565b6105f2565b3480156102a657600080fd5b50600354610161906001600160a01b031681565b3480156102c657600080fd5b506101616107de565b3480156102db57600080fd5b506005546102f190600160a01b900461ffff1681565b60405161ffff909116815260200161016e565b34801561031057600080fd5b50610335604051806040016040528060058152602001640352e302e360dc1b81525081565b60405161016e919061104b565b34801561034e57600080fd5b50600054610161906001600160a01b031681565b34801561036e57600080fd5b50600454610161906001600160a01b031681565b34801561038e57600080fd5b5061011f61039d36600461105e565b6107f9565b3480156103ae57600080fd5b5061011f6103bd366004610e22565b610888565b3480156103ce57600080fd5b50600154610161906001600160a01b031681565b6000858152600260205260409020546001600160a01b0316806104205760405162461bcd60e51b81526004016104179061108e565b60405180910390fd5b6040516392f7070960e01b81526001600160a01b038681166004830152602482018690526044820185905263ffffffff841660648301528216906392f70709906084016020604051808303816000875af1158015610482573d6000803e3d6000fd5b505050506040513d601f19601f820116820180604052508101906104a691906110b8565b50505050505050565b6104b76108c6565b600080546001600160a01b0319166001600160a01b0392909216919091179055565b600080546040516332f2b30960e01b81526004810184905282916001600160a01b0316906332f2b309906024016020604051808303816000875af1158015610525573d6000803e3d6000fd5b505050506040513d601f19601f8201168201806040525081019061054991906110e1565b60009384526002602052604090932080546001600160a01b0319166001600160a01b0385161790555090919050565b6105806108f8565b6105898261099d565b61059382826109a5565b5050565b60006105a1610a5e565b5060008051602061113483398151915290565b6105bc6108c6565b600180546001600160a01b0319166001600160a01b0392909216919091179055565b6105e66108c6565b6105f06000610aa7565b565b60006105fc610b03565b805490915060ff600160401b82041615906001600160401b03166000811580156106235750825b90506000826001600160401b0316600114801561063f5750303b155b90508115801561064d575080155b1561066b5760405163f92ee8a960e01b815260040160405180910390fd5b84546001600160401b0319166001178555831561069457845460ff60401b1916600160401b1785555b6001600160a01b038a166106c45760405162461bcd60e51b81526020600482015260006024820152604401610417565b6001600160a01b038b166106f45760405162461bcd60e51b81526020600482015260006024820152604401610417565b600080546001600160a01b03199081166001600160a01b038e8116919091179092556001805482168d84161790556003805482168c8416179055600480549091168a8316179055600580549189166001600160b01b031990921691909117600160a01b61ffff8916021790556107698c610b27565b610771610b38565b610779610b38565b610781610b40565b61078a8c610aa7565b83156107d057845460ff60401b19168555604051600181527fc7f505b2f371ae2175ee4913f4499e1f2633a7b5936321eed1cdaeb6115181d29060200160405180910390a15b505050505050505050505050565b6000806107e9610b50565b546001600160a01b031692915050565b6000828152600260205260409020546001600160a01b03168061082e5760405162461bcd60e51b81526004016104179061108e565b60405163f953cec760e01b81526001600160a01b0382169063f953cec79061085a90859060040161104b565b600060405180830381600087803b15801561087457600080fd5b505af11580156104a6573d6000803e3d6000fd5b6108906108c6565b6001600160a01b0381166108ba576000604051631e4fbdf760e01b81526004016104179190610e58565b6108c381610aa7565b50565b336108cf6107de565b6001600160a01b0316146105f0573360405163118cdaa760e01b81526004016104179190610e58565b306001600160a01b037f000000000000000000000000000000000000000000000000000000000000000016148061097f57507f00000000000000000000000000000000000000000000000000000000000000006001600160a01b0316610973600080516020611134833981519152546001600160a01b031690565b6001600160a01b031614155b156105f05760405163703e46dd60e11b815260040160405180910390fd5b6108c36108c6565b816001600160a01b03166352d1902d6040518163ffffffff1660e01b8152600401602060405180830381865afa9250505080156109ff575060408051601f3d908101601f191682019092526109fc918101906110fe565b60015b610a1e5781604051634c9c8ce360e01b81526004016104179190610e58565b6000805160206111348339815191528114610a4f57604051632a87526960e21b815260048101829052602401610417565b610a598383610b74565b505050565b306001600160a01b037f000000000000000000000000000000000000000000000000000000000000000016146105f05760405163703e46dd60e11b815260040160405180910390fd5b6000610ab1610b50565b80546001600160a01b038481166001600160a01b031983168117845560405193945091169182907f8be0079c531659141344cd1fd0a4f28419497f9722a3daafe3b4186f6b6457e090600090a3505050565b7ff0c57e16840df040f15088dc2f81fe391c3923bec73e23a9662efc9c229c6a0090565b610b2f610bca565b6108c381610bef565b6105f0610bca565b610b48610bca565b6105f0610bf7565b7f9016d09d72d40fdae2fd8ceac6b6234c7706214fd39c1cd1e609a0528c19930090565b610b7d82610c25565b6040516001600160a01b038316907fbc7cd75a20ee27fd9adebab32041f755214dbc6bffa90cc0225b39da2e5c2d3b90600090a2805115610bc257610a598282610c81565b610593610cf7565b610bd2610d16565b6105f057604051631afcd79f60e31b815260040160405180910390fd5b610890610bca565b610bff610bca565b60017f9b779b17422d0df92223018b32b4d1fa46e071723d6817e2486d003becc55f0055565b806001600160a01b03163b600003610c525780604051634c9c8ce360e01b81526004016104179190610e58565b60008051602061113483398151915280546001600160a01b0319166001600160a01b0392909216919091179055565b6060600080846001600160a01b031684604051610c9e9190611117565b600060405180830381855af49150503d8060008114610cd9576040519150601f19603f3d011682016040523d82523d6000602084013e610cde565b606091505b5091509150610cee858383610d30565b95945050505050565b34156105f05760405163b398979f60e01b815260040160405180910390fd5b6000610d20610b03565b54600160401b900460ff16919050565b606082610d4557610d4082610d86565b610d7f565b8151158015610d5c57506001600160a01b0384163b155b15610d7c5783604051639996b31560e01b81526004016104179190610e58565b50805b9392505050565b805115610d9557805160208201fd5b60405163d6bda27560e01b815260040160405180910390fd5b6001600160a01b03811681146108c357600080fd5b600080600080600060a08688031215610ddb57600080fd5b853594506020860135610ded81610dae565b93506040860135925060608601359150608086013563ffffffff81168114610e1457600080fd5b809150509295509295909350565b600060208284031215610e3457600080fd5b8135610d7f81610dae565b600060208284031215610e5157600080fd5b5035919050565b6001600160a01b0391909116815260200190565b634e487b7160e01b600052604160045260246000fd5b600082601f830112610e9357600080fd5b81356001600160401b03811115610eac57610eac610e6c565b604051601f8201601f19908116603f011681016001600160401b0381118282101715610eda57610eda610e6c565b604052818152838201602001851015610ef257600080fd5b816020850160208301376000918101602001919091529392505050565b60008060408385031215610f2257600080fd5b8235610f2d81610dae565b915060208301356001600160401b03811115610f4857600080fd5b610f5485828601610e82565b9150509250929050565b600080600080600080600060e0888a031215610f7957600080fd5b8735610f8481610dae565b96506020880135610f9481610dae565b95506040880135610fa481610dae565b94506060880135610fb481610dae565b93506080880135610fc481610dae565b925060a0880135610fd481610dae565b915060c088013561ffff81168114610feb57600080fd5b8091505092959891949750929550565b60005b83811015611016578181015183820152602001610ffe565b50506000910152565b60008151808452611037816020860160208601610ffb565b601f01601f19169290920160200192915050565b602081526000610d7f602083018461101f565b6000806040838503121561107157600080fd5b8235915060208301356001600160401b03811115610f4857600080fd5b60208082526010908201526f4e6f2077616c6c657420666f756e642160801b604082015260600190565b6000602082840312156110ca57600080fd5b81516001600160401b0381168114610d7f57600080fd5b6000602082840312156110f357600080fd5b8151610d7f81610dae565b60006020828403121561111057600080fd5b5051919050565b60008251611129818460208701610ffb565b919091019291505056fe360894a13ba1a3210667c828492db98dca3e2076cc3735a920a3ca505d382bbca26469706673582212205e559e3e5c62aaaf4b805491dd7de8ca8383695cceb51593b3751645ace4366664736f6c634300081c0033",
  "linkReferences": {},
  "deployedLinkReferences": {}
}