{
  "_format": "hh-sol-artifact-1",
  "contractName": "SmartWalletRouter",
  "sourceName": "contracts/SmartWalletRouter.sol",
  "abi": [
    {
      "inputs": [
        {
          "internalType": "address",
          "name": "target",
          "type": "address"
        }
      ],
      "name": "AddressEmptyCode",
      "type": "error"
    },
    {
      "inputs": [
        {
          "internalType": "address",
          "name": "implementation",
          "type": "address"
        }
      ],
      "name": "ERC1967InvalidImplementation",
      "type": "error"
    },
    {
      "inputs": [],
      "name": "ERC1967NonPayable",
      "type": "error"
    },
    {
      "inputs": [],
      "name": "EnforcedPause",
      "type": "error"
    },
    {
      "inputs": [],
      "name": "ExpectedPause",
      "type": "error"
    },
    {
      "inputs": [],
      "name": "FailedCall",
      "type": "error"
    },
    {
      "inputs": [],
      "name": "InvalidInitialization",
      "type": "error"
    },
    {
      "inputs": [],
      "name": "NotInitializing",
      "type": "error"
    },
    {
      "inputs": [
        {
          "internalType": "address",
          "name": "owner",
          "type": "address"
        }
      ],
      "name": "OwnableInvalidOwner",
      "type": "error"
    },
    {
      "inputs": [
        {
          "internalType": "address",
          "name": "account",
          "type": "address"
        }
      ],
      "name": "OwnableUnauthorizedAccount",
      "type": "error"
    },
    {
      "inputs": [],
      "name": "ReentrancyGuardReentrantCall",
      "type": "error"
    },
    {
      "inputs": [],
      "name": "UUPSUnauthorizedCallContext",
      "type": "error"
    },
    {
      "inputs": [
        {
          "internalType": "bytes32",
          "name": "slot",
          "type": "bytes32"
        }
      ],
      "name": "UUPSUnsupportedProxiableUUID",
      "type": "error"
    },
    {
      "anonymous": false,
      "inputs": [
        {
          "indexed": false,
          "internalType": "uint64",
          "name": "version",
          "type": "uint64"
        }
      ],
      "name": "Initialized",
      "type": "event"
    },
    {
      "anonymous": false,
      "inputs": [
        {
          "indexed": true,
          "internalType": "address",
          "name": "previousOwner",
          "type": "address"
        },
        {
          "indexed": true,
          "internalType": "address",
          "name": "newOwner",
          "type": "address"
        }
      ],
      "name": "OwnershipTransferred",
      "type": "event"
    },
    {
      "anonymous": false,
      "inputs": [
        {
          "indexed": false,
          "internalType": "address",
          "name": "account",
          "type": "address"
        }
      ],
      "name": "Paused",
      "type": "event"
    },
    {
      "anonymous": false,
      "inputs": [
        {
          "indexed": false,
          "internalType": "address",
          "name": "account",
          "type": "address"
        }
      ],
      "name": "Unpaused",
      "type": "event"
    },
    {
      "anonymous": false,
      "inputs": [
        {
          "indexed": true,
          "internalType": "address",
          "name": "implementation",
          "type": "address"
        }
      ],
      "name": "Upgraded",
      "type": "event"
    },
    {
      "inputs": [],
      "name": "UPGRADE_INTERFACE_VERSION",
      "outputs": [
        {
          "internalType": "string",
          "name": "",
          "type": "string"
        }
      ],
      "stateMutability": "view",
      "type": "function"
    },
    {
      "inputs": [],
      "name": "agent",
      "outputs": [
        {
          "internalType": "address",
          "name": "",
          "type": "address"
        }
      ],
      "stateMutability": "view",
      "type": "function"
    },
    {
      "inputs": [],
      "name": "chainId",
      "outputs": [
        {
          "internalType": "uint16",
          "name": "",
          "type": "uint16"
        }
      ],
      "stateMutability": "view",
      "type": "function"
    },
    {
      "inputs": [
        {
          "internalType": "address",
          "name": "new_agent",
          "type": "address"
        }
      ],
      "name": "changeAgent",
      "outputs": [],
      "stateMutability": "nonpayable",
      "type": "function"
    },
    {
      "inputs": [
        {
          "internalType": "bytes32",
          "name": "user",
          "type": "bytes32"
        }
      ],
      "name": "createSmartWallet",
      "outputs": [
        {
          "internalType": "address",
          "name": "",
          "type": "address"
        }
      ],
      "stateMutability": "nonpayable",
      "type": "function"
    },
    {
      "inputs": [],
      "name": "factory",
      "outputs": [
        {
          "internalType": "contract ISmartWalletFactory",
          "name": "",
          "type": "address"
        }
      ],
      "stateMutability": "view",
      "type": "function"
    },
    {
      "inputs": [
        {
          "internalType": "address",
          "name": "new_owner",
          "type": "address"
        },
        {
          "internalType": "address",
          "name": "factory_",
          "type": "address"
        },
        {
          "internalType": "address",
          "name": "agent_",
          "type": "address"
        },
        {
          "internalType": "address",
          "name": "wormhole_",
          "type": "address"
        },
        {
          "internalType": "address",
          "name": "tokenBridge_",
          "type": "address"
        },
        {
          "internalType": "address",
          "name": "weth_",
          "type": "address"
        },
        {
          "internalType": "uint16",
          "name": "chainId_",
          "type": "uint16"
        }
      ],
      "name": "initialize",
      "outputs": [],
      "stateMutability": "nonpayable",
      "type": "function"
    },
    {
      "inputs": [],
      "name": "owner",
      "outputs": [
        {
          "internalType": "address",
          "name": "",
          "type": "address"
        }
      ],
      "stateMutability": "view",
      "type": "function"
    },
    {
      "inputs": [],
      "name": "paused",
      "outputs": [
        {
          "internalType": "bool",
          "name": "",
          "type": "bool"
        }
      ],
      "stateMutability": "view",
      "type": "function"
    },
    {
      "inputs": [],
      "name": "proxiableUUID",
      "outputs": [
        {
          "internalType": "bytes32",
          "name": "",
          "type": "bytes32"
        }
      ],
      "stateMutability": "view",
      "type": "function"
    },
    {
      "inputs": [
        {
          "internalType": "bytes32",
          "name": "user",
          "type": "bytes32"
        },
        {
          "internalType": "bytes",
          "name": "encodeMessage",
          "type": "bytes"
        }
      ],
      "name": "receiveMessage",
      "outputs": [],
      "stateMutability": "nonpayable",
      "type": "function"
    },
    {
      "inputs": [],
      "name": "renounceOwnership",
      "outputs": [],
      "stateMutability": "nonpayable",
      "type": "function"
    },
    {
      "inputs": [],
      "name": "tokenBridge",
      "outputs": [
        {
          "internalType": "address",
          "name": "",
          "type": "address"
        }
      ],
      "stateMutability": "view",
      "type": "function"
    },
    {
      "inputs": [
        {
          "internalType": "address",
          "name": "newOwner",
          "type": "address"
        }
      ],
      "name": "transferOwnership",
      "outputs": [],
      "stateMutability": "nonpayable",
      "type": "function"
    },
    {
      "inputs": [
        {
          "internalType": "bytes32",
          "name": "user",
          "type": "bytes32"
        },
        {
          "internalType": "address",
          "name": "token",
          "type": "address"
        },
        {
          "internalType": "uint256",
          "name": "amount",
          "type": "uint256"
        },
        {
          "internalType": "uint256",
          "name": "arbiterFee",
          "type": "uint256"
        },
        {
          "internalType": "uint32",
          "name": "nonce",
          "type": "uint32"
        }
      ],
      "name": "transferTokenBackToSmartWallet",
      "outputs": [],
      "stateMutability": "nonpayable",
      "type": "function"
    },
    {
      "inputs": [
        {
          "internalType": "address",
          "name": "newImplementation",
          "type": "address"
        },
        {
          "internalType": "bytes",
          "name": "data",
          "type": "bytes"
        }
      ],
      "name": "upgradeToAndCall",
      "outputs": [],
      "stateMutability": "payable",
      "type": "function"
    },
    {
      "inputs": [
        {
          "internalType": "bytes32",
          "name": "",
          "type": "bytes32"
        }
      ],
      "name": "walletByUser",
      "outputs": [
        {
          "internalType": "address",
          "name": "",
          "type": "address"
        }
      ],
      "stateMutability": "view",
      "type": "function"
    },
    {
      "inputs": [],
      "name": "weth",
      "outputs": [
        {
          "internalType": "address",
          "name": "",
          "type": "address"
        }
      ],
      "stateMutability": "view",
      "type": "function"
    },
    {
      "inputs": [],
      "name": "wormhole",
      "outputs": [
        {
          "internalType": "address",
          "name": "",
          "type": "address"
        }
      ],
      "stateMutability": "view",
      "type": "function"
    },
    {
      "stateMutability": "payable",
      "type": "receive"
    }
  ],
  "bytecode": "0x60a060405230608052348015601357600080fd5b5060805161117661003d600039600081816108be015281816108e70152610a2401526111766000f3fe6080604052600436106100e85760003560e01c80630af08514146100f457806332f2b3091461011657806338f7b9b41461014c5780633fc8cef3146101825780634f1ef286146101a257806352d1902d146101b557806357f032e7146101d85780635c975abb146101f8578063715018a61461023a57806371c654ee1461024f57806384acd1bb1461026f5780638da5cb5b1461028f5780639a8a0592146102a4578063ad3cb1cc146102d9578063c45a015514610317578063c6328a4614610337578063e151413914610357578063f2fde38b14610377578063f5ff5c761461039757600080fd5b366100ef57005b600080fd5b34801561010057600080fd5b5061011461010f366004610db0565b6103b7565b005b34801561012257600080fd5b50610136610131366004610e0f565b610484565b6040516101439190610e28565b60405180910390f35b34801561015857600080fd5b50610136610167366004610e0f565b6002602052600090815260409020546001600160a01b031681565b34801561018e57600080fd5b50600554610136906001600160a01b031681565b6101146101b0366004610edf565b610565565b3480156101c157600080fd5b506101ca610584565b604051908152602001610143565b3480156101e457600080fd5b506101146101f3366004610f2e565b6105a1565b34801561020457600080fd5b507fcd5ed15c6e187e77e9aee88184c21f4f2182ab5827cb3b7e07fbedcd63f033005460ff166040519015158152602001610143565b34801561024657600080fd5b506101146105cb565b34801561025b57600080fd5b5061011461026a366004610f4b565b6105df565b34801561027b57600080fd5b50600354610136906001600160a01b031681565b34801561029b57600080fd5b506101366107cb565b3480156102b057600080fd5b506005546102c690600160a01b900461ffff1681565b60405161ffff9091168152602001610143565b3480156102e557600080fd5b5061030a604051806040016040528060058152602001640352e302e360dc1b81525081565b6040516101439190611038565b34801561032357600080fd5b50600054610136906001600160a01b031681565b34801561034357600080fd5b50600454610136906001600160a01b031681565b34801561036357600080fd5b5061011461037236600461104b565b6107e6565b34801561038357600080fd5b50610114610392366004610f2e565b610875565b3480156103a357600080fd5b50600154610136906001600160a01b031681565b6000858152600260205260409020546001600160a01b0316806103f55760405162461bcd60e51b81526004016103ec9061107b565b60405180910390fd5b6040516392f7070960e01b81526001600160a01b038681166004830152602482018690526044820185905263ffffffff841660648301528216906392f70709906084016020604051808303816000875af1158015610457573d6000803e3d6000fd5b505050506040513d601f19601f8201168201806040525081019061047b91906110a5565b50505050505050565b600080546001546003546004805460055460405163130722d560e11b81526001600160a01b0395861693810193909352602483018890529284166044830152831660648201528282166084820152600160a01b90910461ffff1660a48201528392919091169063260e45aa9060c4016020604051808303816000875af1158015610512573d6000803e3d6000fd5b505050506040513d601f19601f8201168201806040525081019061053691906110ce565b60009384526002602052604090932080546001600160a01b0319166001600160a01b0385161790555090919050565b61056d6108b3565b61057682610958565b6105808282610960565b5050565b600061058e610a19565b5060008051602061112183398151915290565b6105a9610a62565b600180546001600160a01b0319166001600160a01b0392909216919091179055565b6105d3610a62565b6105dd6000610a94565b565b60006105e9610af0565b805490915060ff600160401b82041615906001600160401b03166000811580156106105750825b90506000826001600160401b0316600114801561062c5750303b155b90508115801561063a575080155b156106585760405163f92ee8a960e01b815260040160405180910390fd5b84546001600160401b0319166001178555831561068157845460ff60401b1916600160401b1785555b6001600160a01b038a166106b15760405162461bcd60e51b815260206004820152600060248201526044016103ec565b6001600160a01b038b166106e15760405162461bcd60e51b815260206004820152600060248201526044016103ec565b600080546001600160a01b03199081166001600160a01b038e8116919091179092556001805482168d84161790556003805482168c8416179055600480549091168a8316179055600580549189166001600160b01b031990921691909117600160a01b61ffff8916021790556107568c610b14565b61075e610b25565b610766610b25565b61076e610b2d565b6107778c610a94565b83156107bd57845460ff60401b19168555604051600181527fc7f505b2f371ae2175ee4913f4499e1f2633a7b5936321eed1cdaeb6115181d29060200160405180910390a15b505050505050505050505050565b6000806107d6610b3d565b546001600160a01b031692915050565b6000828152600260205260409020546001600160a01b03168061081b5760405162461bcd60e51b81526004016103ec9061107b565b60405163f953cec760e01b81526001600160a01b0382169063f953cec790610847908590600401611038565b600060405180830381600087803b15801561086157600080fd5b505af115801561047b573d6000803e3d6000fd5b61087d610a62565b6001600160a01b0381166108a7576000604051631e4fbdf760e01b81526004016103ec9190610e28565b6108b081610a94565b50565b306001600160a01b037f000000000000000000000000000000000000000000000000000000000000000016148061093a57507f00000000000000000000000000000000000000000000000000000000000000006001600160a01b031661092e600080516020611121833981519152546001600160a01b031690565b6001600160a01b031614155b156105dd5760405163703e46dd60e11b815260040160405180910390fd5b6108b0610a62565b816001600160a01b03166352d1902d6040518163ffffffff1660e01b8152600401602060405180830381865afa9250505080156109ba575060408051601f3d908101601f191682019092526109b7918101906110eb565b60015b6109d95781604051634c9c8ce360e01b81526004016103ec9190610e28565b6000805160206111218339815191528114610a0a57604051632a87526960e21b8152600481018290526024016103ec565b610a148383610b61565b505050565b306001600160a01b037f000000000000000000000000000000000000000000000000000000000000000016146105dd5760405163703e46dd60e11b815260040160405180910390fd5b33610a6b6107cb565b6001600160a01b0316146105dd573360405163118cdaa760e01b81526004016103ec9190610e28565b6000610a9e610b3d565b80546001600160a01b038481166001600160a01b031983168117845560405193945091169182907f8be0079c531659141344cd1fd0a4f28419497f9722a3daafe3b4186f6b6457e090600090a3505050565b7ff0c57e16840df040f15088dc2f81fe391c3923bec73e23a9662efc9c229c6a0090565b610b1c610bb7565b6108b081610bdc565b6105dd610bb7565b610b35610bb7565b6105dd610be4565b7f9016d09d72d40fdae2fd8ceac6b6234c7706214fd39c1cd1e609a0528c19930090565b610b6a82610c12565b6040516001600160a01b038316907fbc7cd75a20ee27fd9adebab32041f755214dbc6bffa90cc0225b39da2e5c2d3b90600090a2805115610baf57610a148282610c6e565b610580610ce4565b610bbf610d03565b6105dd57604051631afcd79f60e31b815260040160405180910390fd5b61087d610bb7565b610bec610bb7565b60017f9b779b17422d0df92223018b32b4d1fa46e071723d6817e2486d003becc55f0055565b806001600160a01b03163b600003610c3f5780604051634c9c8ce360e01b81526004016103ec9190610e28565b60008051602061112183398151915280546001600160a01b0319166001600160a01b0392909216919091179055565b6060600080846001600160a01b031684604051610c8b9190611104565b600060405180830381855af49150503d8060008114610cc6576040519150601f19603f3d011682016040523d82523d6000602084013e610ccb565b606091505b5091509150610cdb858383610d1d565b95945050505050565b34156105dd5760405163b398979f60e01b815260040160405180910390fd5b6000610d0d610af0565b54600160401b900460ff16919050565b606082610d3257610d2d82610d73565b610d6c565b8151158015610d4957506001600160a01b0384163b155b15610d695783604051639996b31560e01b81526004016103ec9190610e28565b50805b9392505050565b805115610d8257805160208201fd5b60405163d6bda27560e01b815260040160405180910390fd5b6001600160a01b03811681146108b057600080fd5b600080600080600060a08688031215610dc857600080fd5b853594506020860135610dda81610d9b565b93506040860135925060608601359150608086013563ffffffff81168114610e0157600080fd5b809150509295509295909350565b600060208284031215610e2157600080fd5b5035919050565b6001600160a01b0391909116815260200190565b634e487b7160e01b600052604160045260246000fd5b600082601f830112610e6357600080fd5b81356001600160401b03811115610e7c57610e7c610e3c565b604051601f8201601f19908116603f011681016001600160401b0381118282101715610eaa57610eaa610e3c565b604052818152838201602001851015610ec257600080fd5b816020850160208301376000918101602001919091529392505050565b60008060408385031215610ef257600080fd5b8235610efd81610d9b565b915060208301356001600160401b03811115610f1857600080fd5b610f2485828601610e52565b9150509250929050565b600060208284031215610f4057600080fd5b8135610d6c81610d9b565b600080600080600080600060e0888a031215610f6657600080fd5b8735610f7181610d9b565b96506020880135610f8181610d9b565b95506040880135610f9181610d9b565b94506060880135610fa181610d9b565b93506080880135610fb181610d9b565b925060a0880135610fc181610d9b565b915060c088013561ffff81168114610fd857600080fd5b8091505092959891949750929550565b60005b83811015611003578181015183820152602001610feb565b50506000910152565b60008151808452611024816020860160208601610fe8565b601f01601f19169290920160200192915050565b602081526000610d6c602083018461100c565b6000806040838503121561105e57600080fd5b8235915060208301356001600160401b03811115610f1857600080fd5b60208082526010908201526f4e6f2077616c6c657420666f756e642160801b604082015260600190565b6000602082840312156110b757600080fd5b81516001600160401b0381168114610d6c57600080fd5b6000602082840312156110e057600080fd5b8151610d6c81610d9b565b6000602082840312156110fd57600080fd5b5051919050565b60008251611116818460208701610fe8565b919091019291505056fe360894a13ba1a3210667c828492db98dca3e2076cc3735a920a3ca505d382bbca2646970667358221220b35abd37205b9df00e3cf5bbcfe9fde2ead8c60e6fa067e95b28165cda0950ec64736f6c634300081c0033",
  "linkReferences": {},
  "deployedLinkReferences": {}
}