{"contracts/core/SmartWalletFactory.sol":{"SmartWalletFactory":{"abi":[{"inputs":[],"name":"InvalidInitialization","type":"error"},{"inputs":[],"name":"NotInitializing","type":"error"},{"inputs":[{"internalType":"address","name":"owner","type":"address"}],"name":"OwnableInvalidOwner","type":"error"},{"inputs":[{"internalType":"address","name":"account","type":"address"}],"name":"OwnableUnauthorizedAccount","type":"error"},{"anonymous":false,"inputs":[{"indexed":false,"internalType":"uint64","name":"version","type":"uint64"}],"name":"Initialized","type":"event"},{"anonymous":false,"inputs":[{"indexed":true,"internalType":"address","name":"previousOwner","type":"address"},{"indexed":true,"internalType":"address","name":"newOwner","type":"address"}],"name":"OwnershipTransferred","type":"event"},{"inputs":[],"name":"SmartWalletBeacon","outputs":[{"internalType":"contract ISmartWalletBeacon","name":"","type":"address"}],"stateMutability":"view","type":"function"},{"inputs":[],"name":"agent","outputs":[{"internalType":"address","name":"","type":"address"}],"stateMutability":"view","type":"function"},{"inputs":[{"internalType":"address","name":"agent","type":"address"},{"internalType":"bytes32","name":"user","type":"bytes32"},{"internalType":"address","name":"wormhole","type":"address"},{"internalType":"address","name":"tokenBridge","type":"address"},{"internalType":"address","name":"weth","type":"address"},{"internalType":"uint16","name":"chainId","type":"uint16"}],"name":"createSmartWallet","outputs":[{"internalType":"address","name":"","type":"address"}],"stateMutability":"nonpayable","type":"function"},{"inputs":[{"internalType":"address","name":"new_owner","type":"address"},{"internalType":"address","name":"router_","type":"address"},{"internalType":"address","name":"agent_","type":"address"},{"internalType":"address","name":"beacon","type":"address"}],"name":"initialize","outputs":[],"stateMutability":"nonpayable","type":"function"},{"inputs":[],"name":"owner","outputs":[{"internalType":"address","name":"","type":"address"}],"stateMutability":"view","type":"function"},{"inputs":[],"name":"renounceOwnership","outputs":[],"stateMutability":"nonpayable","type":"function"},{"inputs":[],"name":"router","outputs":[{"internalType":"address","name":"","type":"address"}],"stateMutability":"view","type":"function"},{"inputs":[{"internalType":"address","name":"newOwner","type":"address"}],"name":"transferOwnership","outputs":[],"stateMutability":"nonpayable","type":"function"},{"inputs":[{"internalType":"bytes32","name":"","type":"bytes32"}],"name":"walletsByUser","outputs":[{"internalType":"address","name":"","type":"address"}],"stateMutability":"view","type":"function"}],"devdoc":{"errors":{"InvalidInitialization()":[{"details":"The contract is already initialized."}],"NotInitializing()":[{"details":"The contract is not initializing."}],"OwnableInvalidOwner(address)":[{"details":"The owner is not a valid owner account. (eg. `address(0)`)"}],"OwnableUnauthorizedAccount(address)":[{"details":"The caller account is not authorized to perform an operation."}]},"events":{"Initialized(uint64)":{"details":"Triggered when the contract has been initialized or reinitialized."}},"kind":"dev","methods":{"owner()":{"details":"Returns the address of the current owner."},"renounceOwnership()":{"details":"Leaves the contract without owner. It will not be possible to call `onlyOwner` functions. Can only be called by the current owner. NOTE: Renouncing ownership will leave the contract without an owner, thereby disabling any functionality that is only available to the owner."},"transferOwnership(address)":{"details":"Transfers ownership of the contract to a new account (`newOwner`). Can only be called by the current owner."}},"version":1},"evm":{"bytecode":{"linkReferences":{},"object":"6080604052348015600f57600080fd5b50610f738061001f6000396000f3fe608060405234801561001057600080fd5b50600436106100835760003560e01c8063260e45aa14610088578063715018a6146100b15780638da5cb5b146100bb578063d3e20d8c146100c3578063e7f79cec146100ec578063f2fde38b146100ff578063f5ff5c7614610112578063f887ea4014610125578063f8c8765e14610138575b600080fd5b61009b6100963660046107c5565b61014b565b6040516100a8919061083d565b60405180910390f35b6100b9610281565b005b61009b610295565b61009b6100d1366004610851565b6003602052600090815260409020546001600160a01b031681565b60005461009b906001600160a01b031681565b6100b961010d36600461086a565b6102b0565b60055461009b906001600160a01b031681565b60045461009b906001600160a01b031681565b6100b9610146366004610885565b6102ee565b6000610155610295565b6001600160a01b0316336001600160a01b0316148061017e57506005546001600160a01b031633145b8061019357506005546001600160a01b031632145b6101d65760405162461bcd60e51b815260206004820152600f60248201526e6e6f7420617574686f72697a65642160881b60448201526064015b60405180910390fd5b6000868152600360205260409020546001600160a01b0316156102315760405162461bcd60e51b8152602060048201526013602482015272105b1c9958591e481a5b9a5d1a585b1a5e9959606a1b60448201526064016101cd565b60006102418888888888886104dd565b600088815260036020526040902080546001600160a01b0319166001600160a01b03831617905590506102756001826105fc565b50979650505050505050565b61028961061a565b610293600061064c565b565b6000806102a06106a8565b546001600160a01b031692915050565b6102b861061a565b6001600160a01b0381166102e2576000604051631e4fbdf760e01b81526004016101cd919061083d565b6102eb8161064c565b50565b60006102f86106cc565b805490915060ff600160401b82041615906001600160401b031660008115801561031f5750825b90506000826001600160401b0316600114801561033b5750303b155b905081158015610349575080155b156103675760405163f92ee8a960e01b815260040160405180910390fd5b84546001600160401b0319166001178555831561039057845460ff60401b1916600160401b1785555b6001600160a01b0389166103df5760405162461bcd60e51b81526020600482015260166024820152754f776e65722069732061646472657373207a65726f2160501b60448201526064016101cd565b6001600160a01b03861661042f5760405162461bcd60e51b8152602060048201526017602482015276426561636f6e2069732061646472657373207a65726f2160481b60448201526064016101cd565b600080546001600160a01b0319166001600160a01b038816179055610453896106f5565b61045c8961064c565b600480546001600160a01b03808b166001600160a01b03199283161790925560058054928a169290911691909117905583156104d257845460ff60401b19168555604051600181527fc7f505b2f371ae2175ee4913f4499e1f2633a7b5936321eed1cdaeb6115181d29060200160405180910390a15b505050505050505050565b6000806363acc14d60e01b6104f0610295565b6040516001600160a01b039182166024820152818b166044820152306064820152608481018a905281891660a482015281881660c482015290861660e482015261ffff85166101048201526101240160408051601f19818403018152918152602080830180516001600160e01b03166001600160e01b0319909516949094179093525190925060009161058991329143918691016108fd565b6040516020818303038152906040528051906020012090508060008054906101000a90046001600160a01b0316836040516105c39061079c565b6105ce92919061093a565b8190604051809103906000f59050801580156105ee573d6000803e3d6000fd5b509998505050505050505050565b6000610611836001600160a01b038416610706565b90505b92915050565b33610623610295565b6001600160a01b031614610293573360405163118cdaa760e01b81526004016101cd919061083d565b60006106566106a8565b80546001600160a01b038481166001600160a01b031983168117845560405193945091169182907f8be0079c531659141344cd1fd0a4f28419497f9722a3daafe3b4186f6b6457e090600090a3505050565b7f9016d09d72d40fdae2fd8ceac6b6234c7706214fd39c1cd1e609a0528c19930090565b6000807ff0c57e16840df040f15088dc2f81fe391c3923bec73e23a9662efc9c229c6a00610614565b6106fd610755565b6102eb8161077a565b600081815260018301602052604081205461074d57508154600181810184556000848152602080822090930184905584548482528286019093526040902091909155610614565b506000610614565b61075d610782565b61029357604051631afcd79f60e31b815260040160405180910390fd5b6102b8610755565b600061078c6106cc565b54600160401b900460ff16919050565b6105c18061097d83390190565b80356001600160a01b03811681146107c057600080fd5b919050565b60008060008060008060c087890312156107de57600080fd5b6107e7876107a9565b9550602087013594506107fc604088016107a9565b935061080a606088016107a9565b9250610818608088016107a9565b915060a087013561ffff8116811461082f57600080fd5b809150509295509295509295565b6001600160a01b0391909116815260200190565b60006020828403121561086357600080fd5b5035919050565b60006020828403121561087c57600080fd5b610611826107a9565b6000806000806080858703121561089b57600080fd5b6108a4856107a9565b93506108b2602086016107a9565b92506108c0604086016107a9565b91506108ce606086016107a9565b905092959194509250565b60005b838110156108f45781810151838201526020016108dc565b50506000910152565b606084901b6001600160601b031916815260148101839052815160009061092b8160348501602087016108d9565b91909101603401949350505050565b60018060a01b038316815260406020820152600082518060408401526109678160608501602087016108d9565b601f01601f191691909101606001939250505056fe60a06040526040516105c13803806105c18339810160408190526100229161036f565b61002c828261003e565b506001600160a01b0316608052610480565b610047826100fe565b6040516001600160a01b038316907f1cf3b03a6cf19fa2baba4df148e9dcabedea7f8a5c07840e207e5c089be95d3e90600090a28051156100f2576100ed826001600160a01b0316635c60da1b6040518163ffffffff1660e01b8152600401602060405180830381865afa1580156100c3573d6000803e3d6000fd5b505050506040513d601f19601f820116820180604052508101906100e79190610435565b82610203565b505050565b6100fa61027a565b5050565b806001600160a01b03163b6000036101345780604051631933b43b60e21b815260040161012b9190610450565b60405180910390fd5b807fa3f0ad74e5423aebfd80d3ef4346578335a9a72aeaee59ff6cb3582b35133d5080546001600160a01b0319166001600160a01b0392831617905560408051635c60da1b60e01b81529051600092841691635c60da1b9160048083019260209291908290030181865afa1580156101b0573d6000803e3d6000fd5b505050506040513d601f19601f820116820180604052508101906101d49190610435565b9050806001600160a01b03163b6000036100fa5780604051634c9c8ce360e01b815260040161012b9190610450565b6060600080846001600160a01b0316846040516102209190610464565b600060405180830381855af49150503d806000811461025b576040519150601f19603f3d011682016040523d82523d6000602084013e610260565b606091505b50909250905061027185838361029b565b95945050505050565b34156102995760405163b398979f60e01b815260040160405180910390fd5b565b6060826102b0576102ab826102f1565b6102ea565b81511580156102c757506001600160a01b0384163b155b156102e75783604051639996b31560e01b815260040161012b9190610450565b50805b9392505050565b80511561030057805160208201fd5b60405163d6bda27560e01b815260040160405180910390fd5b80516001600160a01b038116811461033057600080fd5b919050565b634e487b7160e01b600052604160045260246000fd5b60005b8381101561036657818101518382015260200161034e565b50506000910152565b6000806040838503121561038257600080fd5b61038b83610319565b60208401519092506001600160401b038111156103a757600080fd5b8301601f810185136103b857600080fd5b80516001600160401b038111156103d1576103d1610335565b604051601f8201601f19908116603f011681016001600160401b03811182821017156103ff576103ff610335565b60405281815282820160200187101561041757600080fd5b61042882602083016020860161034b565b8093505050509250929050565b60006020828403121561044757600080fd5b6102ea82610319565b6001600160a01b0391909116815260200190565b6000825161047681846020870161034b565b9190910192915050565b60805161012761049a6000396000601e01526101276000f3fe6080604052600a600c565b005b60186014601a565b60a0565b565b60007f00000000000000000000000000000000000000000000000000000000000000006001600160a01b0316635c60da1b6040518163ffffffff1660e01b8152600401602060405180830381865afa1580156079573d6000803e3d6000fd5b505050506040513d601f19601f82011682018060405250810190609b919060c3565b905090565b3660008037600080366000845af43d6000803e80801560be573d6000f35b3d6000fd5b60006020828403121560d457600080fd5b81516001600160a01b038116811460ea57600080fd5b939250505056fea264697066735822122057dab7e7bd3cc8842bd17a2158f56aa5ca974259edfb3506e71b7f09204e096e64736f6c634300081c0033a2646970667358221220d33db40b86286bfb693baca2a1c5b35378232a52dce407f2e4a96d8faa8b734964736f6c634300081c0033","opcodes":"PUSH1 0x80 PUSH1 0x40 MSTORE CALLVALUE DUP1 ISZERO PUSH1 0xF JUMPI PUSH1 0x0 DUP1 REVERT JUMPDEST POP PUSH2 0xF73 DUP1 PUSH2 0x1F PUSH1 0x0 CODECOPY PUSH1 0x0 RETURN INVALID PUSH1 0x80 PUSH1 0x40 MSTORE CALLVALUE DUP1 ISZERO PUSH2 0x10 JUMPI PUSH1 0x0 DUP1 REVERT JUMPDEST POP PUSH1 0x4 CALLDATASIZE LT PUSH2 0x83 JUMPI PUSH1 0x0 CALLDATALOAD PUSH1 0xE0 SHR DUP1 PUSH4 0x260E45AA EQ PUSH2 0x88 JUMPI DUP1 PUSH4 0x715018A6 EQ PUSH2 0xB1 JUMPI DUP1 PUSH4 0x8DA5CB5B EQ PUSH2 0xBB JUMPI DUP1 PUSH4 0xD3E20D8C EQ PUSH2 0xC3 JUMPI DUP1 PUSH4 0xE7F79CEC EQ PUSH2 0xEC JUMPI DUP1 PUSH4 0xF2FDE38B EQ PUSH2 0xFF JUMPI DUP1 PUSH4 0xF5FF5C76 EQ PUSH2 0x112 JUMPI DUP1 PUSH4 0xF887EA40 EQ PUSH2 0x125 JUMPI DUP1 PUSH4 0xF8C8765E EQ PUSH2 0x138 JUMPI JUMPDEST PUSH1 0x0 DUP1 REVERT JUMPDEST PUSH2 0x9B PUSH2 0x96 CALLDATASIZE PUSH1 0x4 PUSH2 0x7C5 JUMP JUMPDEST PUSH2 0x14B JUMP JUMPDEST PUSH1 0x40 MLOAD PUSH2 0xA8 SWAP2 SWAP1 PUSH2 0x83D JUMP JUMPDEST PUSH1 0x40 MLOAD DUP1 SWAP2 SUB SWAP1 RETURN JUMPDEST PUSH2 0xB9 PUSH2 0x281 JUMP JUMPDEST STOP JUMPDEST PUSH2 0x9B PUSH2 0x295 JUMP JUMPDEST PUSH2 0x9B PUSH2 0xD1 CALLDATASIZE PUSH1 0x4 PUSH2 0x851 JUMP JUMPDEST PUSH1 0x3 PUSH1 0x20 MSTORE PUSH1 0x0 SWAP1 DUP2 MSTORE PUSH1 0x40 SWAP1 KECCAK256 SLOAD PUSH1 0x1 PUSH1 0x1 PUSH1 0xA0 SHL SUB AND DUP2 JUMP JUMPDEST PUSH1 0x0 SLOAD PUSH2 0x9B SWAP1 PUSH1 0x1 PUSH1 0x1 PUSH1 0xA0 SHL SUB AND DUP2 JUMP JUMPDEST PUSH2 0xB9 PUSH2 0x10D CALLDATASIZE PUSH1 0x4 PUSH2 0x86A JUMP JUMPDEST PUSH2 0x2B0 JUMP JUMPDEST PUSH1 0x5 SLOAD PUSH2 0x9B SWAP1 PUSH1 0x1 PUSH1 0x1 PUSH1 0xA0 SHL SUB AND DUP2 JUMP JUMPDEST PUSH1 0x4 SLOAD PUSH2 0x9B SWAP1 PUSH1 0x1 PUSH1 0x1 PUSH1 0xA0 SHL SUB AND DUP2 JUMP JUMPDEST PUSH2 0xB9 PUSH2 0x146 CALLDATASIZE PUSH1 0x4 PUSH2 0x885 JUMP JUMPDEST PUSH2 0x2EE JUMP JUMPDEST PUSH1 0x0 PUSH2 0x155 PUSH2 0x295 JUMP JUMPDEST PUSH1 0x1 PUSH1 0x1 PUSH1 0xA0 SHL SUB AND CALLER PUSH1 0x1 PUSH1 0x1 PUSH1 0xA0 SHL SUB AND EQ DUP1 PUSH2 0x17E JUMPI POP PUSH1 0x5 SLOAD PUSH1 0x1 PUSH1 0x1 PUSH1 0xA0 SHL SUB AND CALLER EQ JUMPDEST DUP1 PUSH2 0x193 JUMPI POP PUSH1 0x5 SLOAD PUSH1 0x1 PUSH1 0x1 PUSH1 0xA0 SHL SUB AND ORIGIN EQ JUMPDEST PUSH2 0x1D6 JUMPI PUSH1 0x40 MLOAD PUSH3 0x461BCD PUSH1 0xE5 SHL DUP2 MSTORE PUSH1 0x20 PUSH1 0x4 DUP3 ADD MSTORE PUSH1 0xF PUSH1 0x24 DUP3 ADD MSTORE PUSH15 0x6E6F7420617574686F72697A656421 PUSH1 0x88 SHL PUSH1 0x44 DUP3 ADD MSTORE PUSH1 0x64 ADD JUMPDEST PUSH1 0x40 MLOAD DUP1 SWAP2 SUB SWAP1 REVERT JUMPDEST PUSH1 0x0 DUP7 DUP2 MSTORE PUSH1 0x3 PUSH1 0x20 MSTORE PUSH1 0x40 SWAP1 KECCAK256 SLOAD PUSH1 0x1 PUSH1 0x1 PUSH1 0xA0 SHL SUB AND ISZERO PUSH2 0x231 JUMPI PUSH1 0x40 MLOAD PUSH3 0x461BCD PUSH1 0xE5 SHL DUP2 MSTORE PUSH1 0x20 PUSH1 0x4 DUP3 ADD MSTORE PUSH1 0x13 PUSH1 0x24 DUP3 ADD MSTORE PUSH19 0x105B1C9958591E481A5B9A5D1A585B1A5E9959 PUSH1 0x6A SHL PUSH1 0x44 DUP3 ADD MSTORE PUSH1 0x64 ADD PUSH2 0x1CD JUMP JUMPDEST PUSH1 0x0 PUSH2 0x241 DUP9 DUP9 DUP9 DUP9 DUP9 DUP9 PUSH2 0x4DD JUMP JUMPDEST PUSH1 0x0 DUP9 DUP2 MSTORE PUSH1 0x3 PUSH1 0x20 MSTORE PUSH1 0x40 SWAP1 KECCAK256 DUP1 SLOAD PUSH1 0x1 PUSH1 0x1 PUSH1 0xA0 SHL SUB NOT AND PUSH1 0x1 PUSH1 0x1 PUSH1 0xA0 SHL SUB DUP4 AND OR SWAP1 SSTORE SWAP1 POP PUSH2 0x275 PUSH1 0x1 DUP3 PUSH2 0x5FC JUMP JUMPDEST POP SWAP8 SWAP7 POP POP POP POP POP POP POP JUMP JUMPDEST PUSH2 0x289 PUSH2 0x61A JUMP JUMPDEST PUSH2 0x293 PUSH1 0x0 PUSH2 0x64C JUMP JUMPDEST JUMP JUMPDEST PUSH1 0x0 DUP1 PUSH2 0x2A0 PUSH2 0x6A8 JUMP JUMPDEST SLOAD PUSH1 0x1 PUSH1 0x1 PUSH1 0xA0 SHL SUB AND SWAP3 SWAP2 POP POP JUMP JUMPDEST PUSH2 0x2B8 PUSH2 0x61A JUMP JUMPDEST PUSH1 0x1 PUSH1 0x1 PUSH1 0xA0 SHL SUB DUP2 AND PUSH2 0x2E2 JUMPI PUSH1 0x0 PUSH1 0x40 MLOAD PUSH4 0x1E4FBDF7 PUSH1 0xE0 SHL DUP2 MSTORE PUSH1 0x4 ADD PUSH2 0x1CD SWAP2 SWAP1 PUSH2 0x83D JUMP JUMPDEST PUSH2 0x2EB DUP2 PUSH2 0x64C JUMP JUMPDEST POP JUMP JUMPDEST PUSH1 0x0 PUSH2 0x2F8 PUSH2 0x6CC JUMP JUMPDEST DUP1 SLOAD SWAP1 SWAP2 POP PUSH1 0xFF PUSH1 0x1 PUSH1 0x40 SHL DUP3 DIV AND ISZERO SWAP1 PUSH1 0x1 PUSH1 0x1 PUSH1 0x40 SHL SUB AND PUSH1 0x0 DUP2 ISZERO DUP1 ISZERO PUSH2 0x31F JUMPI POP DUP3 JUMPDEST SWAP1 POP PUSH1 0x0 DUP3 PUSH1 0x1 PUSH1 0x1 PUSH1 0x40 SHL SUB AND PUSH1 0x1 EQ DUP1 ISZERO PUSH2 0x33B JUMPI POP ADDRESS EXTCODESIZE ISZERO JUMPDEST SWAP1 POP DUP2 ISZERO DUP1 ISZERO PUSH2 0x349 JUMPI POP DUP1 ISZERO JUMPDEST ISZERO PUSH2 0x367 JUMPI PUSH1 0x40 MLOAD PUSH4 0xF92EE8A9 PUSH1 0xE0 SHL DUP2 MSTORE PUSH1 0x4 ADD PUSH1 0x40 MLOAD DUP1 SWAP2 SUB SWAP1 REVERT JUMPDEST DUP5 SLOAD PUSH1 0x1 PUSH1 0x1 PUSH1 0x40 SHL SUB NOT AND PUSH1 0x1 OR DUP6 SSTORE DUP4 ISZERO PUSH2 0x390 JUMPI DUP5 SLOAD PUSH1 0xFF PUSH1 0x40 SHL NOT AND PUSH1 0x1 PUSH1 0x40 SHL OR DUP6 SSTORE JUMPDEST PUSH1 0x1 PUSH1 0x1 PUSH1 0xA0 SHL SUB DUP10 AND PUSH2 0x3DF JUMPI PUSH1 0x40 MLOAD PUSH3 0x461BCD PUSH1 0xE5 SHL DUP2 MSTORE PUSH1 0x20 PUSH1 0x4 DUP3 ADD MSTORE PUSH1 0x16 PUSH1 0x24 DUP3 ADD MSTORE PUSH22 0x4F776E65722069732061646472657373207A65726F21 PUSH1 0x50 SHL PUSH1 0x44 DUP3 ADD MSTORE PUSH1 0x64 ADD PUSH2 0x1CD JUMP JUMPDEST PUSH1 0x1 PUSH1 0x1 PUSH1 0xA0 SHL SUB DUP7 AND PUSH2 0x42F JUMPI PUSH1 0x40 MLOAD PUSH3 0x461BCD PUSH1 0xE5 SHL DUP2 MSTORE PUSH1 0x20 PUSH1 0x4 DUP3 ADD MSTORE PUSH1 0x17 PUSH1 0x24 DUP3 ADD MSTORE PUSH23 0x426561636F6E2069732061646472657373207A65726F21 PUSH1 0x48 SHL PUSH1 0x44 DUP3 ADD MSTORE PUSH1 0x64 ADD PUSH2 0x1CD JUMP JUMPDEST PUSH1 0x0 DUP1 SLOAD PUSH1 0x1 PUSH1 0x1 PUSH1 0xA0 SHL SUB NOT AND PUSH1 0x1 PUSH1 0x1 PUSH1 0xA0 SHL SUB DUP9 AND OR SWAP1 SSTORE PUSH2 0x453 DUP10 PUSH2 0x6F5 JUMP JUMPDEST PUSH2 0x45C DUP10 PUSH2 0x64C JUMP JUMPDEST PUSH1 0x4 DUP1 SLOAD PUSH1 0x1 PUSH1 0x1 PUSH1 0xA0 SHL SUB DUP1 DUP12 AND PUSH1 0x1 PUSH1 0x1 PUSH1 0xA0 SHL SUB NOT SWAP3 DUP4 AND OR SWAP1 SWAP3 SSTORE PUSH1 0x5 DUP1 SLOAD SWAP3 DUP11 AND SWAP3 SWAP1 SWAP2 AND SWAP2 SWAP1 SWAP2 OR SWAP1 SSTORE DUP4 ISZERO PUSH2 0x4D2 JUMPI DUP5 SLOAD PUSH1 0xFF PUSH1 0x40 SHL NOT AND DUP6 SSTORE PUSH1 0x40 MLOAD PUSH1 0x1 DUP2 MSTORE PUSH32 0xC7F505B2F371AE2175EE4913F4499E1F2633A7B5936321EED1CDAEB6115181D2 SWAP1 PUSH1 0x20 ADD PUSH1 0x40 MLOAD DUP1 SWAP2 SUB SWAP1 LOG1 JUMPDEST POP POP POP POP POP POP POP POP POP JUMP JUMPDEST PUSH1 0x0 DUP1 PUSH4 0x63ACC14D PUSH1 0xE0 SHL PUSH2 0x4F0 PUSH2 0x295 JUMP JUMPDEST PUSH1 0x40 MLOAD PUSH1 0x1 PUSH1 0x1 PUSH1 0xA0 SHL SUB SWAP2 DUP3 AND PUSH1 0x24 DUP3 ADD MSTORE DUP2 DUP12 AND PUSH1 0x44 DUP3 ADD MSTORE ADDRESS PUSH1 0x64 DUP3 ADD MSTORE PUSH1 0x84 DUP2 ADD DUP11 SWAP1 MSTORE DUP2 DUP10 AND PUSH1 0xA4 DUP3 ADD MSTORE DUP2 DUP9 AND PUSH1 0xC4 DUP3 ADD MSTORE SWAP1 DUP7 AND PUSH1 0xE4 DUP3 ADD MSTORE PUSH2 0xFFFF DUP6 AND PUSH2 0x104 DUP3 ADD MSTORE PUSH2 0x124 ADD PUSH1 0x40 DUP1 MLOAD PUSH1 0x1F NOT DUP2 DUP5 SUB ADD DUP2 MSTORE SWAP2 DUP2 MSTORE PUSH1 0x20 DUP1 DUP4 ADD DUP1 MLOAD PUSH1 0x1 PUSH1 0x1 PUSH1 0xE0 SHL SUB AND PUSH1 0x1 PUSH1 0x1 PUSH1 0xE0 SHL SUB NOT SWAP1 SWAP6 AND SWAP5 SWAP1 SWAP5 OR SWAP1 SWAP4 MSTORE MLOAD SWAP1 SWAP3 POP PUSH1 0x0 SWAP2 PUSH2 0x589 SWAP2 ORIGIN SWAP2 NUMBER SWAP2 DUP7 SWAP2 ADD PUSH2 0x8FD JUMP JUMPDEST PUSH1 0x40 MLOAD PUSH1 0x20 DUP2 DUP4 SUB SUB DUP2 MSTORE SWAP1 PUSH1 0x40 MSTORE DUP1 MLOAD SWAP1 PUSH1 0x20 ADD KECCAK256 SWAP1 POP DUP1 PUSH1 0x0 DUP1 SLOAD SWAP1 PUSH2 0x100 EXP SWAP1 DIV PUSH1 0x1 PUSH1 0x1 PUSH1 0xA0 SHL SUB AND DUP4 PUSH1 0x40 MLOAD PUSH2 0x5C3 SWAP1 PUSH2 0x79C JUMP JUMPDEST PUSH2 0x5CE SWAP3 SWAP2 SWAP1 PUSH2 0x93A JUMP JUMPDEST DUP2 SWAP1 PUSH1 0x40 MLOAD DUP1 SWAP2 SUB SWAP1 PUSH1 0x0 CREATE2 SWAP1 POP DUP1 ISZERO DUP1 ISZERO PUSH2 0x5EE JUMPI RETURNDATASIZE PUSH1 0x0 DUP1 RETURNDATACOPY RETURNDATASIZE PUSH1 0x0 REVERT JUMPDEST POP SWAP10 SWAP9 POP POP POP POP POP POP POP POP POP JUMP JUMPDEST PUSH1 0x0 PUSH2 0x611 DUP4 PUSH1 0x1 PUSH1 0x1 PUSH1 0xA0 SHL SUB DUP5 AND PUSH2 0x706 JUMP JUMPDEST SWAP1 POP JUMPDEST SWAP3 SWAP2 POP POP JUMP JUMPDEST CALLER PUSH2 0x623 PUSH2 0x295 JUMP JUMPDEST PUSH1 0x1 PUSH1 0x1 PUSH1 0xA0 SHL SUB AND EQ PUSH2 0x293 JUMPI CALLER PUSH1 0x40 MLOAD PUSH4 0x118CDAA7 PUSH1 0xE0 SHL DUP2 MSTORE PUSH1 0x4 ADD PUSH2 0x1CD SWAP2 SWAP1 PUSH2 0x83D JUMP JUMPDEST PUSH1 0x0 PUSH2 0x656 PUSH2 0x6A8 JUMP JUMPDEST DUP1 SLOAD PUSH1 0x1 PUSH1 0x1 PUSH1 0xA0 SHL SUB DUP5 DUP2 AND PUSH1 0x1 PUSH1 0x1 PUSH1 0xA0 SHL SUB NOT DUP4 AND DUP2 OR DUP5 SSTORE PUSH1 0x40 MLOAD SWAP4 SWAP5 POP SWAP2 AND SWAP2 DUP3 SWAP1 PUSH32 0x8BE0079C531659141344CD1FD0A4F28419497F9722A3DAAFE3B4186F6B6457E0 SWAP1 PUSH1 0x0 SWAP1 LOG3 POP POP POP JUMP JUMPDEST PUSH32 0x9016D09D72D40FDAE2FD8CEAC6B6234C7706214FD39C1CD1E609A0528C199300 SWAP1 JUMP JUMPDEST PUSH1 0x0 DUP1 PUSH32 0xF0C57E16840DF040F15088DC2F81FE391C3923BEC73E23A9662EFC9C229C6A00 PUSH2 0x614 JUMP JUMPDEST PUSH2 0x6FD PUSH2 0x755 JUMP JUMPDEST PUSH2 0x2EB DUP2 PUSH2 0x77A JUMP JUMPDEST PUSH1 0x0 DUP2 DUP2 MSTORE PUSH1 0x1 DUP4 ADD PUSH1 0x20 MSTORE PUSH1 0x40 DUP2 KECCAK256 SLOAD PUSH2 0x74D JUMPI POP DUP2 SLOAD PUSH1 0x1 DUP2 DUP2 ADD DUP5 SSTORE PUSH1 0x0 DUP5 DUP2 MSTORE PUSH1 0x20 DUP1 DUP3 KECCAK256 SWAP1 SWAP4 ADD DUP5 SWAP1 SSTORE DUP5 SLOAD DUP5 DUP3 MSTORE DUP3 DUP7 ADD SWAP1 SWAP4 MSTORE PUSH1 0x40 SWAP1 KECCAK256 SWAP2 SWAP1 SWAP2 SSTORE PUSH2 0x614 JUMP JUMPDEST POP PUSH1 0x0 PUSH2 0x614 JUMP JUMPDEST PUSH2 0x75D PUSH2 0x782 JUMP JUMPDEST PUSH2 0x293 JUMPI PUSH1 0x40 MLOAD PUSH4 0x1AFCD79F PUSH1 0xE3 SHL DUP2 MSTORE PUSH1 0x4 ADD PUSH1 0x40 MLOAD DUP1 SWAP2 SUB SWAP1 REVERT JUMPDEST PUSH2 0x2B8 PUSH2 0x755 JUMP JUMPDEST PUSH1 0x0 PUSH2 0x78C PUSH2 0x6CC JUMP JUMPDEST SLOAD PUSH1 0x1 PUSH1 0x40 SHL SWAP1 DIV PUSH1 0xFF AND SWAP2 SWAP1 POP JUMP JUMPDEST PUSH2 0x5C1 DUP1 PUSH2 0x97D DUP4 CODECOPY ADD SWAP1 JUMP JUMPDEST DUP1 CALLDATALOAD PUSH1 0x1 PUSH1 0x1 PUSH1 0xA0 SHL SUB DUP2 AND DUP2 EQ PUSH2 0x7C0 JUMPI PUSH1 0x0 DUP1 REVERT JUMPDEST SWAP2 SWAP1 POP JUMP JUMPDEST PUSH1 0x0 DUP1 PUSH1 0x0 DUP1 PUSH1 0x0 DUP1 PUSH1 0xC0 DUP8 DUP10 SUB SLT ISZERO PUSH2 0x7DE JUMPI PUSH1 0x0 DUP1 REVERT JUMPDEST PUSH2 0x7E7 DUP8 PUSH2 0x7A9 JUMP JUMPDEST SWAP6 POP PUSH1 0x20 DUP8 ADD CALLDATALOAD SWAP5 POP PUSH2 0x7FC PUSH1 0x40 DUP9 ADD PUSH2 0x7A9 JUMP JUMPDEST SWAP4 POP PUSH2 0x80A PUSH1 0x60 DUP9 ADD PUSH2 0x7A9 JUMP JUMPDEST SWAP3 POP PUSH2 0x818 PUSH1 0x80 DUP9 ADD PUSH2 0x7A9 JUMP JUMPDEST SWAP2 POP PUSH1 0xA0 DUP8 ADD CALLDATALOAD PUSH2 0xFFFF DUP2 AND DUP2 EQ PUSH2 0x82F JUMPI PUSH1 0x0 DUP1 REVERT JUMPDEST DUP1 SWAP2 POP POP SWAP3 SWAP6 POP SWAP3 SWAP6 POP SWAP3 SWAP6 JUMP JUMPDEST PUSH1 0x1 PUSH1 0x1 PUSH1 0xA0 SHL SUB SWAP2 SWAP1 SWAP2 AND DUP2 MSTORE PUSH1 0x20 ADD SWAP1 JUMP JUMPDEST PUSH1 0x0 PUSH1 0x20 DUP3 DUP5 SUB SLT ISZERO PUSH2 0x863 JUMPI PUSH1 0x0 DUP1 REVERT JUMPDEST POP CALLDATALOAD SWAP2 SWAP1 POP JUMP JUMPDEST PUSH1 0x0 PUSH1 0x20 DUP3 DUP5 SUB SLT ISZERO PUSH2 0x87C JUMPI PUSH1 0x0 DUP1 REVERT JUMPDEST PUSH2 0x611 DUP3 PUSH2 0x7A9 JUMP JUMPDEST PUSH1 0x0 DUP1 PUSH1 0x0 DUP1 PUSH1 0x80 DUP6 DUP8 SUB SLT ISZERO PUSH2 0x89B JUMPI PUSH1 0x0 DUP1 REVERT JUMPDEST PUSH2 0x8A4 DUP6 PUSH2 0x7A9 JUMP JUMPDEST SWAP4 POP PUSH2 0x8B2 PUSH1 0x20 DUP7 ADD PUSH2 0x7A9 JUMP JUMPDEST SWAP3 POP PUSH2 0x8C0 PUSH1 0x40 DUP7 ADD PUSH2 0x7A9 JUMP JUMPDEST SWAP2 POP PUSH2 0x8CE PUSH1 0x60 DUP7 ADD PUSH2 0x7A9 JUMP JUMPDEST SWAP1 POP SWAP3 SWAP6 SWAP2 SWAP5 POP SWAP3 POP JUMP JUMPDEST PUSH1 0x0 JUMPDEST DUP4 DUP2 LT ISZERO PUSH2 0x8F4 JUMPI DUP2 DUP2 ADD MLOAD DUP4 DUP3 ADD MSTORE PUSH1 0x20 ADD PUSH2 0x8DC JUMP JUMPDEST POP POP PUSH1 0x0 SWAP2 ADD MSTORE JUMP JUMPDEST PUSH1 0x60 DUP5 SWAP1 SHL PUSH1 0x1 PUSH1 0x1 PUSH1 0x60 SHL SUB NOT AND DUP2 MSTORE PUSH1 0x14 DUP2 ADD DUP4 SWAP1 MSTORE DUP2 MLOAD PUSH1 0x0 SWAP1 PUSH2 0x92B DUP2 PUSH1 0x34 DUP6 ADD PUSH1 0x20 DUP8 ADD PUSH2 0x8D9 JUMP JUMPDEST SWAP2 SWAP1 SWAP2 ADD PUSH1 0x34 ADD SWAP5 SWAP4 POP POP POP POP JUMP JUMPDEST PUSH1 0x1 DUP1 PUSH1 0xA0 SHL SUB DUP4 AND DUP2 MSTORE PUSH1 0x40 PUSH1 0x20 DUP3 ADD MSTORE PUSH1 0x0 DUP3 MLOAD DUP1 PUSH1 0x40 DUP5 ADD MSTORE PUSH2 0x967 DUP2 PUSH1 0x60 DUP6 ADD PUSH1 0x20 DUP8 ADD PUSH2 0x8D9 JUMP JUMPDEST PUSH1 0x1F ADD PUSH1 0x1F NOT AND SWAP2 SWAP1 SWAP2 ADD PUSH1 0x60 ADD SWAP4 SWAP3 POP POP POP JUMP INVALID PUSH1 0xA0 PUSH1 0x40 MSTORE PUSH1 0x40 MLOAD PUSH2 0x5C1 CODESIZE SUB DUP1 PUSH2 0x5C1 DUP4 CODECOPY DUP2 ADD PUSH1 0x40 DUP2 SWAP1 MSTORE PUSH2 0x22 SWAP2 PUSH2 0x36F JUMP JUMPDEST PUSH2 0x2C DUP3 DUP3 PUSH2 0x3E JUMP JUMPDEST POP PUSH1 0x1 PUSH1 0x1 PUSH1 0xA0 SHL SUB AND PUSH1 0x80 MSTORE PUSH2 0x480 JUMP JUMPDEST PUSH2 0x47 DUP3 PUSH2 0xFE JUMP JUMPDEST PUSH1 0x40 MLOAD PUSH1 0x1 PUSH1 0x1 PUSH1 0xA0 SHL SUB DUP4 AND SWAP1 PUSH32 0x1CF3B03A6CF19FA2BABA4DF148E9DCABEDEA7F8A5C07840E207E5C089BE95D3E SWAP1 PUSH1 0x0 SWAP1 LOG2 DUP1 MLOAD ISZERO PUSH2 0xF2 JUMPI PUSH2 0xED DUP3 PUSH1 0x1 PUSH1 0x1 PUSH1 0xA0 SHL SUB AND PUSH4 0x5C60DA1B PUSH1 0x40 MLOAD DUP2 PUSH4 0xFFFFFFFF AND PUSH1 0xE0 SHL DUP2 MSTORE PUSH1 0x4 ADD PUSH1 0x20 PUSH1 0x40 MLOAD DUP1 DUP4 SUB DUP2 DUP7 GAS STATICCALL ISZERO DUP1 ISZERO PUSH2 0xC3 JUMPI RETURNDATASIZE PUSH1 0x0 DUP1 RETURNDATACOPY RETURNDATASIZE PUSH1 0x0 REVERT JUMPDEST POP POP POP POP PUSH1 0x40 MLOAD RETURNDATASIZE PUSH1 0x1F NOT PUSH1 0x1F DUP3 ADD AND DUP3 ADD DUP1 PUSH1 0x40 MSTORE POP DUP2 ADD SWAP1 PUSH2 0xE7 SWAP2 SWAP1 PUSH2 0x435 JUMP JUMPDEST DUP3 PUSH2 0x203 JUMP JUMPDEST POP POP POP JUMP JUMPDEST PUSH2 0xFA PUSH2 0x27A JUMP JUMPDEST POP POP JUMP JUMPDEST DUP1 PUSH1 0x1 PUSH1 0x1 PUSH1 0xA0 SHL SUB AND EXTCODESIZE PUSH1 0x0 SUB PUSH2 0x134 JUMPI DUP1 PUSH1 0x40 MLOAD PUSH4 0x1933B43B PUSH1 0xE2 SHL DUP2 MSTORE PUSH1 0x4 ADD PUSH2 0x12B SWAP2 SWAP1 PUSH2 0x450 JUMP JUMPDEST PUSH1 0x40 MLOAD DUP1 SWAP2 SUB SWAP1 REVERT JUMPDEST DUP1 PUSH32 0xA3F0AD74E5423AEBFD80D3EF4346578335A9A72AEAEE59FF6CB3582B35133D50 DUP1 SLOAD PUSH1 0x1 PUSH1 0x1 PUSH1 0xA0 SHL SUB NOT AND PUSH1 0x1 PUSH1 0x1 PUSH1 0xA0 SHL SUB SWAP3 DUP4 AND OR SWAP1 SSTORE PUSH1 0x40 DUP1 MLOAD PUSH4 0x5C60DA1B PUSH1 0xE0 SHL DUP2 MSTORE SWAP1 MLOAD PUSH1 0x0 SWAP3 DUP5 AND SWAP2 PUSH4 0x5C60DA1B SWAP2 PUSH1 0x4 DUP1 DUP4 ADD SWAP3 PUSH1 0x20 SWAP3 SWAP2 SWAP1 DUP3 SWAP1 SUB ADD DUP2 DUP7 GAS STATICCALL ISZERO DUP1 ISZERO PUSH2 0x1B0 JUMPI RETURNDATASIZE PUSH1 0x0 DUP1 RETURNDATACOPY RETURNDATASIZE PUSH1 0x0 REVERT JUMPDEST POP POP POP POP PUSH1 0x40 MLOAD RETURNDATASIZE PUSH1 0x1F NOT PUSH1 0x1F DUP3 ADD AND DUP3 ADD DUP1 PUSH1 0x40 MSTORE POP DUP2 ADD SWAP1 PUSH2 0x1D4 SWAP2 SWAP1 PUSH2 0x435 JUMP JUMPDEST SWAP1 POP DUP1 PUSH1 0x1 PUSH1 0x1 PUSH1 0xA0 SHL SUB AND EXTCODESIZE PUSH1 0x0 SUB PUSH2 0xFA JUMPI DUP1 PUSH1 0x40 MLOAD PUSH4 0x4C9C8CE3 PUSH1 0xE0 SHL DUP2 MSTORE PUSH1 0x4 ADD PUSH2 0x12B SWAP2 SWAP1 PUSH2 0x450 JUMP JUMPDEST PUSH1 0x60 PUSH1 0x0 DUP1 DUP5 PUSH1 0x1 PUSH1 0x1 PUSH1 0xA0 SHL SUB AND DUP5 PUSH1 0x40 MLOAD PUSH2 0x220 SWAP2 SWAP1 PUSH2 0x464 JUMP JUMPDEST PUSH1 0x0 PUSH1 0x40 MLOAD DUP1 DUP4 SUB DUP2 DUP6 GAS DELEGATECALL SWAP2 POP POP RETURNDATASIZE DUP1 PUSH1 0x0 DUP2 EQ PUSH2 0x25B JUMPI PUSH1 0x40 MLOAD SWAP2 POP PUSH1 0x1F NOT PUSH1 0x3F RETURNDATASIZE ADD AND DUP3 ADD PUSH1 0x40 MSTORE RETURNDATASIZE DUP3 MSTORE RETURNDATASIZE PUSH1 0x0 PUSH1 0x20 DUP5 ADD RETURNDATACOPY PUSH2 0x260 JUMP JUMPDEST PUSH1 0x60 SWAP2 POP JUMPDEST POP SWAP1 SWAP3 POP SWAP1 POP PUSH2 0x271 DUP6 DUP4 DUP4 PUSH2 0x29B JUMP JUMPDEST SWAP6 SWAP5 POP POP POP POP POP JUMP JUMPDEST CALLVALUE ISZERO PUSH2 0x299 JUMPI PUSH1 0x40 MLOAD PUSH4 0xB398979F PUSH1 0xE0 SHL DUP2 MSTORE PUSH1 0x4 ADD PUSH1 0x40 MLOAD DUP1 SWAP2 SUB SWAP1 REVERT JUMPDEST JUMP JUMPDEST PUSH1 0x60 DUP3 PUSH2 0x2B0 JUMPI PUSH2 0x2AB DUP3 PUSH2 0x2F1 JUMP JUMPDEST PUSH2 0x2EA JUMP JUMPDEST DUP2 MLOAD ISZERO DUP1 ISZERO PUSH2 0x2C7 JUMPI POP PUSH1 0x1 PUSH1 0x1 PUSH1 0xA0 SHL SUB DUP5 AND EXTCODESIZE ISZERO JUMPDEST ISZERO PUSH2 0x2E7 JUMPI DUP4 PUSH1 0x40 MLOAD PUSH4 0x9996B315 PUSH1 0xE0 SHL DUP2 MSTORE PUSH1 0x4 ADD PUSH2 0x12B SWAP2 SWAP1 PUSH2 0x450 JUMP JUMPDEST POP DUP1 JUMPDEST SWAP4 SWAP3 POP POP POP JUMP JUMPDEST DUP1 MLOAD ISZERO PUSH2 0x300 JUMPI DUP1 MLOAD PUSH1 0x20 DUP3 ADD REVERT JUMPDEST PUSH1 0x40 MLOAD PUSH4 0xD6BDA275 PUSH1 0xE0 SHL DUP2 MSTORE PUSH1 0x4 ADD PUSH1 0x40 MLOAD DUP1 SWAP2 SUB SWAP1 REVERT JUMPDEST DUP1 MLOAD PUSH1 0x1 PUSH1 0x1 PUSH1 0xA0 SHL SUB DUP2 AND DUP2 EQ PUSH2 0x330 JUMPI PUSH1 0x0 DUP1 REVERT JUMPDEST SWAP2 SWAP1 POP JUMP JUMPDEST PUSH4 0x4E487B71 PUSH1 0xE0 SHL PUSH1 0x0 MSTORE PUSH1 0x41 PUSH1 0x4 MSTORE PUSH1 0x24 PUSH1 0x0 REVERT JUMPDEST PUSH1 0x0 JUMPDEST DUP4 DUP2 LT ISZERO PUSH2 0x366 JUMPI DUP2 DUP2 ADD MLOAD DUP4 DUP3 ADD MSTORE PUSH1 0x20 ADD PUSH2 0x34E JUMP JUMPDEST POP POP PUSH1 0x0 SWAP2 ADD MSTORE JUMP JUMPDEST PUSH1 0x0 DUP1 PUSH1 0x40 DUP4 DUP6 SUB SLT ISZERO PUSH2 0x382 JUMPI PUSH1 0x0 DUP1 REVERT JUMPDEST PUSH2 0x38B DUP4 PUSH2 0x319 JUMP JUMPDEST PUSH1 0x20 DUP5 ADD MLOAD SWAP1 SWAP3 POP PUSH1 0x1 PUSH1 0x1 PUSH1 0x40 SHL SUB DUP2 GT ISZERO PUSH2 0x3A7 JUMPI PUSH1 0x0 DUP1 REVERT JUMPDEST DUP4 ADD PUSH1 0x1F DUP2 ADD DUP6 SGT PUSH2 0x3B8 JUMPI PUSH1 0x0 DUP1 REVERT JUMPDEST DUP1 MLOAD PUSH1 0x1 PUSH1 0x1 PUSH1 0x40 SHL SUB DUP2 GT ISZERO PUSH2 0x3D1 JUMPI PUSH2 0x3D1 PUSH2 0x335 JUMP JUMPDEST PUSH1 0x40 MLOAD PUSH1 0x1F DUP3 ADD PUSH1 0x1F NOT SWAP1 DUP2 AND PUSH1 0x3F ADD AND DUP2 ADD PUSH1 0x1 PUSH1 0x1 PUSH1 0x40 SHL SUB DUP2 GT DUP3 DUP3 LT OR ISZERO PUSH2 0x3FF JUMPI PUSH2 0x3FF PUSH2 0x335 JUMP JUMPDEST PUSH1 0x40 MSTORE DUP2 DUP2 MSTORE DUP3 DUP3 ADD PUSH1 0x20 ADD DUP8 LT ISZERO PUSH2 0x417 JUMPI PUSH1 0x0 DUP1 REVERT JUMPDEST PUSH2 0x428 DUP3 PUSH1 0x20 DUP4 ADD PUSH1 0x20 DUP7 ADD PUSH2 0x34B JUMP JUMPDEST DUP1 SWAP4 POP POP POP POP SWAP3 POP SWAP3 SWAP1 POP JUMP JUMPDEST PUSH1 0x0 PUSH1 0x20 DUP3 DUP5 SUB SLT ISZERO PUSH2 0x447 JUMPI PUSH1 0x0 DUP1 REVERT JUMPDEST PUSH2 0x2EA DUP3 PUSH2 0x319 JUMP JUMPDEST PUSH1 0x1 PUSH1 0x1 PUSH1 0xA0 SHL SUB SWAP2 SWAP1 SWAP2 AND DUP2 MSTORE PUSH1 0x20 ADD SWAP1 JUMP JUMPDEST PUSH1 0x0 DUP3 MLOAD PUSH2 0x476 DUP2 DUP5 PUSH1 0x20 DUP8 ADD PUSH2 0x34B JUMP JUMPDEST SWAP2 SWAP1 SWAP2 ADD SWAP3 SWAP2 POP POP JUMP JUMPDEST PUSH1 0x80 MLOAD PUSH2 0x127 PUSH2 0x49A PUSH1 0x0 CODECOPY PUSH1 0x0 PUSH1 0x1E ADD MSTORE PUSH2 0x127 PUSH1 0x0 RETURN INVALID PUSH1 0x80 PUSH1 0x40 MSTORE PUSH1 0xA PUSH1 0xC JUMP JUMPDEST STOP JUMPDEST PUSH1 0x18 PUSH1 0x14 PUSH1 0x1A JUMP JUMPDEST PUSH1 0xA0 JUMP JUMPDEST JUMP JUMPDEST PUSH1 0x0 PUSH32 0x0 PUSH1 0x1 PUSH1 0x1 PUSH1 0xA0 SHL SUB AND PUSH4 0x5C60DA1B PUSH1 0x40 MLOAD DUP2 PUSH4 0xFFFFFFFF AND PUSH1 0xE0 SHL DUP2 MSTORE PUSH1 0x4 ADD PUSH1 0x20 PUSH1 0x40 MLOAD DUP1 DUP4 SUB DUP2 DUP7 GAS STATICCALL ISZERO DUP1 ISZERO PUSH1 0x79 JUMPI RETURNDATASIZE PUSH1 0x0 DUP1 RETURNDATACOPY RETURNDATASIZE PUSH1 0x0 REVERT JUMPDEST POP POP POP POP PUSH1 0x40 MLOAD RETURNDATASIZE PUSH1 0x1F NOT PUSH1 0x1F DUP3 ADD AND DUP3 ADD DUP1 PUSH1 0x40 MSTORE POP DUP2 ADD SWAP1 PUSH1 0x9B SWAP2 SWAP1 PUSH1 0xC3 JUMP JUMPDEST SWAP1 POP SWAP1 JUMP JUMPDEST CALLDATASIZE PUSH1 0x0 DUP1 CALLDATACOPY PUSH1 0x0 DUP1 CALLDATASIZE PUSH1 0x0 DUP5 GAS DELEGATECALL RETURNDATASIZE PUSH1 0x0 DUP1 RETURNDATACOPY DUP1 DUP1 ISZERO PUSH1 0xBE JUMPI RETURNDATASIZE PUSH1 0x0 RETURN JUMPDEST RETURNDATASIZE PUSH1 0x0 REVERT JUMPDEST PUSH1 0x0 PUSH1 0x20 DUP3 DUP5 SUB SLT ISZERO PUSH1 0xD4 JUMPI PUSH1 0x0 DUP1 REVERT JUMPDEST DUP2 MLOAD PUSH1 0x1 PUSH1 0x1 PUSH1 0xA0 SHL SUB DUP2 AND DUP2 EQ PUSH1 0xEA JUMPI PUSH1 0x0 DUP1 REVERT JUMPDEST SWAP4 SWAP3 POP POP POP JUMP INVALID LOG2 PUSH5 0x6970667358 0x22 SLT KECCAK256 JUMPI 0xDA 0xB7 0xE7 0xBD EXTCODECOPY 0xC8 DUP5 0x2B 0xD1 PUSH27 0x2158F56AA5CA974259EDFB3506E71B7F09204E096E64736F6C6343 STOP ADDMOD SHR STOP CALLER LOG2 PUSH5 0x6970667358 0x22 SLT KECCAK256 0xD3 RETURNDATASIZE 0xB4 SIGNEXTEND DUP7 0x28 PUSH12 0xFB693BACA2A1C5B35378232A MSTORE 0xDC 0xE4 SMOD CALLCODE 0xE4 0xA9 PUSH14 0x8FAA8B734964736F6C634300081C STOP CALLER "},"gasEstimates":{"creation":{"codeDepositCost":"791000","executionCost":"825","totalCost":"791825"},"external":{"SmartWalletBeacon()":"2427","agent()":"2471","createSmartWallet(address,bytes32,address,address,address,uint16)":"infinite","initialize(address,address,address,address)":"infinite","owner()":"2432","renounceOwnership()":"infinite","router()":"2493","transferOwnership(address)":"infinite","walletsByUser(bytes32)":"2545"},"internal":{"_preDeploy(address,bytes32,address,address,address,uint16)":"infinite"}},"methodIdentifiers":{"SmartWalletBeacon()":"e7f79cec","agent()":"f5ff5c76","createSmartWallet(address,bytes32,address,address,address,uint16)":"260e45aa","initialize(address,address,address,address)":"f8c8765e","owner()":"8da5cb5b","renounceOwnership()":"715018a6","router()":"f887ea40","transferOwnership(address)":"f2fde38b","walletsByUser(bytes32)":"d3e20d8c"}},"storageLayout":{"storage":[{"astId":8506,"contract":"contracts/core/SmartWalletFactory.sol:SmartWalletFactory","label":"SmartWalletBeacon","offset":0,"slot":"0","type":"t_contract(ISmartWalletBeacon)8678"},{"astId":8509,"contract":"contracts/core/SmartWalletFactory.sol:SmartWalletFactory","label":"_wallets","offset":0,"slot":"1","type":"t_struct(AddressSet)6971_storage"},{"astId":8513,"contract":"contracts/core/SmartWalletFactory.sol:SmartWalletFactory","label":"walletsByUser","offset":0,"slot":"3","type":"t_mapping(t_bytes32,t_address)"},{"astId":8515,"contract":"contracts/core/SmartWalletFactory.sol:SmartWalletFactory","label":"router","offset":0,"slot":"4","type":"t_address"},{"astId":8517,"contract":"contracts/core/SmartWalletFactory.sol:SmartWalletFactory","label":"agent","offset":0,"slot":"5","type":"t_address"}],"types":{"t_address":{"encoding":"inplace","label":"address","numberOfBytes":"20"},"t_array(t_bytes32)dyn_storage":{"base":"t_bytes32","encoding":"dynamic_array","label":"bytes32[]","numberOfBytes":"32"},"t_bytes32":{"encoding":"inplace","label":"bytes32","numberOfBytes":"32"},"t_contract(ISmartWalletBeacon)8678":{"encoding":"inplace","label":"contract ISmartWalletBeacon","numberOfBytes":"20"},"t_mapping(t_bytes32,t_address)":{"encoding":"mapping","key":"t_bytes32","label":"mapping(bytes32 => address)","numberOfBytes":"32","value":"t_address"},"t_mapping(t_bytes32,t_uint256)":{"encoding":"mapping","key":"t_bytes32","label":"mapping(bytes32 => uint256)","numberOfBytes":"32","value":"t_uint256"},"t_struct(AddressSet)6971_storage":{"encoding":"inplace","label":"struct EnumerableSet.AddressSet","members":[{"astId":6970,"contract":"contracts/core/SmartWalletFactory.sol:SmartWalletFactory","label":"_inner","offset":0,"slot":"0","type":"t_struct(Set)6485_storage"}],"numberOfBytes":"64"},"t_struct(Set)6485_storage":{"encoding":"inplace","label":"struct EnumerableSet.Set","members":[{"astId":6480,"contract":"contracts/core/SmartWalletFactory.sol:SmartWalletFactory","label":"_values","offset":0,"slot":"0","type":"t_array(t_bytes32)dyn_storage"},{"astId":6484,"contract":"contracts/core/SmartWalletFactory.sol:SmartWalletFactory","label":"_positions","offset":0,"slot":"1","type":"t_mapping(t_bytes32,t_uint256)"}],"numberOfBytes":"64"},"t_uint256":{"encoding":"inplace","label":"uint256","numberOfBytes":"32"}}},"userdoc":{"kind":"user","methods":{},"version":1}}}}