{"contracts/core/SmartWallet.sol":{"SmartWallet":{"abi":[{"inputs":[],"name":"InvalidInitialization","type":"error"},{"inputs":[],"name":"NotInitializing","type":"error"},{"inputs":[{"internalType":"address","name":"owner","type":"address"}],"name":"OwnableInvalidOwner","type":"error"},{"inputs":[{"internalType":"address","name":"account","type":"address"}],"name":"OwnableUnauthorizedAccount","type":"error"},{"inputs":[],"name":"ReentrancyGuardReentrantCall","type":"error"},{"anonymous":false,"inputs":[{"indexed":false,"internalType":"uint64","name":"version","type":"uint64"}],"name":"Initialized","type":"event"},{"anonymous":false,"inputs":[{"indexed":true,"internalType":"address","name":"previousOwner","type":"address"},{"indexed":true,"internalType":"address","name":"newOwner","type":"address"}],"name":"OwnershipTransferred","type":"event"},{"inputs":[],"name":"acceptAdminRole","outputs":[],"stateMutability":"nonpayable","type":"function"},{"inputs":[],"name":"agent","outputs":[{"internalType":"address","name":"","type":"address"}],"stateMutability":"view","type":"function"},{"inputs":[{"internalType":"address","name":"new_agent","type":"address"}],"name":"changeAgent","outputs":[],"stateMutability":"nonpayable","type":"function"},{"inputs":[],"name":"factory","outputs":[{"internalType":"contract ISmartWalletFactory","name":"","type":"address"}],"stateMutability":"view","type":"function"},{"inputs":[{"internalType":"address","name":"owner_","type":"address"},{"internalType":"address","name":"agent_","type":"address"},{"internalType":"address","name":"factory_","type":"address"},{"internalType":"bytes32","name":"user_","type":"bytes32"},{"internalType":"address","name":"wormhole_","type":"address"},{"internalType":"address","name":"tokenBridge_","type":"address"},{"internalType":"address","name":"weth_","type":"address"},{"internalType":"uint16","name":"chainId_","type":"uint16"}],"name":"initialize","outputs":[],"stateMutability":"nonpayable","type":"function"},{"inputs":[],"name":"owner","outputs":[{"internalType":"address","name":"","type":"address"}],"stateMutability":"view","type":"function"},{"inputs":[],"name":"pendingAdmin","outputs":[{"internalType":"address","name":"","type":"address"}],"stateMutability":"view","type":"function"},{"inputs":[{"internalType":"address","name":"new_admin","type":"address"}],"name":"proposeNewAdmin","outputs":[],"stateMutability":"nonpayable","type":"function"},{"inputs":[],"name":"renounceOwnership","outputs":[],"stateMutability":"nonpayable","type":"function"},{"inputs":[],"name":"tokenBridge","outputs":[{"internalType":"contract ITokenBridge","name":"","type":"address"}],"stateMutability":"view","type":"function"},{"inputs":[{"internalType":"address","name":"newOwner","type":"address"}],"name":"transferOwnership","outputs":[],"stateMutability":"nonpayable","type":"function"},{"inputs":[{"internalType":"address","name":"token","type":"address"},{"internalType":"uint256","name":"amount","type":"uint256"},{"internalType":"uint256","name":"arbiterFee","type":"uint256"},{"internalType":"uint32","name":"nonce","type":"uint32"}],"name":"transferTokenBackToSmartWallet","outputs":[],"stateMutability":"nonpayable","type":"function"},{"inputs":[],"name":"user","outputs":[{"internalType":"bytes32","name":"","type":"bytes32"}],"stateMutability":"view","type":"function"},{"inputs":[],"name":"weth","outputs":[{"internalType":"contract IWETH","name":"","type":"address"}],"stateMutability":"view","type":"function"},{"inputs":[],"name":"wormhole","outputs":[{"internalType":"contract IWormhole","name":"","type":"address"}],"stateMutability":"view","type":"function"}],"devdoc":{"errors":{"InvalidInitialization()":[{"details":"The contract is already initialized."}],"NotInitializing()":[{"details":"The contract is not initializing."}],"OwnableInvalidOwner(address)":[{"details":"The owner is not a valid owner account. (eg. `address(0)`)"}],"OwnableUnauthorizedAccount(address)":[{"details":"The caller account is not authorized to perform an operation."}],"ReentrancyGuardReentrantCall()":[{"details":"Unauthorized reentrant call."}]},"events":{"Initialized(uint64)":{"details":"Triggered when the contract has been initialized or reinitialized."}},"kind":"dev","methods":{"owner()":{"details":"Returns the address of the current owner."},"renounceOwnership()":{"details":"Leaves the contract without owner. It will not be possible to call `onlyOwner` functions. Can only be called by the current owner. NOTE: Renouncing ownership will leave the contract without an owner, thereby disabling any functionality that is only available to the owner."},"transferOwnership(address)":{"details":"Transfers ownership of the contract to a new account (`newOwner`). Can only be called by the current owner."}},"version":1},"evm":{"bytecode":{"linkReferences":{},"object":"6080604052348015600f57600080fd5b506109ae8061001f6000396000f3fe608060405234801561001057600080fd5b50600436106100c55760003560e01c806326782247146100ca5780633fc8cef3146100f35780634f8632ba1461010657806357f032e71461011d578063715018a61461013257806384acd1bb1461013a5780638c3d73011461014d5780638da5cb5b1461015557806392f707091461015d578063a637674614610170578063c45a015514610183578063c6328a4614610196578063cbd83a19146101a9578063f2fde38b146101bc578063f5ff5c76146101cf575b600080fd5b6002546100dd906001600160a01b031681565b6040516100ea91906107cf565b60405180910390f35b6006546100dd906001600160a01b031681565b61010f60005481565b6040519081526020016100ea565b61013061012b3660046107ff565b6101e2565b005b61013061020c565b6004546100dd906001600160a01b031681565b610130610220565b6100dd61027a565b61013061016b366004610821565b610295565b61013061017e3660046107ff565b61040e565b6003546100dd906001600160a01b031681565b6005546100dd906001600160a01b031681565b6101306101b7366004610872565b610438565b6101306101ca3660046107ff565b61063e565b6001546100dd906001600160a01b031681565b6101ea61067c565b600180546001600160a01b0319166001600160a01b0392909216919091179055565b61021461067c565b61021e60006106ae565b565b6002546001600160a01b031633146102535760405162461bcd60e51b815260040161024a9061090d565b60405180910390fd5b600254610268906001600160a01b03166106ae565b600280546001600160a01b0319169055565b60008061028561070a565b546001600160a01b031692915050565b61029d61027a565b6001600160a01b0316336001600160a01b031614806102c657506001546001600160a01b031633145b6102e25760405162461bcd60e51b815260040161024a9061090d565b6000600460009054906101000a90046001600160a01b03166001600160a01b0316631a90a2196040518163ffffffff1660e01b8152600401602060405180830381865afa158015610337573d6000803e3d6000fd5b505050506040513d601f19601f8201168201806040525081019061035b9190610936565b60055460065460005460405162f5287b60e41b81526001600160a01b038a81166004830152602482018a9052600160a01b90930461ffff16604482015260648101919091526084810187905263ffffffff861660a48201529293501690630f5287b090839060c40160206040518083038185885af11580156103e1573d6000803e3d6000fd5b50505050506040513d601f19601f82011682018060405250810190610406919061094f565b505050505050565b61041661067c565b600280546001600160a01b0319166001600160a01b0392909216919091179055565b600061044261072e565b805490915060ff600160401b82041615906001600160401b03166000811580156104695750825b90506000826001600160401b031660011480156104855750303b155b905081158015610493575080155b156104b15760405163f92ee8a960e01b815260040160405180910390fd5b84546001600160401b031916600117855583156104da57845460ff60401b1916600160401b1785555b6001600160a01b038d166105215760405162461bcd60e51b815260206004820152600e60248201526d6f776e6572206973207a65726f2160901b604482015260640161024a565b6001600160a01b038c166105675760405162461bcd60e51b815260206004820152600d60248201526c6167656e74206973207a65726f60981b604482015260640161024a565b61056f610752565b6105788d6106ae565b600180546001600160a01b03199081166001600160a01b038f81169190911790925560008c90556003805482168e84161790556004805482168c8416179055600580549091168a8316179055600680549189166001600160b01b031990921691909117600160a01b61ffff891602179055831561062f57845460ff60401b19168555604051600181527fc7f505b2f371ae2175ee4913f4499e1f2633a7b5936321eed1cdaeb6115181d29060200160405180910390a15b50505050505050505050505050565b61064661067c565b6001600160a01b038116610670576000604051631e4fbdf760e01b815260040161024a91906107cf565b610679816106ae565b50565b3361068561027a565b6001600160a01b03161461021e573360405163118cdaa760e01b815260040161024a91906107cf565b60006106b861070a565b80546001600160a01b038481166001600160a01b031983168117845560405193945091169182907f8be0079c531659141344cd1fd0a4f28419497f9722a3daafe3b4186f6b6457e090600090a3505050565b7f9016d09d72d40fdae2fd8ceac6b6234c7706214fd39c1cd1e609a0528c19930090565b7ff0c57e16840df040f15088dc2f81fe391c3923bec73e23a9662efc9c229c6a0090565b61075a610762565b61021e610787565b61076a6107b5565b61021e57604051631afcd79f60e31b815260040160405180910390fd5b61078f610762565b60017f9b779b17422d0df92223018b32b4d1fa46e071723d6817e2486d003becc55f0055565b60006107bf61072e565b54600160401b900460ff16919050565b6001600160a01b0391909116815260200190565b80356001600160a01b03811681146107fa57600080fd5b919050565b60006020828403121561081157600080fd5b61081a826107e3565b9392505050565b6000806000806080858703121561083757600080fd5b610840856107e3565b93506020850135925060408501359150606085013563ffffffff8116811461086757600080fd5b939692955090935050565b600080600080600080600080610100898b03121561088f57600080fd5b610898896107e3565b97506108a660208a016107e3565b96506108b460408a016107e3565b9550606089013594506108c960808a016107e3565b93506108d760a08a016107e3565b92506108e560c08a016107e3565b915060e089013561ffff811681146108fc57600080fd5b809150509295985092959890939650565b6020808252600f908201526e4e6f7420417574686f72697a65642160881b604082015260600190565b60006020828403121561094857600080fd5b5051919050565b60006020828403121561096157600080fd5b81516001600160401b038116811461081a57600080fdfea2646970667358221220cadb239e63460b1b2f507ab29e752753766ccb74068cab375290d304ab7b2bd264736f6c634300081c0033","opcodes":"PUSH1 0x80 PUSH1 0x40 MSTORE CALLVALUE DUP1 ISZERO PUSH1 0xF JUMPI PUSH1 0x0 DUP1 REVERT JUMPDEST POP PUSH2 0x9AE DUP1 PUSH2 0x1F PUSH1 0x0 CODECOPY PUSH1 0x0 RETURN INVALID PUSH1 0x80 PUSH1 0x40 MSTORE CALLVALUE DUP1 ISZERO PUSH2 0x10 JUMPI PUSH1 0x0 DUP1 REVERT JUMPDEST POP PUSH1 0x4 CALLDATASIZE LT PUSH2 0xC5 JUMPI PUSH1 0x0 CALLDATALOAD PUSH1 0xE0 SHR DUP1 PUSH4 0x26782247 EQ PUSH2 0xCA JUMPI DUP1 PUSH4 0x3FC8CEF3 EQ PUSH2 0xF3 JUMPI DUP1 PUSH4 0x4F8632BA EQ PUSH2 0x106 JUMPI DUP1 PUSH4 0x57F032E7 EQ PUSH2 0x11D JUMPI DUP1 PUSH4 0x715018A6 EQ PUSH2 0x132 JUMPI DUP1 PUSH4 0x84ACD1BB EQ PUSH2 0x13A JUMPI DUP1 PUSH4 0x8C3D7301 EQ PUSH2 0x14D JUMPI DUP1 PUSH4 0x8DA5CB5B EQ PUSH2 0x155 JUMPI DUP1 PUSH4 0x92F70709 EQ PUSH2 0x15D JUMPI DUP1 PUSH4 0xA6376746 EQ PUSH2 0x170 JUMPI DUP1 PUSH4 0xC45A0155 EQ PUSH2 0x183 JUMPI DUP1 PUSH4 0xC6328A46 EQ PUSH2 0x196 JUMPI DUP1 PUSH4 0xCBD83A19 EQ PUSH2 0x1A9 JUMPI DUP1 PUSH4 0xF2FDE38B EQ PUSH2 0x1BC JUMPI DUP1 PUSH4 0xF5FF5C76 EQ PUSH2 0x1CF JUMPI JUMPDEST PUSH1 0x0 DUP1 REVERT JUMPDEST PUSH1 0x2 SLOAD PUSH2 0xDD SWAP1 PUSH1 0x1 PUSH1 0x1 PUSH1 0xA0 SHL SUB AND DUP2 JUMP JUMPDEST PUSH1 0x40 MLOAD PUSH2 0xEA SWAP2 SWAP1 PUSH2 0x7CF JUMP JUMPDEST PUSH1 0x40 MLOAD DUP1 SWAP2 SUB SWAP1 RETURN JUMPDEST PUSH1 0x6 SLOAD PUSH2 0xDD SWAP1 PUSH1 0x1 PUSH1 0x1 PUSH1 0xA0 SHL SUB AND DUP2 JUMP JUMPDEST PUSH2 0x10F PUSH1 0x0 SLOAD DUP2 JUMP JUMPDEST PUSH1 0x40 MLOAD SWAP1 DUP2 MSTORE PUSH1 0x20 ADD PUSH2 0xEA JUMP JUMPDEST PUSH2 0x130 PUSH2 0x12B CALLDATASIZE PUSH1 0x4 PUSH2 0x7FF JUMP JUMPDEST PUSH2 0x1E2 JUMP JUMPDEST STOP JUMPDEST PUSH2 0x130 PUSH2 0x20C JUMP JUMPDEST PUSH1 0x4 SLOAD PUSH2 0xDD SWAP1 PUSH1 0x1 PUSH1 0x1 PUSH1 0xA0 SHL SUB AND DUP2 JUMP JUMPDEST PUSH2 0x130 PUSH2 0x220 JUMP JUMPDEST PUSH2 0xDD PUSH2 0x27A JUMP JUMPDEST PUSH2 0x130 PUSH2 0x16B CALLDATASIZE PUSH1 0x4 PUSH2 0x821 JUMP JUMPDEST PUSH2 0x295 JUMP JUMPDEST PUSH2 0x130 PUSH2 0x17E CALLDATASIZE PUSH1 0x4 PUSH2 0x7FF JUMP JUMPDEST PUSH2 0x40E JUMP JUMPDEST PUSH1 0x3 SLOAD PUSH2 0xDD SWAP1 PUSH1 0x1 PUSH1 0x1 PUSH1 0xA0 SHL SUB AND DUP2 JUMP JUMPDEST PUSH1 0x5 SLOAD PUSH2 0xDD SWAP1 PUSH1 0x1 PUSH1 0x1 PUSH1 0xA0 SHL SUB AND DUP2 JUMP JUMPDEST PUSH2 0x130 PUSH2 0x1B7 CALLDATASIZE PUSH1 0x4 PUSH2 0x872 JUMP JUMPDEST PUSH2 0x438 JUMP JUMPDEST PUSH2 0x130 PUSH2 0x1CA CALLDATASIZE PUSH1 0x4 PUSH2 0x7FF JUMP JUMPDEST PUSH2 0x63E JUMP JUMPDEST PUSH1 0x1 SLOAD PUSH2 0xDD SWAP1 PUSH1 0x1 PUSH1 0x1 PUSH1 0xA0 SHL SUB AND DUP2 JUMP JUMPDEST PUSH2 0x1EA PUSH2 0x67C JUMP JUMPDEST PUSH1 0x1 DUP1 SLOAD PUSH1 0x1 PUSH1 0x1 PUSH1 0xA0 SHL SUB NOT AND PUSH1 0x1 PUSH1 0x1 PUSH1 0xA0 SHL SUB SWAP3 SWAP1 SWAP3 AND SWAP2 SWAP1 SWAP2 OR SWAP1 SSTORE JUMP JUMPDEST PUSH2 0x214 PUSH2 0x67C JUMP JUMPDEST PUSH2 0x21E PUSH1 0x0 PUSH2 0x6AE JUMP JUMPDEST JUMP JUMPDEST PUSH1 0x2 SLOAD PUSH1 0x1 PUSH1 0x1 PUSH1 0xA0 SHL SUB AND CALLER EQ PUSH2 0x253 JUMPI PUSH1 0x40 MLOAD PUSH3 0x461BCD PUSH1 0xE5 SHL DUP2 MSTORE PUSH1 0x4 ADD PUSH2 0x24A SWAP1 PUSH2 0x90D JUMP JUMPDEST PUSH1 0x40 MLOAD DUP1 SWAP2 SUB SWAP1 REVERT JUMPDEST PUSH1 0x2 SLOAD PUSH2 0x268 SWAP1 PUSH1 0x1 PUSH1 0x1 PUSH1 0xA0 SHL SUB AND PUSH2 0x6AE JUMP JUMPDEST PUSH1 0x2 DUP1 SLOAD PUSH1 0x1 PUSH1 0x1 PUSH1 0xA0 SHL SUB NOT AND SWAP1 SSTORE JUMP JUMPDEST PUSH1 0x0 DUP1 PUSH2 0x285 PUSH2 0x70A JUMP JUMPDEST SLOAD PUSH1 0x1 PUSH1 0x1 PUSH1 0xA0 SHL SUB AND SWAP3 SWAP2 POP POP JUMP JUMPDEST PUSH2 0x29D PUSH2 0x27A JUMP JUMPDEST PUSH1 0x1 PUSH1 0x1 PUSH1 0xA0 SHL SUB AND CALLER PUSH1 0x1 PUSH1 0x1 PUSH1 0xA0 SHL SUB AND EQ DUP1 PUSH2 0x2C6 JUMPI POP PUSH1 0x1 SLOAD PUSH1 0x1 PUSH1 0x1 PUSH1 0xA0 SHL SUB AND CALLER EQ JUMPDEST PUSH2 0x2E2 JUMPI PUSH1 0x40 MLOAD PUSH3 0x461BCD PUSH1 0xE5 SHL DUP2 MSTORE PUSH1 0x4 ADD PUSH2 0x24A SWAP1 PUSH2 0x90D JUMP JUMPDEST PUSH1 0x0 PUSH1 0x4 PUSH1 0x0 SWAP1 SLOAD SWAP1 PUSH2 0x100 EXP SWAP1 DIV PUSH1 0x1 PUSH1 0x1 PUSH1 0xA0 SHL SUB AND PUSH1 0x1 PUSH1 0x1 PUSH1 0xA0 SHL SUB AND PUSH4 0x1A90A219 PUSH1 0x40 MLOAD DUP2 PUSH4 0xFFFFFFFF AND PUSH1 0xE0 SHL DUP2 MSTORE PUSH1 0x4 ADD PUSH1 0x20 PUSH1 0x40 MLOAD DUP1 DUP4 SUB DUP2 DUP7 GAS STATICCALL ISZERO DUP1 ISZERO PUSH2 0x337 JUMPI RETURNDATASIZE PUSH1 0x0 DUP1 RETURNDATACOPY RETURNDATASIZE PUSH1 0x0 REVERT JUMPDEST POP POP POP POP PUSH1 0x40 MLOAD RETURNDATASIZE PUSH1 0x1F NOT PUSH1 0x1F DUP3 ADD AND DUP3 ADD DUP1 PUSH1 0x40 MSTORE POP DUP2 ADD SWAP1 PUSH2 0x35B SWAP2 SWAP1 PUSH2 0x936 JUMP JUMPDEST PUSH1 0x5 SLOAD PUSH1 0x6 SLOAD PUSH1 0x0 SLOAD PUSH1 0x40 MLOAD PUSH3 0xF5287B PUSH1 0xE4 SHL DUP2 MSTORE PUSH1 0x1 PUSH1 0x1 PUSH1 0xA0 SHL SUB DUP11 DUP2 AND PUSH1 0x4 DUP4 ADD MSTORE PUSH1 0x24 DUP3 ADD DUP11 SWAP1 MSTORE PUSH1 0x1 PUSH1 0xA0 SHL SWAP1 SWAP4 DIV PUSH2 0xFFFF AND PUSH1 0x44 DUP3 ADD MSTORE PUSH1 0x64 DUP2 ADD SWAP2 SWAP1 SWAP2 MSTORE PUSH1 0x84 DUP2 ADD DUP8 SWAP1 MSTORE PUSH4 0xFFFFFFFF DUP7 AND PUSH1 0xA4 DUP3 ADD MSTORE SWAP3 SWAP4 POP AND SWAP1 PUSH4 0xF5287B0 SWAP1 DUP4 SWAP1 PUSH1 0xC4 ADD PUSH1 0x20 PUSH1 0x40 MLOAD DUP1 DUP4 SUB DUP2 DUP6 DUP9 GAS CALL ISZERO DUP1 ISZERO PUSH2 0x3E1 JUMPI RETURNDATASIZE PUSH1 0x0 DUP1 RETURNDATACOPY RETURNDATASIZE PUSH1 0x0 REVERT JUMPDEST POP POP POP POP POP PUSH1 0x40 MLOAD RETURNDATASIZE PUSH1 0x1F NOT PUSH1 0x1F DUP3 ADD AND DUP3 ADD DUP1 PUSH1 0x40 MSTORE POP DUP2 ADD SWAP1 PUSH2 0x406 SWAP2 SWAP1 PUSH2 0x94F JUMP JUMPDEST POP POP POP POP POP POP JUMP JUMPDEST PUSH2 0x416 PUSH2 0x67C JUMP JUMPDEST PUSH1 0x2 DUP1 SLOAD PUSH1 0x1 PUSH1 0x1 PUSH1 0xA0 SHL SUB NOT AND PUSH1 0x1 PUSH1 0x1 PUSH1 0xA0 SHL SUB SWAP3 SWAP1 SWAP3 AND SWAP2 SWAP1 SWAP2 OR SWAP1 SSTORE JUMP JUMPDEST PUSH1 0x0 PUSH2 0x442 PUSH2 0x72E JUMP JUMPDEST DUP1 SLOAD SWAP1 SWAP2 POP PUSH1 0xFF PUSH1 0x1 PUSH1 0x40 SHL DUP3 DIV AND ISZERO SWAP1 PUSH1 0x1 PUSH1 0x1 PUSH1 0x40 SHL SUB AND PUSH1 0x0 DUP2 ISZERO DUP1 ISZERO PUSH2 0x469 JUMPI POP DUP3 JUMPDEST SWAP1 POP PUSH1 0x0 DUP3 PUSH1 0x1 PUSH1 0x1 PUSH1 0x40 SHL SUB AND PUSH1 0x1 EQ DUP1 ISZERO PUSH2 0x485 JUMPI POP ADDRESS EXTCODESIZE ISZERO JUMPDEST SWAP1 POP DUP2 ISZERO DUP1 ISZERO PUSH2 0x493 JUMPI POP DUP1 ISZERO JUMPDEST ISZERO PUSH2 0x4B1 JUMPI PUSH1 0x40 MLOAD PUSH4 0xF92EE8A9 PUSH1 0xE0 SHL DUP2 MSTORE PUSH1 0x4 ADD PUSH1 0x40 MLOAD DUP1 SWAP2 SUB SWAP1 REVERT JUMPDEST DUP5 SLOAD PUSH1 0x1 PUSH1 0x1 PUSH1 0x40 SHL SUB NOT AND PUSH1 0x1 OR DUP6 SSTORE DUP4 ISZERO PUSH2 0x4DA JUMPI DUP5 SLOAD PUSH1 0xFF PUSH1 0x40 SHL NOT AND PUSH1 0x1 PUSH1 0x40 SHL OR DUP6 SSTORE JUMPDEST PUSH1 0x1 PUSH1 0x1 PUSH1 0xA0 SHL SUB DUP14 AND PUSH2 0x521 JUMPI PUSH1 0x40 MLOAD PUSH3 0x461BCD PUSH1 0xE5 SHL DUP2 MSTORE PUSH1 0x20 PUSH1 0x4 DUP3 ADD MSTORE PUSH1 0xE PUSH1 0x24 DUP3 ADD MSTORE PUSH14 0x6F776E6572206973207A65726F21 PUSH1 0x90 SHL PUSH1 0x44 DUP3 ADD MSTORE PUSH1 0x64 ADD PUSH2 0x24A JUMP JUMPDEST PUSH1 0x1 PUSH1 0x1 PUSH1 0xA0 SHL SUB DUP13 AND PUSH2 0x567 JUMPI PUSH1 0x40 MLOAD PUSH3 0x461BCD PUSH1 0xE5 SHL DUP2 MSTORE PUSH1 0x20 PUSH1 0x4 DUP3 ADD MSTORE PUSH1 0xD PUSH1 0x24 DUP3 ADD MSTORE PUSH13 0x6167656E74206973207A65726F PUSH1 0x98 SHL PUSH1 0x44 DUP3 ADD MSTORE PUSH1 0x64 ADD PUSH2 0x24A JUMP JUMPDEST PUSH2 0x56F PUSH2 0x752 JUMP JUMPDEST PUSH2 0x578 DUP14 PUSH2 0x6AE JUMP JUMPDEST PUSH1 0x1 DUP1 SLOAD PUSH1 0x1 PUSH1 0x1 PUSH1 0xA0 SHL SUB NOT SWAP1 DUP2 AND PUSH1 0x1 PUSH1 0x1 PUSH1 0xA0 SHL SUB DUP16 DUP2 AND SWAP2 SWAP1 SWAP2 OR SWAP1 SWAP3 SSTORE PUSH1 0x0 DUP13 SWAP1 SSTORE PUSH1 0x3 DUP1 SLOAD DUP3 AND DUP15 DUP5 AND OR SWAP1 SSTORE PUSH1 0x4 DUP1 SLOAD DUP3 AND DUP13 DUP5 AND OR SWAP1 SSTORE PUSH1 0x5 DUP1 SLOAD SWAP1 SWAP2 AND DUP11 DUP4 AND OR SWAP1 SSTORE PUSH1 0x6 DUP1 SLOAD SWAP2 DUP10 AND PUSH1 0x1 PUSH1 0x1 PUSH1 0xB0 SHL SUB NOT SWAP1 SWAP3 AND SWAP2 SWAP1 SWAP2 OR PUSH1 0x1 PUSH1 0xA0 SHL PUSH2 0xFFFF DUP10 AND MUL OR SWAP1 SSTORE DUP4 ISZERO PUSH2 0x62F JUMPI DUP5 SLOAD PUSH1 0xFF PUSH1 0x40 SHL NOT AND DUP6 SSTORE PUSH1 0x40 MLOAD PUSH1 0x1 DUP2 MSTORE PUSH32 0xC7F505B2F371AE2175EE4913F4499E1F2633A7B5936321EED1CDAEB6115181D2 SWAP1 PUSH1 0x20 ADD PUSH1 0x40 MLOAD DUP1 SWAP2 SUB SWAP1 LOG1 JUMPDEST POP POP POP POP POP POP POP POP POP POP POP POP POP JUMP JUMPDEST PUSH2 0x646 PUSH2 0x67C JUMP JUMPDEST PUSH1 0x1 PUSH1 0x1 PUSH1 0xA0 SHL SUB DUP2 AND PUSH2 0x670 JUMPI PUSH1 0x0 PUSH1 0x40 MLOAD PUSH4 0x1E4FBDF7 PUSH1 0xE0 SHL DUP2 MSTORE PUSH1 0x4 ADD PUSH2 0x24A SWAP2 SWAP1 PUSH2 0x7CF JUMP JUMPDEST PUSH2 0x679 DUP2 PUSH2 0x6AE JUMP JUMPDEST POP JUMP JUMPDEST CALLER PUSH2 0x685 PUSH2 0x27A JUMP JUMPDEST PUSH1 0x1 PUSH1 0x1 PUSH1 0xA0 SHL SUB AND EQ PUSH2 0x21E JUMPI CALLER PUSH1 0x40 MLOAD PUSH4 0x118CDAA7 PUSH1 0xE0 SHL DUP2 MSTORE PUSH1 0x4 ADD PUSH2 0x24A SWAP2 SWAP1 PUSH2 0x7CF JUMP JUMPDEST PUSH1 0x0 PUSH2 0x6B8 PUSH2 0x70A JUMP JUMPDEST DUP1 SLOAD PUSH1 0x1 PUSH1 0x1 PUSH1 0xA0 SHL SUB DUP5 DUP2 AND PUSH1 0x1 PUSH1 0x1 PUSH1 0xA0 SHL SUB NOT DUP4 AND DUP2 OR DUP5 SSTORE PUSH1 0x40 MLOAD SWAP4 SWAP5 POP SWAP2 AND SWAP2 DUP3 SWAP1 PUSH32 0x8BE0079C531659141344CD1FD0A4F28419497F9722A3DAAFE3B4186F6B6457E0 SWAP1 PUSH1 0x0 SWAP1 LOG3 POP POP POP JUMP JUMPDEST PUSH32 0x9016D09D72D40FDAE2FD8CEAC6B6234C7706214FD39C1CD1E609A0528C199300 SWAP1 JUMP JUMPDEST PUSH32 0xF0C57E16840DF040F15088DC2F81FE391C3923BEC73E23A9662EFC9C229C6A00 SWAP1 JUMP JUMPDEST PUSH2 0x75A PUSH2 0x762 JUMP JUMPDEST PUSH2 0x21E PUSH2 0x787 JUMP JUMPDEST PUSH2 0x76A PUSH2 0x7B5 JUMP JUMPDEST PUSH2 0x21E JUMPI PUSH1 0x40 MLOAD PUSH4 0x1AFCD79F PUSH1 0xE3 SHL DUP2 MSTORE PUSH1 0x4 ADD PUSH1 0x40 MLOAD DUP1 SWAP2 SUB SWAP1 REVERT JUMPDEST PUSH2 0x78F PUSH2 0x762 JUMP JUMPDEST PUSH1 0x1 PUSH32 0x9B779B17422D0DF92223018B32B4D1FA46E071723D6817E2486D003BECC55F00 SSTORE JUMP JUMPDEST PUSH1 0x0 PUSH2 0x7BF PUSH2 0x72E JUMP JUMPDEST SLOAD PUSH1 0x1 PUSH1 0x40 SHL SWAP1 DIV PUSH1 0xFF AND SWAP2 SWAP1 POP JUMP JUMPDEST PUSH1 0x1 PUSH1 0x1 PUSH1 0xA0 SHL SUB SWAP2 SWAP1 SWAP2 AND DUP2 MSTORE PUSH1 0x20 ADD SWAP1 JUMP JUMPDEST DUP1 CALLDATALOAD PUSH1 0x1 PUSH1 0x1 PUSH1 0xA0 SHL SUB DUP2 AND DUP2 EQ PUSH2 0x7FA JUMPI PUSH1 0x0 DUP1 REVERT JUMPDEST SWAP2 SWAP1 POP JUMP JUMPDEST PUSH1 0x0 PUSH1 0x20 DUP3 DUP5 SUB SLT ISZERO PUSH2 0x811 JUMPI PUSH1 0x0 DUP1 REVERT JUMPDEST PUSH2 0x81A DUP3 PUSH2 0x7E3 JUMP JUMPDEST SWAP4 SWAP3 POP POP POP JUMP JUMPDEST PUSH1 0x0 DUP1 PUSH1 0x0 DUP1 PUSH1 0x80 DUP6 DUP8 SUB SLT ISZERO PUSH2 0x837 JUMPI PUSH1 0x0 DUP1 REVERT JUMPDEST PUSH2 0x840 DUP6 PUSH2 0x7E3 JUMP JUMPDEST SWAP4 POP PUSH1 0x20 DUP6 ADD CALLDATALOAD SWAP3 POP PUSH1 0x40 DUP6 ADD CALLDATALOAD SWAP2 POP PUSH1 0x60 DUP6 ADD CALLDATALOAD PUSH4 0xFFFFFFFF DUP2 AND DUP2 EQ PUSH2 0x867 JUMPI PUSH1 0x0 DUP1 REVERT JUMPDEST SWAP4 SWAP7 SWAP3 SWAP6 POP SWAP1 SWAP4 POP POP JUMP JUMPDEST PUSH1 0x0 DUP1 PUSH1 0x0 DUP1 PUSH1 0x0 DUP1 PUSH1 0x0 DUP1 PUSH2 0x100 DUP10 DUP12 SUB SLT ISZERO PUSH2 0x88F JUMPI PUSH1 0x0 DUP1 REVERT JUMPDEST PUSH2 0x898 DUP10 PUSH2 0x7E3 JUMP JUMPDEST SWAP8 POP PUSH2 0x8A6 PUSH1 0x20 DUP11 ADD PUSH2 0x7E3 JUMP JUMPDEST SWAP7 POP PUSH2 0x8B4 PUSH1 0x40 DUP11 ADD PUSH2 0x7E3 JUMP JUMPDEST SWAP6 POP PUSH1 0x60 DUP10 ADD CALLDATALOAD SWAP5 POP PUSH2 0x8C9 PUSH1 0x80 DUP11 ADD PUSH2 0x7E3 JUMP JUMPDEST SWAP4 POP PUSH2 0x8D7 PUSH1 0xA0 DUP11 ADD PUSH2 0x7E3 JUMP JUMPDEST SWAP3 POP PUSH2 0x8E5 PUSH1 0xC0 DUP11 ADD PUSH2 0x7E3 JUMP JUMPDEST SWAP2 POP PUSH1 0xE0 DUP10 ADD CALLDATALOAD PUSH2 0xFFFF DUP2 AND DUP2 EQ PUSH2 0x8FC JUMPI PUSH1 0x0 DUP1 REVERT JUMPDEST DUP1 SWAP2 POP POP SWAP3 SWAP6 SWAP9 POP SWAP3 SWAP6 SWAP9 SWAP1 SWAP4 SWAP7 POP JUMP JUMPDEST PUSH1 0x20 DUP1 DUP3 MSTORE PUSH1 0xF SWAP1 DUP3 ADD MSTORE PUSH15 0x4E6F7420417574686F72697A656421 PUSH1 0x88 SHL PUSH1 0x40 DUP3 ADD MSTORE PUSH1 0x60 ADD SWAP1 JUMP JUMPDEST PUSH1 0x0 PUSH1 0x20 DUP3 DUP5 SUB SLT ISZERO PUSH2 0x948 JUMPI PUSH1 0x0 DUP1 REVERT JUMPDEST POP MLOAD SWAP2 SWAP1 POP JUMP JUMPDEST PUSH1 0x0 PUSH1 0x20 DUP3 DUP5 SUB SLT ISZERO PUSH2 0x961 JUMPI PUSH1 0x0 DUP1 REVERT JUMPDEST DUP2 MLOAD PUSH1 0x1 PUSH1 0x1 PUSH1 0x40 SHL SUB DUP2 AND DUP2 EQ PUSH2 0x81A JUMPI PUSH1 0x0 DUP1 REVERT INVALID LOG2 PUSH5 0x6970667358 0x22 SLT KECCAK256 0xCA 0xDB 0x23 SWAP15 PUSH4 0x460B1B2F POP PUSH27 0xB29E752753766CCB74068CAB375290D304AB7B2BD264736F6C6343 STOP ADDMOD SHR STOP CALLER "},"gasEstimates":{"creation":{"codeDepositCost":"495600","executionCost":"530","totalCost":"496130"},"external":{"acceptAdminRole()":"54612","agent()":"2647","changeAgent(address)":"26864","factory()":"2559","initialize(address,address,address,bytes32,address,address,address,uint16)":"infinite","owner()":"2542","pendingAdmin()":"2339","proposeNewAdmin(address)":"26996","renounceOwnership()":"infinite","tokenBridge()":"2581","transferOwnership(address)":"infinite","transferTokenBackToSmartWallet(address,uint256,uint256,uint32)":"infinite","user()":"2317","weth()":"2361","wormhole()":"2449"}},"methodIdentifiers":{"acceptAdminRole()":"8c3d7301","agent()":"f5ff5c76","changeAgent(address)":"57f032e7","factory()":"c45a0155","initialize(address,address,address,bytes32,address,address,address,uint16)":"cbd83a19","owner()":"8da5cb5b","pendingAdmin()":"26782247","proposeNewAdmin(address)":"a6376746","renounceOwnership()":"715018a6","tokenBridge()":"c6328a46","transferOwnership(address)":"f2fde38b","transferTokenBackToSmartWallet(address,uint256,uint256,uint32)":"92f70709","user()":"4f8632ba","weth()":"3fc8cef3","wormhole()":"84acd1bb"}},"storageLayout":{"storage":[{"astId":8561,"contract":"contracts/core/SmartWallet.sol:SmartWallet","label":"user","offset":0,"slot":"0","type":"t_bytes32"},{"astId":8563,"contract":"contracts/core/SmartWallet.sol:SmartWallet","label":"agent","offset":0,"slot":"1","type":"t_address"},{"astId":8565,"contract":"contracts/core/SmartWallet.sol:SmartWallet","label":"pendingAdmin","offset":0,"slot":"2","type":"t_address"},{"astId":8568,"contract":"contracts/core/SmartWallet.sol:SmartWallet","label":"factory","offset":0,"slot":"3","type":"t_contract(ISmartWalletFactory)8709"},{"astId":8571,"contract":"contracts/core/SmartWallet.sol:SmartWallet","label":"wormhole","offset":0,"slot":"4","type":"t_contract(IWormhole)9447"},{"astId":8574,"contract":"contracts/core/SmartWallet.sol:SmartWallet","label":"tokenBridge","offset":0,"slot":"5","type":"t_contract(ITokenBridge)9117"},{"astId":8577,"contract":"contracts/core/SmartWallet.sol:SmartWallet","label":"weth","offset":0,"slot":"6","type":"t_contract(IWETH)9131"},{"astId":8579,"contract":"contracts/core/SmartWallet.sol:SmartWallet","label":"chainId","offset":20,"slot":"6","type":"t_uint16"}],"types":{"t_address":{"encoding":"inplace","label":"address","numberOfBytes":"20"},"t_bytes32":{"encoding":"inplace","label":"bytes32","numberOfBytes":"32"},"t_contract(ISmartWalletFactory)8709":{"encoding":"inplace","label":"contract ISmartWalletFactory","numberOfBytes":"20"},"t_contract(ITokenBridge)9117":{"encoding":"inplace","label":"contract ITokenBridge","numberOfBytes":"20"},"t_contract(IWETH)9131":{"encoding":"inplace","label":"contract IWETH","numberOfBytes":"20"},"t_contract(IWormhole)9447":{"encoding":"inplace","label":"contract IWormhole","numberOfBytes":"20"},"t_uint16":{"encoding":"inplace","label":"uint16","numberOfBytes":"2"}}},"userdoc":{"kind":"user","methods":{},"version":1}}}}