{"contracts/core/SmartWallet.sol":{"SmartWallet":{"abi":[{"inputs":[],"name":"InvalidInitialization","type":"error"},{"inputs":[],"name":"NotInitializing","type":"error"},{"inputs":[{"internalType":"address","name":"owner","type":"address"}],"name":"OwnableInvalidOwner","type":"error"},{"inputs":[{"internalType":"address","name":"account","type":"address"}],"name":"OwnableUnauthorizedAccount","type":"error"},{"inputs":[],"name":"ReentrancyGuardReentrantCall","type":"error"},{"anonymous":false,"inputs":[{"indexed":false,"internalType":"uint64","name":"version","type":"uint64"}],"name":"Initialized","type":"event"},{"anonymous":false,"inputs":[{"indexed":true,"internalType":"address","name":"previousOwner","type":"address"},{"indexed":true,"internalType":"address","name":"newOwner","type":"address"}],"name":"OwnershipTransferred","type":"event"},{"inputs":[],"name":"acceptAdminRole","outputs":[],"stateMutability":"nonpayable","type":"function"},{"inputs":[],"name":"agent","outputs":[{"internalType":"address","name":"","type":"address"}],"stateMutability":"view","type":"function"},{"inputs":[{"internalType":"address","name":"new_agent","type":"address"}],"name":"changeAgent","outputs":[],"stateMutability":"nonpayable","type":"function"},{"inputs":[],"name":"factory","outputs":[{"internalType":"contract ISmartWalletFactory","name":"","type":"address"}],"stateMutability":"view","type":"function"},{"inputs":[{"internalType":"address","name":"owner_","type":"address"},{"internalType":"address","name":"agent_","type":"address"},{"internalType":"address","name":"factory_","type":"address"},{"internalType":"bytes32","name":"user_","type":"bytes32"},{"internalType":"address","name":"wormhole_","type":"address"},{"internalType":"address","name":"tokenBridge_","type":"address"},{"internalType":"address","name":"weth_","type":"address"},{"internalType":"uint16","name":"chainId_","type":"uint16"}],"name":"initialize","outputs":[],"stateMutability":"nonpayable","type":"function"},{"inputs":[],"name":"owner","outputs":[{"internalType":"address","name":"","type":"address"}],"stateMutability":"view","type":"function"},{"inputs":[],"name":"pendingAdmin","outputs":[{"internalType":"address","name":"","type":"address"}],"stateMutability":"view","type":"function"},{"inputs":[{"internalType":"address","name":"new_admin","type":"address"}],"name":"proposeNewAdmin","outputs":[],"stateMutability":"nonpayable","type":"function"},{"inputs":[{"internalType":"bytes","name":"encodedMessage","type":"bytes"}],"name":"receiveMessage","outputs":[],"stateMutability":"nonpayable","type":"function"},{"inputs":[{"internalType":"bytes","name":"encodedVm","type":"bytes"}],"name":"receiveTokenFromBridge","outputs":[],"stateMutability":"nonpayable","type":"function"},{"inputs":[],"name":"renounceOwnership","outputs":[],"stateMutability":"nonpayable","type":"function"},{"inputs":[],"name":"tokenBridge","outputs":[{"internalType":"contract ITokenBridge","name":"","type":"address"}],"stateMutability":"view","type":"function"},{"inputs":[{"internalType":"address","name":"newOwner","type":"address"}],"name":"transferOwnership","outputs":[],"stateMutability":"nonpayable","type":"function"},{"inputs":[{"internalType":"address","name":"token","type":"address"},{"internalType":"uint256","name":"amount","type":"uint256"},{"internalType":"uint256","name":"arbiterFee","type":"uint256"},{"internalType":"uint32","name":"nonce","type":"uint32"}],"name":"transferTokenBackToSmartWallet","outputs":[{"internalType":"uint64","name":"","type":"uint64"}],"stateMutability":"nonpayable","type":"function"},{"inputs":[],"name":"user","outputs":[{"internalType":"bytes32","name":"","type":"bytes32"}],"stateMutability":"view","type":"function"},{"inputs":[],"name":"weth","outputs":[{"internalType":"contract IWETH","name":"","type":"address"}],"stateMutability":"view","type":"function"},{"inputs":[],"name":"wormhole","outputs":[{"internalType":"contract IWormhole","name":"","type":"address"}],"stateMutability":"view","type":"function"}],"devdoc":{"errors":{"InvalidInitialization()":[{"details":"The contract is already initialized."}],"NotInitializing()":[{"details":"The contract is not initializing."}],"OwnableInvalidOwner(address)":[{"details":"The owner is not a valid owner account. (eg. `address(0)`)"}],"OwnableUnauthorizedAccount(address)":[{"details":"The caller account is not authorized to perform an operation."}],"ReentrancyGuardReentrantCall()":[{"details":"Unauthorized reentrant call."}]},"events":{"Initialized(uint64)":{"details":"Triggered when the contract has been initialized or reinitialized."}},"kind":"dev","methods":{"owner()":{"details":"Returns the address of the current owner."},"renounceOwnership()":{"details":"Leaves the contract without owner. It will not be possible to call `onlyOwner` functions. Can only be called by the current owner. NOTE: Renouncing ownership will leave the contract without an owner, thereby disabling any functionality that is only available to the owner."},"transferOwnership(address)":{"details":"Transfers ownership of the contract to a new account (`newOwner`). Can only be called by the current owner."}},"version":1},"evm":{"bytecode":{"linkReferences":{},"object":"6080604052348015600f57600080fd5b5061115f8061001f6000396000f3fe608060405234801561001057600080fd5b50600436106100db5760003560e01c806326782247146100e05780633fc8cef3146101095780634f8632ba1461011c57806357f032e71461013357806365436bcf14610148578063715018a61461015b57806384acd1bb146101635780638c3d7301146101765780638da5cb5b1461017e57806392f7070914610186578063a6376746146101a6578063c45a0155146101b9578063c6328a46146101cc578063cbd83a19146101df578063f2fde38b146101f2578063f5ff5c7614610205578063f953cec714610218575b600080fd5b6002546100f3906001600160a01b031681565b6040516101009190610ac1565b60405180910390f35b6006546100f3906001600160a01b031681565b61012560005481565b604051908152602001610100565b610146610141366004610af1565b61022b565b005b610146610156366004610bcb565b610255565b610146610310565b6004546100f3906001600160a01b031681565b610146610324565b6100f3610375565b610199610194366004610c5c565b610390565b6040516101009190610ca4565b6101466101b4366004610af1565b610585565b6003546100f3906001600160a01b031681565b6005546100f3906001600160a01b031681565b6101466101ed366004610cc8565b6105af565b610146610200366004610af1565b6107ba565b6001546100f3906001600160a01b031681565b610146610226366004610bcb565b6107f8565b6102336108fa565b600180546001600160a01b0319166001600160a01b0392909216919091179055565b61025d610375565b6001600160a01b0316336001600160a01b0316148061028657506001546001600160a01b031633145b6102ab5760405162461bcd60e51b81526004016102a290610d5c565b60405180910390fd5b60055460405163c687851960e01b81526001600160a01b039091169063c6878519906102db908490600401610dd5565b600060405180830381600087803b1580156102f557600080fd5b505af1158015610309573d6000803e3d6000fd5b5050505050565b6103186108fa565b610322600061092c565b565b6002546001600160a01b0316331461034e5760405162461bcd60e51b81526004016102a290610d5c565b600254610363906001600160a01b031661092c565b600280546001600160a01b0319169055565b600080610380610988565b546001600160a01b031692915050565b600061039a610375565b6001600160a01b0316336001600160a01b031614806103c357506001546001600160a01b031633145b6103df5760405162461bcd60e51b81526004016102a290610d5c565b6000600460009054906101000a90046001600160a01b03166001600160a01b0316631a90a2196040518163ffffffff1660e01b8152600401602060405180830381865afa158015610434573d6000803e3d6000fd5b505050506040513d601f19601f820116820180604052508101906104589190610de8565b60055460405163095ea7b360e01b81526001600160a01b0391821660048201526024810188905291925087169063095ea7b3906044016020604051808303816000875af11580156104ad573d6000803e3d6000fd5b505050506040513d601f19601f820116820180604052508101906104d19190610e11565b5060055460065460005460405162f5287b60e41b81526001600160a01b038a81166004830152602482018a9052600160a01b90930461ffff16604482015260648101919091526084810187905263ffffffff861660a4820152911690630f5287b090839060c40160206040518083038185885af1158015610556573d6000803e3d6000fd5b50505050506040513d601f19601f8201168201806040525081019061057b9190610e43565b9695505050505050565b61058d6108fa565b600280546001600160a01b0319166001600160a01b0392909216919091179055565b60006105b96109ac565b805490915060ff600160401b82041615906001600160401b03166000811580156105e05750825b90506000826001600160401b031660011480156105fc5750303b155b90508115801561060a575080155b156106285760405163f92ee8a960e01b815260040160405180910390fd5b84546001600160401b0319166001178555831561065157845460ff60401b1916600160401b1785555b6001600160a01b038d166106985760405162461bcd60e51b815260206004820152600e60248201526d6f776e6572206973207a65726f2160901b60448201526064016102a2565b6001600160a01b038c166106de5760405162461bcd60e51b815260206004820152600d60248201526c6167656e74206973207a65726f60981b60448201526064016102a2565b6106e66109d7565b6106ef8d61092c565b600180546001600160a01b03199081166001600160a01b038f81169190911790925560008c90556003805482168e84161790556004805482168c8416179055600580549091168a8316179055600680549189166001600160b01b031990921691909117600160a01b61ffff89160217905583156107ab57845460ff60401b191685556040517fc7f505b2f371ae2175ee4913f4499e1f2633a7b5936321eed1cdaeb6115181d2906107a290600190610ca4565b60405180910390a15b50505050505050505050505050565b6107c26108fa565b6001600160a01b0381166107ec576000604051631e4fbdf760e01b81526004016102a29190610ac1565b6107f58161092c565b50565b610800610375565b6001600160a01b0316336001600160a01b0316148061082957506001546001600160a01b031633145b6108455760405162461bcd60e51b81526004016102a290610d5c565b6004805460405163607ec5ef60e11b8152600092839283926001600160a01b039091169163c0fd8bde9161087b91889101610dd5565b600060405180830381865afa158015610898573d6000803e3d6000fd5b505050506040513d6000823e601f3d908101601f191682016040526108c09190810190610f9f565b9250925092508181906108e65760405162461bcd60e51b81526004016102a29190610dd5565b506108f48360e001516109e7565b50505050565b33610903610375565b6001600160a01b031614610322573360405163118cdaa760e01b81526004016102a29190610ac1565b6000610936610988565b80546001600160a01b038481166001600160a01b031983168117845560405193945091169182907f8be0079c531659141344cd1fd0a4f28419497f9722a3daafe3b4186f6b6457e090600090a3505050565b7f9016d09d72d40fdae2fd8ceac6b6234c7706214fd39c1cd1e609a0528c19930090565b6000807ff0c57e16840df040f15088dc2f81fe391c3923bec73e23a9662efc9c229c6a005b92915050565b6109df6109f4565b610322610a19565b6000806108f48382610a47565b6109fc610aa7565b61032257604051631afcd79f60e31b815260040160405180910390fd5b610a216109f4565b60017f9b779b17422d0df92223018b32b4d1fa46e071723d6817e2486d003becc55f0055565b600081835111610a8f5760405162461bcd60e51b8152602060048201526013602482015272746f55696e74385f6f75744f66426f756e647360681b60448201526064016102a2565b6000610a9c600184611108565b909301519392505050565b6000610ab16109ac565b54600160401b900460ff16919050565b6001600160a01b0391909116815260200190565b80356001600160a01b0381168114610aec57600080fd5b919050565b600060208284031215610b0357600080fd5b610b0c82610ad5565b9392505050565b634e487b7160e01b600052604160045260246000fd5b604051608081016001600160401b0381118282101715610b4b57610b4b610b13565b60405290565b60405161016081016001600160401b0381118282101715610b4b57610b4b610b13565b604051601f8201601f191681016001600160401b0381118282101715610b9c57610b9c610b13565b604052919050565b60006001600160401b03821115610bbd57610bbd610b13565b50601f01601f191660200190565b600060208284031215610bdd57600080fd5b81356001600160401b03811115610bf357600080fd5b8201601f81018413610c0457600080fd5b8035610c17610c1282610ba4565b610b74565b818152856020838501011115610c2c57600080fd5b81602084016020830137600091810160200191909152949350505050565b63ffffffff811681146107f557600080fd5b60008060008060808587031215610c7257600080fd5b610c7b85610ad5565b935060208501359250604085013591506060850135610c9981610c4a565b939692955090935050565b6001600160401b0391909116815260200190565b61ffff811681146107f557600080fd5b600080600080600080600080610100898b031215610ce557600080fd5b610cee89610ad5565b9750610cfc60208a01610ad5565b9650610d0a60408a01610ad5565b955060608901359450610d1f60808a01610ad5565b9350610d2d60a08a01610ad5565b9250610d3b60c08a01610ad5565b915060e0890135610d4b81610cb8565b809150509295985092959890939650565b6020808252600f908201526e4e6f7420417574686f72697a65642160881b604082015260600190565b60005b83811015610da0578181015183820152602001610d88565b50506000910152565b60008151808452610dc1816020860160208601610d85565b601f01601f19169290920160200192915050565b602081526000610b0c6020830184610da9565b600060208284031215610dfa57600080fd5b5051919050565b80518015158114610aec57600080fd5b600060208284031215610e2357600080fd5b610b0c82610e01565b80516001600160401b0381168114610aec57600080fd5b600060208284031215610e5557600080fd5b610b0c82610e2c565b805160ff81168114610aec57600080fd5b8051610aec81610c4a565b8051610aec81610cb8565b600082601f830112610e9657600080fd5b8151602083016000610eaa610c1284610ba4565b9050828152858383011115610ebe57600080fd5b610ecc836020830184610d85565b95945050505050565b600082601f830112610ee657600080fd5b81516001600160401b03811115610eff57610eff610b13565b610f0e60208260051b01610b74565b8082825260208201915060208360071b860101925085831115610f3057600080fd5b602085015b83811015610f955760808188031215610f4d57600080fd5b610f55610b29565b8151815260208083015190820152610f6f60408301610e5e565b6040820152610f8060608301610e5e565b60608201528352602090920191608001610f35565b5095945050505050565b600080600060608486031215610fb457600080fd5b83516001600160401b03811115610fca57600080fd5b84016101608187031215610fdd57600080fd5b610fe5610b51565b610fee82610e5e565b8152610ffc60208301610e6f565b602082015261100d60408301610e6f565b604082015261101e60608301610e7a565b60608201526080828101519082015261103960a08301610e2c565b60a082015261104a60c08301610e5e565b60c082015260e08201516001600160401b0381111561106857600080fd5b61107488828501610e85565b60e0830152506110876101008301610e6f565b6101008201526101208201516001600160401b038111156110a757600080fd5b6110b388828501610ed5565b61012083015250610140918201519181019190915292506110d660208501610e01565b60408501519092506001600160401b038111156110f257600080fd5b6110fe86828701610e85565b9150509250925092565b808201808211156109d157634e487b7160e01b600052601160045260246000fdfea26469706673582212207a0896dcaa9232ac06c16de9a3f0dc707fcd0ae1b74e9f419c5dc2d2342c116664736f6c634300081c0033","opcodes":"PUSH1 0x80 PUSH1 0x40 MSTORE CALLVALUE DUP1 ISZERO PUSH1 0xF JUMPI PUSH1 0x0 DUP1 REVERT JUMPDEST POP PUSH2 0x115F DUP1 PUSH2 0x1F PUSH1 0x0 CODECOPY PUSH1 0x0 RETURN INVALID PUSH1 0x80 PUSH1 0x40 MSTORE CALLVALUE DUP1 ISZERO PUSH2 0x10 JUMPI PUSH1 0x0 DUP1 REVERT JUMPDEST POP PUSH1 0x4 CALLDATASIZE LT PUSH2 0xDB JUMPI PUSH1 0x0 CALLDATALOAD PUSH1 0xE0 SHR DUP1 PUSH4 0x26782247 EQ PUSH2 0xE0 JUMPI DUP1 PUSH4 0x3FC8CEF3 EQ PUSH2 0x109 JUMPI DUP1 PUSH4 0x4F8632BA EQ PUSH2 0x11C JUMPI DUP1 PUSH4 0x57F032E7 EQ PUSH2 0x133 JUMPI DUP1 PUSH4 0x65436BCF EQ PUSH2 0x148 JUMPI DUP1 PUSH4 0x715018A6 EQ PUSH2 0x15B JUMPI DUP1 PUSH4 0x84ACD1BB EQ PUSH2 0x163 JUMPI DUP1 PUSH4 0x8C3D7301 EQ PUSH2 0x176 JUMPI DUP1 PUSH4 0x8DA5CB5B EQ PUSH2 0x17E JUMPI DUP1 PUSH4 0x92F70709 EQ PUSH2 0x186 JUMPI DUP1 PUSH4 0xA6376746 EQ PUSH2 0x1A6 JUMPI DUP1 PUSH4 0xC45A0155 EQ PUSH2 0x1B9 JUMPI DUP1 PUSH4 0xC6328A46 EQ PUSH2 0x1CC JUMPI DUP1 PUSH4 0xCBD83A19 EQ PUSH2 0x1DF JUMPI DUP1 PUSH4 0xF2FDE38B EQ PUSH2 0x1F2 JUMPI DUP1 PUSH4 0xF5FF5C76 EQ PUSH2 0x205 JUMPI DUP1 PUSH4 0xF953CEC7 EQ PUSH2 0x218 JUMPI JUMPDEST PUSH1 0x0 DUP1 REVERT JUMPDEST PUSH1 0x2 SLOAD PUSH2 0xF3 SWAP1 PUSH1 0x1 PUSH1 0x1 PUSH1 0xA0 SHL SUB AND DUP2 JUMP JUMPDEST PUSH1 0x40 MLOAD PUSH2 0x100 SWAP2 SWAP1 PUSH2 0xAC1 JUMP JUMPDEST PUSH1 0x40 MLOAD DUP1 SWAP2 SUB SWAP1 RETURN JUMPDEST PUSH1 0x6 SLOAD PUSH2 0xF3 SWAP1 PUSH1 0x1 PUSH1 0x1 PUSH1 0xA0 SHL SUB AND DUP2 JUMP JUMPDEST PUSH2 0x125 PUSH1 0x0 SLOAD DUP2 JUMP JUMPDEST PUSH1 0x40 MLOAD SWAP1 DUP2 MSTORE PUSH1 0x20 ADD PUSH2 0x100 JUMP JUMPDEST PUSH2 0x146 PUSH2 0x141 CALLDATASIZE PUSH1 0x4 PUSH2 0xAF1 JUMP JUMPDEST PUSH2 0x22B JUMP JUMPDEST STOP JUMPDEST PUSH2 0x146 PUSH2 0x156 CALLDATASIZE PUSH1 0x4 PUSH2 0xBCB JUMP JUMPDEST PUSH2 0x255 JUMP JUMPDEST PUSH2 0x146 PUSH2 0x310 JUMP JUMPDEST PUSH1 0x4 SLOAD PUSH2 0xF3 SWAP1 PUSH1 0x1 PUSH1 0x1 PUSH1 0xA0 SHL SUB AND DUP2 JUMP JUMPDEST PUSH2 0x146 PUSH2 0x324 JUMP JUMPDEST PUSH2 0xF3 PUSH2 0x375 JUMP JUMPDEST PUSH2 0x199 PUSH2 0x194 CALLDATASIZE PUSH1 0x4 PUSH2 0xC5C JUMP JUMPDEST PUSH2 0x390 JUMP JUMPDEST PUSH1 0x40 MLOAD PUSH2 0x100 SWAP2 SWAP1 PUSH2 0xCA4 JUMP JUMPDEST PUSH2 0x146 PUSH2 0x1B4 CALLDATASIZE PUSH1 0x4 PUSH2 0xAF1 JUMP JUMPDEST PUSH2 0x585 JUMP JUMPDEST PUSH1 0x3 SLOAD PUSH2 0xF3 SWAP1 PUSH1 0x1 PUSH1 0x1 PUSH1 0xA0 SHL SUB AND DUP2 JUMP JUMPDEST PUSH1 0x5 SLOAD PUSH2 0xF3 SWAP1 PUSH1 0x1 PUSH1 0x1 PUSH1 0xA0 SHL SUB AND DUP2 JUMP JUMPDEST PUSH2 0x146 PUSH2 0x1ED CALLDATASIZE PUSH1 0x4 PUSH2 0xCC8 JUMP JUMPDEST PUSH2 0x5AF JUMP JUMPDEST PUSH2 0x146 PUSH2 0x200 CALLDATASIZE PUSH1 0x4 PUSH2 0xAF1 JUMP JUMPDEST PUSH2 0x7BA JUMP JUMPDEST PUSH1 0x1 SLOAD PUSH2 0xF3 SWAP1 PUSH1 0x1 PUSH1 0x1 PUSH1 0xA0 SHL SUB AND DUP2 JUMP JUMPDEST PUSH2 0x146 PUSH2 0x226 CALLDATASIZE PUSH1 0x4 PUSH2 0xBCB JUMP JUMPDEST PUSH2 0x7F8 JUMP JUMPDEST PUSH2 0x233 PUSH2 0x8FA JUMP JUMPDEST PUSH1 0x1 DUP1 SLOAD PUSH1 0x1 PUSH1 0x1 PUSH1 0xA0 SHL SUB NOT AND PUSH1 0x1 PUSH1 0x1 PUSH1 0xA0 SHL SUB SWAP3 SWAP1 SWAP3 AND SWAP2 SWAP1 SWAP2 OR SWAP1 SSTORE JUMP JUMPDEST PUSH2 0x25D PUSH2 0x375 JUMP JUMPDEST PUSH1 0x1 PUSH1 0x1 PUSH1 0xA0 SHL SUB AND CALLER PUSH1 0x1 PUSH1 0x1 PUSH1 0xA0 SHL SUB AND EQ DUP1 PUSH2 0x286 JUMPI POP PUSH1 0x1 SLOAD PUSH1 0x1 PUSH1 0x1 PUSH1 0xA0 SHL SUB AND CALLER EQ JUMPDEST PUSH2 0x2AB JUMPI PUSH1 0x40 MLOAD PUSH3 0x461BCD PUSH1 0xE5 SHL DUP2 MSTORE PUSH1 0x4 ADD PUSH2 0x2A2 SWAP1 PUSH2 0xD5C JUMP JUMPDEST PUSH1 0x40 MLOAD DUP1 SWAP2 SUB SWAP1 REVERT JUMPDEST PUSH1 0x5 SLOAD PUSH1 0x40 MLOAD PUSH4 0xC6878519 PUSH1 0xE0 SHL DUP2 MSTORE PUSH1 0x1 PUSH1 0x1 PUSH1 0xA0 SHL SUB SWAP1 SWAP2 AND SWAP1 PUSH4 0xC6878519 SWAP1 PUSH2 0x2DB SWAP1 DUP5 SWAP1 PUSH1 0x4 ADD PUSH2 0xDD5 JUMP JUMPDEST PUSH1 0x0 PUSH1 0x40 MLOAD DUP1 DUP4 SUB DUP2 PUSH1 0x0 DUP8 DUP1 EXTCODESIZE ISZERO DUP1 ISZERO PUSH2 0x2F5 JUMPI PUSH1 0x0 DUP1 REVERT JUMPDEST POP GAS CALL ISZERO DUP1 ISZERO PUSH2 0x309 JUMPI RETURNDATASIZE PUSH1 0x0 DUP1 RETURNDATACOPY RETURNDATASIZE PUSH1 0x0 REVERT JUMPDEST POP POP POP POP POP JUMP JUMPDEST PUSH2 0x318 PUSH2 0x8FA JUMP JUMPDEST PUSH2 0x322 PUSH1 0x0 PUSH2 0x92C JUMP JUMPDEST JUMP JUMPDEST PUSH1 0x2 SLOAD PUSH1 0x1 PUSH1 0x1 PUSH1 0xA0 SHL SUB AND CALLER EQ PUSH2 0x34E JUMPI PUSH1 0x40 MLOAD PUSH3 0x461BCD PUSH1 0xE5 SHL DUP2 MSTORE PUSH1 0x4 ADD PUSH2 0x2A2 SWAP1 PUSH2 0xD5C JUMP JUMPDEST PUSH1 0x2 SLOAD PUSH2 0x363 SWAP1 PUSH1 0x1 PUSH1 0x1 PUSH1 0xA0 SHL SUB AND PUSH2 0x92C JUMP JUMPDEST PUSH1 0x2 DUP1 SLOAD PUSH1 0x1 PUSH1 0x1 PUSH1 0xA0 SHL SUB NOT AND SWAP1 SSTORE JUMP JUMPDEST PUSH1 0x0 DUP1 PUSH2 0x380 PUSH2 0x988 JUMP JUMPDEST SLOAD PUSH1 0x1 PUSH1 0x1 PUSH1 0xA0 SHL SUB AND SWAP3 SWAP2 POP POP JUMP JUMPDEST PUSH1 0x0 PUSH2 0x39A PUSH2 0x375 JUMP JUMPDEST PUSH1 0x1 PUSH1 0x1 PUSH1 0xA0 SHL SUB AND CALLER PUSH1 0x1 PUSH1 0x1 PUSH1 0xA0 SHL SUB AND EQ DUP1 PUSH2 0x3C3 JUMPI POP PUSH1 0x1 SLOAD PUSH1 0x1 PUSH1 0x1 PUSH1 0xA0 SHL SUB AND CALLER EQ JUMPDEST PUSH2 0x3DF JUMPI PUSH1 0x40 MLOAD PUSH3 0x461BCD PUSH1 0xE5 SHL DUP2 MSTORE PUSH1 0x4 ADD PUSH2 0x2A2 SWAP1 PUSH2 0xD5C JUMP JUMPDEST PUSH1 0x0 PUSH1 0x4 PUSH1 0x0 SWAP1 SLOAD SWAP1 PUSH2 0x100 EXP SWAP1 DIV PUSH1 0x1 PUSH1 0x1 PUSH1 0xA0 SHL SUB AND PUSH1 0x1 PUSH1 0x1 PUSH1 0xA0 SHL SUB AND PUSH4 0x1A90A219 PUSH1 0x40 MLOAD DUP2 PUSH4 0xFFFFFFFF AND PUSH1 0xE0 SHL DUP2 MSTORE PUSH1 0x4 ADD PUSH1 0x20 PUSH1 0x40 MLOAD DUP1 DUP4 SUB DUP2 DUP7 GAS STATICCALL ISZERO DUP1 ISZERO PUSH2 0x434 JUMPI RETURNDATASIZE PUSH1 0x0 DUP1 RETURNDATACOPY RETURNDATASIZE PUSH1 0x0 REVERT JUMPDEST POP POP POP POP PUSH1 0x40 MLOAD RETURNDATASIZE PUSH1 0x1F NOT PUSH1 0x1F DUP3 ADD AND DUP3 ADD DUP1 PUSH1 0x40 MSTORE POP DUP2 ADD SWAP1 PUSH2 0x458 SWAP2 SWAP1 PUSH2 0xDE8 JUMP JUMPDEST PUSH1 0x5 SLOAD PUSH1 0x40 MLOAD PUSH4 0x95EA7B3 PUSH1 0xE0 SHL DUP2 MSTORE PUSH1 0x1 PUSH1 0x1 PUSH1 0xA0 SHL SUB SWAP2 DUP3 AND PUSH1 0x4 DUP3 ADD MSTORE PUSH1 0x24 DUP2 ADD DUP9 SWAP1 MSTORE SWAP2 SWAP3 POP DUP8 AND SWAP1 PUSH4 0x95EA7B3 SWAP1 PUSH1 0x44 ADD PUSH1 0x20 PUSH1 0x40 MLOAD DUP1 DUP4 SUB DUP2 PUSH1 0x0 DUP8 GAS CALL ISZERO DUP1 ISZERO PUSH2 0x4AD JUMPI RETURNDATASIZE PUSH1 0x0 DUP1 RETURNDATACOPY RETURNDATASIZE PUSH1 0x0 REVERT JUMPDEST POP POP POP POP PUSH1 0x40 MLOAD RETURNDATASIZE PUSH1 0x1F NOT PUSH1 0x1F DUP3 ADD AND DUP3 ADD DUP1 PUSH1 0x40 MSTORE POP DUP2 ADD SWAP1 PUSH2 0x4D1 SWAP2 SWAP1 PUSH2 0xE11 JUMP JUMPDEST POP PUSH1 0x5 SLOAD PUSH1 0x6 SLOAD PUSH1 0x0 SLOAD PUSH1 0x40 MLOAD PUSH3 0xF5287B PUSH1 0xE4 SHL DUP2 MSTORE PUSH1 0x1 PUSH1 0x1 PUSH1 0xA0 SHL SUB DUP11 DUP2 AND PUSH1 0x4 DUP4 ADD MSTORE PUSH1 0x24 DUP3 ADD DUP11 SWAP1 MSTORE PUSH1 0x1 PUSH1 0xA0 SHL SWAP1 SWAP4 DIV PUSH2 0xFFFF AND PUSH1 0x44 DUP3 ADD MSTORE PUSH1 0x64 DUP2 ADD SWAP2 SWAP1 SWAP2 MSTORE PUSH1 0x84 DUP2 ADD DUP8 SWAP1 MSTORE PUSH4 0xFFFFFFFF DUP7 AND PUSH1 0xA4 DUP3 ADD MSTORE SWAP2 AND SWAP1 PUSH4 0xF5287B0 SWAP1 DUP4 SWAP1 PUSH1 0xC4 ADD PUSH1 0x20 PUSH1 0x40 MLOAD DUP1 DUP4 SUB DUP2 DUP6 DUP9 GAS CALL ISZERO DUP1 ISZERO PUSH2 0x556 JUMPI RETURNDATASIZE PUSH1 0x0 DUP1 RETURNDATACOPY RETURNDATASIZE PUSH1 0x0 REVERT JUMPDEST POP POP POP POP POP PUSH1 0x40 MLOAD RETURNDATASIZE PUSH1 0x1F NOT PUSH1 0x1F DUP3 ADD AND DUP3 ADD DUP1 PUSH1 0x40 MSTORE POP DUP2 ADD SWAP1 PUSH2 0x57B SWAP2 SWAP1 PUSH2 0xE43 JUMP JUMPDEST SWAP7 SWAP6 POP POP POP POP POP POP JUMP JUMPDEST PUSH2 0x58D PUSH2 0x8FA JUMP JUMPDEST PUSH1 0x2 DUP1 SLOAD PUSH1 0x1 PUSH1 0x1 PUSH1 0xA0 SHL SUB NOT AND PUSH1 0x1 PUSH1 0x1 PUSH1 0xA0 SHL SUB SWAP3 SWAP1 SWAP3 AND SWAP2 SWAP1 SWAP2 OR SWAP1 SSTORE JUMP JUMPDEST PUSH1 0x0 PUSH2 0x5B9 PUSH2 0x9AC JUMP JUMPDEST DUP1 SLOAD SWAP1 SWAP2 POP PUSH1 0xFF PUSH1 0x1 PUSH1 0x40 SHL DUP3 DIV AND ISZERO SWAP1 PUSH1 0x1 PUSH1 0x1 PUSH1 0x40 SHL SUB AND PUSH1 0x0 DUP2 ISZERO DUP1 ISZERO PUSH2 0x5E0 JUMPI POP DUP3 JUMPDEST SWAP1 POP PUSH1 0x0 DUP3 PUSH1 0x1 PUSH1 0x1 PUSH1 0x40 SHL SUB AND PUSH1 0x1 EQ DUP1 ISZERO PUSH2 0x5FC JUMPI POP ADDRESS EXTCODESIZE ISZERO JUMPDEST SWAP1 POP DUP2 ISZERO DUP1 ISZERO PUSH2 0x60A JUMPI POP DUP1 ISZERO JUMPDEST ISZERO PUSH2 0x628 JUMPI PUSH1 0x40 MLOAD PUSH4 0xF92EE8A9 PUSH1 0xE0 SHL DUP2 MSTORE PUSH1 0x4 ADD PUSH1 0x40 MLOAD DUP1 SWAP2 SUB SWAP1 REVERT JUMPDEST DUP5 SLOAD PUSH1 0x1 PUSH1 0x1 PUSH1 0x40 SHL SUB NOT AND PUSH1 0x1 OR DUP6 SSTORE DUP4 ISZERO PUSH2 0x651 JUMPI DUP5 SLOAD PUSH1 0xFF PUSH1 0x40 SHL NOT AND PUSH1 0x1 PUSH1 0x40 SHL OR DUP6 SSTORE JUMPDEST PUSH1 0x1 PUSH1 0x1 PUSH1 0xA0 SHL SUB DUP14 AND PUSH2 0x698 JUMPI PUSH1 0x40 MLOAD PUSH3 0x461BCD PUSH1 0xE5 SHL DUP2 MSTORE PUSH1 0x20 PUSH1 0x4 DUP3 ADD MSTORE PUSH1 0xE PUSH1 0x24 DUP3 ADD MSTORE PUSH14 0x6F776E6572206973207A65726F21 PUSH1 0x90 SHL PUSH1 0x44 DUP3 ADD MSTORE PUSH1 0x64 ADD PUSH2 0x2A2 JUMP JUMPDEST PUSH1 0x1 PUSH1 0x1 PUSH1 0xA0 SHL SUB DUP13 AND PUSH2 0x6DE JUMPI PUSH1 0x40 MLOAD PUSH3 0x461BCD PUSH1 0xE5 SHL DUP2 MSTORE PUSH1 0x20 PUSH1 0x4 DUP3 ADD MSTORE PUSH1 0xD PUSH1 0x24 DUP3 ADD MSTORE PUSH13 0x6167656E74206973207A65726F PUSH1 0x98 SHL PUSH1 0x44 DUP3 ADD MSTORE PUSH1 0x64 ADD PUSH2 0x2A2 JUMP JUMPDEST PUSH2 0x6E6 PUSH2 0x9D7 JUMP JUMPDEST PUSH2 0x6EF DUP14 PUSH2 0x92C JUMP JUMPDEST PUSH1 0x1 DUP1 SLOAD PUSH1 0x1 PUSH1 0x1 PUSH1 0xA0 SHL SUB NOT SWAP1 DUP2 AND PUSH1 0x1 PUSH1 0x1 PUSH1 0xA0 SHL SUB DUP16 DUP2 AND SWAP2 SWAP1 SWAP2 OR SWAP1 SWAP3 SSTORE PUSH1 0x0 DUP13 SWAP1 SSTORE PUSH1 0x3 DUP1 SLOAD DUP3 AND DUP15 DUP5 AND OR SWAP1 SSTORE PUSH1 0x4 DUP1 SLOAD DUP3 AND DUP13 DUP5 AND OR SWAP1 SSTORE PUSH1 0x5 DUP1 SLOAD SWAP1 SWAP2 AND DUP11 DUP4 AND OR SWAP1 SSTORE PUSH1 0x6 DUP1 SLOAD SWAP2 DUP10 AND PUSH1 0x1 PUSH1 0x1 PUSH1 0xB0 SHL SUB NOT SWAP1 SWAP3 AND SWAP2 SWAP1 SWAP2 OR PUSH1 0x1 PUSH1 0xA0 SHL PUSH2 0xFFFF DUP10 AND MUL OR SWAP1 SSTORE DUP4 ISZERO PUSH2 0x7AB JUMPI DUP5 SLOAD PUSH1 0xFF PUSH1 0x40 SHL NOT AND DUP6 SSTORE PUSH1 0x40 MLOAD PUSH32 0xC7F505B2F371AE2175EE4913F4499E1F2633A7B5936321EED1CDAEB6115181D2 SWAP1 PUSH2 0x7A2 SWAP1 PUSH1 0x1 SWAP1 PUSH2 0xCA4 JUMP JUMPDEST PUSH1 0x40 MLOAD DUP1 SWAP2 SUB SWAP1 LOG1 JUMPDEST POP POP POP POP POP POP POP POP POP POP POP POP POP JUMP JUMPDEST PUSH2 0x7C2 PUSH2 0x8FA JUMP JUMPDEST PUSH1 0x1 PUSH1 0x1 PUSH1 0xA0 SHL SUB DUP2 AND PUSH2 0x7EC JUMPI PUSH1 0x0 PUSH1 0x40 MLOAD PUSH4 0x1E4FBDF7 PUSH1 0xE0 SHL DUP2 MSTORE PUSH1 0x4 ADD PUSH2 0x2A2 SWAP2 SWAP1 PUSH2 0xAC1 JUMP JUMPDEST PUSH2 0x7F5 DUP2 PUSH2 0x92C JUMP JUMPDEST POP JUMP JUMPDEST PUSH2 0x800 PUSH2 0x375 JUMP JUMPDEST PUSH1 0x1 PUSH1 0x1 PUSH1 0xA0 SHL SUB AND CALLER PUSH1 0x1 PUSH1 0x1 PUSH1 0xA0 SHL SUB AND EQ DUP1 PUSH2 0x829 JUMPI POP PUSH1 0x1 SLOAD PUSH1 0x1 PUSH1 0x1 PUSH1 0xA0 SHL SUB AND CALLER EQ JUMPDEST PUSH2 0x845 JUMPI PUSH1 0x40 MLOAD PUSH3 0x461BCD PUSH1 0xE5 SHL DUP2 MSTORE PUSH1 0x4 ADD PUSH2 0x2A2 SWAP1 PUSH2 0xD5C JUMP JUMPDEST PUSH1 0x4 DUP1 SLOAD PUSH1 0x40 MLOAD PUSH4 0x607EC5EF PUSH1 0xE1 SHL DUP2 MSTORE PUSH1 0x0 SWAP3 DUP4 SWAP3 DUP4 SWAP3 PUSH1 0x1 PUSH1 0x1 PUSH1 0xA0 SHL SUB SWAP1 SWAP2 AND SWAP2 PUSH4 0xC0FD8BDE SWAP2 PUSH2 0x87B SWAP2 DUP9 SWAP2 ADD PUSH2 0xDD5 JUMP JUMPDEST PUSH1 0x0 PUSH1 0x40 MLOAD DUP1 DUP4 SUB DUP2 DUP7 GAS STATICCALL ISZERO DUP1 ISZERO PUSH2 0x898 JUMPI RETURNDATASIZE PUSH1 0x0 DUP1 RETURNDATACOPY RETURNDATASIZE PUSH1 0x0 REVERT JUMPDEST POP POP POP POP PUSH1 0x40 MLOAD RETURNDATASIZE PUSH1 0x0 DUP3 RETURNDATACOPY PUSH1 0x1F RETURNDATASIZE SWAP1 DUP2 ADD PUSH1 0x1F NOT AND DUP3 ADD PUSH1 0x40 MSTORE PUSH2 0x8C0 SWAP2 SWAP1 DUP2 ADD SWAP1 PUSH2 0xF9F JUMP JUMPDEST SWAP3 POP SWAP3 POP SWAP3 POP DUP2 DUP2 SWAP1 PUSH2 0x8E6 JUMPI PUSH1 0x40 MLOAD PUSH3 0x461BCD PUSH1 0xE5 SHL DUP2 MSTORE PUSH1 0x4 ADD PUSH2 0x2A2 SWAP2 SWAP1 PUSH2 0xDD5 JUMP JUMPDEST POP PUSH2 0x8F4 DUP4 PUSH1 0xE0 ADD MLOAD PUSH2 0x9E7 JUMP JUMPDEST POP POP POP POP JUMP JUMPDEST CALLER PUSH2 0x903 PUSH2 0x375 JUMP JUMPDEST PUSH1 0x1 PUSH1 0x1 PUSH1 0xA0 SHL SUB AND EQ PUSH2 0x322 JUMPI CALLER PUSH1 0x40 MLOAD PUSH4 0x118CDAA7 PUSH1 0xE0 SHL DUP2 MSTORE PUSH1 0x4 ADD PUSH2 0x2A2 SWAP2 SWAP1 PUSH2 0xAC1 JUMP JUMPDEST PUSH1 0x0 PUSH2 0x936 PUSH2 0x988 JUMP JUMPDEST DUP1 SLOAD PUSH1 0x1 PUSH1 0x1 PUSH1 0xA0 SHL SUB DUP5 DUP2 AND PUSH1 0x1 PUSH1 0x1 PUSH1 0xA0 SHL SUB NOT DUP4 AND DUP2 OR DUP5 SSTORE PUSH1 0x40 MLOAD SWAP4 SWAP5 POP SWAP2 AND SWAP2 DUP3 SWAP1 PUSH32 0x8BE0079C531659141344CD1FD0A4F28419497F9722A3DAAFE3B4186F6B6457E0 SWAP1 PUSH1 0x0 SWAP1 LOG3 POP POP POP JUMP JUMPDEST PUSH32 0x9016D09D72D40FDAE2FD8CEAC6B6234C7706214FD39C1CD1E609A0528C199300 SWAP1 JUMP JUMPDEST PUSH1 0x0 DUP1 PUSH32 0xF0C57E16840DF040F15088DC2F81FE391C3923BEC73E23A9662EFC9C229C6A00 JUMPDEST SWAP3 SWAP2 POP POP JUMP JUMPDEST PUSH2 0x9DF PUSH2 0x9F4 JUMP JUMPDEST PUSH2 0x322 PUSH2 0xA19 JUMP JUMPDEST PUSH1 0x0 DUP1 PUSH2 0x8F4 DUP4 DUP3 PUSH2 0xA47 JUMP JUMPDEST PUSH2 0x9FC PUSH2 0xAA7 JUMP JUMPDEST PUSH2 0x322 JUMPI PUSH1 0x40 MLOAD PUSH4 0x1AFCD79F PUSH1 0xE3 SHL DUP2 MSTORE PUSH1 0x4 ADD PUSH1 0x40 MLOAD DUP1 SWAP2 SUB SWAP1 REVERT JUMPDEST PUSH2 0xA21 PUSH2 0x9F4 JUMP JUMPDEST PUSH1 0x1 PUSH32 0x9B779B17422D0DF92223018B32B4D1FA46E071723D6817E2486D003BECC55F00 SSTORE JUMP JUMPDEST PUSH1 0x0 DUP2 DUP4 MLOAD GT PUSH2 0xA8F JUMPI PUSH1 0x40 MLOAD PUSH3 0x461BCD PUSH1 0xE5 SHL DUP2 MSTORE PUSH1 0x20 PUSH1 0x4 DUP3 ADD MSTORE PUSH1 0x13 PUSH1 0x24 DUP3 ADD MSTORE PUSH19 0x746F55696E74385F6F75744F66426F756E6473 PUSH1 0x68 SHL PUSH1 0x44 DUP3 ADD MSTORE PUSH1 0x64 ADD PUSH2 0x2A2 JUMP JUMPDEST PUSH1 0x0 PUSH2 0xA9C PUSH1 0x1 DUP5 PUSH2 0x1108 JUMP JUMPDEST SWAP1 SWAP4 ADD MLOAD SWAP4 SWAP3 POP POP POP JUMP JUMPDEST PUSH1 0x0 PUSH2 0xAB1 PUSH2 0x9AC JUMP JUMPDEST SLOAD PUSH1 0x1 PUSH1 0x40 SHL SWAP1 DIV PUSH1 0xFF AND SWAP2 SWAP1 POP JUMP JUMPDEST PUSH1 0x1 PUSH1 0x1 PUSH1 0xA0 SHL SUB SWAP2 SWAP1 SWAP2 AND DUP2 MSTORE PUSH1 0x20 ADD SWAP1 JUMP JUMPDEST DUP1 CALLDATALOAD PUSH1 0x1 PUSH1 0x1 PUSH1 0xA0 SHL SUB DUP2 AND DUP2 EQ PUSH2 0xAEC JUMPI PUSH1 0x0 DUP1 REVERT JUMPDEST SWAP2 SWAP1 POP JUMP JUMPDEST PUSH1 0x0 PUSH1 0x20 DUP3 DUP5 SUB SLT ISZERO PUSH2 0xB03 JUMPI PUSH1 0x0 DUP1 REVERT JUMPDEST PUSH2 0xB0C DUP3 PUSH2 0xAD5 JUMP JUMPDEST SWAP4 SWAP3 POP POP POP JUMP JUMPDEST PUSH4 0x4E487B71 PUSH1 0xE0 SHL PUSH1 0x0 MSTORE PUSH1 0x41 PUSH1 0x4 MSTORE PUSH1 0x24 PUSH1 0x0 REVERT JUMPDEST PUSH1 0x40 MLOAD PUSH1 0x80 DUP2 ADD PUSH1 0x1 PUSH1 0x1 PUSH1 0x40 SHL SUB DUP2 GT DUP3 DUP3 LT OR ISZERO PUSH2 0xB4B JUMPI PUSH2 0xB4B PUSH2 0xB13 JUMP JUMPDEST PUSH1 0x40 MSTORE SWAP1 JUMP JUMPDEST PUSH1 0x40 MLOAD PUSH2 0x160 DUP2 ADD PUSH1 0x1 PUSH1 0x1 PUSH1 0x40 SHL SUB DUP2 GT DUP3 DUP3 LT OR ISZERO PUSH2 0xB4B JUMPI PUSH2 0xB4B PUSH2 0xB13 JUMP JUMPDEST PUSH1 0x40 MLOAD PUSH1 0x1F DUP3 ADD PUSH1 0x1F NOT AND DUP2 ADD PUSH1 0x1 PUSH1 0x1 PUSH1 0x40 SHL SUB DUP2 GT DUP3 DUP3 LT OR ISZERO PUSH2 0xB9C JUMPI PUSH2 0xB9C PUSH2 0xB13 JUMP JUMPDEST PUSH1 0x40 MSTORE SWAP2 SWAP1 POP JUMP JUMPDEST PUSH1 0x0 PUSH1 0x1 PUSH1 0x1 PUSH1 0x40 SHL SUB DUP3 GT ISZERO PUSH2 0xBBD JUMPI PUSH2 0xBBD PUSH2 0xB13 JUMP JUMPDEST POP PUSH1 0x1F ADD PUSH1 0x1F NOT AND PUSH1 0x20 ADD SWAP1 JUMP JUMPDEST PUSH1 0x0 PUSH1 0x20 DUP3 DUP5 SUB SLT ISZERO PUSH2 0xBDD JUMPI PUSH1 0x0 DUP1 REVERT JUMPDEST DUP2 CALLDATALOAD PUSH1 0x1 PUSH1 0x1 PUSH1 0x40 SHL SUB DUP2 GT ISZERO PUSH2 0xBF3 JUMPI PUSH1 0x0 DUP1 REVERT JUMPDEST DUP3 ADD PUSH1 0x1F DUP2 ADD DUP5 SGT PUSH2 0xC04 JUMPI PUSH1 0x0 DUP1 REVERT JUMPDEST DUP1 CALLDATALOAD PUSH2 0xC17 PUSH2 0xC12 DUP3 PUSH2 0xBA4 JUMP JUMPDEST PUSH2 0xB74 JUMP JUMPDEST DUP2 DUP2 MSTORE DUP6 PUSH1 0x20 DUP4 DUP6 ADD ADD GT ISZERO PUSH2 0xC2C JUMPI PUSH1 0x0 DUP1 REVERT JUMPDEST DUP2 PUSH1 0x20 DUP5 ADD PUSH1 0x20 DUP4 ADD CALLDATACOPY PUSH1 0x0 SWAP2 DUP2 ADD PUSH1 0x20 ADD SWAP2 SWAP1 SWAP2 MSTORE SWAP5 SWAP4 POP POP POP POP JUMP JUMPDEST PUSH4 0xFFFFFFFF DUP2 AND DUP2 EQ PUSH2 0x7F5 JUMPI PUSH1 0x0 DUP1 REVERT JUMPDEST PUSH1 0x0 DUP1 PUSH1 0x0 DUP1 PUSH1 0x80 DUP6 DUP8 SUB SLT ISZERO PUSH2 0xC72 JUMPI PUSH1 0x0 DUP1 REVERT JUMPDEST PUSH2 0xC7B DUP6 PUSH2 0xAD5 JUMP JUMPDEST SWAP4 POP PUSH1 0x20 DUP6 ADD CALLDATALOAD SWAP3 POP PUSH1 0x40 DUP6 ADD CALLDATALOAD SWAP2 POP PUSH1 0x60 DUP6 ADD CALLDATALOAD PUSH2 0xC99 DUP2 PUSH2 0xC4A JUMP JUMPDEST SWAP4 SWAP7 SWAP3 SWAP6 POP SWAP1 SWAP4 POP POP JUMP JUMPDEST PUSH1 0x1 PUSH1 0x1 PUSH1 0x40 SHL SUB SWAP2 SWAP1 SWAP2 AND DUP2 MSTORE PUSH1 0x20 ADD SWAP1 JUMP JUMPDEST PUSH2 0xFFFF DUP2 AND DUP2 EQ PUSH2 0x7F5 JUMPI PUSH1 0x0 DUP1 REVERT JUMPDEST PUSH1 0x0 DUP1 PUSH1 0x0 DUP1 PUSH1 0x0 DUP1 PUSH1 0x0 DUP1 PUSH2 0x100 DUP10 DUP12 SUB SLT ISZERO PUSH2 0xCE5 JUMPI PUSH1 0x0 DUP1 REVERT JUMPDEST PUSH2 0xCEE DUP10 PUSH2 0xAD5 JUMP JUMPDEST SWAP8 POP PUSH2 0xCFC PUSH1 0x20 DUP11 ADD PUSH2 0xAD5 JUMP JUMPDEST SWAP7 POP PUSH2 0xD0A PUSH1 0x40 DUP11 ADD PUSH2 0xAD5 JUMP JUMPDEST SWAP6 POP PUSH1 0x60 DUP10 ADD CALLDATALOAD SWAP5 POP PUSH2 0xD1F PUSH1 0x80 DUP11 ADD PUSH2 0xAD5 JUMP JUMPDEST SWAP4 POP PUSH2 0xD2D PUSH1 0xA0 DUP11 ADD PUSH2 0xAD5 JUMP JUMPDEST SWAP3 POP PUSH2 0xD3B PUSH1 0xC0 DUP11 ADD PUSH2 0xAD5 JUMP JUMPDEST SWAP2 POP PUSH1 0xE0 DUP10 ADD CALLDATALOAD PUSH2 0xD4B DUP2 PUSH2 0xCB8 JUMP JUMPDEST DUP1 SWAP2 POP POP SWAP3 SWAP6 SWAP9 POP SWAP3 SWAP6 SWAP9 SWAP1 SWAP4 SWAP7 POP JUMP JUMPDEST PUSH1 0x20 DUP1 DUP3 MSTORE PUSH1 0xF SWAP1 DUP3 ADD MSTORE PUSH15 0x4E6F7420417574686F72697A656421 PUSH1 0x88 SHL PUSH1 0x40 DUP3 ADD MSTORE PUSH1 0x60 ADD SWAP1 JUMP JUMPDEST PUSH1 0x0 JUMPDEST DUP4 DUP2 LT ISZERO PUSH2 0xDA0 JUMPI DUP2 DUP2 ADD MLOAD DUP4 DUP3 ADD MSTORE PUSH1 0x20 ADD PUSH2 0xD88 JUMP JUMPDEST POP POP PUSH1 0x0 SWAP2 ADD MSTORE JUMP JUMPDEST PUSH1 0x0 DUP2 MLOAD DUP1 DUP5 MSTORE PUSH2 0xDC1 DUP2 PUSH1 0x20 DUP7 ADD PUSH1 0x20 DUP7 ADD PUSH2 0xD85 JUMP JUMPDEST PUSH1 0x1F ADD PUSH1 0x1F NOT AND SWAP3 SWAP1 SWAP3 ADD PUSH1 0x20 ADD SWAP3 SWAP2 POP POP JUMP JUMPDEST PUSH1 0x20 DUP2 MSTORE PUSH1 0x0 PUSH2 0xB0C PUSH1 0x20 DUP4 ADD DUP5 PUSH2 0xDA9 JUMP JUMPDEST PUSH1 0x0 PUSH1 0x20 DUP3 DUP5 SUB SLT ISZERO PUSH2 0xDFA JUMPI PUSH1 0x0 DUP1 REVERT JUMPDEST POP MLOAD SWAP2 SWAP1 POP JUMP JUMPDEST DUP1 MLOAD DUP1 ISZERO ISZERO DUP2 EQ PUSH2 0xAEC JUMPI PUSH1 0x0 DUP1 REVERT JUMPDEST PUSH1 0x0 PUSH1 0x20 DUP3 DUP5 SUB SLT ISZERO PUSH2 0xE23 JUMPI PUSH1 0x0 DUP1 REVERT JUMPDEST PUSH2 0xB0C DUP3 PUSH2 0xE01 JUMP JUMPDEST DUP1 MLOAD PUSH1 0x1 PUSH1 0x1 PUSH1 0x40 SHL SUB DUP2 AND DUP2 EQ PUSH2 0xAEC JUMPI PUSH1 0x0 DUP1 REVERT JUMPDEST PUSH1 0x0 PUSH1 0x20 DUP3 DUP5 SUB SLT ISZERO PUSH2 0xE55 JUMPI PUSH1 0x0 DUP1 REVERT JUMPDEST PUSH2 0xB0C DUP3 PUSH2 0xE2C JUMP JUMPDEST DUP1 MLOAD PUSH1 0xFF DUP2 AND DUP2 EQ PUSH2 0xAEC JUMPI PUSH1 0x0 DUP1 REVERT JUMPDEST DUP1 MLOAD PUSH2 0xAEC DUP2 PUSH2 0xC4A JUMP JUMPDEST DUP1 MLOAD PUSH2 0xAEC DUP2 PUSH2 0xCB8 JUMP JUMPDEST PUSH1 0x0 DUP3 PUSH1 0x1F DUP4 ADD SLT PUSH2 0xE96 JUMPI PUSH1 0x0 DUP1 REVERT JUMPDEST DUP2 MLOAD PUSH1 0x20 DUP4 ADD PUSH1 0x0 PUSH2 0xEAA PUSH2 0xC12 DUP5 PUSH2 0xBA4 JUMP JUMPDEST SWAP1 POP DUP3 DUP2 MSTORE DUP6 DUP4 DUP4 ADD GT ISZERO PUSH2 0xEBE JUMPI PUSH1 0x0 DUP1 REVERT JUMPDEST PUSH2 0xECC DUP4 PUSH1 0x20 DUP4 ADD DUP5 PUSH2 0xD85 JUMP JUMPDEST SWAP6 SWAP5 POP POP POP POP POP JUMP JUMPDEST PUSH1 0x0 DUP3 PUSH1 0x1F DUP4 ADD SLT PUSH2 0xEE6 JUMPI PUSH1 0x0 DUP1 REVERT JUMPDEST DUP2 MLOAD PUSH1 0x1 PUSH1 0x1 PUSH1 0x40 SHL SUB DUP2 GT ISZERO PUSH2 0xEFF JUMPI PUSH2 0xEFF PUSH2 0xB13 JUMP JUMPDEST PUSH2 0xF0E PUSH1 0x20 DUP3 PUSH1 0x5 SHL ADD PUSH2 0xB74 JUMP JUMPDEST DUP1 DUP3 DUP3 MSTORE PUSH1 0x20 DUP3 ADD SWAP2 POP PUSH1 0x20 DUP4 PUSH1 0x7 SHL DUP7 ADD ADD SWAP3 POP DUP6 DUP4 GT ISZERO PUSH2 0xF30 JUMPI PUSH1 0x0 DUP1 REVERT JUMPDEST PUSH1 0x20 DUP6 ADD JUMPDEST DUP4 DUP2 LT ISZERO PUSH2 0xF95 JUMPI PUSH1 0x80 DUP2 DUP9 SUB SLT ISZERO PUSH2 0xF4D JUMPI PUSH1 0x0 DUP1 REVERT JUMPDEST PUSH2 0xF55 PUSH2 0xB29 JUMP JUMPDEST DUP2 MLOAD DUP2 MSTORE PUSH1 0x20 DUP1 DUP4 ADD MLOAD SWAP1 DUP3 ADD MSTORE PUSH2 0xF6F PUSH1 0x40 DUP4 ADD PUSH2 0xE5E JUMP JUMPDEST PUSH1 0x40 DUP3 ADD MSTORE PUSH2 0xF80 PUSH1 0x60 DUP4 ADD PUSH2 0xE5E JUMP JUMPDEST PUSH1 0x60 DUP3 ADD MSTORE DUP4 MSTORE PUSH1 0x20 SWAP1 SWAP3 ADD SWAP2 PUSH1 0x80 ADD PUSH2 0xF35 JUMP JUMPDEST POP SWAP6 SWAP5 POP POP POP POP POP JUMP JUMPDEST PUSH1 0x0 DUP1 PUSH1 0x0 PUSH1 0x60 DUP5 DUP7 SUB SLT ISZERO PUSH2 0xFB4 JUMPI PUSH1 0x0 DUP1 REVERT JUMPDEST DUP4 MLOAD PUSH1 0x1 PUSH1 0x1 PUSH1 0x40 SHL SUB DUP2 GT ISZERO PUSH2 0xFCA JUMPI PUSH1 0x0 DUP1 REVERT JUMPDEST DUP5 ADD PUSH2 0x160 DUP2 DUP8 SUB SLT ISZERO PUSH2 0xFDD JUMPI PUSH1 0x0 DUP1 REVERT JUMPDEST PUSH2 0xFE5 PUSH2 0xB51 JUMP JUMPDEST PUSH2 0xFEE DUP3 PUSH2 0xE5E JUMP JUMPDEST DUP2 MSTORE PUSH2 0xFFC PUSH1 0x20 DUP4 ADD PUSH2 0xE6F JUMP JUMPDEST PUSH1 0x20 DUP3 ADD MSTORE PUSH2 0x100D PUSH1 0x40 DUP4 ADD PUSH2 0xE6F JUMP JUMPDEST PUSH1 0x40 DUP3 ADD MSTORE PUSH2 0x101E PUSH1 0x60 DUP4 ADD PUSH2 0xE7A JUMP JUMPDEST PUSH1 0x60 DUP3 ADD MSTORE PUSH1 0x80 DUP3 DUP2 ADD MLOAD SWAP1 DUP3 ADD MSTORE PUSH2 0x1039 PUSH1 0xA0 DUP4 ADD PUSH2 0xE2C JUMP JUMPDEST PUSH1 0xA0 DUP3 ADD MSTORE PUSH2 0x104A PUSH1 0xC0 DUP4 ADD PUSH2 0xE5E JUMP JUMPDEST PUSH1 0xC0 DUP3 ADD MSTORE PUSH1 0xE0 DUP3 ADD MLOAD PUSH1 0x1 PUSH1 0x1 PUSH1 0x40 SHL SUB DUP2 GT ISZERO PUSH2 0x1068 JUMPI PUSH1 0x0 DUP1 REVERT JUMPDEST PUSH2 0x1074 DUP9 DUP3 DUP6 ADD PUSH2 0xE85 JUMP JUMPDEST PUSH1 0xE0 DUP4 ADD MSTORE POP PUSH2 0x1087 PUSH2 0x100 DUP4 ADD PUSH2 0xE6F JUMP JUMPDEST PUSH2 0x100 DUP3 ADD MSTORE PUSH2 0x120 DUP3 ADD MLOAD PUSH1 0x1 PUSH1 0x1 PUSH1 0x40 SHL SUB DUP2 GT ISZERO PUSH2 0x10A7 JUMPI PUSH1 0x0 DUP1 REVERT JUMPDEST PUSH2 0x10B3 DUP9 DUP3 DUP6 ADD PUSH2 0xED5 JUMP JUMPDEST PUSH2 0x120 DUP4 ADD MSTORE POP PUSH2 0x140 SWAP2 DUP3 ADD MLOAD SWAP2 DUP2 ADD SWAP2 SWAP1 SWAP2 MSTORE SWAP3 POP PUSH2 0x10D6 PUSH1 0x20 DUP6 ADD PUSH2 0xE01 JUMP JUMPDEST PUSH1 0x40 DUP6 ADD MLOAD SWAP1 SWAP3 POP PUSH1 0x1 PUSH1 0x1 PUSH1 0x40 SHL SUB DUP2 GT ISZERO PUSH2 0x10F2 JUMPI PUSH1 0x0 DUP1 REVERT JUMPDEST PUSH2 0x10FE DUP7 DUP3 DUP8 ADD PUSH2 0xE85 JUMP JUMPDEST SWAP2 POP POP SWAP3 POP SWAP3 POP SWAP3 JUMP JUMPDEST DUP1 DUP3 ADD DUP1 DUP3 GT ISZERO PUSH2 0x9D1 JUMPI PUSH4 0x4E487B71 PUSH1 0xE0 SHL PUSH1 0x0 MSTORE PUSH1 0x11 PUSH1 0x4 MSTORE PUSH1 0x24 PUSH1 0x0 REVERT INVALID LOG2 PUSH5 0x6970667358 0x22 SLT KECCAK256 PUSH27 0x896DCAA9232AC06C16DE9A3F0DC707FCD0AE1B74E9F419C5DC2D2 CALLVALUE 0x2C GT PUSH7 0x64736F6C634300 ADDMOD SHR STOP CALLER "},"gasEstimates":{"creation":{"codeDepositCost":"889400","executionCost":"922","totalCost":"890322"},"external":{"acceptAdminRole()":"54634","agent()":"2669","changeAgent(address)":"26864","factory()":"2581","initialize(address,address,address,bytes32,address,address,address,uint16)":"infinite","owner()":"2564","pendingAdmin()":"2339","proposeNewAdmin(address)":"27018","receiveMessage(bytes)":"infinite","receiveTokenFromBridge(bytes)":"infinite","renounceOwnership()":"infinite","tokenBridge()":"2603","transferOwnership(address)":"infinite","transferTokenBackToSmartWallet(address,uint256,uint256,uint32)":"infinite","user()":"2317","weth()":"2361","wormhole()":"2471"},"internal":{"_handleMessage(bytes memory)":"infinite"}},"methodIdentifiers":{"acceptAdminRole()":"8c3d7301","agent()":"f5ff5c76","changeAgent(address)":"57f032e7","factory()":"c45a0155","initialize(address,address,address,bytes32,address,address,address,uint16)":"cbd83a19","owner()":"8da5cb5b","pendingAdmin()":"26782247","proposeNewAdmin(address)":"a6376746","receiveMessage(bytes)":"f953cec7","receiveTokenFromBridge(bytes)":"65436bcf","renounceOwnership()":"715018a6","tokenBridge()":"c6328a46","transferOwnership(address)":"f2fde38b","transferTokenBackToSmartWallet(address,uint256,uint256,uint32)":"92f70709","user()":"4f8632ba","weth()":"3fc8cef3","wormhole()":"84acd1bb"}},"storageLayout":{"storage":[{"astId":1520,"contract":"contracts/core/SmartWallet.sol:SmartWallet","label":"user","offset":0,"slot":"0","type":"t_bytes32"},{"astId":1522,"contract":"contracts/core/SmartWallet.sol:SmartWallet","label":"agent","offset":0,"slot":"1","type":"t_address"},{"astId":1524,"contract":"contracts/core/SmartWallet.sol:SmartWallet","label":"pendingAdmin","offset":0,"slot":"2","type":"t_address"},{"astId":1527,"contract":"contracts/core/SmartWallet.sol:SmartWallet","label":"factory","offset":0,"slot":"3","type":"t_contract(ISmartWalletFactory)1641"},{"astId":1530,"contract":"contracts/core/SmartWallet.sol:SmartWallet","label":"wormhole","offset":0,"slot":"4","type":"t_contract(IWormhole)2379"},{"astId":1533,"contract":"contracts/core/SmartWallet.sol:SmartWallet","label":"tokenBridge","offset":0,"slot":"5","type":"t_contract(ITokenBridge)2049"},{"astId":1536,"contract":"contracts/core/SmartWallet.sol:SmartWallet","label":"weth","offset":0,"slot":"6","type":"t_contract(IWETH)2063"},{"astId":1538,"contract":"contracts/core/SmartWallet.sol:SmartWallet","label":"chainId","offset":20,"slot":"6","type":"t_uint16"}],"types":{"t_address":{"encoding":"inplace","label":"address","numberOfBytes":"20"},"t_bytes32":{"encoding":"inplace","label":"bytes32","numberOfBytes":"32"},"t_contract(ISmartWalletFactory)1641":{"encoding":"inplace","label":"contract ISmartWalletFactory","numberOfBytes":"20"},"t_contract(ITokenBridge)2049":{"encoding":"inplace","label":"contract ITokenBridge","numberOfBytes":"20"},"t_contract(IWETH)2063":{"encoding":"inplace","label":"contract IWETH","numberOfBytes":"20"},"t_contract(IWormhole)2379":{"encoding":"inplace","label":"contract IWormhole","numberOfBytes":"20"},"t_uint16":{"encoding":"inplace","label":"uint16","numberOfBytes":"2"}}},"userdoc":{"kind":"user","methods":{},"version":1}}}}