{"contracts/core/SmartWallet.sol":{"SmartWallet":{"abi":[{"inputs":[],"name":"InvalidInitialization","type":"error"},{"inputs":[],"name":"NotInitializing","type":"error"},{"inputs":[{"internalType":"address","name":"owner","type":"address"}],"name":"OwnableInvalidOwner","type":"error"},{"inputs":[{"internalType":"address","name":"account","type":"address"}],"name":"OwnableUnauthorizedAccount","type":"error"},{"inputs":[],"name":"ReentrancyGuardReentrantCall","type":"error"},{"anonymous":false,"inputs":[{"indexed":false,"internalType":"uint64","name":"version","type":"uint64"}],"name":"Initialized","type":"event"},{"anonymous":false,"inputs":[{"indexed":true,"internalType":"address","name":"previousOwner","type":"address"},{"indexed":true,"internalType":"address","name":"newOwner","type":"address"}],"name":"OwnershipTransferred","type":"event"},{"inputs":[],"name":"acceptAdminRole","outputs":[],"stateMutability":"nonpayable","type":"function"},{"inputs":[],"name":"agent","outputs":[{"internalType":"address","name":"","type":"address"}],"stateMutability":"view","type":"function"},{"inputs":[{"internalType":"address","name":"new_agent","type":"address"}],"name":"changeAgent","outputs":[],"stateMutability":"nonpayable","type":"function"},{"inputs":[],"name":"factory","outputs":[{"internalType":"contract ISmartWalletFactory","name":"","type":"address"}],"stateMutability":"view","type":"function"},{"inputs":[{"internalType":"address","name":"owner_","type":"address"},{"internalType":"address","name":"agent_","type":"address"},{"internalType":"address","name":"factory_","type":"address"},{"internalType":"bytes32","name":"user_","type":"bytes32"},{"internalType":"address","name":"wormhole_","type":"address"},{"internalType":"address","name":"tokenBridge_","type":"address"},{"internalType":"address","name":"weth_","type":"address"},{"internalType":"uint16","name":"chainId_","type":"uint16"}],"name":"initialize","outputs":[],"stateMutability":"nonpayable","type":"function"},{"inputs":[{"internalType":"uint64","name":"","type":"uint64"}],"name":"isReceive","outputs":[{"internalType":"bool","name":"","type":"bool"}],"stateMutability":"view","type":"function"},{"inputs":[],"name":"owner","outputs":[{"internalType":"address","name":"","type":"address"}],"stateMutability":"view","type":"function"},{"inputs":[],"name":"pendingAdmin","outputs":[{"internalType":"address","name":"","type":"address"}],"stateMutability":"view","type":"function"},{"inputs":[{"internalType":"address","name":"new_admin","type":"address"}],"name":"proposeNewAdmin","outputs":[],"stateMutability":"nonpayable","type":"function"},{"inputs":[{"internalType":"bytes","name":"encodedVm","type":"bytes"}],"name":"receiveMessage","outputs":[],"stateMutability":"nonpayable","type":"function"},{"inputs":[],"name":"renounceOwnership","outputs":[],"stateMutability":"nonpayable","type":"function"},{"inputs":[{"internalType":"uint64","name":"","type":"uint64"}],"name":"requestPosition","outputs":[{"internalType":"uint256","name":"","type":"uint256"}],"stateMutability":"view","type":"function"},{"inputs":[],"name":"tokenBridge","outputs":[{"internalType":"contract ITokenBridge","name":"","type":"address"}],"stateMutability":"view","type":"function"},{"inputs":[{"internalType":"address","name":"newOwner","type":"address"}],"name":"transferOwnership","outputs":[],"stateMutability":"nonpayable","type":"function"},{"inputs":[{"internalType":"uint256","name":"","type":"uint256"}],"name":"transferRequest","outputs":[{"internalType":"address","name":"recipient","type":"address"},{"internalType":"address","name":"token","type":"address"},{"internalType":"uint256","name":"amount","type":"uint256"},{"internalType":"uint64","name":"sequence","type":"uint64"}],"stateMutability":"view","type":"function"},{"inputs":[{"internalType":"address","name":"token","type":"address"},{"internalType":"uint256","name":"amount","type":"uint256"},{"internalType":"uint256","name":"arbiterFee","type":"uint256"},{"internalType":"uint32","name":"nonce","type":"uint32"}],"name":"transferTokenBackToSmartWallet","outputs":[{"internalType":"uint64","name":"","type":"uint64"}],"stateMutability":"nonpayable","type":"function"},{"inputs":[],"name":"user","outputs":[{"internalType":"bytes32","name":"","type":"bytes32"}],"stateMutability":"view","type":"function"},{"inputs":[],"name":"weth","outputs":[{"internalType":"contract IWETH","name":"","type":"address"}],"stateMutability":"view","type":"function"},{"inputs":[],"name":"wormhole","outputs":[{"internalType":"contract IWormhole","name":"","type":"address"}],"stateMutability":"view","type":"function"}],"devdoc":{"errors":{"InvalidInitialization()":[{"details":"The contract is already initialized."}],"NotInitializing()":[{"details":"The contract is not initializing."}],"OwnableInvalidOwner(address)":[{"details":"The owner is not a valid owner account. (eg. `address(0)`)"}],"OwnableUnauthorizedAccount(address)":[{"details":"The caller account is not authorized to perform an operation."}],"ReentrancyGuardReentrantCall()":[{"details":"Unauthorized reentrant call."}]},"events":{"Initialized(uint64)":{"details":"Triggered when the contract has been initialized or reinitialized."}},"kind":"dev","methods":{"owner()":{"details":"Returns the address of the current owner."},"renounceOwnership()":{"details":"Leaves the contract without owner. It will not be possible to call `onlyOwner` functions. Can only be called by the current owner. NOTE: Renouncing ownership will leave the contract without an owner, thereby disabling any functionality that is only available to the owner."},"transferOwnership(address)":{"details":"Transfers ownership of the contract to a new account (`newOwner`). Can only be called by the current owner."}},"version":1},"evm":{"bytecode":{"linkReferences":{},"object":"6080604052348015600f57600080fd5b50611b448061001f6000396000f3fe608060405234801561001057600080fd5b50600436106100f15760003560e01c806326782247146100f65780633fc8cef31461011f5780634f8632ba1461013257806357f032e7146101495780636264136e1461015e578063715018a6146101a55780637544776b146101ad57806384acd1bb146101cd5780638c3d7301146101e05780638da5cb5b146101e857806392f70709146101f0578063a637674614610210578063b1a8840814610223578063c45a015514610256578063c6328a4614610269578063cbd83a191461027c578063f2fde38b1461028f578063f5ff5c76146102a2578063f953cec7146102b5575b600080fd5b600254610109906001600160a01b031681565b6040516101169190611405565b60405180910390f35b600654610109906001600160a01b031681565b61013b60005481565b604051908152602001610116565b61015c610157366004611435565b6102c8565b005b61017161016c366004611457565b6102f2565b604080516001600160a01b039586168152949093166020850152918301526001600160401b03166060820152608001610116565b61015c610341565b61013b6101bb366004611485565b60086020526000908152604090205481565b600454610109906001600160a01b031681565b61015c610355565b6101096103af565b6102036101fe3660046114b4565b6103ca565b60405161011691906114fc565b61015c61021e366004611435565b6105be565b610246610231366004611485565b60076020526000908152604090205460ff1681565b6040519015158152602001610116565b600354610109906001600160a01b031681565b600554610109906001600160a01b031681565b61015c61028a366004611520565b6105e8565b61015c61029d366004611435565b6107f3565b600154610109906001600160a01b031681565b61015c6102c336600461166c565b610831565b6102d0610934565b600180546001600160a01b0319166001600160a01b0392909216919091179055565b6009818154811061030257600080fd5b600091825260209091206004909102018054600182015460028301546003909301546001600160a01b039283169450911691906001600160401b031684565b610349610934565b6103536000610966565b565b6002546001600160a01b031633146103885760405162461bcd60e51b815260040161037f906116eb565b60405180910390fd5b60025461039d906001600160a01b0316610966565b600280546001600160a01b0319169055565b6000806103ba6109c2565b546001600160a01b031692915050565b60006103d46103af565b6001600160a01b0316336001600160a01b031614806103fd57506001546001600160a01b031633145b6104195760405162461bcd60e51b815260040161037f906116eb565b6000600460009054906101000a90046001600160a01b03166001600160a01b0316631a90a2196040518163ffffffff1660e01b8152600401602060405180830381865afa15801561046e573d6000803e3d6000fd5b505050506040513d601f19601f820116820180604052508101906104929190611714565b60055460405163095ea7b360e01b81529192506001600160a01b038089169263095ea7b3926104c7921690899060040161172d565b6020604051808303816000875af11580156104e6573d6000803e3d6000fd5b505050506040513d601f19601f8201168201806040525081019061050a9190611756565b5060055460065460005460405162f5287b60e41b81526001600160a01b038a81166004830152602482018a9052600160a01b90930461ffff16604482015260648101919091526084810187905263ffffffff861660a4820152911690630f5287b090839060c40160206040518083038185885af115801561058f573d6000803e3d6000fd5b50505050506040513d601f19601f820116820180604052508101906105b4919061177c565b9695505050505050565b6105c6610934565b600280546001600160a01b0319166001600160a01b0392909216919091179055565b60006105f26109e6565b805490915060ff600160401b82041615906001600160401b03166000811580156106195750825b90506000826001600160401b031660011480156106355750303b155b905081158015610643575080155b156106615760405163f92ee8a960e01b815260040160405180910390fd5b84546001600160401b0319166001178555831561068a57845460ff60401b1916600160401b1785555b6001600160a01b038d166106d15760405162461bcd60e51b815260206004820152600e60248201526d6f776e6572206973207a65726f2160901b604482015260640161037f565b6001600160a01b038c166107175760405162461bcd60e51b815260206004820152600d60248201526c6167656e74206973207a65726f60981b604482015260640161037f565b61071f610a11565b6107288d610966565b600180546001600160a01b03199081166001600160a01b038f81169190911790925560008c90556003805482168e84161790556004805482168c8416179055600580549091168a8316179055600680549189166001600160b01b031990921691909117600160a01b61ffff89160217905583156107e457845460ff60401b191685556040517fc7f505b2f371ae2175ee4913f4499e1f2633a7b5936321eed1cdaeb6115181d2906107db906001906114fc565b60405180910390a15b50505050505050505050505050565b6107fb610934565b6001600160a01b038116610825576000604051631e4fbdf760e01b815260040161037f9190611405565b61082e81610966565b50565b6108396103af565b6001600160a01b0316336001600160a01b0316148061086257506001546001600160a01b031633145b61087e5760405162461bcd60e51b815260040161037f906116eb565b6004805460405163607ec5ef60e11b8152600092839283926001600160a01b039091169163c0fd8bde916108b4918891016117e9565b600060405180830381865afa1580156108d1573d6000803e3d6000fd5b505050506040513d6000823e601f3d908101601f191682016040526108f9919081019061193d565b92509250925081819061091f5760405162461bcd60e51b815260040161037f91906117e9565b5061092e8360e0015185610a21565b50505050565b3361093d6103af565b6001600160a01b031614610353573360405163118cdaa760e01b815260040161037f9190611405565b60006109706109c2565b80546001600160a01b038481166001600160a01b031983168117845560405193945091169182907f8be0079c531659141344cd1fd0a4f28419497f9722a3daafe3b4186f6b6457e090600090a3505050565b7f9016d09d72d40fdae2fd8ceac6b6234c7706214fd39c1cd1e609a0528c19930090565b6000807ff0c57e16840df040f15088dc2f81fe391c3923bec73e23a9662efc9c229c6a005b92915050565b610a19610a87565b610353610aac565b600080610a2e8482610ada565b9050610a3b600183611abc565b91508060ff1660011480610a5257508060ff166003145b15610a6557610a6083610b3a565b61092e565b61092e610a828360018751610a7a9190611acf565b879190610d00565b610df5565b610a8f611073565b61035357604051631afcd79f60e31b815260040160405180910390fd5b610ab4610a87565b60017f9b779b17422d0df92223018b32b4d1fa46e071723d6817e2486d003becc55f0055565b600081835111610b225760405162461bcd60e51b8152602060048201526013602482015272746f55696e74385f6f75744f66426f756e647360681b604482015260640161037f565b6000610b2f600184611abc565b909301519392505050565b6004805460405163607ec5ef60e11b81526000926001600160a01b039092169163c0fd8bde91610b6c918691016117e9565b600060405180830381865afa158015610b89573d6000803e3d6000fd5b505050506040513d6000823e601f3d908101601f19168201604052610bb1919081019061193d565b505060a08101516001600160401b031660009081526007602052604090819020805460ff19166001179055600554905163c687851960e01b81529192506001600160a01b03169063c687851990610c0c9085906004016117e9565b600060405180830381600087803b158015610c2657600080fd5b505af1158015610c3a573d6000803e3d6000fd5b5050505060a08101516001600160401b031660009081526008602052604090205415610cfc5760a08101516001600160401b031660009081526008602052604090205460098054610cf1919083908110610c9657610c96611ae2565b600091825260209182902060408051608081018252600490930290910180546001600160a01b039081168452600182015416938301939093526002830154908201526003909101546001600160401b0316606082015261108d565b610cfa81611109565b505b5050565b60608182601f011015610d465760405162461bcd60e51b815260206004820152600e60248201526d736c6963655f6f766572666c6f7760901b604482015260640161037f565b610d508284611abc565b84511015610d945760405162461bcd60e51b8152602060048201526011602482015270736c6963655f6f75744f66426f756e647360781b604482015260640161037f565b60405182158015610dab5760208201604052610dea565b601f841680156020028101905080830185810187838a01015b81831015610ddc578051835260209283019201610dc4565b5050601f01601f1916604052505b509182525092915050565b8051604014610e3d5760405162461bcd60e51b815260206004820152601460248201527315dc9bdb99c81b595cdcd859d948199bdc9b585d60621b604482015260640161037f565b600080610e4a83826112e9565b9050610e57601483611abc565b91506000610e6584846112e9565b9050610e72601484611abc565b92506000610e80858561134a565b6001600160801b03169050610e96601085611abc565b93506000610ea486866113ad565b6001600160401b03811660009081526007602052604090205490915060ff1615610f3f5760405163a9059cbb60e01b81526001600160a01b0384169063a9059cbb90610ef6908790869060040161172d565b6020604051808303816000875af1158015610f15573d6000803e3d6000fd5b505050506040513d601f19601f82011682018060405250810190610f399190611756565b5061106b565b604080516080810182526001600160a01b03808716825285811660208084019182528385018781526001600160401b0380881660608701818152600980546001810182556000828152995160049091027f6e1540171b6c0c960b71a7020d9f60077f6af931a8bbf590da0223dacf75c7af81018054928b166001600160a01b031993841617905597517f6e1540171b6c0c960b71a7020d9f60077f6af931a8bbf590da0223dacf75c7b08901805491909a1691161790975592517f6e1540171b6c0c960b71a7020d9f60077f6af931a8bbf590da0223dacf75c7b186015591517f6e1540171b6c0c960b71a7020d9f60077f6af931a8bbf590da0223dacf75c7b29094018054949091166001600160401b03199094169390931790925591549083526008909152919020555b505050505050565b600061107d6109e6565b54600160401b900460ff16919050565b60208101518151604080840151905163a9059cbb60e01b81526001600160a01b039093169263a9059cbb926110c692909160040161172d565b6020604051808303816000875af11580156110e5573d6000803e3d6000fd5b505050506040513d601f19601f82011682018060405250810190610cfc9190611756565b600954600181900361117557600980548061112657611126611af8565b60008281526020812060046000199093019283020180546001600160a01b031990811682556001820180549091169055600281019190915560030180546001600160401b031916905590555050565b60006009611184600184611acf565b8154811061119457611194611ae2565b600091825260209182902060408051608081018252600490930290910180546001600160a01b039081168452600182015416938301939093526002830154908201526003909101546001600160401b031660608201526009805491925082918590811061120357611203611ae2565b60009182526020808320845160049093020180546001600160a01b039384166001600160a01b031991821617825585830151600183018054919095169116179092556040808501516002840155606094850151600390930180546001600160401b039485166001600160401b03199091161790559385015190911682526008905220839055600980548061129957611299611af8565b60008281526020812060046000199093019283020180546001600160a01b031990811682556001820180549091169055600281019190915560030180546001600160401b03191690559055505050565b60006112f6601483611abc565b8351101561133e5760405162461bcd60e51b8152602060048201526015602482015274746f416464726573735f6f75744f66426f756e647360581b604482015260640161037f565b50016020015160601c90565b600080611358601084611abc565b905080845110156113a35760405162461bcd60e51b8152602060048201526015602482015274746f55696e743132385f6f75744f66426f756e647360581b604482015260640161037f565b9092015192915050565b6000806113bb600884611abc565b905080845110156113a35760405162461bcd60e51b8152602060048201526014602482015273746f55696e7436345f6f75744f66426f756e647360601b604482015260640161037f565b6001600160a01b0391909116815260200190565b80356001600160a01b038116811461143057600080fd5b919050565b60006020828403121561144757600080fd5b61145082611419565b9392505050565b60006020828403121561146957600080fd5b5035919050565b6001600160401b038116811461082e57600080fd5b60006020828403121561149757600080fd5b813561145081611470565b63ffffffff8116811461082e57600080fd5b600080600080608085870312156114ca57600080fd5b6114d385611419565b9350602085013592506040850135915060608501356114f1816114a2565b939692955090935050565b6001600160401b0391909116815260200190565b61ffff8116811461082e57600080fd5b600080600080600080600080610100898b03121561153d57600080fd5b61154689611419565b975061155460208a01611419565b965061156260408a01611419565b95506060890135945061157760808a01611419565b935061158560a08a01611419565b925061159360c08a01611419565b915060e08901356115a381611510565b809150509295985092959890939650565b634e487b7160e01b600052604160045260246000fd5b604051608081016001600160401b03811182821017156115ec576115ec6115b4565b60405290565b60405161016081016001600160401b03811182821017156115ec576115ec6115b4565b604051601f8201601f191681016001600160401b038111828210171561163d5761163d6115b4565b604052919050565b60006001600160401b0382111561165e5761165e6115b4565b50601f01601f191660200190565b60006020828403121561167e57600080fd5b81356001600160401b0381111561169457600080fd5b8201601f810184136116a557600080fd5b80356116b86116b382611645565b611615565b8181528560208385010111156116cd57600080fd5b81602084016020830137600091810160200191909152949350505050565b6020808252600f908201526e4e6f7420417574686f72697a65642160881b604082015260600190565b60006020828403121561172657600080fd5b5051919050565b6001600160a01b03929092168252602082015260400190565b8051801515811461143057600080fd5b60006020828403121561176857600080fd5b61145082611746565b805161143081611470565b60006020828403121561178e57600080fd5b815161145081611470565b60005b838110156117b457818101518382015260200161179c565b50506000910152565b600081518084526117d5816020860160208601611799565b601f01601f19169290920160200192915050565b60208152600061145060208301846117bd565b805160ff8116811461143057600080fd5b8051611430816114a2565b805161143081611510565b600082601f83011261183457600080fd5b81516020830160006118486116b384611645565b905082815285838301111561185c57600080fd5b61186a836020830184611799565b95945050505050565b600082601f83011261188457600080fd5b81516001600160401b0381111561189d5761189d6115b4565b6118ac60208260051b01611615565b8082825260208201915060208360071b8601019250858311156118ce57600080fd5b602085015b8381101561193357608081880312156118eb57600080fd5b6118f36115ca565b815181526020808301519082015261190d604083016117fc565b604082015261191e606083016117fc565b606082015283526020909201916080016118d3565b5095945050505050565b60008060006060848603121561195257600080fd5b83516001600160401b0381111561196857600080fd5b8401610160818703121561197b57600080fd5b6119836115f2565b61198c826117fc565b815261199a6020830161180d565b60208201526119ab6040830161180d565b60408201526119bc60608301611818565b6060820152608082810151908201526119d760a08301611771565b60a08201526119e860c083016117fc565b60c082015260e08201516001600160401b03811115611a0657600080fd5b611a1288828501611823565b60e083015250611a25610100830161180d565b6101008201526101208201516001600160401b03811115611a4557600080fd5b611a5188828501611873565b6101208301525061014091820151918101919091529250611a7460208501611746565b60408501519092506001600160401b03811115611a9057600080fd5b611a9c86828701611823565b9150509250925092565b634e487b7160e01b600052601160045260246000fd5b80820180821115610a0b57610a0b611aa6565b81810381811115610a0b57610a0b611aa6565b634e487b7160e01b600052603260045260246000fd5b634e487b7160e01b600052603160045260246000fdfea26469706673582212203bf13d1c94d27f069c2e33cb39c15958684e044e89f6feeb309cd27a14f1ed9b64736f6c634300081c0033","opcodes":"PUSH1 0x80 PUSH1 0x40 MSTORE CALLVALUE DUP1 ISZERO PUSH1 0xF JUMPI PUSH1 0x0 DUP1 REVERT JUMPDEST POP PUSH2 0x1B44 DUP1 PUSH2 0x1F PUSH1 0x0 CODECOPY PUSH1 0x0 RETURN INVALID PUSH1 0x80 PUSH1 0x40 MSTORE CALLVALUE DUP1 ISZERO PUSH2 0x10 JUMPI PUSH1 0x0 DUP1 REVERT JUMPDEST POP PUSH1 0x4 CALLDATASIZE LT PUSH2 0xF1 JUMPI PUSH1 0x0 CALLDATALOAD PUSH1 0xE0 SHR DUP1 PUSH4 0x26782247 EQ PUSH2 0xF6 JUMPI DUP1 PUSH4 0x3FC8CEF3 EQ PUSH2 0x11F JUMPI DUP1 PUSH4 0x4F8632BA EQ PUSH2 0x132 JUMPI DUP1 PUSH4 0x57F032E7 EQ PUSH2 0x149 JUMPI DUP1 PUSH4 0x6264136E EQ PUSH2 0x15E JUMPI DUP1 PUSH4 0x715018A6 EQ PUSH2 0x1A5 JUMPI DUP1 PUSH4 0x7544776B EQ PUSH2 0x1AD JUMPI DUP1 PUSH4 0x84ACD1BB EQ PUSH2 0x1CD JUMPI DUP1 PUSH4 0x8C3D7301 EQ PUSH2 0x1E0 JUMPI DUP1 PUSH4 0x8DA5CB5B EQ PUSH2 0x1E8 JUMPI DUP1 PUSH4 0x92F70709 EQ PUSH2 0x1F0 JUMPI DUP1 PUSH4 0xA6376746 EQ PUSH2 0x210 JUMPI DUP1 PUSH4 0xB1A88408 EQ PUSH2 0x223 JUMPI DUP1 PUSH4 0xC45A0155 EQ PUSH2 0x256 JUMPI DUP1 PUSH4 0xC6328A46 EQ PUSH2 0x269 JUMPI DUP1 PUSH4 0xCBD83A19 EQ PUSH2 0x27C JUMPI DUP1 PUSH4 0xF2FDE38B EQ PUSH2 0x28F JUMPI DUP1 PUSH4 0xF5FF5C76 EQ PUSH2 0x2A2 JUMPI DUP1 PUSH4 0xF953CEC7 EQ PUSH2 0x2B5 JUMPI JUMPDEST PUSH1 0x0 DUP1 REVERT JUMPDEST PUSH1 0x2 SLOAD PUSH2 0x109 SWAP1 PUSH1 0x1 PUSH1 0x1 PUSH1 0xA0 SHL SUB AND DUP2 JUMP JUMPDEST PUSH1 0x40 MLOAD PUSH2 0x116 SWAP2 SWAP1 PUSH2 0x1405 JUMP JUMPDEST PUSH1 0x40 MLOAD DUP1 SWAP2 SUB SWAP1 RETURN JUMPDEST PUSH1 0x6 SLOAD PUSH2 0x109 SWAP1 PUSH1 0x1 PUSH1 0x1 PUSH1 0xA0 SHL SUB AND DUP2 JUMP JUMPDEST PUSH2 0x13B PUSH1 0x0 SLOAD DUP2 JUMP JUMPDEST PUSH1 0x40 MLOAD SWAP1 DUP2 MSTORE PUSH1 0x20 ADD PUSH2 0x116 JUMP JUMPDEST PUSH2 0x15C PUSH2 0x157 CALLDATASIZE PUSH1 0x4 PUSH2 0x1435 JUMP JUMPDEST PUSH2 0x2C8 JUMP JUMPDEST STOP JUMPDEST PUSH2 0x171 PUSH2 0x16C CALLDATASIZE PUSH1 0x4 PUSH2 0x1457 JUMP JUMPDEST PUSH2 0x2F2 JUMP JUMPDEST PUSH1 0x40 DUP1 MLOAD PUSH1 0x1 PUSH1 0x1 PUSH1 0xA0 SHL SUB SWAP6 DUP7 AND DUP2 MSTORE SWAP5 SWAP1 SWAP4 AND PUSH1 0x20 DUP6 ADD MSTORE SWAP2 DUP4 ADD MSTORE PUSH1 0x1 PUSH1 0x1 PUSH1 0x40 SHL SUB AND PUSH1 0x60 DUP3 ADD MSTORE PUSH1 0x80 ADD PUSH2 0x116 JUMP JUMPDEST PUSH2 0x15C PUSH2 0x341 JUMP JUMPDEST PUSH2 0x13B PUSH2 0x1BB CALLDATASIZE PUSH1 0x4 PUSH2 0x1485 JUMP JUMPDEST PUSH1 0x8 PUSH1 0x20 MSTORE PUSH1 0x0 SWAP1 DUP2 MSTORE PUSH1 0x40 SWAP1 KECCAK256 SLOAD DUP2 JUMP JUMPDEST PUSH1 0x4 SLOAD PUSH2 0x109 SWAP1 PUSH1 0x1 PUSH1 0x1 PUSH1 0xA0 SHL SUB AND DUP2 JUMP JUMPDEST PUSH2 0x15C PUSH2 0x355 JUMP JUMPDEST PUSH2 0x109 PUSH2 0x3AF JUMP JUMPDEST PUSH2 0x203 PUSH2 0x1FE CALLDATASIZE PUSH1 0x4 PUSH2 0x14B4 JUMP JUMPDEST PUSH2 0x3CA JUMP JUMPDEST PUSH1 0x40 MLOAD PUSH2 0x116 SWAP2 SWAP1 PUSH2 0x14FC JUMP JUMPDEST PUSH2 0x15C PUSH2 0x21E CALLDATASIZE PUSH1 0x4 PUSH2 0x1435 JUMP JUMPDEST PUSH2 0x5BE JUMP JUMPDEST PUSH2 0x246 PUSH2 0x231 CALLDATASIZE PUSH1 0x4 PUSH2 0x1485 JUMP JUMPDEST PUSH1 0x7 PUSH1 0x20 MSTORE PUSH1 0x0 SWAP1 DUP2 MSTORE PUSH1 0x40 SWAP1 KECCAK256 SLOAD PUSH1 0xFF AND DUP2 JUMP JUMPDEST PUSH1 0x40 MLOAD SWAP1 ISZERO ISZERO DUP2 MSTORE PUSH1 0x20 ADD PUSH2 0x116 JUMP JUMPDEST PUSH1 0x3 SLOAD PUSH2 0x109 SWAP1 PUSH1 0x1 PUSH1 0x1 PUSH1 0xA0 SHL SUB AND DUP2 JUMP JUMPDEST PUSH1 0x5 SLOAD PUSH2 0x109 SWAP1 PUSH1 0x1 PUSH1 0x1 PUSH1 0xA0 SHL SUB AND DUP2 JUMP JUMPDEST PUSH2 0x15C PUSH2 0x28A CALLDATASIZE PUSH1 0x4 PUSH2 0x1520 JUMP JUMPDEST PUSH2 0x5E8 JUMP JUMPDEST PUSH2 0x15C PUSH2 0x29D CALLDATASIZE PUSH1 0x4 PUSH2 0x1435 JUMP JUMPDEST PUSH2 0x7F3 JUMP JUMPDEST PUSH1 0x1 SLOAD PUSH2 0x109 SWAP1 PUSH1 0x1 PUSH1 0x1 PUSH1 0xA0 SHL SUB AND DUP2 JUMP JUMPDEST PUSH2 0x15C PUSH2 0x2C3 CALLDATASIZE PUSH1 0x4 PUSH2 0x166C JUMP JUMPDEST PUSH2 0x831 JUMP JUMPDEST PUSH2 0x2D0 PUSH2 0x934 JUMP JUMPDEST PUSH1 0x1 DUP1 SLOAD PUSH1 0x1 PUSH1 0x1 PUSH1 0xA0 SHL SUB NOT AND PUSH1 0x1 PUSH1 0x1 PUSH1 0xA0 SHL SUB SWAP3 SWAP1 SWAP3 AND SWAP2 SWAP1 SWAP2 OR SWAP1 SSTORE JUMP JUMPDEST PUSH1 0x9 DUP2 DUP2 SLOAD DUP2 LT PUSH2 0x302 JUMPI PUSH1 0x0 DUP1 REVERT JUMPDEST PUSH1 0x0 SWAP2 DUP3 MSTORE PUSH1 0x20 SWAP1 SWAP2 KECCAK256 PUSH1 0x4 SWAP1 SWAP2 MUL ADD DUP1 SLOAD PUSH1 0x1 DUP3 ADD SLOAD PUSH1 0x2 DUP4 ADD SLOAD PUSH1 0x3 SWAP1 SWAP4 ADD SLOAD PUSH1 0x1 PUSH1 0x1 PUSH1 0xA0 SHL SUB SWAP3 DUP4 AND SWAP5 POP SWAP2 AND SWAP2 SWAP1 PUSH1 0x1 PUSH1 0x1 PUSH1 0x40 SHL SUB AND DUP5 JUMP JUMPDEST PUSH2 0x349 PUSH2 0x934 JUMP JUMPDEST PUSH2 0x353 PUSH1 0x0 PUSH2 0x966 JUMP JUMPDEST JUMP JUMPDEST PUSH1 0x2 SLOAD PUSH1 0x1 PUSH1 0x1 PUSH1 0xA0 SHL SUB AND CALLER EQ PUSH2 0x388 JUMPI PUSH1 0x40 MLOAD PUSH3 0x461BCD PUSH1 0xE5 SHL DUP2 MSTORE PUSH1 0x4 ADD PUSH2 0x37F SWAP1 PUSH2 0x16EB JUMP JUMPDEST PUSH1 0x40 MLOAD DUP1 SWAP2 SUB SWAP1 REVERT JUMPDEST PUSH1 0x2 SLOAD PUSH2 0x39D SWAP1 PUSH1 0x1 PUSH1 0x1 PUSH1 0xA0 SHL SUB AND PUSH2 0x966 JUMP JUMPDEST PUSH1 0x2 DUP1 SLOAD PUSH1 0x1 PUSH1 0x1 PUSH1 0xA0 SHL SUB NOT AND SWAP1 SSTORE JUMP JUMPDEST PUSH1 0x0 DUP1 PUSH2 0x3BA PUSH2 0x9C2 JUMP JUMPDEST SLOAD PUSH1 0x1 PUSH1 0x1 PUSH1 0xA0 SHL SUB AND SWAP3 SWAP2 POP POP JUMP JUMPDEST PUSH1 0x0 PUSH2 0x3D4 PUSH2 0x3AF JUMP JUMPDEST PUSH1 0x1 PUSH1 0x1 PUSH1 0xA0 SHL SUB AND CALLER PUSH1 0x1 PUSH1 0x1 PUSH1 0xA0 SHL SUB AND EQ DUP1 PUSH2 0x3FD JUMPI POP PUSH1 0x1 SLOAD PUSH1 0x1 PUSH1 0x1 PUSH1 0xA0 SHL SUB AND CALLER EQ JUMPDEST PUSH2 0x419 JUMPI PUSH1 0x40 MLOAD PUSH3 0x461BCD PUSH1 0xE5 SHL DUP2 MSTORE PUSH1 0x4 ADD PUSH2 0x37F SWAP1 PUSH2 0x16EB JUMP JUMPDEST PUSH1 0x0 PUSH1 0x4 PUSH1 0x0 SWAP1 SLOAD SWAP1 PUSH2 0x100 EXP SWAP1 DIV PUSH1 0x1 PUSH1 0x1 PUSH1 0xA0 SHL SUB AND PUSH1 0x1 PUSH1 0x1 PUSH1 0xA0 SHL SUB AND PUSH4 0x1A90A219 PUSH1 0x40 MLOAD DUP2 PUSH4 0xFFFFFFFF AND PUSH1 0xE0 SHL DUP2 MSTORE PUSH1 0x4 ADD PUSH1 0x20 PUSH1 0x40 MLOAD DUP1 DUP4 SUB DUP2 DUP7 GAS STATICCALL ISZERO DUP1 ISZERO PUSH2 0x46E JUMPI RETURNDATASIZE PUSH1 0x0 DUP1 RETURNDATACOPY RETURNDATASIZE PUSH1 0x0 REVERT JUMPDEST POP POP POP POP PUSH1 0x40 MLOAD RETURNDATASIZE PUSH1 0x1F NOT PUSH1 0x1F DUP3 ADD AND DUP3 ADD DUP1 PUSH1 0x40 MSTORE POP DUP2 ADD SWAP1 PUSH2 0x492 SWAP2 SWAP1 PUSH2 0x1714 JUMP JUMPDEST PUSH1 0x5 SLOAD PUSH1 0x40 MLOAD PUSH4 0x95EA7B3 PUSH1 0xE0 SHL DUP2 MSTORE SWAP2 SWAP3 POP PUSH1 0x1 PUSH1 0x1 PUSH1 0xA0 SHL SUB DUP1 DUP10 AND SWAP3 PUSH4 0x95EA7B3 SWAP3 PUSH2 0x4C7 SWAP3 AND SWAP1 DUP10 SWAP1 PUSH1 0x4 ADD PUSH2 0x172D JUMP JUMPDEST PUSH1 0x20 PUSH1 0x40 MLOAD DUP1 DUP4 SUB DUP2 PUSH1 0x0 DUP8 GAS CALL ISZERO DUP1 ISZERO PUSH2 0x4E6 JUMPI RETURNDATASIZE PUSH1 0x0 DUP1 RETURNDATACOPY RETURNDATASIZE PUSH1 0x0 REVERT JUMPDEST POP POP POP POP PUSH1 0x40 MLOAD RETURNDATASIZE PUSH1 0x1F NOT PUSH1 0x1F DUP3 ADD AND DUP3 ADD DUP1 PUSH1 0x40 MSTORE POP DUP2 ADD SWAP1 PUSH2 0x50A SWAP2 SWAP1 PUSH2 0x1756 JUMP JUMPDEST POP PUSH1 0x5 SLOAD PUSH1 0x6 SLOAD PUSH1 0x0 SLOAD PUSH1 0x40 MLOAD PUSH3 0xF5287B PUSH1 0xE4 SHL DUP2 MSTORE PUSH1 0x1 PUSH1 0x1 PUSH1 0xA0 SHL SUB DUP11 DUP2 AND PUSH1 0x4 DUP4 ADD MSTORE PUSH1 0x24 DUP3 ADD DUP11 SWAP1 MSTORE PUSH1 0x1 PUSH1 0xA0 SHL SWAP1 SWAP4 DIV PUSH2 0xFFFF AND PUSH1 0x44 DUP3 ADD MSTORE PUSH1 0x64 DUP2 ADD SWAP2 SWAP1 SWAP2 MSTORE PUSH1 0x84 DUP2 ADD DUP8 SWAP1 MSTORE PUSH4 0xFFFFFFFF DUP7 AND PUSH1 0xA4 DUP3 ADD MSTORE SWAP2 AND SWAP1 PUSH4 0xF5287B0 SWAP1 DUP4 SWAP1 PUSH1 0xC4 ADD PUSH1 0x20 PUSH1 0x40 MLOAD DUP1 DUP4 SUB DUP2 DUP6 DUP9 GAS CALL ISZERO DUP1 ISZERO PUSH2 0x58F JUMPI RETURNDATASIZE PUSH1 0x0 DUP1 RETURNDATACOPY RETURNDATASIZE PUSH1 0x0 REVERT JUMPDEST POP POP POP POP POP PUSH1 0x40 MLOAD RETURNDATASIZE PUSH1 0x1F NOT PUSH1 0x1F DUP3 ADD AND DUP3 ADD DUP1 PUSH1 0x40 MSTORE POP DUP2 ADD SWAP1 PUSH2 0x5B4 SWAP2 SWAP1 PUSH2 0x177C JUMP JUMPDEST SWAP7 SWAP6 POP POP POP POP POP POP JUMP JUMPDEST PUSH2 0x5C6 PUSH2 0x934 JUMP JUMPDEST PUSH1 0x2 DUP1 SLOAD PUSH1 0x1 PUSH1 0x1 PUSH1 0xA0 SHL SUB NOT AND PUSH1 0x1 PUSH1 0x1 PUSH1 0xA0 SHL SUB SWAP3 SWAP1 SWAP3 AND SWAP2 SWAP1 SWAP2 OR SWAP1 SSTORE JUMP JUMPDEST PUSH1 0x0 PUSH2 0x5F2 PUSH2 0x9E6 JUMP JUMPDEST DUP1 SLOAD SWAP1 SWAP2 POP PUSH1 0xFF PUSH1 0x1 PUSH1 0x40 SHL DUP3 DIV AND ISZERO SWAP1 PUSH1 0x1 PUSH1 0x1 PUSH1 0x40 SHL SUB AND PUSH1 0x0 DUP2 ISZERO DUP1 ISZERO PUSH2 0x619 JUMPI POP DUP3 JUMPDEST SWAP1 POP PUSH1 0x0 DUP3 PUSH1 0x1 PUSH1 0x1 PUSH1 0x40 SHL SUB AND PUSH1 0x1 EQ DUP1 ISZERO PUSH2 0x635 JUMPI POP ADDRESS EXTCODESIZE ISZERO JUMPDEST SWAP1 POP DUP2 ISZERO DUP1 ISZERO PUSH2 0x643 JUMPI POP DUP1 ISZERO JUMPDEST ISZERO PUSH2 0x661 JUMPI PUSH1 0x40 MLOAD PUSH4 0xF92EE8A9 PUSH1 0xE0 SHL DUP2 MSTORE PUSH1 0x4 ADD PUSH1 0x40 MLOAD DUP1 SWAP2 SUB SWAP1 REVERT JUMPDEST DUP5 SLOAD PUSH1 0x1 PUSH1 0x1 PUSH1 0x40 SHL SUB NOT AND PUSH1 0x1 OR DUP6 SSTORE DUP4 ISZERO PUSH2 0x68A JUMPI DUP5 SLOAD PUSH1 0xFF PUSH1 0x40 SHL NOT AND PUSH1 0x1 PUSH1 0x40 SHL OR DUP6 SSTORE JUMPDEST PUSH1 0x1 PUSH1 0x1 PUSH1 0xA0 SHL SUB DUP14 AND PUSH2 0x6D1 JUMPI PUSH1 0x40 MLOAD PUSH3 0x461BCD PUSH1 0xE5 SHL DUP2 MSTORE PUSH1 0x20 PUSH1 0x4 DUP3 ADD MSTORE PUSH1 0xE PUSH1 0x24 DUP3 ADD MSTORE PUSH14 0x6F776E6572206973207A65726F21 PUSH1 0x90 SHL PUSH1 0x44 DUP3 ADD MSTORE PUSH1 0x64 ADD PUSH2 0x37F JUMP JUMPDEST PUSH1 0x1 PUSH1 0x1 PUSH1 0xA0 SHL SUB DUP13 AND PUSH2 0x717 JUMPI PUSH1 0x40 MLOAD PUSH3 0x461BCD PUSH1 0xE5 SHL DUP2 MSTORE PUSH1 0x20 PUSH1 0x4 DUP3 ADD MSTORE PUSH1 0xD PUSH1 0x24 DUP3 ADD MSTORE PUSH13 0x6167656E74206973207A65726F PUSH1 0x98 SHL PUSH1 0x44 DUP3 ADD MSTORE PUSH1 0x64 ADD PUSH2 0x37F JUMP JUMPDEST PUSH2 0x71F PUSH2 0xA11 JUMP JUMPDEST PUSH2 0x728 DUP14 PUSH2 0x966 JUMP JUMPDEST PUSH1 0x1 DUP1 SLOAD PUSH1 0x1 PUSH1 0x1 PUSH1 0xA0 SHL SUB NOT SWAP1 DUP2 AND PUSH1 0x1 PUSH1 0x1 PUSH1 0xA0 SHL SUB DUP16 DUP2 AND SWAP2 SWAP1 SWAP2 OR SWAP1 SWAP3 SSTORE PUSH1 0x0 DUP13 SWAP1 SSTORE PUSH1 0x3 DUP1 SLOAD DUP3 AND DUP15 DUP5 AND OR SWAP1 SSTORE PUSH1 0x4 DUP1 SLOAD DUP3 AND DUP13 DUP5 AND OR SWAP1 SSTORE PUSH1 0x5 DUP1 SLOAD SWAP1 SWAP2 AND DUP11 DUP4 AND OR SWAP1 SSTORE PUSH1 0x6 DUP1 SLOAD SWAP2 DUP10 AND PUSH1 0x1 PUSH1 0x1 PUSH1 0xB0 SHL SUB NOT SWAP1 SWAP3 AND SWAP2 SWAP1 SWAP2 OR PUSH1 0x1 PUSH1 0xA0 SHL PUSH2 0xFFFF DUP10 AND MUL OR SWAP1 SSTORE DUP4 ISZERO PUSH2 0x7E4 JUMPI DUP5 SLOAD PUSH1 0xFF PUSH1 0x40 SHL NOT AND DUP6 SSTORE PUSH1 0x40 MLOAD PUSH32 0xC7F505B2F371AE2175EE4913F4499E1F2633A7B5936321EED1CDAEB6115181D2 SWAP1 PUSH2 0x7DB SWAP1 PUSH1 0x1 SWAP1 PUSH2 0x14FC JUMP JUMPDEST PUSH1 0x40 MLOAD DUP1 SWAP2 SUB SWAP1 LOG1 JUMPDEST POP POP POP POP POP POP POP POP POP POP POP POP POP JUMP JUMPDEST PUSH2 0x7FB PUSH2 0x934 JUMP JUMPDEST PUSH1 0x1 PUSH1 0x1 PUSH1 0xA0 SHL SUB DUP2 AND PUSH2 0x825 JUMPI PUSH1 0x0 PUSH1 0x40 MLOAD PUSH4 0x1E4FBDF7 PUSH1 0xE0 SHL DUP2 MSTORE PUSH1 0x4 ADD PUSH2 0x37F SWAP2 SWAP1 PUSH2 0x1405 JUMP JUMPDEST PUSH2 0x82E DUP2 PUSH2 0x966 JUMP JUMPDEST POP JUMP JUMPDEST PUSH2 0x839 PUSH2 0x3AF JUMP JUMPDEST PUSH1 0x1 PUSH1 0x1 PUSH1 0xA0 SHL SUB AND CALLER PUSH1 0x1 PUSH1 0x1 PUSH1 0xA0 SHL SUB AND EQ DUP1 PUSH2 0x862 JUMPI POP PUSH1 0x1 SLOAD PUSH1 0x1 PUSH1 0x1 PUSH1 0xA0 SHL SUB AND CALLER EQ JUMPDEST PUSH2 0x87E JUMPI PUSH1 0x40 MLOAD PUSH3 0x461BCD PUSH1 0xE5 SHL DUP2 MSTORE PUSH1 0x4 ADD PUSH2 0x37F SWAP1 PUSH2 0x16EB JUMP JUMPDEST PUSH1 0x4 DUP1 SLOAD PUSH1 0x40 MLOAD PUSH4 0x607EC5EF PUSH1 0xE1 SHL DUP2 MSTORE PUSH1 0x0 SWAP3 DUP4 SWAP3 DUP4 SWAP3 PUSH1 0x1 PUSH1 0x1 PUSH1 0xA0 SHL SUB SWAP1 SWAP2 AND SWAP2 PUSH4 0xC0FD8BDE SWAP2 PUSH2 0x8B4 SWAP2 DUP9 SWAP2 ADD PUSH2 0x17E9 JUMP JUMPDEST PUSH1 0x0 PUSH1 0x40 MLOAD DUP1 DUP4 SUB DUP2 DUP7 GAS STATICCALL ISZERO DUP1 ISZERO PUSH2 0x8D1 JUMPI RETURNDATASIZE PUSH1 0x0 DUP1 RETURNDATACOPY RETURNDATASIZE PUSH1 0x0 REVERT JUMPDEST POP POP POP POP PUSH1 0x40 MLOAD RETURNDATASIZE PUSH1 0x0 DUP3 RETURNDATACOPY PUSH1 0x1F RETURNDATASIZE SWAP1 DUP2 ADD PUSH1 0x1F NOT AND DUP3 ADD PUSH1 0x40 MSTORE PUSH2 0x8F9 SWAP2 SWAP1 DUP2 ADD SWAP1 PUSH2 0x193D JUMP JUMPDEST SWAP3 POP SWAP3 POP SWAP3 POP DUP2 DUP2 SWAP1 PUSH2 0x91F JUMPI PUSH1 0x40 MLOAD PUSH3 0x461BCD PUSH1 0xE5 SHL DUP2 MSTORE PUSH1 0x4 ADD PUSH2 0x37F SWAP2 SWAP1 PUSH2 0x17E9 JUMP JUMPDEST POP PUSH2 0x92E DUP4 PUSH1 0xE0 ADD MLOAD DUP6 PUSH2 0xA21 JUMP JUMPDEST POP POP POP POP JUMP JUMPDEST CALLER PUSH2 0x93D PUSH2 0x3AF JUMP JUMPDEST PUSH1 0x1 PUSH1 0x1 PUSH1 0xA0 SHL SUB AND EQ PUSH2 0x353 JUMPI CALLER PUSH1 0x40 MLOAD PUSH4 0x118CDAA7 PUSH1 0xE0 SHL DUP2 MSTORE PUSH1 0x4 ADD PUSH2 0x37F SWAP2 SWAP1 PUSH2 0x1405 JUMP JUMPDEST PUSH1 0x0 PUSH2 0x970 PUSH2 0x9C2 JUMP JUMPDEST DUP1 SLOAD PUSH1 0x1 PUSH1 0x1 PUSH1 0xA0 SHL SUB DUP5 DUP2 AND PUSH1 0x1 PUSH1 0x1 PUSH1 0xA0 SHL SUB NOT DUP4 AND DUP2 OR DUP5 SSTORE PUSH1 0x40 MLOAD SWAP4 SWAP5 POP SWAP2 AND SWAP2 DUP3 SWAP1 PUSH32 0x8BE0079C531659141344CD1FD0A4F28419497F9722A3DAAFE3B4186F6B6457E0 SWAP1 PUSH1 0x0 SWAP1 LOG3 POP POP POP JUMP JUMPDEST PUSH32 0x9016D09D72D40FDAE2FD8CEAC6B6234C7706214FD39C1CD1E609A0528C199300 SWAP1 JUMP JUMPDEST PUSH1 0x0 DUP1 PUSH32 0xF0C57E16840DF040F15088DC2F81FE391C3923BEC73E23A9662EFC9C229C6A00 JUMPDEST SWAP3 SWAP2 POP POP JUMP JUMPDEST PUSH2 0xA19 PUSH2 0xA87 JUMP JUMPDEST PUSH2 0x353 PUSH2 0xAAC JUMP JUMPDEST PUSH1 0x0 DUP1 PUSH2 0xA2E DUP5 DUP3 PUSH2 0xADA JUMP JUMPDEST SWAP1 POP PUSH2 0xA3B PUSH1 0x1 DUP4 PUSH2 0x1ABC JUMP JUMPDEST SWAP2 POP DUP1 PUSH1 0xFF AND PUSH1 0x1 EQ DUP1 PUSH2 0xA52 JUMPI POP DUP1 PUSH1 0xFF AND PUSH1 0x3 EQ JUMPDEST ISZERO PUSH2 0xA65 JUMPI PUSH2 0xA60 DUP4 PUSH2 0xB3A JUMP JUMPDEST PUSH2 0x92E JUMP JUMPDEST PUSH2 0x92E PUSH2 0xA82 DUP4 PUSH1 0x1 DUP8 MLOAD PUSH2 0xA7A SWAP2 SWAP1 PUSH2 0x1ACF JUMP JUMPDEST DUP8 SWAP2 SWAP1 PUSH2 0xD00 JUMP JUMPDEST PUSH2 0xDF5 JUMP JUMPDEST PUSH2 0xA8F PUSH2 0x1073 JUMP JUMPDEST PUSH2 0x353 JUMPI PUSH1 0x40 MLOAD PUSH4 0x1AFCD79F PUSH1 0xE3 SHL DUP2 MSTORE PUSH1 0x4 ADD PUSH1 0x40 MLOAD DUP1 SWAP2 SUB SWAP1 REVERT JUMPDEST PUSH2 0xAB4 PUSH2 0xA87 JUMP JUMPDEST PUSH1 0x1 PUSH32 0x9B779B17422D0DF92223018B32B4D1FA46E071723D6817E2486D003BECC55F00 SSTORE JUMP JUMPDEST PUSH1 0x0 DUP2 DUP4 MLOAD GT PUSH2 0xB22 JUMPI PUSH1 0x40 MLOAD PUSH3 0x461BCD PUSH1 0xE5 SHL DUP2 MSTORE PUSH1 0x20 PUSH1 0x4 DUP3 ADD MSTORE PUSH1 0x13 PUSH1 0x24 DUP3 ADD MSTORE PUSH19 0x746F55696E74385F6F75744F66426F756E6473 PUSH1 0x68 SHL PUSH1 0x44 DUP3 ADD MSTORE PUSH1 0x64 ADD PUSH2 0x37F JUMP JUMPDEST PUSH1 0x0 PUSH2 0xB2F PUSH1 0x1 DUP5 PUSH2 0x1ABC JUMP JUMPDEST SWAP1 SWAP4 ADD MLOAD SWAP4 SWAP3 POP POP POP JUMP JUMPDEST PUSH1 0x4 DUP1 SLOAD PUSH1 0x40 MLOAD PUSH4 0x607EC5EF PUSH1 0xE1 SHL DUP2 MSTORE PUSH1 0x0 SWAP3 PUSH1 0x1 PUSH1 0x1 PUSH1 0xA0 SHL SUB SWAP1 SWAP3 AND SWAP2 PUSH4 0xC0FD8BDE SWAP2 PUSH2 0xB6C SWAP2 DUP7 SWAP2 ADD PUSH2 0x17E9 JUMP JUMPDEST PUSH1 0x0 PUSH1 0x40 MLOAD DUP1 DUP4 SUB DUP2 DUP7 GAS STATICCALL ISZERO DUP1 ISZERO PUSH2 0xB89 JUMPI RETURNDATASIZE PUSH1 0x0 DUP1 RETURNDATACOPY RETURNDATASIZE PUSH1 0x0 REVERT JUMPDEST POP POP POP POP PUSH1 0x40 MLOAD RETURNDATASIZE PUSH1 0x0 DUP3 RETURNDATACOPY PUSH1 0x1F RETURNDATASIZE SWAP1 DUP2 ADD PUSH1 0x1F NOT AND DUP3 ADD PUSH1 0x40 MSTORE PUSH2 0xBB1 SWAP2 SWAP1 DUP2 ADD SWAP1 PUSH2 0x193D JUMP JUMPDEST POP POP PUSH1 0xA0 DUP2 ADD MLOAD PUSH1 0x1 PUSH1 0x1 PUSH1 0x40 SHL SUB AND PUSH1 0x0 SWAP1 DUP2 MSTORE PUSH1 0x7 PUSH1 0x20 MSTORE PUSH1 0x40 SWAP1 DUP2 SWAP1 KECCAK256 DUP1 SLOAD PUSH1 0xFF NOT AND PUSH1 0x1 OR SWAP1 SSTORE PUSH1 0x5 SLOAD SWAP1 MLOAD PUSH4 0xC6878519 PUSH1 0xE0 SHL DUP2 MSTORE SWAP2 SWAP3 POP PUSH1 0x1 PUSH1 0x1 PUSH1 0xA0 SHL SUB AND SWAP1 PUSH4 0xC6878519 SWAP1 PUSH2 0xC0C SWAP1 DUP6 SWAP1 PUSH1 0x4 ADD PUSH2 0x17E9 JUMP JUMPDEST PUSH1 0x0 PUSH1 0x40 MLOAD DUP1 DUP4 SUB DUP2 PUSH1 0x0 DUP8 DUP1 EXTCODESIZE ISZERO DUP1 ISZERO PUSH2 0xC26 JUMPI PUSH1 0x0 DUP1 REVERT JUMPDEST POP GAS CALL ISZERO DUP1 ISZERO PUSH2 0xC3A JUMPI RETURNDATASIZE PUSH1 0x0 DUP1 RETURNDATACOPY RETURNDATASIZE PUSH1 0x0 REVERT JUMPDEST POP POP POP POP PUSH1 0xA0 DUP2 ADD MLOAD PUSH1 0x1 PUSH1 0x1 PUSH1 0x40 SHL SUB AND PUSH1 0x0 SWAP1 DUP2 MSTORE PUSH1 0x8 PUSH1 0x20 MSTORE PUSH1 0x40 SWAP1 KECCAK256 SLOAD ISZERO PUSH2 0xCFC JUMPI PUSH1 0xA0 DUP2 ADD MLOAD PUSH1 0x1 PUSH1 0x1 PUSH1 0x40 SHL SUB AND PUSH1 0x0 SWAP1 DUP2 MSTORE PUSH1 0x8 PUSH1 0x20 MSTORE PUSH1 0x40 SWAP1 KECCAK256 SLOAD PUSH1 0x9 DUP1 SLOAD PUSH2 0xCF1 SWAP2 SWAP1 DUP4 SWAP1 DUP2 LT PUSH2 0xC96 JUMPI PUSH2 0xC96 PUSH2 0x1AE2 JUMP JUMPDEST PUSH1 0x0 SWAP2 DUP3 MSTORE PUSH1 0x20 SWAP2 DUP3 SWAP1 KECCAK256 PUSH1 0x40 DUP1 MLOAD PUSH1 0x80 DUP2 ADD DUP3 MSTORE PUSH1 0x4 SWAP1 SWAP4 MUL SWAP1 SWAP2 ADD DUP1 SLOAD PUSH1 0x1 PUSH1 0x1 PUSH1 0xA0 SHL SUB SWAP1 DUP2 AND DUP5 MSTORE PUSH1 0x1 DUP3 ADD SLOAD AND SWAP4 DUP4 ADD SWAP4 SWAP1 SWAP4 MSTORE PUSH1 0x2 DUP4 ADD SLOAD SWAP1 DUP3 ADD MSTORE PUSH1 0x3 SWAP1 SWAP2 ADD SLOAD PUSH1 0x1 PUSH1 0x1 PUSH1 0x40 SHL SUB AND PUSH1 0x60 DUP3 ADD MSTORE PUSH2 0x108D JUMP JUMPDEST PUSH2 0xCFA DUP2 PUSH2 0x1109 JUMP JUMPDEST POP JUMPDEST POP POP JUMP JUMPDEST PUSH1 0x60 DUP2 DUP3 PUSH1 0x1F ADD LT ISZERO PUSH2 0xD46 JUMPI PUSH1 0x40 MLOAD PUSH3 0x461BCD PUSH1 0xE5 SHL DUP2 MSTORE PUSH1 0x20 PUSH1 0x4 DUP3 ADD MSTORE PUSH1 0xE PUSH1 0x24 DUP3 ADD MSTORE PUSH14 0x736C6963655F6F766572666C6F77 PUSH1 0x90 SHL PUSH1 0x44 DUP3 ADD MSTORE PUSH1 0x64 ADD PUSH2 0x37F JUMP JUMPDEST PUSH2 0xD50 DUP3 DUP5 PUSH2 0x1ABC JUMP JUMPDEST DUP5 MLOAD LT ISZERO PUSH2 0xD94 JUMPI PUSH1 0x40 MLOAD PUSH3 0x461BCD PUSH1 0xE5 SHL DUP2 MSTORE PUSH1 0x20 PUSH1 0x4 DUP3 ADD MSTORE PUSH1 0x11 PUSH1 0x24 DUP3 ADD MSTORE PUSH17 0x736C6963655F6F75744F66426F756E6473 PUSH1 0x78 SHL PUSH1 0x44 DUP3 ADD MSTORE PUSH1 0x64 ADD PUSH2 0x37F JUMP JUMPDEST PUSH1 0x40 MLOAD DUP3 ISZERO DUP1 ISZERO PUSH2 0xDAB JUMPI PUSH1 0x20 DUP3 ADD PUSH1 0x40 MSTORE PUSH2 0xDEA JUMP JUMPDEST PUSH1 0x1F DUP5 AND DUP1 ISZERO PUSH1 0x20 MUL DUP2 ADD SWAP1 POP DUP1 DUP4 ADD DUP6 DUP2 ADD DUP8 DUP4 DUP11 ADD ADD JUMPDEST DUP2 DUP4 LT ISZERO PUSH2 0xDDC JUMPI DUP1 MLOAD DUP4 MSTORE PUSH1 0x20 SWAP3 DUP4 ADD SWAP3 ADD PUSH2 0xDC4 JUMP JUMPDEST POP POP PUSH1 0x1F ADD PUSH1 0x1F NOT AND PUSH1 0x40 MSTORE POP JUMPDEST POP SWAP2 DUP3 MSTORE POP SWAP3 SWAP2 POP POP JUMP JUMPDEST DUP1 MLOAD PUSH1 0x40 EQ PUSH2 0xE3D JUMPI PUSH1 0x40 MLOAD PUSH3 0x461BCD PUSH1 0xE5 SHL DUP2 MSTORE PUSH1 0x20 PUSH1 0x4 DUP3 ADD MSTORE PUSH1 0x14 PUSH1 0x24 DUP3 ADD MSTORE PUSH20 0x15DC9BDB99C81B595CDCD859D948199BDC9B585D PUSH1 0x62 SHL PUSH1 0x44 DUP3 ADD MSTORE PUSH1 0x64 ADD PUSH2 0x37F JUMP JUMPDEST PUSH1 0x0 DUP1 PUSH2 0xE4A DUP4 DUP3 PUSH2 0x12E9 JUMP JUMPDEST SWAP1 POP PUSH2 0xE57 PUSH1 0x14 DUP4 PUSH2 0x1ABC JUMP JUMPDEST SWAP2 POP PUSH1 0x0 PUSH2 0xE65 DUP5 DUP5 PUSH2 0x12E9 JUMP JUMPDEST SWAP1 POP PUSH2 0xE72 PUSH1 0x14 DUP5 PUSH2 0x1ABC JUMP JUMPDEST SWAP3 POP PUSH1 0x0 PUSH2 0xE80 DUP6 DUP6 PUSH2 0x134A JUMP JUMPDEST PUSH1 0x1 PUSH1 0x1 PUSH1 0x80 SHL SUB AND SWAP1 POP PUSH2 0xE96 PUSH1 0x10 DUP6 PUSH2 0x1ABC JUMP JUMPDEST SWAP4 POP PUSH1 0x0 PUSH2 0xEA4 DUP7 DUP7 PUSH2 0x13AD JUMP JUMPDEST PUSH1 0x1 PUSH1 0x1 PUSH1 0x40 SHL SUB DUP2 AND PUSH1 0x0 SWAP1 DUP2 MSTORE PUSH1 0x7 PUSH1 0x20 MSTORE PUSH1 0x40 SWAP1 KECCAK256 SLOAD SWAP1 SWAP2 POP PUSH1 0xFF AND ISZERO PUSH2 0xF3F JUMPI PUSH1 0x40 MLOAD PUSH4 0xA9059CBB PUSH1 0xE0 SHL DUP2 MSTORE PUSH1 0x1 PUSH1 0x1 PUSH1 0xA0 SHL SUB DUP5 AND SWAP1 PUSH4 0xA9059CBB SWAP1 PUSH2 0xEF6 SWAP1 DUP8 SWAP1 DUP7 SWAP1 PUSH1 0x4 ADD PUSH2 0x172D JUMP JUMPDEST PUSH1 0x20 PUSH1 0x40 MLOAD DUP1 DUP4 SUB DUP2 PUSH1 0x0 DUP8 GAS CALL ISZERO DUP1 ISZERO PUSH2 0xF15 JUMPI RETURNDATASIZE PUSH1 0x0 DUP1 RETURNDATACOPY RETURNDATASIZE PUSH1 0x0 REVERT JUMPDEST POP POP POP POP PUSH1 0x40 MLOAD RETURNDATASIZE PUSH1 0x1F NOT PUSH1 0x1F DUP3 ADD AND DUP3 ADD DUP1 PUSH1 0x40 MSTORE POP DUP2 ADD SWAP1 PUSH2 0xF39 SWAP2 SWAP1 PUSH2 0x1756 JUMP JUMPDEST POP PUSH2 0x106B JUMP JUMPDEST PUSH1 0x40 DUP1 MLOAD PUSH1 0x80 DUP2 ADD DUP3 MSTORE PUSH1 0x1 PUSH1 0x1 PUSH1 0xA0 SHL SUB DUP1 DUP8 AND DUP3 MSTORE DUP6 DUP2 AND PUSH1 0x20 DUP1 DUP5 ADD SWAP2 DUP3 MSTORE DUP4 DUP6 ADD DUP8 DUP2 MSTORE PUSH1 0x1 PUSH1 0x1 PUSH1 0x40 SHL SUB DUP1 DUP9 AND PUSH1 0x60 DUP8 ADD DUP2 DUP2 MSTORE PUSH1 0x9 DUP1 SLOAD PUSH1 0x1 DUP2 ADD DUP3 SSTORE PUSH1 0x0 DUP3 DUP2 MSTORE SWAP10 MLOAD PUSH1 0x4 SWAP1 SWAP2 MUL PUSH32 0x6E1540171B6C0C960B71A7020D9F60077F6AF931A8BBF590DA0223DACF75C7AF DUP2 ADD DUP1 SLOAD SWAP3 DUP12 AND PUSH1 0x1 PUSH1 0x1 PUSH1 0xA0 SHL SUB NOT SWAP4 DUP5 AND OR SWAP1 SSTORE SWAP8 MLOAD PUSH32 0x6E1540171B6C0C960B71A7020D9F60077F6AF931A8BBF590DA0223DACF75C7B0 DUP10 ADD DUP1 SLOAD SWAP2 SWAP1 SWAP11 AND SWAP2 AND OR SWAP1 SWAP8 SSTORE SWAP3 MLOAD PUSH32 0x6E1540171B6C0C960B71A7020D9F60077F6AF931A8BBF590DA0223DACF75C7B1 DUP7 ADD SSTORE SWAP2 MLOAD PUSH32 0x6E1540171B6C0C960B71A7020D9F60077F6AF931A8BBF590DA0223DACF75C7B2 SWAP1 SWAP5 ADD DUP1 SLOAD SWAP5 SWAP1 SWAP2 AND PUSH1 0x1 PUSH1 0x1 PUSH1 0x40 SHL SUB NOT SWAP1 SWAP5 AND SWAP4 SWAP1 SWAP4 OR SWAP1 SWAP3 SSTORE SWAP2 SLOAD SWAP1 DUP4 MSTORE PUSH1 0x8 SWAP1 SWAP2 MSTORE SWAP2 SWAP1 KECCAK256 SSTORE JUMPDEST POP POP POP POP POP POP JUMP JUMPDEST PUSH1 0x0 PUSH2 0x107D PUSH2 0x9E6 JUMP JUMPDEST SLOAD PUSH1 0x1 PUSH1 0x40 SHL SWAP1 DIV PUSH1 0xFF AND SWAP2 SWAP1 POP JUMP JUMPDEST PUSH1 0x20 DUP2 ADD MLOAD DUP2 MLOAD PUSH1 0x40 DUP1 DUP5 ADD MLOAD SWAP1 MLOAD PUSH4 0xA9059CBB PUSH1 0xE0 SHL DUP2 MSTORE PUSH1 0x1 PUSH1 0x1 PUSH1 0xA0 SHL SUB SWAP1 SWAP4 AND SWAP3 PUSH4 0xA9059CBB SWAP3 PUSH2 0x10C6 SWAP3 SWAP1 SWAP2 PUSH1 0x4 ADD PUSH2 0x172D JUMP JUMPDEST PUSH1 0x20 PUSH1 0x40 MLOAD DUP1 DUP4 SUB DUP2 PUSH1 0x0 DUP8 GAS CALL ISZERO DUP1 ISZERO PUSH2 0x10E5 JUMPI RETURNDATASIZE PUSH1 0x0 DUP1 RETURNDATACOPY RETURNDATASIZE PUSH1 0x0 REVERT JUMPDEST POP POP POP POP PUSH1 0x40 MLOAD RETURNDATASIZE PUSH1 0x1F NOT PUSH1 0x1F DUP3 ADD AND DUP3 ADD DUP1 PUSH1 0x40 MSTORE POP DUP2 ADD SWAP1 PUSH2 0xCFC SWAP2 SWAP1 PUSH2 0x1756 JUMP JUMPDEST PUSH1 0x9 SLOAD PUSH1 0x1 DUP2 SWAP1 SUB PUSH2 0x1175 JUMPI PUSH1 0x9 DUP1 SLOAD DUP1 PUSH2 0x1126 JUMPI PUSH2 0x1126 PUSH2 0x1AF8 JUMP JUMPDEST PUSH1 0x0 DUP3 DUP2 MSTORE PUSH1 0x20 DUP2 KECCAK256 PUSH1 0x4 PUSH1 0x0 NOT SWAP1 SWAP4 ADD SWAP3 DUP4 MUL ADD DUP1 SLOAD PUSH1 0x1 PUSH1 0x1 PUSH1 0xA0 SHL SUB NOT SWAP1 DUP2 AND DUP3 SSTORE PUSH1 0x1 DUP3 ADD DUP1 SLOAD SWAP1 SWAP2 AND SWAP1 SSTORE PUSH1 0x2 DUP2 ADD SWAP2 SWAP1 SWAP2 SSTORE PUSH1 0x3 ADD DUP1 SLOAD PUSH1 0x1 PUSH1 0x1 PUSH1 0x40 SHL SUB NOT AND SWAP1 SSTORE SWAP1 SSTORE POP POP JUMP JUMPDEST PUSH1 0x0 PUSH1 0x9 PUSH2 0x1184 PUSH1 0x1 DUP5 PUSH2 0x1ACF JUMP JUMPDEST DUP2 SLOAD DUP2 LT PUSH2 0x1194 JUMPI PUSH2 0x1194 PUSH2 0x1AE2 JUMP JUMPDEST PUSH1 0x0 SWAP2 DUP3 MSTORE PUSH1 0x20 SWAP2 DUP3 SWAP1 KECCAK256 PUSH1 0x40 DUP1 MLOAD PUSH1 0x80 DUP2 ADD DUP3 MSTORE PUSH1 0x4 SWAP1 SWAP4 MUL SWAP1 SWAP2 ADD DUP1 SLOAD PUSH1 0x1 PUSH1 0x1 PUSH1 0xA0 SHL SUB SWAP1 DUP2 AND DUP5 MSTORE PUSH1 0x1 DUP3 ADD SLOAD AND SWAP4 DUP4 ADD SWAP4 SWAP1 SWAP4 MSTORE PUSH1 0x2 DUP4 ADD SLOAD SWAP1 DUP3 ADD MSTORE PUSH1 0x3 SWAP1 SWAP2 ADD SLOAD PUSH1 0x1 PUSH1 0x1 PUSH1 0x40 SHL SUB AND PUSH1 0x60 DUP3 ADD MSTORE PUSH1 0x9 DUP1 SLOAD SWAP2 SWAP3 POP DUP3 SWAP2 DUP6 SWAP1 DUP2 LT PUSH2 0x1203 JUMPI PUSH2 0x1203 PUSH2 0x1AE2 JUMP JUMPDEST PUSH1 0x0 SWAP2 DUP3 MSTORE PUSH1 0x20 DUP1 DUP4 KECCAK256 DUP5 MLOAD PUSH1 0x4 SWAP1 SWAP4 MUL ADD DUP1 SLOAD PUSH1 0x1 PUSH1 0x1 PUSH1 0xA0 SHL SUB SWAP4 DUP5 AND PUSH1 0x1 PUSH1 0x1 PUSH1 0xA0 SHL SUB NOT SWAP2 DUP3 AND OR DUP3 SSTORE DUP6 DUP4 ADD MLOAD PUSH1 0x1 DUP4 ADD DUP1 SLOAD SWAP2 SWAP1 SWAP6 AND SWAP2 AND OR SWAP1 SWAP3 SSTORE PUSH1 0x40 DUP1 DUP6 ADD MLOAD PUSH1 0x2 DUP5 ADD SSTORE PUSH1 0x60 SWAP5 DUP6 ADD MLOAD PUSH1 0x3 SWAP1 SWAP4 ADD DUP1 SLOAD PUSH1 0x1 PUSH1 0x1 PUSH1 0x40 SHL SUB SWAP5 DUP6 AND PUSH1 0x1 PUSH1 0x1 PUSH1 0x40 SHL SUB NOT SWAP1 SWAP2 AND OR SWAP1 SSTORE SWAP4 DUP6 ADD MLOAD SWAP1 SWAP2 AND DUP3 MSTORE PUSH1 0x8 SWAP1 MSTORE KECCAK256 DUP4 SWAP1 SSTORE PUSH1 0x9 DUP1 SLOAD DUP1 PUSH2 0x1299 JUMPI PUSH2 0x1299 PUSH2 0x1AF8 JUMP JUMPDEST PUSH1 0x0 DUP3 DUP2 MSTORE PUSH1 0x20 DUP2 KECCAK256 PUSH1 0x4 PUSH1 0x0 NOT SWAP1 SWAP4 ADD SWAP3 DUP4 MUL ADD DUP1 SLOAD PUSH1 0x1 PUSH1 0x1 PUSH1 0xA0 SHL SUB NOT SWAP1 DUP2 AND DUP3 SSTORE PUSH1 0x1 DUP3 ADD DUP1 SLOAD SWAP1 SWAP2 AND SWAP1 SSTORE PUSH1 0x2 DUP2 ADD SWAP2 SWAP1 SWAP2 SSTORE PUSH1 0x3 ADD DUP1 SLOAD PUSH1 0x1 PUSH1 0x1 PUSH1 0x40 SHL SUB NOT AND SWAP1 SSTORE SWAP1 SSTORE POP POP POP JUMP JUMPDEST PUSH1 0x0 PUSH2 0x12F6 PUSH1 0x14 DUP4 PUSH2 0x1ABC JUMP JUMPDEST DUP4 MLOAD LT ISZERO PUSH2 0x133E JUMPI PUSH1 0x40 MLOAD PUSH3 0x461BCD PUSH1 0xE5 SHL DUP2 MSTORE PUSH1 0x20 PUSH1 0x4 DUP3 ADD MSTORE PUSH1 0x15 PUSH1 0x24 DUP3 ADD MSTORE PUSH21 0x746F416464726573735F6F75744F66426F756E6473 PUSH1 0x58 SHL PUSH1 0x44 DUP3 ADD MSTORE PUSH1 0x64 ADD PUSH2 0x37F JUMP JUMPDEST POP ADD PUSH1 0x20 ADD MLOAD PUSH1 0x60 SHR SWAP1 JUMP JUMPDEST PUSH1 0x0 DUP1 PUSH2 0x1358 PUSH1 0x10 DUP5 PUSH2 0x1ABC JUMP JUMPDEST SWAP1 POP DUP1 DUP5 MLOAD LT ISZERO PUSH2 0x13A3 JUMPI PUSH1 0x40 MLOAD PUSH3 0x461BCD PUSH1 0xE5 SHL DUP2 MSTORE PUSH1 0x20 PUSH1 0x4 DUP3 ADD MSTORE PUSH1 0x15 PUSH1 0x24 DUP3 ADD MSTORE PUSH21 0x746F55696E743132385F6F75744F66426F756E6473 PUSH1 0x58 SHL PUSH1 0x44 DUP3 ADD MSTORE PUSH1 0x64 ADD PUSH2 0x37F JUMP JUMPDEST SWAP1 SWAP3 ADD MLOAD SWAP3 SWAP2 POP POP JUMP JUMPDEST PUSH1 0x0 DUP1 PUSH2 0x13BB PUSH1 0x8 DUP5 PUSH2 0x1ABC JUMP JUMPDEST SWAP1 POP DUP1 DUP5 MLOAD LT ISZERO PUSH2 0x13A3 JUMPI PUSH1 0x40 MLOAD PUSH3 0x461BCD PUSH1 0xE5 SHL DUP2 MSTORE PUSH1 0x20 PUSH1 0x4 DUP3 ADD MSTORE PUSH1 0x14 PUSH1 0x24 DUP3 ADD MSTORE PUSH20 0x746F55696E7436345F6F75744F66426F756E6473 PUSH1 0x60 SHL PUSH1 0x44 DUP3 ADD MSTORE PUSH1 0x64 ADD PUSH2 0x37F JUMP JUMPDEST PUSH1 0x1 PUSH1 0x1 PUSH1 0xA0 SHL SUB SWAP2 SWAP1 SWAP2 AND DUP2 MSTORE PUSH1 0x20 ADD SWAP1 JUMP JUMPDEST DUP1 CALLDATALOAD PUSH1 0x1 PUSH1 0x1 PUSH1 0xA0 SHL SUB DUP2 AND DUP2 EQ PUSH2 0x1430 JUMPI PUSH1 0x0 DUP1 REVERT JUMPDEST SWAP2 SWAP1 POP JUMP JUMPDEST PUSH1 0x0 PUSH1 0x20 DUP3 DUP5 SUB SLT ISZERO PUSH2 0x1447 JUMPI PUSH1 0x0 DUP1 REVERT JUMPDEST PUSH2 0x1450 DUP3 PUSH2 0x1419 JUMP JUMPDEST SWAP4 SWAP3 POP POP POP JUMP JUMPDEST PUSH1 0x0 PUSH1 0x20 DUP3 DUP5 SUB SLT ISZERO PUSH2 0x1469 JUMPI PUSH1 0x0 DUP1 REVERT JUMPDEST POP CALLDATALOAD SWAP2 SWAP1 POP JUMP JUMPDEST PUSH1 0x1 PUSH1 0x1 PUSH1 0x40 SHL SUB DUP2 AND DUP2 EQ PUSH2 0x82E JUMPI PUSH1 0x0 DUP1 REVERT JUMPDEST PUSH1 0x0 PUSH1 0x20 DUP3 DUP5 SUB SLT ISZERO PUSH2 0x1497 JUMPI PUSH1 0x0 DUP1 REVERT JUMPDEST DUP2 CALLDATALOAD PUSH2 0x1450 DUP2 PUSH2 0x1470 JUMP JUMPDEST PUSH4 0xFFFFFFFF DUP2 AND DUP2 EQ PUSH2 0x82E JUMPI PUSH1 0x0 DUP1 REVERT JUMPDEST PUSH1 0x0 DUP1 PUSH1 0x0 DUP1 PUSH1 0x80 DUP6 DUP8 SUB SLT ISZERO PUSH2 0x14CA JUMPI PUSH1 0x0 DUP1 REVERT JUMPDEST PUSH2 0x14D3 DUP6 PUSH2 0x1419 JUMP JUMPDEST SWAP4 POP PUSH1 0x20 DUP6 ADD CALLDATALOAD SWAP3 POP PUSH1 0x40 DUP6 ADD CALLDATALOAD SWAP2 POP PUSH1 0x60 DUP6 ADD CALLDATALOAD PUSH2 0x14F1 DUP2 PUSH2 0x14A2 JUMP JUMPDEST SWAP4 SWAP7 SWAP3 SWAP6 POP SWAP1 SWAP4 POP POP JUMP JUMPDEST PUSH1 0x1 PUSH1 0x1 PUSH1 0x40 SHL SUB SWAP2 SWAP1 SWAP2 AND DUP2 MSTORE PUSH1 0x20 ADD SWAP1 JUMP JUMPDEST PUSH2 0xFFFF DUP2 AND DUP2 EQ PUSH2 0x82E JUMPI PUSH1 0x0 DUP1 REVERT JUMPDEST PUSH1 0x0 DUP1 PUSH1 0x0 DUP1 PUSH1 0x0 DUP1 PUSH1 0x0 DUP1 PUSH2 0x100 DUP10 DUP12 SUB SLT ISZERO PUSH2 0x153D JUMPI PUSH1 0x0 DUP1 REVERT JUMPDEST PUSH2 0x1546 DUP10 PUSH2 0x1419 JUMP JUMPDEST SWAP8 POP PUSH2 0x1554 PUSH1 0x20 DUP11 ADD PUSH2 0x1419 JUMP JUMPDEST SWAP7 POP PUSH2 0x1562 PUSH1 0x40 DUP11 ADD PUSH2 0x1419 JUMP JUMPDEST SWAP6 POP PUSH1 0x60 DUP10 ADD CALLDATALOAD SWAP5 POP PUSH2 0x1577 PUSH1 0x80 DUP11 ADD PUSH2 0x1419 JUMP JUMPDEST SWAP4 POP PUSH2 0x1585 PUSH1 0xA0 DUP11 ADD PUSH2 0x1419 JUMP JUMPDEST SWAP3 POP PUSH2 0x1593 PUSH1 0xC0 DUP11 ADD PUSH2 0x1419 JUMP JUMPDEST SWAP2 POP PUSH1 0xE0 DUP10 ADD CALLDATALOAD PUSH2 0x15A3 DUP2 PUSH2 0x1510 JUMP JUMPDEST DUP1 SWAP2 POP POP SWAP3 SWAP6 SWAP9 POP SWAP3 SWAP6 SWAP9 SWAP1 SWAP4 SWAP7 POP JUMP JUMPDEST PUSH4 0x4E487B71 PUSH1 0xE0 SHL PUSH1 0x0 MSTORE PUSH1 0x41 PUSH1 0x4 MSTORE PUSH1 0x24 PUSH1 0x0 REVERT JUMPDEST PUSH1 0x40 MLOAD PUSH1 0x80 DUP2 ADD PUSH1 0x1 PUSH1 0x1 PUSH1 0x40 SHL SUB DUP2 GT DUP3 DUP3 LT OR ISZERO PUSH2 0x15EC JUMPI PUSH2 0x15EC PUSH2 0x15B4 JUMP JUMPDEST PUSH1 0x40 MSTORE SWAP1 JUMP JUMPDEST PUSH1 0x40 MLOAD PUSH2 0x160 DUP2 ADD PUSH1 0x1 PUSH1 0x1 PUSH1 0x40 SHL SUB DUP2 GT DUP3 DUP3 LT OR ISZERO PUSH2 0x15EC JUMPI PUSH2 0x15EC PUSH2 0x15B4 JUMP JUMPDEST PUSH1 0x40 MLOAD PUSH1 0x1F DUP3 ADD PUSH1 0x1F NOT AND DUP2 ADD PUSH1 0x1 PUSH1 0x1 PUSH1 0x40 SHL SUB DUP2 GT DUP3 DUP3 LT OR ISZERO PUSH2 0x163D JUMPI PUSH2 0x163D PUSH2 0x15B4 JUMP JUMPDEST PUSH1 0x40 MSTORE SWAP2 SWAP1 POP JUMP JUMPDEST PUSH1 0x0 PUSH1 0x1 PUSH1 0x1 PUSH1 0x40 SHL SUB DUP3 GT ISZERO PUSH2 0x165E JUMPI PUSH2 0x165E PUSH2 0x15B4 JUMP JUMPDEST POP PUSH1 0x1F ADD PUSH1 0x1F NOT AND PUSH1 0x20 ADD SWAP1 JUMP JUMPDEST PUSH1 0x0 PUSH1 0x20 DUP3 DUP5 SUB SLT ISZERO PUSH2 0x167E JUMPI PUSH1 0x0 DUP1 REVERT JUMPDEST DUP2 CALLDATALOAD PUSH1 0x1 PUSH1 0x1 PUSH1 0x40 SHL SUB DUP2 GT ISZERO PUSH2 0x1694 JUMPI PUSH1 0x0 DUP1 REVERT JUMPDEST DUP3 ADD PUSH1 0x1F DUP2 ADD DUP5 SGT PUSH2 0x16A5 JUMPI PUSH1 0x0 DUP1 REVERT JUMPDEST DUP1 CALLDATALOAD PUSH2 0x16B8 PUSH2 0x16B3 DUP3 PUSH2 0x1645 JUMP JUMPDEST PUSH2 0x1615 JUMP JUMPDEST DUP2 DUP2 MSTORE DUP6 PUSH1 0x20 DUP4 DUP6 ADD ADD GT ISZERO PUSH2 0x16CD JUMPI PUSH1 0x0 DUP1 REVERT JUMPDEST DUP2 PUSH1 0x20 DUP5 ADD PUSH1 0x20 DUP4 ADD CALLDATACOPY PUSH1 0x0 SWAP2 DUP2 ADD PUSH1 0x20 ADD SWAP2 SWAP1 SWAP2 MSTORE SWAP5 SWAP4 POP POP POP POP JUMP JUMPDEST PUSH1 0x20 DUP1 DUP3 MSTORE PUSH1 0xF SWAP1 DUP3 ADD MSTORE PUSH15 0x4E6F7420417574686F72697A656421 PUSH1 0x88 SHL PUSH1 0x40 DUP3 ADD MSTORE PUSH1 0x60 ADD SWAP1 JUMP JUMPDEST PUSH1 0x0 PUSH1 0x20 DUP3 DUP5 SUB SLT ISZERO PUSH2 0x1726 JUMPI PUSH1 0x0 DUP1 REVERT JUMPDEST POP MLOAD SWAP2 SWAP1 POP JUMP JUMPDEST PUSH1 0x1 PUSH1 0x1 PUSH1 0xA0 SHL SUB SWAP3 SWAP1 SWAP3 AND DUP3 MSTORE PUSH1 0x20 DUP3 ADD MSTORE PUSH1 0x40 ADD SWAP1 JUMP JUMPDEST DUP1 MLOAD DUP1 ISZERO ISZERO DUP2 EQ PUSH2 0x1430 JUMPI PUSH1 0x0 DUP1 REVERT JUMPDEST PUSH1 0x0 PUSH1 0x20 DUP3 DUP5 SUB SLT ISZERO PUSH2 0x1768 JUMPI PUSH1 0x0 DUP1 REVERT JUMPDEST PUSH2 0x1450 DUP3 PUSH2 0x1746 JUMP JUMPDEST DUP1 MLOAD PUSH2 0x1430 DUP2 PUSH2 0x1470 JUMP JUMPDEST PUSH1 0x0 PUSH1 0x20 DUP3 DUP5 SUB SLT ISZERO PUSH2 0x178E JUMPI PUSH1 0x0 DUP1 REVERT JUMPDEST DUP2 MLOAD PUSH2 0x1450 DUP2 PUSH2 0x1470 JUMP JUMPDEST PUSH1 0x0 JUMPDEST DUP4 DUP2 LT ISZERO PUSH2 0x17B4 JUMPI DUP2 DUP2 ADD MLOAD DUP4 DUP3 ADD MSTORE PUSH1 0x20 ADD PUSH2 0x179C JUMP JUMPDEST POP POP PUSH1 0x0 SWAP2 ADD MSTORE JUMP JUMPDEST PUSH1 0x0 DUP2 MLOAD DUP1 DUP5 MSTORE PUSH2 0x17D5 DUP2 PUSH1 0x20 DUP7 ADD PUSH1 0x20 DUP7 ADD PUSH2 0x1799 JUMP JUMPDEST PUSH1 0x1F ADD PUSH1 0x1F NOT AND SWAP3 SWAP1 SWAP3 ADD PUSH1 0x20 ADD SWAP3 SWAP2 POP POP JUMP JUMPDEST PUSH1 0x20 DUP2 MSTORE PUSH1 0x0 PUSH2 0x1450 PUSH1 0x20 DUP4 ADD DUP5 PUSH2 0x17BD JUMP JUMPDEST DUP1 MLOAD PUSH1 0xFF DUP2 AND DUP2 EQ PUSH2 0x1430 JUMPI PUSH1 0x0 DUP1 REVERT JUMPDEST DUP1 MLOAD PUSH2 0x1430 DUP2 PUSH2 0x14A2 JUMP JUMPDEST DUP1 MLOAD PUSH2 0x1430 DUP2 PUSH2 0x1510 JUMP JUMPDEST PUSH1 0x0 DUP3 PUSH1 0x1F DUP4 ADD SLT PUSH2 0x1834 JUMPI PUSH1 0x0 DUP1 REVERT JUMPDEST DUP2 MLOAD PUSH1 0x20 DUP4 ADD PUSH1 0x0 PUSH2 0x1848 PUSH2 0x16B3 DUP5 PUSH2 0x1645 JUMP JUMPDEST SWAP1 POP DUP3 DUP2 MSTORE DUP6 DUP4 DUP4 ADD GT ISZERO PUSH2 0x185C JUMPI PUSH1 0x0 DUP1 REVERT JUMPDEST PUSH2 0x186A DUP4 PUSH1 0x20 DUP4 ADD DUP5 PUSH2 0x1799 JUMP JUMPDEST SWAP6 SWAP5 POP POP POP POP POP JUMP JUMPDEST PUSH1 0x0 DUP3 PUSH1 0x1F DUP4 ADD SLT PUSH2 0x1884 JUMPI PUSH1 0x0 DUP1 REVERT JUMPDEST DUP2 MLOAD PUSH1 0x1 PUSH1 0x1 PUSH1 0x40 SHL SUB DUP2 GT ISZERO PUSH2 0x189D JUMPI PUSH2 0x189D PUSH2 0x15B4 JUMP JUMPDEST PUSH2 0x18AC PUSH1 0x20 DUP3 PUSH1 0x5 SHL ADD PUSH2 0x1615 JUMP JUMPDEST DUP1 DUP3 DUP3 MSTORE PUSH1 0x20 DUP3 ADD SWAP2 POP PUSH1 0x20 DUP4 PUSH1 0x7 SHL DUP7 ADD ADD SWAP3 POP DUP6 DUP4 GT ISZERO PUSH2 0x18CE JUMPI PUSH1 0x0 DUP1 REVERT JUMPDEST PUSH1 0x20 DUP6 ADD JUMPDEST DUP4 DUP2 LT ISZERO PUSH2 0x1933 JUMPI PUSH1 0x80 DUP2 DUP9 SUB SLT ISZERO PUSH2 0x18EB JUMPI PUSH1 0x0 DUP1 REVERT JUMPDEST PUSH2 0x18F3 PUSH2 0x15CA JUMP JUMPDEST DUP2 MLOAD DUP2 MSTORE PUSH1 0x20 DUP1 DUP4 ADD MLOAD SWAP1 DUP3 ADD MSTORE PUSH2 0x190D PUSH1 0x40 DUP4 ADD PUSH2 0x17FC JUMP JUMPDEST PUSH1 0x40 DUP3 ADD MSTORE PUSH2 0x191E PUSH1 0x60 DUP4 ADD PUSH2 0x17FC JUMP JUMPDEST PUSH1 0x60 DUP3 ADD MSTORE DUP4 MSTORE PUSH1 0x20 SWAP1 SWAP3 ADD SWAP2 PUSH1 0x80 ADD PUSH2 0x18D3 JUMP JUMPDEST POP SWAP6 SWAP5 POP POP POP POP POP JUMP JUMPDEST PUSH1 0x0 DUP1 PUSH1 0x0 PUSH1 0x60 DUP5 DUP7 SUB SLT ISZERO PUSH2 0x1952 JUMPI PUSH1 0x0 DUP1 REVERT JUMPDEST DUP4 MLOAD PUSH1 0x1 PUSH1 0x1 PUSH1 0x40 SHL SUB DUP2 GT ISZERO PUSH2 0x1968 JUMPI PUSH1 0x0 DUP1 REVERT JUMPDEST DUP5 ADD PUSH2 0x160 DUP2 DUP8 SUB SLT ISZERO PUSH2 0x197B JUMPI PUSH1 0x0 DUP1 REVERT JUMPDEST PUSH2 0x1983 PUSH2 0x15F2 JUMP JUMPDEST PUSH2 0x198C DUP3 PUSH2 0x17FC JUMP JUMPDEST DUP2 MSTORE PUSH2 0x199A PUSH1 0x20 DUP4 ADD PUSH2 0x180D JUMP JUMPDEST PUSH1 0x20 DUP3 ADD MSTORE PUSH2 0x19AB PUSH1 0x40 DUP4 ADD PUSH2 0x180D JUMP JUMPDEST PUSH1 0x40 DUP3 ADD MSTORE PUSH2 0x19BC PUSH1 0x60 DUP4 ADD PUSH2 0x1818 JUMP JUMPDEST PUSH1 0x60 DUP3 ADD MSTORE PUSH1 0x80 DUP3 DUP2 ADD MLOAD SWAP1 DUP3 ADD MSTORE PUSH2 0x19D7 PUSH1 0xA0 DUP4 ADD PUSH2 0x1771 JUMP JUMPDEST PUSH1 0xA0 DUP3 ADD MSTORE PUSH2 0x19E8 PUSH1 0xC0 DUP4 ADD PUSH2 0x17FC JUMP JUMPDEST PUSH1 0xC0 DUP3 ADD MSTORE PUSH1 0xE0 DUP3 ADD MLOAD PUSH1 0x1 PUSH1 0x1 PUSH1 0x40 SHL SUB DUP2 GT ISZERO PUSH2 0x1A06 JUMPI PUSH1 0x0 DUP1 REVERT JUMPDEST PUSH2 0x1A12 DUP9 DUP3 DUP6 ADD PUSH2 0x1823 JUMP JUMPDEST PUSH1 0xE0 DUP4 ADD MSTORE POP PUSH2 0x1A25 PUSH2 0x100 DUP4 ADD PUSH2 0x180D JUMP JUMPDEST PUSH2 0x100 DUP3 ADD MSTORE PUSH2 0x120 DUP3 ADD MLOAD PUSH1 0x1 PUSH1 0x1 PUSH1 0x40 SHL SUB DUP2 GT ISZERO PUSH2 0x1A45 JUMPI PUSH1 0x0 DUP1 REVERT JUMPDEST PUSH2 0x1A51 DUP9 DUP3 DUP6 ADD PUSH2 0x1873 JUMP JUMPDEST PUSH2 0x120 DUP4 ADD MSTORE POP PUSH2 0x140 SWAP2 DUP3 ADD MLOAD SWAP2 DUP2 ADD SWAP2 SWAP1 SWAP2 MSTORE SWAP3 POP PUSH2 0x1A74 PUSH1 0x20 DUP6 ADD PUSH2 0x1746 JUMP JUMPDEST PUSH1 0x40 DUP6 ADD MLOAD SWAP1 SWAP3 POP PUSH1 0x1 PUSH1 0x1 PUSH1 0x40 SHL SUB DUP2 GT ISZERO PUSH2 0x1A90 JUMPI PUSH1 0x0 DUP1 REVERT JUMPDEST PUSH2 0x1A9C DUP7 DUP3 DUP8 ADD PUSH2 0x1823 JUMP JUMPDEST SWAP2 POP POP SWAP3 POP SWAP3 POP SWAP3 JUMP JUMPDEST PUSH4 0x4E487B71 PUSH1 0xE0 SHL PUSH1 0x0 MSTORE PUSH1 0x11 PUSH1 0x4 MSTORE PUSH1 0x24 PUSH1 0x0 REVERT JUMPDEST DUP1 DUP3 ADD DUP1 DUP3 GT ISZERO PUSH2 0xA0B JUMPI PUSH2 0xA0B PUSH2 0x1AA6 JUMP JUMPDEST DUP2 DUP2 SUB DUP2 DUP2 GT ISZERO PUSH2 0xA0B JUMPI PUSH2 0xA0B PUSH2 0x1AA6 JUMP JUMPDEST PUSH4 0x4E487B71 PUSH1 0xE0 SHL PUSH1 0x0 MSTORE PUSH1 0x32 PUSH1 0x4 MSTORE PUSH1 0x24 PUSH1 0x0 REVERT JUMPDEST PUSH4 0x4E487B71 PUSH1 0xE0 SHL PUSH1 0x0 MSTORE PUSH1 0x31 PUSH1 0x4 MSTORE PUSH1 0x24 PUSH1 0x0 REVERT INVALID LOG2 PUSH5 0x6970667358 0x22 SLT KECCAK256 EXTCODESIZE CALL RETURNDATASIZE SHR SWAP5 0xD2 PUSH32 0x69C2E33CB39C15958684E044E89F6FEEB309CD27A14F1ED9B64736F6C634300 ADDMOD SHR STOP CALLER "},"gasEstimates":{"creation":{"codeDepositCost":"1396000","executionCost":"1458","totalCost":"1397458"},"external":{"acceptAdminRole()":"54656","agent()":"2713","changeAgent(address)":"26864","factory()":"2625","initialize(address,address,address,bytes32,address,address,address,uint16)":"infinite","isReceive(uint64)":"2767","owner()":"2586","pendingAdmin()":"2339","proposeNewAdmin(address)":"27040","receiveMessage(bytes)":"infinite","renounceOwnership()":"infinite","requestPosition(uint64)":"2623","tokenBridge()":"2647","transferOwnership(address)":"infinite","transferRequest(uint256)":"11141","transferTokenBackToSmartWallet(address,uint256,uint256,uint32)":"infinite","user()":"2317","weth()":"2361","wormhole()":"2493"},"internal":{"_executeTransferRequest(struct TransferToken memory)":"infinite","_handleMessage(bytes memory,bytes memory)":"infinite","_handleTransfer(bytes memory)":"infinite","_receiveTokenMessage(bytes memory)":"infinite"}},"methodIdentifiers":{"acceptAdminRole()":"8c3d7301","agent()":"f5ff5c76","changeAgent(address)":"57f032e7","factory()":"c45a0155","initialize(address,address,address,bytes32,address,address,address,uint16)":"cbd83a19","isReceive(uint64)":"b1a88408","owner()":"8da5cb5b","pendingAdmin()":"26782247","proposeNewAdmin(address)":"a6376746","receiveMessage(bytes)":"f953cec7","renounceOwnership()":"715018a6","requestPosition(uint64)":"7544776b","tokenBridge()":"c6328a46","transferOwnership(address)":"f2fde38b","transferRequest(uint256)":"6264136e","transferTokenBackToSmartWallet(address,uint256,uint256,uint32)":"92f70709","user()":"4f8632ba","weth()":"3fc8cef3","wormhole()":"84acd1bb"}},"storageLayout":{"storage":[{"astId":1715,"contract":"contracts/core/SmartWallet.sol:SmartWallet","label":"user","offset":0,"slot":"0","type":"t_bytes32"},{"astId":1717,"contract":"contracts/core/SmartWallet.sol:SmartWallet","label":"agent","offset":0,"slot":"1","type":"t_address"},{"astId":1719,"contract":"contracts/core/SmartWallet.sol:SmartWallet","label":"pendingAdmin","offset":0,"slot":"2","type":"t_address"},{"astId":1722,"contract":"contracts/core/SmartWallet.sol:SmartWallet","label":"factory","offset":0,"slot":"3","type":"t_contract(ISmartWalletFactory)1897"},{"astId":1725,"contract":"contracts/core/SmartWallet.sol:SmartWallet","label":"wormhole","offset":0,"slot":"4","type":"t_contract(IWormhole)2635"},{"astId":1728,"contract":"contracts/core/SmartWallet.sol:SmartWallet","label":"tokenBridge","offset":0,"slot":"5","type":"t_contract(ITokenBridge)2305"},{"astId":1731,"contract":"contracts/core/SmartWallet.sol:SmartWallet","label":"weth","offset":0,"slot":"6","type":"t_contract(IWETH)2319"},{"astId":1733,"contract":"contracts/core/SmartWallet.sol:SmartWallet","label":"chainId","offset":20,"slot":"6","type":"t_uint16"},{"astId":1737,"contract":"contracts/core/SmartWallet.sol:SmartWallet","label":"isReceive","offset":0,"slot":"7","type":"t_mapping(t_uint64,t_bool)"},{"astId":1741,"contract":"contracts/core/SmartWallet.sol:SmartWallet","label":"requestPosition","offset":0,"slot":"8","type":"t_mapping(t_uint64,t_uint256)"},{"astId":1745,"contract":"contracts/core/SmartWallet.sol:SmartWallet","label":"transferRequest","offset":0,"slot":"9","type":"t_array(t_struct(TransferToken)2958_storage)dyn_storage"}],"types":{"t_address":{"encoding":"inplace","label":"address","numberOfBytes":"20"},"t_array(t_struct(TransferToken)2958_storage)dyn_storage":{"base":"t_struct(TransferToken)2958_storage","encoding":"dynamic_array","label":"struct TransferToken[]","numberOfBytes":"32"},"t_bool":{"encoding":"inplace","label":"bool","numberOfBytes":"1"},"t_bytes32":{"encoding":"inplace","label":"bytes32","numberOfBytes":"32"},"t_contract(ISmartWalletFactory)1897":{"encoding":"inplace","label":"contract ISmartWalletFactory","numberOfBytes":"20"},"t_contract(ITokenBridge)2305":{"encoding":"inplace","label":"contract ITokenBridge","numberOfBytes":"20"},"t_contract(IWETH)2319":{"encoding":"inplace","label":"contract IWETH","numberOfBytes":"20"},"t_contract(IWormhole)2635":{"encoding":"inplace","label":"contract IWormhole","numberOfBytes":"20"},"t_mapping(t_uint64,t_bool)":{"encoding":"mapping","key":"t_uint64","label":"mapping(uint64 => bool)","numberOfBytes":"32","value":"t_bool"},"t_mapping(t_uint64,t_uint256)":{"encoding":"mapping","key":"t_uint64","label":"mapping(uint64 => uint256)","numberOfBytes":"32","value":"t_uint256"},"t_struct(TransferToken)2958_storage":{"encoding":"inplace","label":"struct TransferToken","members":[{"astId":2951,"contract":"contracts/core/SmartWallet.sol:SmartWallet","label":"recipient","offset":0,"slot":"0","type":"t_address"},{"astId":2953,"contract":"contracts/core/SmartWallet.sol:SmartWallet","label":"token","offset":0,"slot":"1","type":"t_address"},{"astId":2955,"contract":"contracts/core/SmartWallet.sol:SmartWallet","label":"amount","offset":0,"slot":"2","type":"t_uint256"},{"astId":2957,"contract":"contracts/core/SmartWallet.sol:SmartWallet","label":"sequence","offset":0,"slot":"3","type":"t_uint64"}],"numberOfBytes":"128"},"t_uint16":{"encoding":"inplace","label":"uint16","numberOfBytes":"2"},"t_uint256":{"encoding":"inplace","label":"uint256","numberOfBytes":"32"},"t_uint64":{"encoding":"inplace","label":"uint64","numberOfBytes":"8"}}},"userdoc":{"kind":"user","methods":{},"version":1}}}}