{"contracts/core/SmartWallet.sol":{"SmartLiquidity":{"abi":[{"inputs":[],"name":"InvalidInitialization","type":"error"},{"inputs":[],"name":"NotInitializing","type":"error"},{"inputs":[{"internalType":"address","name":"owner","type":"address"}],"name":"OwnableInvalidOwner","type":"error"},{"inputs":[{"internalType":"address","name":"account","type":"address"}],"name":"OwnableUnauthorizedAccount","type":"error"},{"inputs":[],"name":"ReentrancyGuardReentrantCall","type":"error"},{"anonymous":false,"inputs":[{"indexed":false,"internalType":"uint64","name":"version","type":"uint64"}],"name":"Initialized","type":"event"},{"anonymous":false,"inputs":[{"indexed":true,"internalType":"address","name":"previousOwner","type":"address"},{"indexed":true,"internalType":"address","name":"newOwner","type":"address"}],"name":"OwnershipTransferred","type":"event"},{"inputs":[],"name":"acceptAdminRole","outputs":[],"stateMutability":"nonpayable","type":"function"},{"inputs":[],"name":"agent","outputs":[{"internalType":"address","name":"","type":"address"}],"stateMutability":"view","type":"function"},{"inputs":[{"internalType":"address","name":"new_agent","type":"address"}],"name":"changeAgent","outputs":[],"stateMutability":"nonpayable","type":"function"},{"inputs":[],"name":"factory","outputs":[{"internalType":"contract ISmartWalletFactory","name":"","type":"address"}],"stateMutability":"view","type":"function"},{"inputs":[{"internalType":"address","name":"owner_","type":"address"},{"internalType":"address","name":"agent_","type":"address"},{"internalType":"address","name":"factory_","type":"address"},{"internalType":"bytes32","name":"user_","type":"bytes32"}],"name":"initialize","outputs":[],"stateMutability":"nonpayable","type":"function"},{"inputs":[],"name":"owner","outputs":[{"internalType":"address","name":"","type":"address"}],"stateMutability":"view","type":"function"},{"inputs":[],"name":"pendingAdmin","outputs":[{"internalType":"address","name":"","type":"address"}],"stateMutability":"view","type":"function"},{"inputs":[{"internalType":"address","name":"new_admin","type":"address"}],"name":"proposeNewAdmin","outputs":[],"stateMutability":"nonpayable","type":"function"},{"inputs":[],"name":"renounceOwnership","outputs":[],"stateMutability":"nonpayable","type":"function"},{"inputs":[{"internalType":"address","name":"newOwner","type":"address"}],"name":"transferOwnership","outputs":[],"stateMutability":"nonpayable","type":"function"},{"inputs":[],"name":"user","outputs":[{"internalType":"bytes32","name":"","type":"bytes32"}],"stateMutability":"view","type":"function"}],"devdoc":{"errors":{"InvalidInitialization()":[{"details":"The contract is already initialized."}],"NotInitializing()":[{"details":"The contract is not initializing."}],"OwnableInvalidOwner(address)":[{"details":"The owner is not a valid owner account. (eg. `address(0)`)"}],"OwnableUnauthorizedAccount(address)":[{"details":"The caller account is not authorized to perform an operation."}],"ReentrancyGuardReentrantCall()":[{"details":"Unauthorized reentrant call."}]},"events":{"Initialized(uint64)":{"details":"Triggered when the contract has been initialized or reinitialized."}},"kind":"dev","methods":{"owner()":{"details":"Returns the address of the current owner."},"renounceOwnership()":{"details":"Leaves the contract without owner. It will not be possible to call `onlyOwner` functions. Can only be called by the current owner. NOTE: Renouncing ownership will leave the contract without an owner, thereby disabling any functionality that is only available to the owner."},"transferOwnership(address)":{"details":"Transfers ownership of the contract to a new account (`newOwner`). Can only be called by the current owner."}},"version":1},"evm":{"bytecode":{"linkReferences":{},"object":"6080604052348015600f57600080fd5b5061068f8061001f6000396000f3fe608060405234801561001057600080fd5b50600436106100995760003560e01c8063267822471461009e5780634f8632ba146100c757806357f032e7146100de57806363acc14d146100f3578063715018a6146101065780638c3d73011461010e5780638da5cb5b14610116578063a63767461461011e578063c45a015514610131578063f2fde38b14610144578063f5ff5c7614610157575b600080fd5b6002546100b1906001600160a01b031681565b6040516100be91906105bc565b60405180910390f35b6100d060005481565b6040519081526020016100be565b6100f16100ec3660046105ec565b61016a565b005b6100f161010136600461060e565b610194565b6100f161035f565b6100f1610373565b6100b16103e6565b6100f161012c3660046105ec565b610401565b6003546100b1906001600160a01b031681565b6100f16101523660046105ec565b61042b565b6001546100b1906001600160a01b031681565b610172610469565b600180546001600160a01b0319166001600160a01b0392909216919091179055565b600061019e61049b565b805490915060ff600160401b82041615906001600160401b03166000811580156101c55750825b90506000826001600160401b031660011480156101e15750303b155b9050811580156101ef575080155b1561020d5760405163f92ee8a960e01b815260040160405180910390fd5b84546001600160401b0319166001178555831561023657845460ff60401b1916600160401b1785555b6001600160a01b0389166102825760405162461bcd60e51b815260206004820152600e60248201526d6f776e6572206973207a65726f2160901b60448201526064015b60405180910390fd5b6001600160a01b0388166102c85760405162461bcd60e51b815260206004820152600d60248201526c6167656e74206973207a65726f60981b6044820152606401610279565b6102d06104bf565b6102d9896104cf565b600180546001600160a01b03808b166001600160a01b031992831617909255600088905560038054928a1692909116919091179055831561035457845460ff60401b19168555604051600181527fc7f505b2f371ae2175ee4913f4499e1f2633a7b5936321eed1cdaeb6115181d29060200160405180910390a15b505050505050505050565b610367610469565b61037160006104cf565b565b6002546001600160a01b031633146103bf5760405162461bcd60e51b815260206004820152600f60248201526e4e6f7420417574686f72697a65642160881b6044820152606401610279565b6002546103d4906001600160a01b03166104cf565b600280546001600160a01b0319169055565b6000806103f161052b565b546001600160a01b031692915050565b610409610469565b600280546001600160a01b0319166001600160a01b0392909216919091179055565b610433610469565b6001600160a01b03811661045d576000604051631e4fbdf760e01b815260040161027991906105bc565b610466816104cf565b50565b336104726103e6565b6001600160a01b031614610371573360405163118cdaa760e01b815260040161027991906105bc565b7ff0c57e16840df040f15088dc2f81fe391c3923bec73e23a9662efc9c229c6a0090565b6104c761054f565b610371610574565b60006104d961052b565b80546001600160a01b038481166001600160a01b031983168117845560405193945091169182907f8be0079c531659141344cd1fd0a4f28419497f9722a3daafe3b4186f6b6457e090600090a3505050565b7f9016d09d72d40fdae2fd8ceac6b6234c7706214fd39c1cd1e609a0528c19930090565b6105576105a2565b61037157604051631afcd79f60e31b815260040160405180910390fd5b61057c61054f565b60017f9b779b17422d0df92223018b32b4d1fa46e071723d6817e2486d003becc55f0055565b60006105ac61049b565b54600160401b900460ff16919050565b6001600160a01b0391909116815260200190565b80356001600160a01b03811681146105e757600080fd5b919050565b6000602082840312156105fe57600080fd5b610607826105d0565b9392505050565b6000806000806080858703121561062457600080fd5b61062d856105d0565b935061063b602086016105d0565b9250610649604086016105d0565b939692955092936060013592505056fea2646970667358221220f917fb89fe18dc0a72ae397e4efc11c05a395ca6215a26e7691a01bcf414143064736f6c634300081c0033","opcodes":"PUSH1 0x80 PUSH1 0x40 MSTORE CALLVALUE DUP1 ISZERO PUSH1 0xF JUMPI PUSH1 0x0 DUP1 REVERT JUMPDEST POP PUSH2 0x68F DUP1 PUSH2 0x1F PUSH1 0x0 CODECOPY PUSH1 0x0 RETURN INVALID PUSH1 0x80 PUSH1 0x40 MSTORE CALLVALUE DUP1 ISZERO PUSH2 0x10 JUMPI PUSH1 0x0 DUP1 REVERT JUMPDEST POP PUSH1 0x4 CALLDATASIZE LT PUSH2 0x99 JUMPI PUSH1 0x0 CALLDATALOAD PUSH1 0xE0 SHR DUP1 PUSH4 0x26782247 EQ PUSH2 0x9E JUMPI DUP1 PUSH4 0x4F8632BA EQ PUSH2 0xC7 JUMPI DUP1 PUSH4 0x57F032E7 EQ PUSH2 0xDE JUMPI DUP1 PUSH4 0x63ACC14D EQ PUSH2 0xF3 JUMPI DUP1 PUSH4 0x715018A6 EQ PUSH2 0x106 JUMPI DUP1 PUSH4 0x8C3D7301 EQ PUSH2 0x10E JUMPI DUP1 PUSH4 0x8DA5CB5B EQ PUSH2 0x116 JUMPI DUP1 PUSH4 0xA6376746 EQ PUSH2 0x11E JUMPI DUP1 PUSH4 0xC45A0155 EQ PUSH2 0x131 JUMPI DUP1 PUSH4 0xF2FDE38B EQ PUSH2 0x144 JUMPI DUP1 PUSH4 0xF5FF5C76 EQ PUSH2 0x157 JUMPI JUMPDEST PUSH1 0x0 DUP1 REVERT JUMPDEST PUSH1 0x2 SLOAD PUSH2 0xB1 SWAP1 PUSH1 0x1 PUSH1 0x1 PUSH1 0xA0 SHL SUB AND DUP2 JUMP JUMPDEST PUSH1 0x40 MLOAD PUSH2 0xBE SWAP2 SWAP1 PUSH2 0x5BC JUMP JUMPDEST PUSH1 0x40 MLOAD DUP1 SWAP2 SUB SWAP1 RETURN JUMPDEST PUSH2 0xD0 PUSH1 0x0 SLOAD DUP2 JUMP JUMPDEST PUSH1 0x40 MLOAD SWAP1 DUP2 MSTORE PUSH1 0x20 ADD PUSH2 0xBE JUMP JUMPDEST PUSH2 0xF1 PUSH2 0xEC CALLDATASIZE PUSH1 0x4 PUSH2 0x5EC JUMP JUMPDEST PUSH2 0x16A JUMP JUMPDEST STOP JUMPDEST PUSH2 0xF1 PUSH2 0x101 CALLDATASIZE PUSH1 0x4 PUSH2 0x60E JUMP JUMPDEST PUSH2 0x194 JUMP JUMPDEST PUSH2 0xF1 PUSH2 0x35F JUMP JUMPDEST PUSH2 0xF1 PUSH2 0x373 JUMP JUMPDEST PUSH2 0xB1 PUSH2 0x3E6 JUMP JUMPDEST PUSH2 0xF1 PUSH2 0x12C CALLDATASIZE PUSH1 0x4 PUSH2 0x5EC JUMP JUMPDEST PUSH2 0x401 JUMP JUMPDEST PUSH1 0x3 SLOAD PUSH2 0xB1 SWAP1 PUSH1 0x1 PUSH1 0x1 PUSH1 0xA0 SHL SUB AND DUP2 JUMP JUMPDEST PUSH2 0xF1 PUSH2 0x152 CALLDATASIZE PUSH1 0x4 PUSH2 0x5EC JUMP JUMPDEST PUSH2 0x42B JUMP JUMPDEST PUSH1 0x1 SLOAD PUSH2 0xB1 SWAP1 PUSH1 0x1 PUSH1 0x1 PUSH1 0xA0 SHL SUB AND DUP2 JUMP JUMPDEST PUSH2 0x172 PUSH2 0x469 JUMP JUMPDEST PUSH1 0x1 DUP1 SLOAD PUSH1 0x1 PUSH1 0x1 PUSH1 0xA0 SHL SUB NOT AND PUSH1 0x1 PUSH1 0x1 PUSH1 0xA0 SHL SUB SWAP3 SWAP1 SWAP3 AND SWAP2 SWAP1 SWAP2 OR SWAP1 SSTORE JUMP JUMPDEST PUSH1 0x0 PUSH2 0x19E PUSH2 0x49B JUMP JUMPDEST DUP1 SLOAD SWAP1 SWAP2 POP PUSH1 0xFF PUSH1 0x1 PUSH1 0x40 SHL DUP3 DIV AND ISZERO SWAP1 PUSH1 0x1 PUSH1 0x1 PUSH1 0x40 SHL SUB AND PUSH1 0x0 DUP2 ISZERO DUP1 ISZERO PUSH2 0x1C5 JUMPI POP DUP3 JUMPDEST SWAP1 POP PUSH1 0x0 DUP3 PUSH1 0x1 PUSH1 0x1 PUSH1 0x40 SHL SUB AND PUSH1 0x1 EQ DUP1 ISZERO PUSH2 0x1E1 JUMPI POP ADDRESS EXTCODESIZE ISZERO JUMPDEST SWAP1 POP DUP2 ISZERO DUP1 ISZERO PUSH2 0x1EF JUMPI POP DUP1 ISZERO JUMPDEST ISZERO PUSH2 0x20D JUMPI PUSH1 0x40 MLOAD PUSH4 0xF92EE8A9 PUSH1 0xE0 SHL DUP2 MSTORE PUSH1 0x4 ADD PUSH1 0x40 MLOAD DUP1 SWAP2 SUB SWAP1 REVERT JUMPDEST DUP5 SLOAD PUSH1 0x1 PUSH1 0x1 PUSH1 0x40 SHL SUB NOT AND PUSH1 0x1 OR DUP6 SSTORE DUP4 ISZERO PUSH2 0x236 JUMPI DUP5 SLOAD PUSH1 0xFF PUSH1 0x40 SHL NOT AND PUSH1 0x1 PUSH1 0x40 SHL OR DUP6 SSTORE JUMPDEST PUSH1 0x1 PUSH1 0x1 PUSH1 0xA0 SHL SUB DUP10 AND PUSH2 0x282 JUMPI PUSH1 0x40 MLOAD PUSH3 0x461BCD PUSH1 0xE5 SHL DUP2 MSTORE PUSH1 0x20 PUSH1 0x4 DUP3 ADD MSTORE PUSH1 0xE PUSH1 0x24 DUP3 ADD MSTORE PUSH14 0x6F776E6572206973207A65726F21 PUSH1 0x90 SHL PUSH1 0x44 DUP3 ADD MSTORE PUSH1 0x64 ADD JUMPDEST PUSH1 0x40 MLOAD DUP1 SWAP2 SUB SWAP1 REVERT JUMPDEST PUSH1 0x1 PUSH1 0x1 PUSH1 0xA0 SHL SUB DUP9 AND PUSH2 0x2C8 JUMPI PUSH1 0x40 MLOAD PUSH3 0x461BCD PUSH1 0xE5 SHL DUP2 MSTORE PUSH1 0x20 PUSH1 0x4 DUP3 ADD MSTORE PUSH1 0xD PUSH1 0x24 DUP3 ADD MSTORE PUSH13 0x6167656E74206973207A65726F PUSH1 0x98 SHL PUSH1 0x44 DUP3 ADD MSTORE PUSH1 0x64 ADD PUSH2 0x279 JUMP JUMPDEST PUSH2 0x2D0 PUSH2 0x4BF JUMP JUMPDEST PUSH2 0x2D9 DUP10 PUSH2 0x4CF JUMP JUMPDEST PUSH1 0x1 DUP1 SLOAD PUSH1 0x1 PUSH1 0x1 PUSH1 0xA0 SHL SUB DUP1 DUP12 AND PUSH1 0x1 PUSH1 0x1 PUSH1 0xA0 SHL SUB NOT SWAP3 DUP4 AND OR SWAP1 SWAP3 SSTORE PUSH1 0x0 DUP9 SWAP1 SSTORE PUSH1 0x3 DUP1 SLOAD SWAP3 DUP11 AND SWAP3 SWAP1 SWAP2 AND SWAP2 SWAP1 SWAP2 OR SWAP1 SSTORE DUP4 ISZERO PUSH2 0x354 JUMPI DUP5 SLOAD PUSH1 0xFF PUSH1 0x40 SHL NOT AND DUP6 SSTORE PUSH1 0x40 MLOAD PUSH1 0x1 DUP2 MSTORE PUSH32 0xC7F505B2F371AE2175EE4913F4499E1F2633A7B5936321EED1CDAEB6115181D2 SWAP1 PUSH1 0x20 ADD PUSH1 0x40 MLOAD DUP1 SWAP2 SUB SWAP1 LOG1 JUMPDEST POP POP POP POP POP POP POP POP POP JUMP JUMPDEST PUSH2 0x367 PUSH2 0x469 JUMP JUMPDEST PUSH2 0x371 PUSH1 0x0 PUSH2 0x4CF JUMP JUMPDEST JUMP JUMPDEST PUSH1 0x2 SLOAD PUSH1 0x1 PUSH1 0x1 PUSH1 0xA0 SHL SUB AND CALLER EQ PUSH2 0x3BF JUMPI PUSH1 0x40 MLOAD PUSH3 0x461BCD PUSH1 0xE5 SHL DUP2 MSTORE PUSH1 0x20 PUSH1 0x4 DUP3 ADD MSTORE PUSH1 0xF PUSH1 0x24 DUP3 ADD MSTORE PUSH15 0x4E6F7420417574686F72697A656421 PUSH1 0x88 SHL PUSH1 0x44 DUP3 ADD MSTORE PUSH1 0x64 ADD PUSH2 0x279 JUMP JUMPDEST PUSH1 0x2 SLOAD PUSH2 0x3D4 SWAP1 PUSH1 0x1 PUSH1 0x1 PUSH1 0xA0 SHL SUB AND PUSH2 0x4CF JUMP JUMPDEST PUSH1 0x2 DUP1 SLOAD PUSH1 0x1 PUSH1 0x1 PUSH1 0xA0 SHL SUB NOT AND SWAP1 SSTORE JUMP JUMPDEST PUSH1 0x0 DUP1 PUSH2 0x3F1 PUSH2 0x52B JUMP JUMPDEST SLOAD PUSH1 0x1 PUSH1 0x1 PUSH1 0xA0 SHL SUB AND SWAP3 SWAP2 POP POP JUMP JUMPDEST PUSH2 0x409 PUSH2 0x469 JUMP JUMPDEST PUSH1 0x2 DUP1 SLOAD PUSH1 0x1 PUSH1 0x1 PUSH1 0xA0 SHL SUB NOT AND PUSH1 0x1 PUSH1 0x1 PUSH1 0xA0 SHL SUB SWAP3 SWAP1 SWAP3 AND SWAP2 SWAP1 SWAP2 OR SWAP1 SSTORE JUMP JUMPDEST PUSH2 0x433 PUSH2 0x469 JUMP JUMPDEST PUSH1 0x1 PUSH1 0x1 PUSH1 0xA0 SHL SUB DUP2 AND PUSH2 0x45D JUMPI PUSH1 0x0 PUSH1 0x40 MLOAD PUSH4 0x1E4FBDF7 PUSH1 0xE0 SHL DUP2 MSTORE PUSH1 0x4 ADD PUSH2 0x279 SWAP2 SWAP1 PUSH2 0x5BC JUMP JUMPDEST PUSH2 0x466 DUP2 PUSH2 0x4CF JUMP JUMPDEST POP JUMP JUMPDEST CALLER PUSH2 0x472 PUSH2 0x3E6 JUMP JUMPDEST PUSH1 0x1 PUSH1 0x1 PUSH1 0xA0 SHL SUB AND EQ PUSH2 0x371 JUMPI CALLER PUSH1 0x40 MLOAD PUSH4 0x118CDAA7 PUSH1 0xE0 SHL DUP2 MSTORE PUSH1 0x4 ADD PUSH2 0x279 SWAP2 SWAP1 PUSH2 0x5BC JUMP JUMPDEST PUSH32 0xF0C57E16840DF040F15088DC2F81FE391C3923BEC73E23A9662EFC9C229C6A00 SWAP1 JUMP JUMPDEST PUSH2 0x4C7 PUSH2 0x54F JUMP JUMPDEST PUSH2 0x371 PUSH2 0x574 JUMP JUMPDEST PUSH1 0x0 PUSH2 0x4D9 PUSH2 0x52B JUMP JUMPDEST DUP1 SLOAD PUSH1 0x1 PUSH1 0x1 PUSH1 0xA0 SHL SUB DUP5 DUP2 AND PUSH1 0x1 PUSH1 0x1 PUSH1 0xA0 SHL SUB NOT DUP4 AND DUP2 OR DUP5 SSTORE PUSH1 0x40 MLOAD SWAP4 SWAP5 POP SWAP2 AND SWAP2 DUP3 SWAP1 PUSH32 0x8BE0079C531659141344CD1FD0A4F28419497F9722A3DAAFE3B4186F6B6457E0 SWAP1 PUSH1 0x0 SWAP1 LOG3 POP POP POP JUMP JUMPDEST PUSH32 0x9016D09D72D40FDAE2FD8CEAC6B6234C7706214FD39C1CD1E609A0528C199300 SWAP1 JUMP JUMPDEST PUSH2 0x557 PUSH2 0x5A2 JUMP JUMPDEST PUSH2 0x371 JUMPI PUSH1 0x40 MLOAD PUSH4 0x1AFCD79F PUSH1 0xE3 SHL DUP2 MSTORE PUSH1 0x4 ADD PUSH1 0x40 MLOAD DUP1 SWAP2 SUB SWAP1 REVERT JUMPDEST PUSH2 0x57C PUSH2 0x54F JUMP JUMPDEST PUSH1 0x1 PUSH32 0x9B779B17422D0DF92223018B32B4D1FA46E071723D6817E2486D003BECC55F00 SSTORE JUMP JUMPDEST PUSH1 0x0 PUSH2 0x5AC PUSH2 0x49B JUMP JUMPDEST SLOAD PUSH1 0x1 PUSH1 0x40 SHL SWAP1 DIV PUSH1 0xFF AND SWAP2 SWAP1 POP JUMP JUMPDEST PUSH1 0x1 PUSH1 0x1 PUSH1 0xA0 SHL SUB SWAP2 SWAP1 SWAP2 AND DUP2 MSTORE PUSH1 0x20 ADD SWAP1 JUMP JUMPDEST DUP1 CALLDATALOAD PUSH1 0x1 PUSH1 0x1 PUSH1 0xA0 SHL SUB DUP2 AND DUP2 EQ PUSH2 0x5E7 JUMPI PUSH1 0x0 DUP1 REVERT JUMPDEST SWAP2 SWAP1 POP JUMP JUMPDEST PUSH1 0x0 PUSH1 0x20 DUP3 DUP5 SUB SLT ISZERO PUSH2 0x5FE JUMPI PUSH1 0x0 DUP1 REVERT JUMPDEST PUSH2 0x607 DUP3 PUSH2 0x5D0 JUMP JUMPDEST SWAP4 SWAP3 POP POP POP JUMP JUMPDEST PUSH1 0x0 DUP1 PUSH1 0x0 DUP1 PUSH1 0x80 DUP6 DUP8 SUB SLT ISZERO PUSH2 0x624 JUMPI PUSH1 0x0 DUP1 REVERT JUMPDEST PUSH2 0x62D DUP6 PUSH2 0x5D0 JUMP JUMPDEST SWAP4 POP PUSH2 0x63B PUSH1 0x20 DUP7 ADD PUSH2 0x5D0 JUMP JUMPDEST SWAP3 POP PUSH2 0x649 PUSH1 0x40 DUP7 ADD PUSH2 0x5D0 JUMP JUMPDEST SWAP4 SWAP7 SWAP3 SWAP6 POP SWAP3 SWAP4 PUSH1 0x60 ADD CALLDATALOAD SWAP3 POP POP JUMP INVALID LOG2 PUSH5 0x6970667358 0x22 SLT KECCAK256 0xF9 OR 0xFB DUP10 INVALID XOR 0xDC EXP PUSH19 0xAE397E4EFC11C05A395CA6215A26E7691A01BC DELEGATECALL EQ EQ ADDRESS PUSH5 0x736F6C6343 STOP ADDMOD SHR STOP CALLER "},"gasEstimates":{"creation":{"codeDepositCost":"335800","executionCost":"374","totalCost":"336174"},"external":{"acceptAdminRole()":"54590","agent()":"2559","changeAgent(address)":"26842","factory()":"2515","initialize(address,address,address,bytes32)":"infinite","owner()":"2520","pendingAdmin()":"2339","proposeNewAdmin(address)":"26952","renounceOwnership()":"infinite","transferOwnership(address)":"infinite","user()":"2295"}},"methodIdentifiers":{"acceptAdminRole()":"8c3d7301","agent()":"f5ff5c76","changeAgent(address)":"57f032e7","factory()":"c45a0155","initialize(address,address,address,bytes32)":"63acc14d","owner()":"8da5cb5b","pendingAdmin()":"26782247","proposeNewAdmin(address)":"a6376746","renounceOwnership()":"715018a6","transferOwnership(address)":"f2fde38b","user()":"4f8632ba"}},"storageLayout":{"storage":[{"astId":8141,"contract":"contracts/core/SmartWallet.sol:SmartLiquidity","label":"user","offset":0,"slot":"0","type":"t_bytes32"},{"astId":8143,"contract":"contracts/core/SmartWallet.sol:SmartLiquidity","label":"agent","offset":0,"slot":"1","type":"t_address"},{"astId":8145,"contract":"contracts/core/SmartWallet.sol:SmartLiquidity","label":"pendingAdmin","offset":0,"slot":"2","type":"t_address"},{"astId":8148,"contract":"contracts/core/SmartWallet.sol:SmartLiquidity","label":"factory","offset":0,"slot":"3","type":"t_contract(ISmartWalletFactory)8232"}],"types":{"t_address":{"encoding":"inplace","label":"address","numberOfBytes":"20"},"t_bytes32":{"encoding":"inplace","label":"bytes32","numberOfBytes":"32"},"t_contract(ISmartWalletFactory)8232":{"encoding":"inplace","label":"contract ISmartWalletFactory","numberOfBytes":"20"}}},"userdoc":{"kind":"user","methods":{},"version":1}}}}